Component: ARM Compiler 6.10.1 Tool: armlink [5d142800]

==============================================================================

Section Cross References

    startup_stm32f103xe.o(RESET) refers to startup_stm32f103xe.o(STACK) for __initial_sp
    startup_stm32f103xe.o(RESET) refers to startup_stm32f103xe.o(.text) for Reset_Handler
    startup_stm32f103xe.o(RESET) refers to stm32f1xx_it.o(.text.NMI_Handler) for NMI_Handler
    startup_stm32f103xe.o(RESET) refers to stm32f1xx_it.o(.text.HardFault_Handler) for HardFault_Handler
    startup_stm32f103xe.o(RESET) refers to stm32f1xx_it.o(.text.MemManage_Handler) for MemManage_Handler
    startup_stm32f103xe.o(RESET) refers to stm32f1xx_it.o(.text.BusFault_Handler) for BusFault_Handler
    startup_stm32f103xe.o(RESET) refers to stm32f1xx_it.o(.text.UsageFault_Handler) for UsageFault_Handler
    startup_stm32f103xe.o(RESET) refers to stm32f1xx_it.o(.text.SVC_Handler) for SVC_Handler
    startup_stm32f103xe.o(RESET) refers to stm32f1xx_it.o(.text.DebugMon_Handler) for DebugMon_Handler
    startup_stm32f103xe.o(RESET) refers to stm32f1xx_it.o(.text.PendSV_Handler) for PendSV_Handler
    startup_stm32f103xe.o(RESET) refers to stm32f1xx_it.o(.text.SysTick_Handler) for SysTick_Handler
    startup_stm32f103xe.o(RESET) refers to stm32f1xx_it.o(.text.DMA1_Channel7_IRQHandler) for DMA1_Channel7_IRQHandler
    startup_stm32f103xe.o(RESET) refers to stm32f1xx_it.o(.text.USB_LP_CAN1_RX0_IRQHandler) for USB_LP_CAN1_RX0_IRQHandler
    startup_stm32f103xe.o(RESET) refers to stm32f1xx_it.o(.text.EXTI15_10_IRQHandler) for EXTI15_10_IRQHandler
    startup_stm32f103xe.o(.text) refers to system_stm32f1xx.o(.text.SystemInit) for SystemInit
    startup_stm32f103xe.o(.text) refers to entry.o(.ARM.Collect$$$$00000000) for __main
    hc595.o(.ARM.exidx.text.HC595_SET_BYTE) refers to hc595.o(.text.HC595_SET_BYTE) for [Anonymous Symbol]
    hc595.o(.text.SEG7_Display) refers to hc595.o(.bss.SEG7_Display.i) for SEG7_Display.i
==============================================================================

Removing Unused input sections from the image.

    Removing startup_stm32f103xe.o(HEAP), (4096 bytes).
    Removing hc595.o(.text), (0 bytes).
    Removing hc595.o(.text.HC595_SET_BYTE), (46 bytes).
    Removing hc595.o(.ARM.exidx.text.HC595_SET_BYTE), (8 bytes).
    Removing hc595.o(.ARM.exidx.text.SEG7_Display), (8 bytes).
    Removing hc595.o(.rodata.Seg), (17 bytes).
    Removing hc595.o(.rodata.mask_list), (5 bytes).
    Removing 24l01.o(.text), (0 bytes).
    Removing 24l01.o(.text.SPI2_ReadWriteByte), (42 bytes).
    Removing 24l01.o(.ARM.exidx.text.SPI2_ReadWriteByte), (8 bytes).
    Removing 24l01.o(.ARM.exidx.text.NRF24L01_Init), (8 bytes).
    Removing 24l01.o(.ARM.exidx.text.NRF24L01_Write_Buf), (8 bytes).
    Removing 24l01.o(.ARM.exidx.text.NRF24L01_Read_Buf), (8 bytes).
    Removing 24l01.o(.ARM.exidx.text.NRF24L01_RX_Mode), (8 bytes).
    Removing 24l01.o(.ARM.exidx.text.NRF24L01_Write_Reg), (8 bytes).
    Removing 24l01.o(.text.NRF24L01_Read_Reg), (82 bytes).
    Removing 24l01.o(.ARM.exidx.text.NRF24L01_Read_Reg), (8 bytes).
    Removing 24l01.o(.text.NRF24L01_Read_STATUS), (60 bytes).
==============================================================================

Image Symbol Table

    Local Symbols

    Symbol Name                              Value     Ov Type        Size  Object(Section)

    ../clib/microlib/division.c              0x00000000   Number         0  uidiv.o ABSOLUTE
    ../clib/microlib/division.c              0x00000000   Number         0  uldiv.o ABSOLUTE
    ../clib/microlib/init/entry.s            0x00000000   Number         0  entry10b.o ABSOLUTE
    ../clib/microlib/init/entry.s            0x00000000   Number         0  entry5.o ABSOLUTE
    ../clib/microlib/init/entry.s            0x00000000   Number         0  entry11a.o ABSOLUTE
    ../clib/microlib/init/entry.s            0x00000000   Number         0  entry11b.o ABSOLUTE
    ../clib/microlib/init/entry.s            0x00000000   Number         0  entry7a.o ABSOLUTE
    ../clib/microlib/init/entry.s            0x00000000   Number         0  entry.o ABSOLUTE
    ../clib/microlib/init/entry.s            0x00000000   Number         0  entry9b.o ABSOLUTE
    ../clib/microlib/init/entry.s            0x00000000   Number         0  entry7b.o ABSOLUTE
    ../clib/microlib/init/entry.s            0x00000000   Number         0  entry8a.o ABSOLUTE
    ../clib/microlib/init/entry.s            0x00000000   Number         0  entry8b.o ABSOLUTE
    ../clib/microlib/init/entry.s            0x00000000   Number         0  entry9a.o ABSOLUTE
    ../clib/microlib/init/entry.s            0x00000000   Number         0  entry10a.o ABSOLUTE
    ../clib/microlib/init/entry.s            0x00000000   Number         0  entry2.o ABSOLUTE
    ../clib/microlib/longlong.c              0x00000000   Number         0  llsshr.o ABSOLUTE
    ../clib/microlib/longlong.c              0x00000000   Number         0  llushr.o ABSOLUTE
    ../clib/microlib/longlong.c              0x00000000   Number         0  llshl.o ABSOLUTE
    ../clib/microlib/printf/printf.c         0x00000000   Number         0  printfa.o ABSOLUTE
    ../clib/microlib/printf/printf.c         0x00000000   Number         0  printf8.o ABSOLUTE
    ../clib/microlib/printf/printf.c         0x00000000   Number         0  printf7.o ABSOLUTE
    ../clib/microlib/printf/printf.c         0x00000000   Number         0  printf5.o ABSOLUTE
    ../clib/microlib/printf/printf.c         0x00000000   Number         0  printf4.o ABSOLUTE
    ../clib/microlib/printf/printf.c         0x00000000   Number         0  printf3.o ABSOLUTE
    ../clib/microlib/printf/printf.c         0x00000000   Number         0  printf2.o ABSOLUTE
    ../clib/microlib/printf/printf.c         0x00000000   Number         0  printf0.o ABSOLUTE
    ../clib/microlib/printf/printf.c         0x00000000   Number         0  printfb.o ABSOLUTE
    ../clib/microlib/printf/printf.c         0x00000000   Number         0  printf1.o ABSOLUTE
    ../clib/microlib/printf/printf.c         0x00000000   Number         0  printf6.o ABSOLUTE
    ../clib/microlib/printf/stubs.s          0x00000000   Number         0  stubs.o ABSOLUTE
    ../clib/microlib/stdio/puts.c            0x00000000   Number         0  puts.o ABSOLUTE
    ../clib/microlib/stdio/puts.c            0x00000000   Number         0  puts_e.o ABSOLUTE
    ../clib/microlib/stdio/streams.c         0x00000000   Number         0  stdout.o ABSOLUTE
    ../clib/microlib/stubs.s                 0x00000000   Number         0  iusefp.o ABSOLUTE
    ../fplib/microlib/fpadd.c                0x00000000   Number         0  dadd.o ABSOLUTE
    ../fplib/microlib/fpdiv.c                0x00000000   Number         0  ddiv.o ABSOLUTE
    ../fplib/microlib/fpepilogue.c           0x00000000   Number         0  depilogue.o ABSOLUTE
    ../fplib/microlib/fpfix.c                0x00000000   Number         0  dfixul.o ABSOLUTE
    ../fplib/microlib/fpmul.c                0x00000000   Number         0  dmul.o ABSOLUTE
    24l01.c                                  0x00000000   Number         0  24l01.o ABSOLUTE
    HC595.c                                  0x00000000   Number         0  hc595.o ABSOLUTE
    KEY_map.c                                0x00000000   Number         0  key_map.o ABSOLUTE
    adc.c                                    0x00000000   Number         0  adc.o ABSOLUTE
    cdrcmple.s                               0x00000000   Number         0  cdrcmple.o ABSOLUTE
    dac.c                                    0x00000000   Number         0  dac.o ABSOLUTE
    dc.s                                     0x00000000   Number         0  dc.o ABSOLUTE
    dma.c                                    0x00000000   Number         0  dma.o ABSOLUTE
    gpio.c                                   0x00000000   Number         0  gpio.o ABSOLUTE
    handlers.s                               0x00000000   Number         0  handlers.o ABSOLUTE
    i2c.c                                    0x00000000   Number         0  i2c.o ABSOLUTE
    init.s                                   0x00000000   Number         0  init.o ABSOLUTE
    main.c                                   0x00000000   Number         0  main.o ABSOLUTE
    sdio.c                                   0x00000000   Number         0  sdio.o ABSOLUTE
    spi.c                                    0x00000000   Number         0  spi.o ABSOLUTE
    startup_stm32f103xe.s                    0x00000000   Number         0  startup_stm32f103xe.o ABSOLUTE
    stm32f1xx_hal.c                          0x00000000   Number         0  stm32f1xx_hal.o ABSOLUTE
    stm32f1xx_hal_adc.c                      0x00000000   Number         0  stm32f1xx_hal_adc.o ABSOLUTE
    stm32f1xx_hal_adc_ex.c                   0x00000000   Number         0  stm32f1xx_hal_adc_ex.o ABSOLUTE
    stm32f1xx_hal_cortex.c                   0x00000000   Number         0  stm32f1xx_hal_cortex.o ABSOLUTE
    stm32f1xx_hal_dac.c                      0x00000000   Number         0  stm32f1xx_hal_dac.o ABSOLUTE
    stm32f1xx_hal_dac_ex.c                   0x00000000   Number         0  stm32f1xx_hal_dac_ex.o ABSOLUTE
    stm32f1xx_hal_dma.c                      0x00000000   Number         0  stm32f1xx_hal_dma.o ABSOLUTE
    stm32f1xx_hal_flash.c                    0x00000000   Number         0  stm32f1xx_hal_flash.o ABSOLUTE
    stm32f1xx_hal_flash_ex.c                 0x00000000   Number         0  stm32f1xx_hal_flash_ex.o ABSOLUTE
    stm32f1xx_hal_gpio.c                     0x00000000   Number         0  stm32f1xx_hal_gpio.o ABSOLUTE
    stm32f1xx_hal_gpio_ex.c                  0x00000000   Number         0  stm32f1xx_hal_gpio_ex.o ABSOLUTE
    stm32f1xx_hal_i2c.c                      0x00000000   Number         0  stm32f1xx_hal_i2c.o ABSOLUTE
    stm32f1xx_hal_msp.c                      0x00000000   Number         0  stm32f1xx_hal_msp.o ABSOLUTE
    stm32f1xx_hal_pcd.c                      0x00000000   Number         0  stm32f1xx_hal_pcd.o ABSOLUTE
    stm32f1xx_hal_pcd_ex.c                   0x00000000   Number         0  stm32f1xx_hal_pcd_ex.o ABSOLUTE
    stm32f1xx_hal_pwr.c                      0x00000000   Number         0  stm32f1xx_hal_pwr.o ABSOLUTE
    stm32f1xx_hal_rcc.c                      0x00000000   Number         0  stm32f1xx_hal_rcc.o ABSOLUTE
    stm32f1xx_hal_rcc_ex.c                   0x00000000   Number         0  stm32f1xx_hal_rcc_ex.o ABSOLUTE
    stm32f1xx_hal_sd.c                       0x00000000   Number         0  stm32f1xx_hal_sd.o ABSOLUTE
    stm32f1xx_hal_spi.c                      0x00000000   Number         0  stm32f1xx_hal_spi.o ABSOLUTE
    stm32f1xx_hal_spi_ex.c                   0x00000000   Number         0  stm32f1xx_hal_spi_ex.o ABSOLUTE
    stm32f1xx_hal_tim.c                      0x00000000   Number         0  stm32f1xx_hal_tim.o ABSOLUTE
    stm32f1xx_hal_tim_ex.c                   0x00000000   Number         0  stm32f1xx_hal_tim_ex.o ABSOLUTE
    stm32f1xx_hal_uart.c                     0x00000000   Number         0  stm32f1xx_hal_uart.o ABSOLUTE
    stm32f1xx_it.c                           0x00000000   Number         0  stm32f1xx_it.o ABSOLUTE
    stm32f1xx_ll_sdmmc.c                     0x00000000   Number         0  stm32f1xx_ll_sdmmc.o ABSOLUTE
    stm32f1xx_ll_usb.c                       0x00000000   Number         0  stm32f1xx_ll_usb.o ABSOLUTE
    system_stm32f1xx.c                       0x00000000   Number         0  system_stm32f1xx.o ABSOLUTE
    usart.c                                  0x00000000   Number         0  usart.o ABSOLUTE
    usb_device.c                             0x00000000   Number         0  usb_device.o ABSOLUTE
    usbd_conf.c                              0x00000000   Number         0  usbd_conf.o ABSOLUTE
    usbd_core.c                              0x00000000   Number         0  usbd_core.o ABSOLUTE
    usbd_ctlreq.c                            0x00000000   Number         0  usbd_ctlreq.o ABSOLUTE
    usbd_desc.c                              0x00000000   Number         0  usbd_desc.o ABSOLUTE
    usbd_hid.c                               0x00000000   Number         0  usbd_hid.o ABSOLUTE
    usbd_ioreq.c                             0x00000000   Number         0  usbd_ioreq.o ABSOLUTE
    RESET                                    0x08000000   Section      304  startup_stm32f103xe.o(RESET)
    .ARM.Collect$$$$00000000                 0x08000130   Section        0  entry.o(.ARM.Collect$$$$00000000)
    .ARM.Collect$$$$00000001                 0x08000130   Section        4  entry2.o(.ARM.Collect$$$$00000001)
    .ARM.Collect$$$$00000004                 0x08000134   Section        4  entry5.o(.ARM.Collect$$$$00000004)
    .ARM.Collect$$$$00000008                 0x08000138   Section        0  entry7b.o(.ARM.Collect$$$$00000008)
    .ARM.Collect$$$$0000000A                 0x08000138   Section        0  entry8b.o(.ARM.Collect$$$$0000000A)
    .ARM.Collect$$$$0000000B                 0x08000138   Section        8  entry9a.o(.ARM.Collect$$$$0000000B)
    .ARM.Collect$$$$0000000D                 0x08000140   Section        0  entry10a.o(.ARM.Collect$$$$0000000D)
    .ARM.Collect$$$$0000000F                 0x08000140   Section        0  entry11a.o(.ARM.Collect$$$$0000000F)
    .ARM.Collect$$$$00002712                 0x08000140   Section        4  entry2.o(.ARM.Collect$$$$00002712)
    __lit__00000000                          0x08000140   Data           4  entry2.o(.ARM.Collect$$$$00002712)
    .text                                    0x08000144   Section       36  startup_stm32f103xe.o(.text)
    .text                                    0x08000168   Section        0  uldiv.o(.text)
    .text                                    0x080001cc   Section       36  init.o(.text)
    .text                                    0x080001f0   Section        0  llshl.o(.text)
    .text                                    0x0800020e   Section        0  llushr.o(.text)
    [Anonymous Symbol]                       0x0800022e   Section        0  stm32f1xx_it.o(.text.BusFault_Handler)
    [Anonymous Symbol]                       0x08000230   Section        0  stm32f1xx_it.o(.text.DMA1_Channel7_IRQHandler)
    [Anonymous Symbol]                       0x0800023c   Section        0  stm32f1xx_it.o(.text.DebugMon_Handler)
    [Anonymous Symbol]                       0x0800023e   Section        0  stm32f1xx_it.o(.text.EXTI15_10_IRQHandler)
    [Anonymous Symbol]                       0x08000254   Section        0  main.o(.text.Error_Handler)
    [Anonymous Symbol]                       0x08000256   Section        0  stm32f1xx_hal_dma.o(.text.HAL_DMA_IRQHandler)
    [Anonymous Symbol]                       0x080004b6   Section        0  main.o(.text.HAL_GPIO_EXTI_Callback)
    [Anonymous Symbol]                       0x080004c2   Section        0  stm32f1xx_hal_gpio.o(.text.HAL_GPIO_EXTI_IRQHandler)
    [Anonymous Symbol]                       0x080004d8   Section        0  stm32f1xx_hal_gpio.o(.text.HAL_GPIO_Init)
    [Anonymous Symbol]                       0x080006b8   Section        0  stm32f1xx_hal_gpio.o(.text.HAL_GPIO_WritePin)
    [Anonymous Symbol]                       0x080006c2   Section        0  stm32f1xx_hal.o(.text.HAL_GetTick)
    [Anonymous Symbol]                       0x080006ce   Section        0  stm32f1xx_hal.o(.text.HAL_IncTick)
    [Anonymous Symbol]                       0x080006e8   Section        0  stm32f1xx_hal.o(.text.HAL_Init)
    [Anonymous Symbol]                       0x0800070e   Section        0  stm32f1xx_hal.o(.text.HAL_InitTick)
    [Anonymous Symbol]                       0x0800075a   Section        0  stm32f1xx_hal_msp.o(.text.HAL_MspInit)
    [Anonymous Symbol]                       0x080007a4   Section        0  stm32f1xx_hal_cortex.o(.text.HAL_NVIC_EnableIRQ)
    [Anonymous Symbol]                       0x080007be   Section        0  stm32f1xx_hal_cortex.o(.text.HAL_NVIC_SetPriority)
    [Anonymous Symbol]                       0x08000822   Section        0  stm32f1xx_hal_cortex.o(.text.HAL_NVIC_SetPriorityGrouping)
    [Anonymous Symbol]                       0x08000842   Section        0  stm32f1xx_hal_pcd_ex.o(.text.HAL_PCDEx_PMAConfig)
    [Anonymous Symbol]                       0x08000876   Section        0  usbd_conf.o(.text.HAL_PCDEx_SetConnectionState)
    [Anonymous Symbol]                       0x08000878   Section        0  usbd_conf.o(.text.HAL_PCD_DataInStageCallback)
    [Anonymous Symbol]                       0x08000886   Section        0  usbd_conf.o(.text.HAL_PCD_DataOutStageCallback)
    [Anonymous Symbol]                       0x08000896   Section        0  stm32f1xx_hal_pcd.o(.text.HAL_PCD_EP_Close)
    [Anonymous Symbol]                       0x080008dc   Section        0  stm32f1xx_hal_pcd.o(.text.HAL_PCD_EP_ClrStall)
    [Anonymous Symbol]                       0x08000926   Section        0  stm32f1xx_hal_pcd.o(.text.HAL_PCD_EP_Open)
    [Anonymous Symbol]                       0x0800096e   Section        0  stm32f1xx_hal_pcd.o(.text.HAL_PCD_EP_Receive)
    [Anonymous Symbol]                       0x0800099a   Section        0  stm32f1xx_hal_pcd.o(.text.HAL_PCD_EP_SetStall)
    [Anonymous Symbol]                       0x080009f2   Section        0  stm32f1xx_hal_pcd.o(.text.HAL_PCD_EP_Transmit)
    [Anonymous Symbol]                       0x08000a1a   Section        0  stm32f1xx_hal_pcd.o(.text.HAL_PCD_IRQHandler)
    [Anonymous Symbol]                       0x08000f1e   Section        0  stm32f1xx_hal_pcd.o(.text.HAL_PCD_Init)
    [Anonymous Symbol]                       0x08000fe8   Section        0  usbd_conf.o(.text.HAL_PCD_MspInit)
    [Anonymous Symbol]                       0x0800102c   Section        0  usbd_conf.o(.text.HAL_PCD_ResetCallback)
    [Anonymous Symbol]                       0x08001050   Section        0  usbd_conf.o(.text.HAL_PCD_ResumeCallback)
    [Anonymous Symbol]                       0x08001058   Section        0  usbd_conf.o(.text.HAL_PCD_SOFCallback)
    [Anonymous Symbol]                       0x08001060   Section        0  stm32f1xx_hal_pcd.o(.text.HAL_PCD_SetAddress)
    [Anonymous Symbol]                       0x0800108a   Section        0  usbd_conf.o(.text.HAL_PCD_SetupStageCallback)
    [Anonymous Symbol]                       0x08001098   Section        0  stm32f1xx_hal_pcd.o(.text.HAL_PCD_Start)
    [Anonymous Symbol]                       0x080010cc   Section        0  usbd_conf.o(.text.HAL_PCD_SuspendCallback)
    [Anonymous Symbol]                       0x080010ee   Section        0  stm32f1xx_hal_rcc_ex.o(.text.HAL_RCCEx_PeriphCLKConfig)
    [Anonymous Symbol]                       0x080011fc   Section        0  stm32f1xx_hal_rcc.o(.text.HAL_RCC_CSSCallback)
    [Anonymous Symbol]                       0x080011fe   Section        0  stm32f1xx_hal_rcc.o(.text.HAL_RCC_ClockConfig)
    [Anonymous Symbol]                       0x08001382   Section        0  stm32f1xx_hal_rcc.o(.text.HAL_RCC_EnableCSS)
    [Anonymous Symbol]                       0x0800138e   Section        0  stm32f1xx_hal_rcc.o(.text.HAL_RCC_GetPCLK1Freq)
    [Anonymous Symbol]                       0x080013b4   Section        0  stm32f1xx_hal_rcc.o(.text.HAL_RCC_GetPCLK2Freq)
    [Anonymous Symbol]                       0x080013dc   Section        0  stm32f1xx_hal_rcc.o(.text.HAL_RCC_GetSysClockFreq)
    HAL_RCC_GetSysClockFreq.aPLLMULFactorTable 0x08001434   Number         0  stm32f1xx_hal_rcc.o(.text.HAL_RCC_GetSysClockFreq)
    HAL_RCC_GetSysClockFreq.aPredivFactorTable 0x08001444   Number         0  stm32f1xx_hal_rcc.o(.text.HAL_RCC_GetSysClockFreq)
    [Anonymous Symbol]                       0x08001448   Section        0  stm32f1xx_hal_rcc.o(.text.HAL_RCC_NMI_IRQHandler)
    [Anonymous Symbol]                       0x08001466   Section        0  stm32f1xx_hal_rcc.o(.text.HAL_RCC_OscConfig)
    [Anonymous Symbol]                       0x08001802   Section        0  stm32f1xx_hal_spi_ex.o(.text.HAL_SPI_Init)
    [Anonymous Symbol]                       0x08001880   Section        0  spi.o(.text.HAL_SPI_MspInit)
    [Anonymous Symbol]                       0x0800197a   Section        0  stm32f1xx_hal_spi.o(.text.HAL_SPI_TransmitReceive)
    [Anonymous Symbol]                       0x08001b5e   Section        0  stm32f1xx_hal_cortex.o(.text.HAL_SYSTICK_Config)
    [Anonymous Symbol]                       0x08001b8a   Section        0  stm32f1xx_hal_uart.o(.text.HAL_UART_Init)
    [Anonymous Symbol]                       0x08001be6   Section        0  usart.o(.text.HAL_UART_MspInit)
    [Anonymous Symbol]                       0x08001cce   Section        0  stm32f1xx_it.o(.text.HardFault_Handler)
    [Anonymous Symbol]                       0x08001cd0   Section        0  gpio.o(.text.MX_GPIO_Init)
    [Anonymous Symbol]                       0x08001ea2   Section        0  spi.o(.text.MX_SPI1_Init)
    [Anonymous Symbol]                       0x08001eee   Section        0  usart.o(.text.MX_USART1_UART_Init)
    [Anonymous Symbol]                       0x08001f2c   Section        0  usb_device.o(.text.MX_USB_DEVICE_Init)
    [Anonymous Symbol]                       0x08001f84   Section        0  stm32f1xx_it.o(.text.MemManage_Handler)
    [Anonymous Symbol]                       0x08001f86   Section        0  stm32f1xx_it.o(.text.NMI_Handler)
    [Anonymous Symbol]                       0x08001f8a   Section        0  24l01.o(.text.NRF24L01_Init)
    [Anonymous Symbol]                       0x08001ffa   Section        0  24l01.o(.text.NRF24L01_RX_Mode)
    [Anonymous Symbol]                       0x08002088   Section        0  24l01.o(.text.NRF24L01_Read_Buf)
    [Anonymous Symbol]                       0x0800210c   Section        0  24l01.o(.text.NRF24L01_Write_Buf)
    [Anonymous Symbol]                       0x08002194   Section        0  24l01.o(.text.NRF24L01_Write_Reg)
    [Anonymous Symbol]                       0x080021f4   Section        0  24l01.o(.text.NRF_IRQHandler)
    [Anonymous Symbol]                       0x080022d4   Section        0  stm32f1xx_it.o(.text.PendSV_Handler)
    [Anonymous Symbol]                       0x080022d6   Section        0  hc595.o(.text.SEG7_Display)
    [Anonymous Symbol]                       0x08002392   Section        0  stm32f1xx_hal_spi.o(.text.SPI_WaitFlagStateUntilTimeout)
    SPI_WaitFlagStateUntilTimeout            0x08002393   Thumb Code   170  stm32f1xx_hal_spi.o(.text.SPI_WaitFlagStateUntilTimeout)
    [Anonymous Symbol]                       0x0800243c   Section        0  stm32f1xx_it.o(.text.SVC_Handler)
    [Anonymous Symbol]                       0x08002440   Section        0  key_map.o(.text.Send_data)
    [Anonymous Symbol]                       0x080028f2   Section        0  stm32f1xx_it.o(.text.SysTick_Handler)
    [Anonymous Symbol]                       0x08002900   Section        0  main.o(.text.SystemClock_Config)
    [Anonymous Symbol]                       0x0800296c   Section        0  system_stm32f1xx.o(.text.SystemInit)
    [Anonymous Symbol]                       0x080029bc   Section        0  stm32f1xx_hal_uart.o(.text.UART_SetConfig)
    UART_SetConfig                           0x080029bd   Thumb Code   394  stm32f1xx_hal_uart.o(.text.UART_SetConfig)
    [Anonymous Symbol]                       0x08002b46   Section        0  usbd_core.o(.text.USBD_ClrClassConfig)
    [Anonymous Symbol]                       0x08002b54   Section        0  usbd_ioreq.o(.text.USBD_CtlContinueRx)
    [Anonymous Symbol]                       0x08002b64   Section        0  usbd_ioreq.o(.text.USBD_CtlContinueSendData)
    [Anonymous Symbol]                       0x08002b74   Section        0  usbd_ctlreq.o(.text.USBD_CtlError)
    [Anonymous Symbol]                       0x08002b8a   Section        0  usbd_ioreq.o(.text.USBD_CtlReceiveStatus)
    [Anonymous Symbol]                       0x08002ba0   Section        0  usbd_ioreq.o(.text.USBD_CtlSendData)
    [Anonymous Symbol]                       0x08002bba   Section        0  usbd_ioreq.o(.text.USBD_CtlSendStatus)
    [Anonymous Symbol]                       0x08002bd0   Section        0  usbd_desc.o(.text.USBD_FS_ConfigStrDescriptor)
    [Anonymous Symbol]                       0x08002bf4   Section        0  usbd_desc.o(.text.USBD_FS_DeviceDescriptor)
    [Anonymous Symbol]                       0x08002c04   Section        0  usbd_desc.o(.text.USBD_FS_InterfaceStrDescriptor)
    [Anonymous Symbol]                       0x08002c2c   Section        0  usbd_desc.o(.text.USBD_FS_LangIDStrDescriptor)
    [Anonymous Symbol]                       0x08002c3c   Section        0  usbd_desc.o(.text.USBD_FS_ManufacturerStrDescriptor)
    [Anonymous Symbol]                       0x08002c68   Section        0  usbd_desc.o(.text.USBD_FS_ProductStrDescriptor)
    [Anonymous Symbol]                       0x08002c98   Section        0  usbd_desc.o(.text.USBD_FS_SerialStrDescriptor)
    [Anonymous Symbol]                       0x08002d1a   Section        0  usbd_ctlreq.o(.text.USBD_GetString)
    [Anonymous Symbol]                       0x08002d7a   Section        0  usbd_hid.o(.text.USBD_HID_DataIn)
    USBD_HID_DataIn                          0x08002d7b   Thumb Code    12  usbd_hid.o(.text.USBD_HID_DataIn)
    [Anonymous Symbol]                       0x08002d86   Section        0  usbd_hid.o(.text.USBD_HID_DeInit)
    USBD_HID_DeInit                          0x08002d87   Thumb Code    30  usbd_hid.o(.text.USBD_HID_DeInit)
    [Anonymous Symbol]                       0x08002da4   Section        0  usbd_hid.o(.text.USBD_HID_GetCfgDesc)
    USBD_HID_GetCfgDesc                      0x08002da5   Thumb Code    14  usbd_hid.o(.text.USBD_HID_GetCfgDesc)
    [Anonymous Symbol]                       0x08002db2   Section        0  usbd_hid.o(.text.USBD_HID_GetDeviceQualifierDesc)
    USBD_HID_GetDeviceQualifierDesc          0x08002db3   Thumb Code    14  usbd_hid.o(.text.USBD_HID_GetDeviceQualifierDesc)
    [Anonymous Symbol]                       0x08002dc0   Section        0  usbd_hid.o(.text.USBD_HID_Init)
    USBD_HID_Init                            0x08002dc1   Thumb Code    38  usbd_hid.o(.text.USBD_HID_Init)
    [Anonymous Symbol]                       0x08002de6   Section        0  usbd_hid.o(.text.USBD_HID_SendReport)
    [Anonymous Symbol]                       0x08002e10   Section        0  usbd_hid.o(.text.USBD_HID_Setup)
    USBD_HID_Setup                           0x08002e11   Thumb Code   170  usbd_hid.o(.text.USBD_HID_Setup)
    [Anonymous Symbol]                       0x08002eba   Section        0  usbd_core.o(.text.USBD_Init)
    [Anonymous Symbol]                       0x08002eea   Section        0  usbd_conf.o(.text.USBD_LL_ClearStallEP)
    [Anonymous Symbol]                       0x08002f0e   Section        0  usbd_conf.o(.text.USBD_LL_CloseEP)
    [Anonymous Symbol]                       0x08002f32   Section        0  usbd_core.o(.text.USBD_LL_DataInStage)
    [Anonymous Symbol]                       0x08002fd4   Section        0  usbd_core.o(.text.USBD_LL_DataOutStage)
    [Anonymous Symbol]                       0x08003038   Section        0  usbd_conf.o(.text.USBD_LL_Init)
    [Anonymous Symbol]                       0x080030a4   Section        0  usbd_conf.o(.text.USBD_LL_IsStallEP)
    [Anonymous Symbol]                       0x080030c2   Section        0  usbd_conf.o(.text.USBD_LL_OpenEP)
    [Anonymous Symbol]                       0x080030ec   Section        0  usbd_conf.o(.text.USBD_LL_PrepareReceive)
    [Anonymous Symbol]                       0x08003110   Section        0  usbd_core.o(.text.USBD_LL_Reset)
    [Anonymous Symbol]                       0x0800314e   Section        0  usbd_core.o(.text.USBD_LL_Resume)
    [Anonymous Symbol]                       0x0800315a   Section        0  usbd_core.o(.text.USBD_LL_SOF)
    [Anonymous Symbol]                       0x08003176   Section        0  usbd_core.o(.text.USBD_LL_SetSpeed)
    [Anonymous Symbol]                       0x0800317c   Section        0  usbd_conf.o(.text.USBD_LL_SetUSBAddress)
    [Anonymous Symbol]                       0x080031a0   Section        0  usbd_core.o(.text.USBD_LL_SetupStage)
    [Anonymous Symbol]                       0x080031f6   Section        0  usbd_conf.o(.text.USBD_LL_StallEP)
    [Anonymous Symbol]                       0x0800321a   Section        0  usbd_conf.o(.text.USBD_LL_Start)
    [Anonymous Symbol]                       0x0800323e   Section        0  usbd_core.o(.text.USBD_LL_Suspend)
    [Anonymous Symbol]                       0x08003250   Section        0  usbd_conf.o(.text.USBD_LL_Transmit)
    [Anonymous Symbol]                       0x08003274   Section        0  usbd_ctlreq.o(.text.USBD_ParseSetupRequest)
    [Anonymous Symbol]                       0x0800328a   Section        0  usbd_core.o(.text.USBD_RegisterClass)
    [Anonymous Symbol]                       0x0800329a   Section        0  usbd_core.o(.text.USBD_SetClassConfig)
    [Anonymous Symbol]                       0x080032b2   Section        0  usbd_core.o(.text.USBD_Start)
    [Anonymous Symbol]                       0x080032bc   Section        0  usbd_ctlreq.o(.text.USBD_StdDevReq)
    [Anonymous Symbol]                       0x080034f8   Section        0  usbd_ctlreq.o(.text.USBD_StdEPReq)
    [Anonymous Symbol]                       0x080035d2   Section        0  usbd_ctlreq.o(.text.USBD_StdItfReq)
    [Anonymous Symbol]                       0x08003616   Section        0  usbd_conf.o(.text.USBD_static_free)
    [Anonymous Symbol]                       0x08003618   Section        0  usbd_conf.o(.text.USBD_static_malloc)
    [Anonymous Symbol]                       0x08003624   Section        0  stm32f1xx_ll_usb.o(.text.USB_ActivateEndpoint)
    [Anonymous Symbol]                       0x08003842   Section        0  stm32f1xx_ll_usb.o(.text.USB_CoreInit)
    [Anonymous Symbol]                       0x08003846   Section        0  stm32f1xx_ll_usb.o(.text.USB_DeactivateEndpoint)
    [Anonymous Symbol]                       0x08003938   Section        0  stm32f1xx_ll_usb.o(.text.USB_DevConnect)
    [Anonymous Symbol]                       0x0800393c   Section        0  stm32f1xx_ll_usb.o(.text.USB_DevDisconnect)
    [Anonymous Symbol]                       0x08003940   Section        0  stm32f1xx_ll_usb.o(.text.USB_DevInit)
    [Anonymous Symbol]                       0x08003964   Section        0  stm32f1xx_ll_usb.o(.text.USB_DisableGlobalInt)
    [Anonymous Symbol]                       0x08003976   Section        0  stm32f1xx_ll_usb.o(.text.USB_EP0_OutStart)
    [Anonymous Symbol]                       0x0800397a   Section        0  stm32f1xx_ll_usb.o(.text.USB_EPClearStall)
    [Anonymous Symbol]                       0x080039e4   Section        0  stm32f1xx_ll_usb.o(.text.USB_EPSetStall)
    [Anonymous Symbol]                       0x08003a28   Section        0  stm32f1xx_ll_usb.o(.text.USB_EPStartXfer)
    [Anonymous Symbol]                       0x08003ba6   Section        0  stm32f1xx_ll_usb.o(.text.USB_EnableGlobalInt)
    [Anonymous Symbol]                       0x08003bb6   Section        0  stm32f1xx_it.o(.text.USB_LP_CAN1_RX0_IRQHandler)
    [Anonymous Symbol]                       0x08003bc2   Section        0  stm32f1xx_ll_usb.o(.text.USB_ReadInterrupts)
    [Anonymous Symbol]                       0x08003bc8   Section        0  stm32f1xx_ll_usb.o(.text.USB_ReadPMA)
    [Anonymous Symbol]                       0x08003bf2   Section        0  stm32f1xx_ll_usb.o(.text.USB_SetCurrentMode)
    [Anonymous Symbol]                       0x08003bf6   Section        0  stm32f1xx_ll_usb.o(.text.USB_SetDevAddress)
    [Anonymous Symbol]                       0x08003c02   Section        0  stm32f1xx_ll_usb.o(.text.USB_WritePMA)
    [Anonymous Symbol]                       0x08003c2c   Section        0  stm32f1xx_it.o(.text.UsageFault_Handler)
    [Anonymous Symbol]                       0x08003c2e   Section        0  usart.o(.text.fputc)
    [Anonymous Symbol]                       0x08003c46   Section        0  main.o(.text.main)
    i.__0printf$8                            0x08003c74   Section        0  printf8.o(i.__0printf$8)
    i.__scatterload_copy                     0x08003c94   Section       14  handlers.o(i.__scatterload_copy)
    i.__scatterload_null                     0x08003ca2   Section        2  handlers.o(i.__scatterload_null)
    i.__scatterload_zeroinit                 0x08003ca4   Section       14  handlers.o(i.__scatterload_zeroinit)
    i._printf_core                           0x08003cb4   Section        0  printf8.o(i._printf_core)
    _printf_core                             0x08003cb5   Thumb Code   996  printf8.o(i._printf_core)
    i._printf_post_padding                   0x080040c4   Section        0  printf8.o(i._printf_post_padding)
    _printf_post_padding                     0x080040c5   Thumb Code    36  printf8.o(i._printf_post_padding)
    i._printf_pre_padding                    0x080040e8   Section        0  printf8.o(i._printf_pre_padding)
    _printf_pre_padding                      0x080040e9   Thumb Code    46  printf8.o(i._printf_pre_padding)
    i.puts                                   0x08004118   Section        0  puts.o(i.puts)
    .data                                    0x20000000   Section        4  stdout.o(.data)
    [Anonymous Symbol]                       0x20000028   Section        0  usbd_hid.o(.data.HID_MOUSE_ReportDesc)
    HID_MOUSE_ReportDesc                     0x20000028   Data          41  usbd_hid.o(.data.HID_MOUSE_ReportDesc)
    [Anonymous Symbol]                       0x200000ac   Section        0  usbd_hid.o(.data.USBD_HID_CfgDesc)
    USBD_HID_CfgDesc                         0x200000ac   Data          41  usbd_hid.o(.data.USBD_HID_CfgDesc)
    [Anonymous Symbol]                       0x200000d8   Section        0  usbd_hid.o(.data.USBD_HID_Desc)
    USBD_HID_Desc                            0x200000d8   Data           9  usbd_hid.o(.data.USBD_HID_Desc)
    [Anonymous Symbol]                       0x200000e4   Section        0  usbd_hid.o(.data.USBD_HID_DeviceQualifierDesc)
    USBD_HID_DeviceQualifierDesc             0x200000e4   Data          10  usbd_hid.o(.data.USBD_HID_DeviceQualifierDesc)
    [Anonymous Symbol]                       0x2000013c   Section        0  hc595.o(.bss.SEG7_Display.i)
    SEG7_Display.i                           0x2000013c   Data           1  hc595.o(.bss.SEG7_Display.i)
    [Anonymous Symbol]                       0x2000013d   Section        0  hc595.o(.bss.SEG7_Display.nums)
    SEG7_Display.nums                        0x2000013d   Data           1  hc595.o(.bss.SEG7_Display.nums)
    [Anonymous Symbol]                       0x20000160   Section        0  usbd_ctlreq.o(.bss.USBD_SetConfig.cfgidx)
    USBD_SetConfig.cfgidx                    0x20000160   Data           1  usbd_ctlreq.o(.bss.USBD_SetConfig.cfgidx)
    [Anonymous Symbol]                       0x20000364   Section        0  usbd_conf.o(.bss.USBD_static_malloc.mem)
    USBD_static_malloc.mem                   0x20000364   Data          20  usbd_conf.o(.bss.USBD_static_malloc.mem)
    STACK                                    0x20000ae0   Section     4096  startup_stm32f103xe.o(STACK)

    Global Symbols

    Symbol Name                              Value     Ov Type        Size  Object(Section)

    BuildAttributes$$THM_ISAv4$P$D$K$B$S$PE$A:L22UL41UL21$X:L11$S22US41US21$IEEE1$IW$~IW$USESV6$~STKCKD$USESV7$~SHL$OSPACE$ROPI$EBA8$MICROLIB$REQ8$PRES8$EABIv2 0x00000000   Number         0  anon$$obj.o ABSOLUTE
    _printf_a                                0x00000000   Number         0  stubs.o ABSOLUTE
    _printf_c                                0x00000000   Number         0  stubs.o ABSOLUTE
    _printf_charcount                        0x00000000   Number         0  stubs.o ABSOLUTE
    _printf_d                                0x00000000   Number         0  stubs.o ABSOLUTE
    _printf_e                                0x00000000   Number         0  stubs.o ABSOLUTE
    _printf_f                                0x00000000   Number         0  stubs.o ABSOLUTE
    _printf_flags                            0x00000000   Number         0  stubs.o ABSOLUTE
    _printf_fp_dec                           0x00000000   Number         0  stubs.o ABSOLUTE
    _printf_fp_hex                           0x00000000   Number         0  stubs.o ABSOLUTE
    _printf_g                                0x00000000   Number         0  stubs.o ABSOLUTE
    _printf_i                                0x00000000   Number         0  stubs.o ABSOLUTE
    _printf_int_dec                          0x00000000   Number         0  stubs.o ABSOLUTE
    _printf_l                                0x00000000   Number         0  stubs.o ABSOLUTE
    _printf_lc                               0x00000000   Number         0  stubs.o ABSOLUTE
    _printf_ll                               0x00000000   Number         0  stubs.o ABSOLUTE
    _printf_lld                              0x00000000   Number         0  stubs.o ABSOLUTE
    _printf_lli                              0x00000000   Number         0  stubs.o ABSOLUTE
    _printf_llo                              0x00000000   Number         0  stubs.o ABSOLUTE
    _printf_llu                              0x00000000   Number         0  stubs.o ABSOLUTE
    _printf_llx                              0x00000000   Number         0  stubs.o ABSOLUTE
    _printf_longlong_dec                     0x00000000   Number         0  stubs.o ABSOLUTE
    _printf_longlong_hex                     0x00000000   Number         0  stubs.o ABSOLUTE
    _printf_longlong_oct                     0x00000000   Number         0  stubs.o ABSOLUTE
    _printf_ls                               0x00000000   Number         0  stubs.o ABSOLUTE
    _printf_mbtowc                           0x00000000   Number         0  stubs.o ABSOLUTE
    _printf_n                                0x00000000   Number         0  stubs.o ABSOLUTE
    _printf_o                                0x00000000   Number         0  stubs.o ABSOLUTE
    _printf_p                                0x00000000   Number         0  stubs.o ABSOLUTE
    _printf_percent                          0x00000000   Number         0  stubs.o ABSOLUTE
    _printf_pre_padding                      0x00000000   Number         0  stubs.o ABSOLUTE
    _printf_return_value                     0x00000000   Number         0  stubs.o ABSOLUTE
    _printf_s                                0x00000000   Number         0  stubs.o ABSOLUTE
    _printf_sizespec                         0x00000000   Number         0  stubs.o ABSOLUTE
    _printf_str                              0x00000000   Number         0  stubs.o ABSOLUTE
    _printf_truncate_signed                  0x00000000   Number         0  stubs.o ABSOLUTE
    _printf_truncate_unsigned                0x00000000   Number         0  stubs.o ABSOLUTE
    _printf_u                                0x00000000   Number         0  stubs.o ABSOLUTE
    _printf_wc                               0x00000000   Number         0  stubs.o ABSOLUTE
    _printf_wctomb                           0x00000000   Number         0  stubs.o ABSOLUTE
    _printf_widthprec                        0x00000000   Number         0  stubs.o ABSOLUTE
    _printf_x                                0x00000000   Number         0  stubs.o ABSOLUTE
    __cpp_initialize__aeabi_                  - Undefined Weak Reference
    __cxa_finalize                            - Undefined Weak Reference
    __decompress                              - Undefined Weak Reference
    _clock_init                               - Undefined Weak Reference
    _microlib_exit                            - Undefined Weak Reference
    __Vectors_Size                           0x00000130   Number         0  startup_stm32f103xe.o ABSOLUTE
    __Vectors                                0x08000000   Data           4  startup_stm32f103xe.o(RESET)
    __Vectors_End                            0x08000130   Data           0  startup_stm32f103xe.o(RESET)
    __main                                   0x08000131   Thumb Code     0  entry.o(.ARM.Collect$$$$00000000)
    _main_stk                                0x08000131   Thumb Code     0  entry2.o(.ARM.Collect$$$$00000001)
    _main_scatterload                        0x08000135   Thumb Code     0  entry5.o(.ARM.Collect$$$$00000004)
    __main_after_scatterload                 0x08000139   Thumb Code     0  entry5.o(.ARM.Collect$$$$00000004)
    _main_clock                              0x08000139   Thumb Code     0  entry7b.o(.ARM.Collect$$$$00000008)
    _main_cpp_init                           0x08000139   Thumb Code     0  entry8b.o(.ARM.Collect$$$$0000000A)
    _main_init                               0x08000139   Thumb Code     0  entry9a.o(.ARM.Collect$$$$0000000B)
    __rt_final_cpp                           0x08000141   Thumb Code     0  entry10a.o(.ARM.Collect$$$$0000000D)
    __rt_final_exit                          0x08000141   Thumb Code     0  entry11a.o(.ARM.Collect$$$$0000000F)
    Reset_Handler                            0x08000145   Thumb Code     8  startup_stm32f103xe.o(.text)
    ADC1_2_IRQHandler                        0x0800015f   Thumb Code     0  startup_stm32f103xe.o(.text)
    ADC3_IRQHandler                          0x0800015f   Thumb Code     0  startup_stm32f103xe.o(.text)
    CAN1_RX1_IRQHandler                      0x0800015f   Thumb Code     0  startup_stm32f103xe.o(.text)
    CAN1_SCE_IRQHandler                      0x0800015f   Thumb Code     0  startup_stm32f103xe.o(.text)
    DMA1_Channel1_IRQHandler                 0x0800015f   Thumb Code     0  startup_stm32f103xe.o(.text)
    DMA1_Channel2_IRQHandler                 0x0800015f   Thumb Code     0  startup_stm32f103xe.o(.text)
    DMA1_Channel3_IRQHandler                 0x0800015f   Thumb Code     0  startup_stm32f103xe.o(.text)
    DMA1_Channel4_IRQHandler                 0x0800015f   Thumb Code     0  startup_stm32f103xe.o(.text)
    DMA1_Channel5_IRQHandler                 0x0800015f   Thumb Code     0  startup_stm32f103xe.o(.text)
    DMA1_Channel6_IRQHandler                 0x0800015f   Thumb Code     0  startup_stm32f103xe.o(.text)
    DMA2_Channel1_IRQHandler                 0x0800015f   Thumb Code     0  startup_stm32f103xe.o(.text)
    DMA2_Channel2_IRQHandler                 0x0800015f   Thumb Code     0  startup_stm32f103xe.o(.text)
    DMA2_Channel3_IRQHandler                 0x0800015f   Thumb Code     0  startup_stm32f103xe.o(.text)
    DMA2_Channel4_5_IRQHandler               0x0800015f   Thumb Code     0  startup_stm32f103xe.o(.text)
    EXTI0_IRQHandler                         0x0800015f   Thumb Code     0  startup_stm32f103xe.o(.text)
    EXTI1_IRQHandler                         0x0800015f   Thumb Code     0  startup_stm32f103xe.o(.text)
    EXTI2_IRQHandler                         0x0800015f   Thumb Code     0  startup_stm32f103xe.o(.text)
    EXTI3_IRQHandler                         0x0800015f   Thumb Code     0  startup_stm32f103xe.o(.text)
    EXTI4_IRQHandler                         0x0800015f   Thumb Code     0  startup_stm32f103xe.o(.text)
    EXTI9_5_IRQHandler                       0x0800015f   Thumb Code     0  startup_stm32f103xe.o(.text)
    FLASH_IRQHandler                         0x0800015f   Thumb Code     0  startup_stm32f103xe.o(.text)
    FSMC_IRQHandler                          0x0800015f   Thumb Code     0  startup_stm32f103xe.o(.text)
    I2C1_ER_IRQHandler                       0x0800015f   Thumb Code     0  startup_stm32f103xe.o(.text)
    I2C1_EV_IRQHandler                       0x0800015f   Thumb Code     0  startup_stm32f103xe.o(.text)
    I2C2_ER_IRQHandler                       0x0800015f   Thumb Code     0  startup_stm32f103xe.o(.text)
    I2C2_EV_IRQHandler                       0x0800015f   Thumb Code     0  startup_stm32f103xe.o(.text)
    PVD_IRQHandler                           0x0800015f   Thumb Code     0  startup_stm32f103xe.o(.text)
    RCC_IRQHandler                           0x0800015f   Thumb Code     0  startup_stm32f103xe.o(.text)
    RTC_Alarm_IRQHandler                     0x0800015f   Thumb Code     0  startup_stm32f103xe.o(.text)
    RTC_IRQHandler                           0x0800015f   Thumb Code     0  startup_stm32f103xe.o(.text)
    SDIO_IRQHandler                          0x0800015f   Thumb Code     0  startup_stm32f103xe.o(.text)
    SPI1_IRQHandler                          0x0800015f   Thumb Code     0  startup_stm32f103xe.o(.text)
    SPI2_IRQHandler                          0x0800015f   Thumb Code     0  startup_stm32f103xe.o(.text)
    SPI3_IRQHandler                          0x0800015f   Thumb Code     0  startup_stm32f103xe.o(.text)
    TAMPER_IRQHandler                        0x0800015f   Thumb Code     0  startup_stm32f103xe.o(.text)
    TIM1_BRK_IRQHandler                      0x0800015f   Thumb Code     0  startup_stm32f103xe.o(.text)
    TIM1_CC_IRQHandler                       0x0800015f   Thumb Code     0  startup_stm32f103xe.o(.text)
    TIM1_TRG_COM_IRQHandler                  0x0800015f   Thumb Code     0  startup_stm32f103xe.o(.text)
    TIM1_UP_IRQHandler                       0x0800015f   Thumb Code     0  startup_stm32f103xe.o(.text)
    TIM2_IRQHandler                          0x0800015f   Thumb Code     0  startup_stm32f103xe.o(.text)
    TIM3_IRQHandler                          0x0800015f   Thumb Code     0  startup_stm32f103xe.o(.text)
    TIM4_IRQHandler                          0x0800015f   Thumb Code     0  startup_stm32f103xe.o(.text)
    TIM5_IRQHandler                          0x0800015f   Thumb Code     0  startup_stm32f103xe.o(.text)
    TIM6_IRQHandler                          0x0800015f   Thumb Code     0  startup_stm32f103xe.o(.text)
    TIM7_IRQHandler                          0x0800015f   Thumb Code     0  startup_stm32f103xe.o(.text)
    TIM8_BRK_IRQHandler                      0x0800015f   Thumb Code     0  startup_stm32f103xe.o(.text)
    TIM8_CC_IRQHandler                       0x0800015f   Thumb Code     0  startup_stm32f103xe.o(.text)
    TIM8_TRG_COM_IRQHandler                  0x0800015f   Thumb Code     0  startup_stm32f103xe.o(.text)
    TIM8_UP_IRQHandler                       0x0800015f   Thumb Code     0  startup_stm32f103xe.o(.text)
    UART4_IRQHandler                         0x0800015f   Thumb Code     0  startup_stm32f103xe.o(.text)
    UART5_IRQHandler                         0x0800015f   Thumb Code     0  startup_stm32f103xe.o(.text)
    USART1_IRQHandler                        0x0800015f   Thumb Code     0  startup_stm32f103xe.o(.text)
    USART2_IRQHandler                        0x0800015f   Thumb Code     0  startup_stm32f103xe.o(.text)
    USART3_IRQHandler                        0x0800015f   Thumb Code     0  startup_stm32f103xe.o(.text)
    USBWakeUp_IRQHandler                     0x0800015f   Thumb Code     0  startup_stm32f103xe.o(.text)
    USB_HP_CAN1_TX_IRQHandler                0x0800015f   Thumb Code     0  startup_stm32f103xe.o(.text)
    WWDG_IRQHandler                          0x0800015f   Thumb Code     0  startup_stm32f103xe.o(.text)
    __aeabi_uldivmod                         0x08000169   Thumb Code    98  uldiv.o(.text)
    __scatterload                            0x080001cd   Thumb Code    28  init.o(.text)
    __scatterload_rt2                        0x080001cd   Thumb Code     0  init.o(.text)
    __aeabi_llsl                             0x080001f1   Thumb Code    30  llshl.o(.text)
    _ll_shift_l                              0x080001f1   Thumb Code     0  llshl.o(.text)
    __aeabi_llsr                             0x0800020f   Thumb Code    32  llushr.o(.text)
    _ll_ushift_r                             0x0800020f   Thumb Code     0  llushr.o(.text)
    BusFault_Handler                         0x0800022f   Thumb Code     2  stm32f1xx_it.o(.text.BusFault_Handler)
    DMA1_Channel7_IRQHandler                 0x08000231   Thumb Code    12  stm32f1xx_it.o(.text.DMA1_Channel7_IRQHandler)
    DebugMon_Handler                         0x0800023d   Thumb Code     2  stm32f1xx_it.o(.text.DebugMon_Handler)
    EXTI15_10_IRQHandler                     0x0800023f   Thumb Code    22  stm32f1xx_it.o(.text.EXTI15_10_IRQHandler)
    Error_Handler                            0x08000255   Thumb Code     2  main.o(.text.Error_Handler)
    HAL_DMA_IRQHandler                       0x08000257   Thumb Code   608  stm32f1xx_hal_dma.o(.text.HAL_DMA_IRQHandler)
    HAL_GPIO_EXTI_Callback                   0x080004b7   Thumb Code    12  main.o(.text.HAL_GPIO_EXTI_Callback)
    HAL_GPIO_EXTI_IRQHandler                 0x080004c3   Thumb Code    22  stm32f1xx_hal_gpio.o(.text.HAL_GPIO_EXTI_IRQHandler)
    HAL_GPIO_Init                            0x080004d9   Thumb Code   480  stm32f1xx_hal_gpio.o(.text.HAL_GPIO_Init)
    HAL_GPIO_WritePin                        0x080006b9   Thumb Code    10  stm32f1xx_hal_gpio.o(.text.HAL_GPIO_WritePin)
    HAL_GetTick                              0x080006c3   Thumb Code    12  stm32f1xx_hal.o(.text.HAL_GetTick)
    HAL_IncTick                              0x080006cf   Thumb Code    26  stm32f1xx_hal.o(.text.HAL_IncTick)
    HAL_Init                                 0x080006e9   Thumb Code    38  stm32f1xx_hal.o(.text.HAL_Init)
    HAL_InitTick                             0x0800070f   Thumb Code    76  stm32f1xx_hal.o(.text.HAL_InitTick)
    HAL_MspInit                              0x0800075b   Thumb Code    74  stm32f1xx_hal_msp.o(.text.HAL_MspInit)
    HAL_NVIC_EnableIRQ                       0x080007a5   Thumb Code    26  stm32f1xx_hal_cortex.o(.text.HAL_NVIC_EnableIRQ)
    HAL_NVIC_SetPriority                     0x080007bf   Thumb Code   100  stm32f1xx_hal_cortex.o(.text.HAL_NVIC_SetPriority)
    HAL_NVIC_SetPriorityGrouping             0x08000823   Thumb Code    32  stm32f1xx_hal_cortex.o(.text.HAL_NVIC_SetPriorityGrouping)
    HAL_PCDEx_PMAConfig                      0x08000843   Thumb Code    52  stm32f1xx_hal_pcd_ex.o(.text.HAL_PCDEx_PMAConfig)
    HAL_PCDEx_SetConnectionState             0x08000877   Thumb Code     2  usbd_conf.o(.text.HAL_PCDEx_SetConnectionState)
    HAL_PCD_DataInStageCallback              0x08000879   Thumb Code    14  usbd_conf.o(.text.HAL_PCD_DataInStageCallback)
    HAL_PCD_DataOutStageCallback             0x08000887   Thumb Code    16  usbd_conf.o(.text.HAL_PCD_DataOutStageCallback)
    HAL_PCD_EP_Close                         0x08000897   Thumb Code    70  stm32f1xx_hal_pcd.o(.text.HAL_PCD_EP_Close)
    HAL_PCD_EP_ClrStall                      0x080008dd   Thumb Code    74  stm32f1xx_hal_pcd.o(.text.HAL_PCD_EP_ClrStall)
    HAL_PCD_EP_Open                          0x08000927   Thumb Code    72  stm32f1xx_hal_pcd.o(.text.HAL_PCD_EP_Open)
    HAL_PCD_EP_Receive                       0x0800096f   Thumb Code    44  stm32f1xx_hal_pcd.o(.text.HAL_PCD_EP_Receive)
    HAL_PCD_EP_SetStall                      0x0800099b   Thumb Code    88  stm32f1xx_hal_pcd.o(.text.HAL_PCD_EP_SetStall)
    HAL_PCD_EP_Transmit                      0x080009f3   Thumb Code    40  stm32f1xx_hal_pcd.o(.text.HAL_PCD_EP_Transmit)
    HAL_PCD_IRQHandler                       0x08000a1b   Thumb Code  1284  stm32f1xx_hal_pcd.o(.text.HAL_PCD_IRQHandler)
    HAL_PCD_Init                             0x08000f1f   Thumb Code   202  stm32f1xx_hal_pcd.o(.text.HAL_PCD_Init)
    HAL_PCD_MspInit                          0x08000fe9   Thumb Code    68  usbd_conf.o(.text.HAL_PCD_MspInit)
    HAL_PCD_ResetCallback                    0x0800102d   Thumb Code    36  usbd_conf.o(.text.HAL_PCD_ResetCallback)
    HAL_PCD_ResumeCallback                   0x08001051   Thumb Code     8  usbd_conf.o(.text.HAL_PCD_ResumeCallback)
    HAL_PCD_SOFCallback                      0x08001059   Thumb Code     8  usbd_conf.o(.text.HAL_PCD_SOFCallback)
    HAL_PCD_SetAddress                       0x08001061   Thumb Code    42  stm32f1xx_hal_pcd.o(.text.HAL_PCD_SetAddress)
    HAL_PCD_SetupStageCallback               0x0800108b   Thumb Code    14  usbd_conf.o(.text.HAL_PCD_SetupStageCallback)
    HAL_PCD_Start                            0x08001099   Thumb Code    52  stm32f1xx_hal_pcd.o(.text.HAL_PCD_Start)
    HAL_PCD_SuspendCallback                  0x080010cd   Thumb Code    34  usbd_conf.o(.text.HAL_PCD_SuspendCallback)
    HAL_RCCEx_PeriphCLKConfig                0x080010ef   Thumb Code   270  stm32f1xx_hal_rcc_ex.o(.text.HAL_RCCEx_PeriphCLKConfig)
    HAL_RCC_CSSCallback                      0x080011fd   Thumb Code     2  stm32f1xx_hal_rcc.o(.text.HAL_RCC_CSSCallback)
    HAL_RCC_ClockConfig                      0x080011ff   Thumb Code   388  stm32f1xx_hal_rcc.o(.text.HAL_RCC_ClockConfig)
    HAL_RCC_EnableCSS                        0x08001383   Thumb Code    12  stm32f1xx_hal_rcc.o(.text.HAL_RCC_EnableCSS)
    HAL_RCC_GetPCLK1Freq                     0x0800138f   Thumb Code    38  stm32f1xx_hal_rcc.o(.text.HAL_RCC_GetPCLK1Freq)
    HAL_RCC_GetPCLK2Freq                     0x080013b5   Thumb Code    38  stm32f1xx_hal_rcc.o(.text.HAL_RCC_GetPCLK2Freq)
    HAL_RCC_GetSysClockFreq                  0x080013dd   Thumb Code   108  stm32f1xx_hal_rcc.o(.text.HAL_RCC_GetSysClockFreq)
    HAL_RCC_NMI_IRQHandler                   0x08001449   Thumb Code    30  stm32f1xx_hal_rcc.o(.text.HAL_RCC_NMI_IRQHandler)
    HAL_RCC_OscConfig                        0x08001467   Thumb Code   924  stm32f1xx_hal_rcc.o(.text.HAL_RCC_OscConfig)
    HAL_SPI_Init                             0x08001803   Thumb Code   126  stm32f1xx_hal_spi_ex.o(.text.HAL_SPI_Init)
    HAL_SPI_MspInit                          0x08001881   Thumb Code   250  spi.o(.text.HAL_SPI_MspInit)
    HAL_SPI_TransmitReceive                  0x0800197b   Thumb Code   484  stm32f1xx_hal_spi.o(.text.HAL_SPI_TransmitReceive)
    HAL_SYSTICK_Config                       0x08001b5f   Thumb Code    44  stm32f1xx_hal_cortex.o(.text.HAL_SYSTICK_Config)
    HAL_UART_Init                            0x08001b8b   Thumb Code    92  stm32f1xx_hal_uart.o(.text.HAL_UART_Init)
    HAL_UART_MspInit                         0x08001be7   Thumb Code   232  usart.o(.text.HAL_UART_MspInit)
    HardFault_Handler                        0x08001ccf   Thumb Code     2  stm32f1xx_it.o(.text.HardFault_Handler)
    MX_GPIO_Init                             0x08001cd1   Thumb Code   466  gpio.o(.text.MX_GPIO_Init)
    MX_SPI1_Init                             0x08001ea3   Thumb Code    76  spi.o(.text.MX_SPI1_Init)
    MX_USART1_UART_Init                      0x08001eef   Thumb Code    62  usart.o(.text.MX_USART1_UART_Init)
    MX_USB_DEVICE_Init                       0x08001f2d   Thumb Code    88  usb_device.o(.text.MX_USB_DEVICE_Init)
    MemManage_Handler                        0x08001f85   Thumb Code     2  stm32f1xx_it.o(.text.MemManage_Handler)
    NMI_Handler                              0x08001f87   Thumb Code     4  stm32f1xx_it.o(.text.NMI_Handler)
    NRF24L01_Init                            0x08001f8b   Thumb Code   112  24l01.o(.text.NRF24L01_Init)
    NRF24L01_RX_Mode                         0x08001ffb   Thumb Code   142  24l01.o(.text.NRF24L01_RX_Mode)
    NRF24L01_Read_Buf                        0x08002089   Thumb Code   132  24l01.o(.text.NRF24L01_Read_Buf)
    NRF24L01_Write_Buf                       0x0800210d   Thumb Code   136  24l01.o(.text.NRF24L01_Write_Buf)
    NRF24L01_Write_Reg                       0x08002195   Thumb Code    94  24l01.o(.text.NRF24L01_Write_Reg)
    NRF_IRQHandler                           0x080021f5   Thumb Code   224  24l01.o(.text.NRF_IRQHandler)
    PendSV_Handler                           0x080022d5   Thumb Code     2  stm32f1xx_it.o(.text.PendSV_Handler)
    SEG7_Display                             0x080022d7   Thumb Code   188  hc595.o(.text.SEG7_Display)
    SVC_Handler                              0x0800243d   Thumb Code     2  stm32f1xx_it.o(.text.SVC_Handler)
    Send_data                                0x08002441   Thumb Code  1202  key_map.o(.text.Send_data)
    SysTick_Handler                          0x080028f3   Thumb Code    14  stm32f1xx_it.o(.text.SysTick_Handler)
    SystemClock_Config                       0x08002901   Thumb Code   108  main.o(.text.SystemClock_Config)
    SystemInit                               0x0800296d   Thumb Code    80  system_stm32f1xx.o(.text.SystemInit)
    USBD_ClrClassConfig                      0x08002b47   Thumb Code    14  usbd_core.o(.text.USBD_ClrClassConfig)
    USBD_CtlContinueRx                       0x08002b55   Thumb Code    16  usbd_ioreq.o(.text.USBD_CtlContinueRx)
    USBD_CtlContinueSendData                 0x08002b65   Thumb Code    16  usbd_ioreq.o(.text.USBD_CtlContinueSendData)
    USBD_CtlError                            0x08002b75   Thumb Code    22  usbd_ctlreq.o(.text.USBD_CtlError)
    USBD_CtlReceiveStatus                    0x08002b8b   Thumb Code    22  usbd_ioreq.o(.text.USBD_CtlReceiveStatus)
    USBD_CtlSendData                         0x08002ba1   Thumb Code    26  usbd_ioreq.o(.text.USBD_CtlSendData)
    USBD_CtlSendStatus                       0x08002bbb   Thumb Code    22  usbd_ioreq.o(.text.USBD_CtlSendStatus)
    USBD_FS_ConfigStrDescriptor              0x08002bd1   Thumb Code    36  usbd_desc.o(.text.USBD_FS_ConfigStrDescriptor)
    USBD_FS_DeviceDescriptor                 0x08002bf5   Thumb Code    14  usbd_desc.o(.text.USBD_FS_DeviceDescriptor)
    USBD_FS_InterfaceStrDescriptor           0x08002c05   Thumb Code    40  usbd_desc.o(.text.USBD_FS_InterfaceStrDescriptor)
    USBD_FS_LangIDStrDescriptor              0x08002c2d   Thumb Code    14  usbd_desc.o(.text.USBD_FS_LangIDStrDescriptor)
    USBD_FS_ManufacturerStrDescriptor        0x08002c3d   Thumb Code    44  usbd_desc.o(.text.USBD_FS_ManufacturerStrDescriptor)
    USBD_FS_ProductStrDescriptor             0x08002c69   Thumb Code    48  usbd_desc.o(.text.USBD_FS_ProductStrDescriptor)
    USBD_FS_SerialStrDescriptor              0x08002c99   Thumb Code   130  usbd_desc.o(.text.USBD_FS_SerialStrDescriptor)
    USBD_GetString                           0x08002d1b   Thumb Code    96  usbd_ctlreq.o(.text.USBD_GetString)
    USBD_HID_SendReport                      0x08002de7   Thumb Code    42  usbd_hid.o(.text.USBD_HID_SendReport)
    USBD_Init                                0x08002ebb   Thumb Code    48  usbd_core.o(.text.USBD_Init)
    USBD_LL_ClearStallEP                     0x08002eeb   Thumb Code    36  usbd_conf.o(.text.USBD_LL_ClearStallEP)
    USBD_LL_CloseEP                          0x08002f0f   Thumb Code    36  usbd_conf.o(.text.USBD_LL_CloseEP)
    USBD_LL_DataInStage                      0x08002f33   Thumb Code   162  usbd_core.o(.text.USBD_LL_DataInStage)
    USBD_LL_DataOutStage                     0x08002fd5   Thumb Code   100  usbd_core.o(.text.USBD_LL_DataOutStage)
    USBD_LL_Init                             0x08003039   Thumb Code   108  usbd_conf.o(.text.USBD_LL_Init)
    USBD_LL_IsStallEP                        0x080030a5   Thumb Code    30  usbd_conf.o(.text.USBD_LL_IsStallEP)
    USBD_LL_OpenEP                           0x080030c3   Thumb Code    42  usbd_conf.o(.text.USBD_LL_OpenEP)
    USBD_LL_PrepareReceive                   0x080030ed   Thumb Code    36  usbd_conf.o(.text.USBD_LL_PrepareReceive)
    USBD_LL_Reset                            0x08003111   Thumb Code    62  usbd_core.o(.text.USBD_LL_Reset)
    USBD_LL_Resume                           0x0800314f   Thumb Code    12  usbd_core.o(.text.USBD_LL_Resume)
    USBD_LL_SOF                              0x0800315b   Thumb Code    28  usbd_core.o(.text.USBD_LL_SOF)
    USBD_LL_SetSpeed                         0x08003177   Thumb Code     6  usbd_core.o(.text.USBD_LL_SetSpeed)
    USBD_LL_SetUSBAddress                    0x0800317d   Thumb Code    36  usbd_conf.o(.text.USBD_LL_SetUSBAddress)
    USBD_LL_SetupStage                       0x080031a1   Thumb Code    86  usbd_core.o(.text.USBD_LL_SetupStage)
    USBD_LL_StallEP                          0x080031f7   Thumb Code    36  usbd_conf.o(.text.USBD_LL_StallEP)
    USBD_LL_Start                            0x0800321b   Thumb Code    36  usbd_conf.o(.text.USBD_LL_Start)
    USBD_LL_Suspend                          0x0800323f   Thumb Code    18  usbd_core.o(.text.USBD_LL_Suspend)
    USBD_LL_Transmit                         0x08003251   Thumb Code    36  usbd_conf.o(.text.USBD_LL_Transmit)
    USBD_ParseSetupRequest                   0x08003275   Thumb Code    22  usbd_ctlreq.o(.text.USBD_ParseSetupRequest)
    USBD_RegisterClass                       0x0800328b   Thumb Code    16  usbd_core.o(.text.USBD_RegisterClass)
    USBD_SetClassConfig                      0x0800329b   Thumb Code    24  usbd_core.o(.text.USBD_SetClassConfig)
    USBD_Start                               0x080032b3   Thumb Code    10  usbd_core.o(.text.USBD_Start)
    USBD_StdDevReq                           0x080032bd   Thumb Code   572  usbd_ctlreq.o(.text.USBD_StdDevReq)
    USBD_StdEPReq                            0x080034f9   Thumb Code   218  usbd_ctlreq.o(.text.USBD_StdEPReq)
    USBD_StdItfReq                           0x080035d3   Thumb Code    68  usbd_ctlreq.o(.text.USBD_StdItfReq)
    USBD_static_free                         0x08003617   Thumb Code     2  usbd_conf.o(.text.USBD_static_free)
    USBD_static_malloc                       0x08003619   Thumb Code    10  usbd_conf.o(.text.USBD_static_malloc)
    USB_ActivateEndpoint                     0x08003625   Thumb Code   542  stm32f1xx_ll_usb.o(.text.USB_ActivateEndpoint)
    USB_CoreInit                             0x08003843   Thumb Code     4  stm32f1xx_ll_usb.o(.text.USB_CoreInit)
    USB_DeactivateEndpoint                   0x08003847   Thumb Code   242  stm32f1xx_ll_usb.o(.text.USB_DeactivateEndpoint)
    USB_DevConnect                           0x08003939   Thumb Code     4  stm32f1xx_ll_usb.o(.text.USB_DevConnect)
    USB_DevDisconnect                        0x0800393d   Thumb Code     4  stm32f1xx_ll_usb.o(.text.USB_DevDisconnect)
    USB_DevInit                              0x08003941   Thumb Code    36  stm32f1xx_ll_usb.o(.text.USB_DevInit)
    USB_DisableGlobalInt                     0x08003965   Thumb Code    18  stm32f1xx_ll_usb.o(.text.USB_DisableGlobalInt)
    USB_EP0_OutStart                         0x08003977   Thumb Code     4  stm32f1xx_ll_usb.o(.text.USB_EP0_OutStart)
    USB_EPClearStall                         0x0800397b   Thumb Code   106  stm32f1xx_ll_usb.o(.text.USB_EPClearStall)
    USB_EPSetStall                           0x080039e5   Thumb Code    68  stm32f1xx_ll_usb.o(.text.USB_EPSetStall)
    USB_EPStartXfer                          0x08003a29   Thumb Code   382  stm32f1xx_ll_usb.o(.text.USB_EPStartXfer)
    USB_EnableGlobalInt                      0x08003ba7   Thumb Code    16  stm32f1xx_ll_usb.o(.text.USB_EnableGlobalInt)
    USB_LP_CAN1_RX0_IRQHandler               0x08003bb7   Thumb Code    12  stm32f1xx_it.o(.text.USB_LP_CAN1_RX0_IRQHandler)
    USB_ReadInterrupts                       0x08003bc3   Thumb Code     6  stm32f1xx_ll_usb.o(.text.USB_ReadInterrupts)
    USB_ReadPMA                              0x08003bc9   Thumb Code    42  stm32f1xx_ll_usb.o(.text.USB_ReadPMA)
    USB_SetCurrentMode                       0x08003bf3   Thumb Code     4  stm32f1xx_ll_usb.o(.text.USB_SetCurrentMode)
    USB_SetDevAddress                        0x08003bf7   Thumb Code    12  stm32f1xx_ll_usb.o(.text.USB_SetDevAddress)
    USB_WritePMA                             0x08003c03   Thumb Code    42  stm32f1xx_ll_usb.o(.text.USB_WritePMA)
    UsageFault_Handler                       0x08003c2d   Thumb Code     2  stm32f1xx_it.o(.text.UsageFault_Handler)
    fputc                                    0x08003c2f   Thumb Code    24  usart.o(.text.fputc)
    main                                     0x08003c47   Thumb Code    44  main.o(.text.main)
    __0printf$8                              0x08003c75   Thumb Code    22  printf8.o(i.__0printf$8)
    __1printf$8                              0x08003c75   Thumb Code     0  printf8.o(i.__0printf$8)
    __2printf                                0x08003c75   Thumb Code     0  printf8.o(i.__0printf$8)
    __scatterload_copy                       0x08003c95   Thumb Code    14  handlers.o(i.__scatterload_copy)
    __scatterload_null                       0x08003ca3   Thumb Code     2  handlers.o(i.__scatterload_null)
    __scatterload_zeroinit                   0x08003ca5   Thumb Code    14  handlers.o(i.__scatterload_zeroinit)
    puts                                     0x08004119   Thumb Code    30  puts.o(i.puts)
    AHBPrescTable                            0x0800413c   Data          16  system_stm32f1xx.o(.rodata.AHBPrescTable)
    APBPrescTable                            0x0800414c   Data           8  system_stm32f1xx.o(.rodata.APBPrescTable)
    RX_ADDRESS                               0x08004154   Data           5  24l01.o(.rodata.RX_ADDRESS)
    TX_ADDRESS                               0x08004159   Data           5  24l01.o(.rodata.TX_ADDRESS)
    Region$$Table$$Base                      0x08004160   Number         0  anon$$obj.o(Region$$Table)
    Region$$Table$$Limit                     0x08004180   Number         0  anon$$obj.o(Region$$Table)
    __stdout                                 0x20000000   Data           4  stdout.o(.data)
    Display                                  0x20000004   Data           5  hc595.o(.data.Display)
    FS_Desc                                  0x2000000c   Data          28  usbd_desc.o(.data.FS_Desc)
    LED1                                     0x20000051   Data           1  hc595.o(.data.LED1)
    SystemCoreClock                          0x20000054   Data           4  system_stm32f1xx.o(.data.SystemCoreClock)
    TEST_ADDRESS                             0x20000058   Data           5  24l01.o(.data.TEST_ADDRESS)
    USBD_FS_DeviceDesc                       0x20000060   Data          18  usbd_desc.o(.data.USBD_FS_DeviceDesc)
    USBD_HID                                 0x20000074   Data          56  usbd_hid.o(.data.USBD_HID)
    USBD_LangIDDesc                          0x200000f0   Data           4  usbd_desc.o(.data.USBD_LangIDDesc)
    USBD_StringSerial                        0x200000f4   Data          26  usbd_desc.o(.data.USBD_StringSerial)
    uwTickFreq                               0x2000010e   Data           1  stm32f1xx_hal.o(.data.uwTickFreq)
    uwTickPrio                               0x20000110   Data           4  stm32f1xx_hal.o(.data.uwTickPrio)
    LED2                                     0x20000118   Data           1  hc595.o(.bss.LED2)
    LED3                                     0x20000119   Data           1  hc595.o(.bss.LED3)
    NRF24L01_TX_start                        0x2000011a   Data           2  24l01.o(.bss.NRF24L01_TX_start)
    Rev_Buff                                 0x2000011c   Data          32  24l01.o(.bss.Rev_Buff)
    Send_buf                                 0x20000140   Data          32  key_map.o(.bss.Send_buf)
    USBD_StrDesc                             0x20000164   Data         512  usbd_desc.o(.bss.USBD_StrDesc)
    hUsbDeviceFS                             0x20000378   Data         548  usb_device.o(.bss.hUsbDeviceFS)
    hdma_i2c1_rx                             0x2000059c   Data          68  i2c.o(.bss.hdma_i2c1_rx)
    hpcd_USB_FS                              0x200005e0   Data        1120  usbd_conf.o(.bss.hpcd_USB_FS)
    hspi1                                    0x20000a40   Data          88  spi.o(.bss.hspi1)
    huart1                                   0x20000a98   Data          64  usart.o(.bss.huart1)
    uwTick                                   0x20000ad8   Data           4  stm32f1xx_hal.o(.bss.uwTick)
    __initial_sp                             0x20001ae0   Data           0  startup_stm32f103xe.o(STACK)



==============================================================================

Memory Map of the image

  Image Entry point : 0x08000131

  Load Region LR_IROM1 (Base: 0x08000000, Size: 0x00004298, Max: 0x00040000, ABSOLUTE)

    Execution Region ER_IROM1 (Exec base: 0x08000000, Load base: 0x08000000, Size: 0x00004180, Max: 0x00040000, ABSOLUTE)

    Exec Addr    Load Addr    Size         Type   Attr      Idx    E Section Name        Object

    0x08000000   0x08000000   0x00000130   Data   RO            3    RESET               startup_stm32f103xe.o
    0x08000130   0x08000130   0x00000000   Code   RO         1796  * .ARM.Collect$$$$00000000  mc_w.l(entry.o)
    0x08000130   0x08000130   0x00000004   Code   RO         2064    .ARM.Collect$$$$00000001  mc_w.l(entry2.o)
    0x08000134   0x08000134   0x00000004   Code   RO         2067    .ARM.Collect$$$$00000004  mc_w.l(entry5.o)
    0x08000138   0x08000138   0x00000000   Code   RO         2069    .ARM.Collect$$$$00000008  mc_w.l(entry7b.o)
    0x08000138   0x08000138   0x00000000   Code   RO         2071    .ARM.Collect$$$$0000000A  mc_w.l(entry8b.o)
    0x08000138   0x08000138   0x00000008   Code   RO         2072    .ARM.Collect$$$$0000000B  mc_w.l(entry9a.o)
    0x08000140   0x08000140   0x00000000   Code   RO         2074    .ARM.Collect$$$$0000000D  mc_w.l(entry10a.o)
    0x08000140   0x08000140   0x00000000   Code   RO         2076    .ARM.Collect$$$$0000000F  mc_w.l(entry11a.o)
    0x08000140   0x08000140   0x00000004   Code   RO         2065    .ARM.Collect$$$$00002712  mc_w.l(entry2.o)
    0x08000144   0x08000144   0x00000024   Code   RO            4    .text               startup_stm32f103xe.o
    0x08000168   0x08000168   0x00000062   Code   RO         2081    .text               mc_w.l(uldiv.o)
    0x080001ca   0x080001ca   0x00000002   PAD
    0x080001cc   0x080001cc   0x00000024   Code   RO         2094    .text               mc_w.l(init.o)
    0x080001f0   0x080001f0   0x0000001e   Code   RO         2096    .text               mc_w.l(llshl.o)
    0x0800020e   0x0800020e   0x00000020   Code   RO         2098    .text               mc_w.l(llushr.o)
    0x0800022e   0x0800022e   0x00000002   Code   RO          259    .text.BusFault_Handler  stm32f1xx_it.o
    0x08000230   0x08000230   0x0000000c   Code   RO          271    .text.DMA1_Channel7_IRQHandler  stm32f1xx_it.o
    0x0800023c   0x0800023c   0x00000002   Code   RO          265    .text.DebugMon_Handler  stm32f1xx_it.o
    0x0800023e   0x0800023e   0x00000016   Code   RO          275    .text.EXTI15_10_IRQHandler  stm32f1xx_it.o
    0x08000254   0x08000254   0x00000002   Code   RO           96    .text.Error_Handler  main.o
    0x08000256   0x08000256   0x00000260   Code   RO         1471    .text.HAL_DMA_IRQHandler  stm32f1xx_hal_dma.o
    0x080004b6   0x080004b6   0x0000000c   Code   RO           90    .text.HAL_GPIO_EXTI_Callback  main.o
    0x080004c2   0x080004c2   0x00000016   Code   RO         1442    .text.HAL_GPIO_EXTI_IRQHandler  stm32f1xx_hal_gpio.o
    0x080004d8   0x080004d8   0x000001e0   Code   RO         1430    .text.HAL_GPIO_Init  stm32f1xx_hal_gpio.o
    0x080006b8   0x080006b8   0x0000000a   Code   RO         1436    .text.HAL_GPIO_WritePin  stm32f1xx_hal_gpio.o
    0x080006c2   0x080006c2   0x0000000c   Code   RO         1326    .text.HAL_GetTick   stm32f1xx_hal.o
    0x080006ce   0x080006ce   0x0000001a   Code   RO         1324    .text.HAL_IncTick   stm32f1xx_hal.o
    0x080006e8   0x080006e8   0x00000026   Code   RO         1314    .text.HAL_Init      stm32f1xx_hal.o
    0x0800070e   0x0800070e   0x0000004c   Code   RO         1316    .text.HAL_InitTick  stm32f1xx_hal.o
    0x0800075a   0x0800075a   0x0000004a   Code   RO          287    .text.HAL_MspInit   stm32f1xx_hal_msp.o
    0x080007a4   0x080007a4   0x0000001a   Code   RO         1496    .text.HAL_NVIC_EnableIRQ  stm32f1xx_hal_cortex.o
    0x080007be   0x080007be   0x00000064   Code   RO         1494    .text.HAL_NVIC_SetPriority  stm32f1xx_hal_cortex.o
    0x08000822   0x08000822   0x00000020   Code   RO         1492    .text.HAL_NVIC_SetPriorityGrouping  stm32f1xx_hal_cortex.o
    0x08000842   0x08000842   0x00000034   Code   RO          510    .text.HAL_PCDEx_PMAConfig  stm32f1xx_hal_pcd_ex.o
    0x08000876   0x08000876   0x00000002   Code   RO          403    .text.HAL_PCDEx_SetConnectionState  usbd_conf.o
    0x08000878   0x08000878   0x0000000e   Code   RO          351    .text.HAL_PCD_DataInStageCallback  usbd_conf.o
    0x08000886   0x08000886   0x00000010   Code   RO          349    .text.HAL_PCD_DataOutStageCallback  usbd_conf.o
    0x08000896   0x08000896   0x00000046   Code   RO          479    .text.HAL_PCD_EP_Close  stm32f1xx_hal_pcd.o
    0x080008dc   0x080008dc   0x0000004a   Code   RO          489    .text.HAL_PCD_EP_ClrStall  stm32f1xx_hal_pcd.o
    0x08000926   0x08000926   0x00000048   Code   RO          477    .text.HAL_PCD_EP_Open  stm32f1xx_hal_pcd.o
    0x0800096e   0x0800096e   0x0000002c   Code   RO          481    .text.HAL_PCD_EP_Receive  stm32f1xx_hal_pcd.o
    0x0800099a   0x0800099a   0x00000058   Code   RO          487    .text.HAL_PCD_EP_SetStall  stm32f1xx_hal_pcd.o
    0x080009f2   0x080009f2   0x00000028   Code   RO          485    .text.HAL_PCD_EP_Transmit  stm32f1xx_hal_pcd.o
    0x08000a1a   0x08000a1a   0x00000504   Code   RO          447    .text.HAL_PCD_IRQHandler  stm32f1xx_hal_pcd.o
    0x08000f1e   0x08000f1e   0x000000ca   Code   RO          435    .text.HAL_PCD_Init  stm32f1xx_hal_pcd.o
    0x08000fe8   0x08000fe8   0x00000044   Code   RO          343    .text.HAL_PCD_MspInit  usbd_conf.o
    0x0800102c   0x0800102c   0x00000024   Code   RO          355    .text.HAL_PCD_ResetCallback  usbd_conf.o
    0x08001050   0x08001050   0x00000008   Code   RO          359    .text.HAL_PCD_ResumeCallback  usbd_conf.o
    0x08001058   0x08001058   0x00000008   Code   RO          353    .text.HAL_PCD_SOFCallback  usbd_conf.o
    0x08001060   0x08001060   0x0000002a   Code   RO          451    .text.HAL_PCD_SetAddress  stm32f1xx_hal_pcd.o
    0x0800108a   0x0800108a   0x0000000e   Code   RO          347    .text.HAL_PCD_SetupStageCallback  usbd_conf.o
    0x08001098   0x08001098   0x00000034   Code   RO          445    .text.HAL_PCD_Start  stm32f1xx_hal_pcd.o
    0x080010cc   0x080010cc   0x00000022   Code   RO          357    .text.HAL_PCD_SuspendCallback  usbd_conf.o
    0x080010ee   0x080010ee   0x0000010e   Code   RO         1413    .text.HAL_RCCEx_PeriphCLKConfig  stm32f1xx_hal_rcc_ex.o
    0x080011fc   0x080011fc   0x00000002   Code   RO         1400    .text.HAL_RCC_CSSCallback  stm32f1xx_hal_rcc.o
    0x080011fe   0x080011fe   0x00000184   Code   RO         1378    .text.HAL_RCC_ClockConfig  stm32f1xx_hal_rcc.o
    0x08001382   0x08001382   0x0000000c   Code   RO         1384    .text.HAL_RCC_EnableCSS  stm32f1xx_hal_rcc.o
    0x0800138e   0x0800138e   0x00000026   Code   RO         1390    .text.HAL_RCC_GetPCLK1Freq  stm32f1xx_hal_rcc.o
    0x080013b4   0x080013b4   0x00000026   Code   RO         1392    .text.HAL_RCC_GetPCLK2Freq  stm32f1xx_hal_rcc.o
    0x080013da   0x080013da   0x00000002   PAD
    0x080013dc   0x080013dc   0x0000006c   Code   RO         1380    .text.HAL_RCC_GetSysClockFreq  stm32f1xx_hal_rcc.o
    0x08001448   0x08001448   0x0000001e   Code   RO         1398    .text.HAL_RCC_NMI_IRQHandler  stm32f1xx_hal_rcc.o
    0x08001466   0x08001466   0x0000039c   Code   RO         1376    .text.HAL_RCC_OscConfig  stm32f1xx_hal_rcc.o
    0x08001802   0x08001802   0x0000007e   Code   RO         1186    .text.HAL_SPI_Init  stm32f1xx_hal_spi_ex.o
    0x08001880   0x08001880   0x000000fa   Code   RO          213    .text.HAL_SPI_MspInit  spi.o
    0x0800197a   0x0800197a   0x000001e4   Code   RO         1081    .text.HAL_SPI_TransmitReceive  stm32f1xx_hal_spi.o
    0x08001b5e   0x08001b5e   0x0000002c   Code   RO         1504    .text.HAL_SYSTICK_Config  stm32f1xx_hal_cortex.o
    0x08001b8a   0x08001b8a   0x0000005c   Code   RO         1201    .text.HAL_UART_Init  stm32f1xx_hal_uart.o
    0x08001be6   0x08001be6   0x000000e8   Code   RO          234    .text.HAL_UART_MspInit  usart.o
    0x08001cce   0x08001cce   0x00000002   Code   RO          255    .text.HardFault_Handler  stm32f1xx_it.o
    0x08001cd0   0x08001cd0   0x000001d2   Code   RO          110    .text.MX_GPIO_Init  gpio.o
    0x08001ea2   0x08001ea2   0x0000004c   Code   RO          209    .text.MX_SPI1_Init  spi.o
    0x08001eee   0x08001eee   0x0000003e   Code   RO          230    .text.MX_USART1_UART_Init  usart.o
    0x08001f2c   0x08001f2c   0x00000058   Code   RO          300    .text.MX_USB_DEVICE_Init  usb_device.o
    0x08001f84   0x08001f84   0x00000002   Code   RO          257    .text.MemManage_Handler  stm32f1xx_it.o
    0x08001f86   0x08001f86   0x00000004   Code   RO          253    .text.NMI_Handler   stm32f1xx_it.o
    0x08001f8a   0x08001f8a   0x00000070   Code   RO           36    .text.NRF24L01_Init  24l01.o
    0x08001ffa   0x08001ffa   0x0000008e   Code   RO           42    .text.NRF24L01_RX_Mode  24l01.o
    0x08002088   0x08002088   0x00000084   Code   RO           40    .text.NRF24L01_Read_Buf  24l01.o
    0x0800210c   0x0800210c   0x00000088   Code   RO           38    .text.NRF24L01_Write_Buf  24l01.o
    0x08002194   0x08002194   0x0000005e   Code   RO           44    .text.NRF24L01_Write_Reg  24l01.o
    0x080021f2   0x080021f2   0x00000002   PAD
    0x080021f4   0x080021f4   0x000000e0   Code   RO           58    .text.NRF_IRQHandler  24l01.o
    0x080022d4   0x080022d4   0x00000002   Code   RO          267    .text.PendSV_Handler  stm32f1xx_it.o
    0x080022d6   0x080022d6   0x000000bc   Code   RO           13    .text.SEG7_Display  hc595.o
    0x08002392   0x08002392   0x000000aa   Code   RO         1077    .text.SPI_WaitFlagStateUntilTimeout  stm32f1xx_hal_spi.o
    0x0800243c   0x0800243c   0x00000002   Code   RO          263    .text.SVC_Handler   stm32f1xx_it.o
    0x0800243e   0x0800243e   0x00000002   PAD
    0x08002440   0x08002440   0x000004b2   Code   RO           76    .text.Send_data     key_map.o
    0x080028f2   0x080028f2   0x0000000e   Code   RO          269    .text.SysTick_Handler  stm32f1xx_it.o
    0x08002900   0x08002900   0x0000006c   Code   RO           94    .text.SystemClock_Config  main.o
    0x0800296c   0x0800296c   0x00000050   Code   RO         1647    .text.SystemInit    system_stm32f1xx.o
    0x080029bc   0x080029bc   0x0000018a   Code   RO         1205    .text.UART_SetConfig  stm32f1xx_hal_uart.o
    0x08002b46   0x08002b46   0x0000000e   Code   RO         1679    .text.USBD_ClrClassConfig  usbd_core.o
    0x08002b54   0x08002b54   0x00000010   Code   RO         1746    .text.USBD_CtlContinueRx  usbd_ioreq.o
    0x08002b64   0x08002b64   0x00000010   Code   RO         1742    .text.USBD_CtlContinueSendData  usbd_ioreq.o
    0x08002b74   0x08002b74   0x00000016   Code   RO         1718    .text.USBD_CtlError  usbd_ctlreq.o
    0x08002b8a   0x08002b8a   0x00000016   Code   RO         1750    .text.USBD_CtlReceiveStatus  usbd_ioreq.o
    0x08002ba0   0x08002ba0   0x0000001a   Code   RO         1740    .text.USBD_CtlSendData  usbd_ioreq.o
    0x08002bba   0x08002bba   0x00000016   Code   RO         1748    .text.USBD_CtlSendStatus  usbd_ioreq.o
    0x08002bd0   0x08002bd0   0x00000024   Code   RO          323    .text.USBD_FS_ConfigStrDescriptor  usbd_desc.o
    0x08002bf4   0x08002bf4   0x0000000e   Code   RO          313    .text.USBD_FS_DeviceDescriptor  usbd_desc.o
    0x08002c02   0x08002c02   0x00000002   PAD
    0x08002c04   0x08002c04   0x00000028   Code   RO          325    .text.USBD_FS_InterfaceStrDescriptor  usbd_desc.o
    0x08002c2c   0x08002c2c   0x0000000e   Code   RO          315    .text.USBD_FS_LangIDStrDescriptor  usbd_desc.o
    0x08002c3a   0x08002c3a   0x00000002   PAD
    0x08002c3c   0x08002c3c   0x0000002c   Code   RO          317    .text.USBD_FS_ManufacturerStrDescriptor  usbd_desc.o
    0x08002c68   0x08002c68   0x00000030   Code   RO          319    .text.USBD_FS_ProductStrDescriptor  usbd_desc.o
    0x08002c98   0x08002c98   0x00000082   Code   RO          321    .text.USBD_FS_SerialStrDescriptor  usbd_desc.o
    0x08002d1a   0x08002d1a   0x00000060   Code   RO         1726    .text.USBD_GetString  usbd_ctlreq.o
    0x08002d7a   0x08002d7a   0x0000000c   Code   RO         1771    .text.USBD_HID_DataIn  usbd_hid.o
    0x08002d86   0x08002d86   0x0000001e   Code   RO         1767    .text.USBD_HID_DeInit  usbd_hid.o
    0x08002da4   0x08002da4   0x0000000e   Code   RO         1773    .text.USBD_HID_GetCfgDesc  usbd_hid.o
    0x08002db2   0x08002db2   0x0000000e   Code   RO         1775    .text.USBD_HID_GetDeviceQualifierDesc  usbd_hid.o
    0x08002dc0   0x08002dc0   0x00000026   Code   RO         1765    .text.USBD_HID_Init  usbd_hid.o
    0x08002de6   0x08002de6   0x0000002a   Code   RO         1777    .text.USBD_HID_SendReport  usbd_hid.o
    0x08002e10   0x08002e10   0x000000aa   Code   RO         1769    .text.USBD_HID_Setup  usbd_hid.o
    0x08002eba   0x08002eba   0x00000030   Code   RO         1665    .text.USBD_Init     usbd_core.o
    0x08002eea   0x08002eea   0x00000024   Code   RO          385    .text.USBD_LL_ClearStallEP  usbd_conf.o
    0x08002f0e   0x08002f0e   0x00000024   Code   RO          379    .text.USBD_LL_CloseEP  usbd_conf.o
    0x08002f32   0x08002f32   0x000000a2   Code   RO         1685    .text.USBD_LL_DataInStage  usbd_core.o
    0x08002fd4   0x08002fd4   0x00000064   Code   RO         1683    .text.USBD_LL_DataOutStage  usbd_core.o
    0x08003038   0x08003038   0x0000006c   Code   RO          369    .text.USBD_LL_Init  usbd_conf.o
    0x080030a4   0x080030a4   0x0000001e   Code   RO          387    .text.USBD_LL_IsStallEP  usbd_conf.o
    0x080030c2   0x080030c2   0x0000002a   Code   RO          377    .text.USBD_LL_OpenEP  usbd_conf.o
    0x080030ec   0x080030ec   0x00000024   Code   RO          393    .text.USBD_LL_PrepareReceive  usbd_conf.o
    0x08003110   0x08003110   0x0000003e   Code   RO         1687    .text.USBD_LL_Reset  usbd_core.o
    0x0800314e   0x0800314e   0x0000000c   Code   RO         1693    .text.USBD_LL_Resume  usbd_core.o
    0x0800315a   0x0800315a   0x0000001c   Code   RO         1695    .text.USBD_LL_SOF   usbd_core.o
    0x08003176   0x08003176   0x00000006   Code   RO         1689    .text.USBD_LL_SetSpeed  usbd_core.o
    0x0800317c   0x0800317c   0x00000024   Code   RO          389    .text.USBD_LL_SetUSBAddress  usbd_conf.o
    0x080031a0   0x080031a0   0x00000056   Code   RO         1681    .text.USBD_LL_SetupStage  usbd_core.o
    0x080031f6   0x080031f6   0x00000024   Code   RO          383    .text.USBD_LL_StallEP  usbd_conf.o
    0x0800321a   0x0800321a   0x00000024   Code   RO          373    .text.USBD_LL_Start  usbd_conf.o
    0x0800323e   0x0800323e   0x00000012   Code   RO         1691    .text.USBD_LL_Suspend  usbd_core.o
    0x08003250   0x08003250   0x00000024   Code   RO          391    .text.USBD_LL_Transmit  usbd_conf.o
    0x08003274   0x08003274   0x00000016   Code   RO         1724    .text.USBD_ParseSetupRequest  usbd_ctlreq.o
    0x0800328a   0x0800328a   0x00000010   Code   RO         1669    .text.USBD_RegisterClass  usbd_core.o
    0x0800329a   0x0800329a   0x00000018   Code   RO         1677    .text.USBD_SetClassConfig  usbd_core.o
    0x080032b2   0x080032b2   0x0000000a   Code   RO         1671    .text.USBD_Start    usbd_core.o
    0x080032bc   0x080032bc   0x0000023c   Code   RO         1716    .text.USBD_StdDevReq  usbd_ctlreq.o
    0x080034f8   0x080034f8   0x000000da   Code   RO         1722    .text.USBD_StdEPReq  usbd_ctlreq.o
    0x080035d2   0x080035d2   0x00000044   Code   RO         1720    .text.USBD_StdItfReq  usbd_ctlreq.o
    0x08003616   0x08003616   0x00000002   Code   RO          401    .text.USBD_static_free  usbd_conf.o
    0x08003618   0x08003618   0x0000000a   Code   RO          399    .text.USBD_static_malloc  usbd_conf.o
    0x08003622   0x08003622   0x00000002   PAD
    0x08003624   0x08003624   0x0000021e   Code   RO          539    .text.USB_ActivateEndpoint  stm32f1xx_ll_usb.o
    0x08003842   0x08003842   0x00000004   Code   RO          525    .text.USB_CoreInit  stm32f1xx_ll_usb.o
    0x08003846   0x08003846   0x000000f2   Code   RO          541    .text.USB_DeactivateEndpoint  stm32f1xx_ll_usb.o
    0x08003938   0x08003938   0x00000004   Code   RO          559    .text.USB_DevConnect  stm32f1xx_ll_usb.o
    0x0800393c   0x0800393c   0x00000004   Code   RO          561    .text.USB_DevDisconnect  stm32f1xx_ll_usb.o
    0x08003940   0x08003940   0x00000024   Code   RO          533    .text.USB_DevInit   stm32f1xx_ll_usb.o
    0x08003964   0x08003964   0x00000012   Code   RO          529    .text.USB_DisableGlobalInt  stm32f1xx_ll_usb.o
    0x08003976   0x08003976   0x00000004   Code   RO          575    .text.USB_EP0_OutStart  stm32f1xx_ll_usb.o
    0x0800397a   0x0800397a   0x0000006a   Code   RO          553    .text.USB_EPClearStall  stm32f1xx_ll_usb.o
    0x080039e4   0x080039e4   0x00000044   Code   RO          551    .text.USB_EPSetStall  stm32f1xx_ll_usb.o
    0x08003a28   0x08003a28   0x0000017e   Code   RO          543    .text.USB_EPStartXfer  stm32f1xx_ll_usb.o
    0x08003ba6   0x08003ba6   0x00000010   Code   RO          527    .text.USB_EnableGlobalInt  stm32f1xx_ll_usb.o
    0x08003bb6   0x08003bb6   0x0000000c   Code   RO          273    .text.USB_LP_CAN1_RX0_IRQHandler  stm32f1xx_it.o
    0x08003bc2   0x08003bc2   0x00000006   Code   RO          563    .text.USB_ReadInterrupts  stm32f1xx_ll_usb.o
    0x08003bc8   0x08003bc8   0x0000002a   Code   RO          581    .text.USB_ReadPMA   stm32f1xx_ll_usb.o
    0x08003bf2   0x08003bf2   0x00000004   Code   RO          531    .text.USB_SetCurrentMode  stm32f1xx_ll_usb.o
    0x08003bf6   0x08003bf6   0x0000000c   Code   RO          557    .text.USB_SetDevAddress  stm32f1xx_ll_usb.o
    0x08003c02   0x08003c02   0x0000002a   Code   RO          545    .text.USB_WritePMA  stm32f1xx_ll_usb.o
    0x08003c2c   0x08003c2c   0x00000002   Code   RO          261    .text.UsageFault_Handler  stm32f1xx_it.o
    0x08003c2e   0x08003c2e   0x00000018   Code   RO          238    .text.fputc         usart.o
    0x08003c46   0x08003c46   0x0000002c   Code   RO           92    .text.main          main.o
    0x08003c72   0x08003c72   0x00000002   PAD
    0x08003c74   0x08003c74   0x00000020   Code   RO         2010    i.__0printf$8       mc_w.l(printf8.o)
    0x08003c94   0x08003c94   0x0000000e   Code   RO         2106    i.__scatterload_copy  mc_w.l(handlers.o)
    0x08003ca2   0x08003ca2   0x00000002   Code   RO         2107    i.__scatterload_null  mc_w.l(handlers.o)
    0x08003ca4   0x08003ca4   0x0000000e   Code   RO         2108    i.__scatterload_zeroinit  mc_w.l(handlers.o)
    0x08003cb2   0x08003cb2   0x00000002   PAD
    0x08003cb4   0x08003cb4   0x00000410   Code   RO         2017    i._printf_core      mc_w.l(printf8.o)
    0x080040c4   0x080040c4   0x00000024   Code   RO         2018    i._printf_post_padding  mc_w.l(printf8.o)
    0x080040e8   0x080040e8   0x0000002e   Code   RO         2019    i._printf_pre_padding  mc_w.l(printf8.o)
    0x08004116   0x08004116   0x00000002   PAD
    0x08004118   0x08004118   0x00000024   Code   RO         1799    i.puts              mc_w.l(puts.o)
    0x0800413c   0x0800413c   0x00000010   Data   RO         1652    .rodata.AHBPrescTable  system_stm32f1xx.o
    0x0800414c   0x0800414c   0x00000008   Data   RO         1653    .rodata.APBPrescTable  system_stm32f1xx.o
    0x08004154   0x08004154   0x00000005   Data   RO           61    .rodata.RX_ADDRESS  24l01.o
    0x08004159   0x08004159   0x00000005   Data   RO           60    .rodata.TX_ADDRESS  24l01.o
    0x0800415e   0x0800415e   0x00000002   PAD
    0x08004160   0x08004160   0x00000020   Data   RO         2104    Region$$Table       anon$$obj.o


    Execution Region RW_IRAM1 (Exec base: 0x20000000, Load base: 0x08004180, Size: 0x00001ae0, Max: 0x0000c000, ABSOLUTE)

    Exec Addr    Load Addr    Size         Type   Attr      Idx    E Section Name        Object

    0x20000000   0x08004180   0x00000004   Data   RW         2078    .data               mc_w.l(stdout.o)
    0x20000004   0x08004184   0x00000005   Data   RW           15    .data.Display       hc595.o
    0x20000009   0x08004189   0x00000003   PAD
    0x2000000c   0x0800418c   0x0000001c   Data   RW          327    .data.FS_Desc       usbd_desc.o
    0x20000028   0x080041a8   0x00000029   Data   RW         1782    .data.HID_MOUSE_ReportDesc  usbd_hid.o
    0x20000051   0x080041d1   0x00000001   Data   RW           16    .data.LED1          hc595.o
    0x20000052   0x080041d2   0x00000002   PAD
    0x20000054   0x080041d4   0x00000004   Data   RW         1651    .data.SystemCoreClock  system_stm32f1xx.o
    0x20000058   0x080041d8   0x00000005   Data   RW           62    .data.TEST_ADDRESS  24l01.o
    0x2000005d   0x080041dd   0x00000003   PAD
    0x20000060   0x080041e0   0x00000012   Data   RW          328    .data.USBD_FS_DeviceDesc  usbd_desc.o
    0x20000072   0x080041f2   0x00000002   PAD
    0x20000074   0x080041f4   0x00000038   Data   RW         1781    .data.USBD_HID      usbd_hid.o
    0x200000ac   0x0800422c   0x00000029   Data   RW         1784    .data.USBD_HID_CfgDesc  usbd_hid.o
    0x200000d5   0x08004255   0x00000003   PAD
    0x200000d8   0x08004258   0x00000009   Data   RW         1783    .data.USBD_HID_Desc  usbd_hid.o
    0x200000e1   0x08004261   0x00000003   PAD
    0x200000e4   0x08004264   0x0000000a   Data   RW         1785    .data.USBD_HID_DeviceQualifierDesc  usbd_hid.o
    0x200000ee   0x0800426e   0x00000002   PAD
    0x200000f0   0x08004270   0x00000004   Data   RW          329    .data.USBD_LangIDDesc  usbd_desc.o
    0x200000f4   0x08004274   0x0000001a   Data   RW          330    .data.USBD_StringSerial  usbd_desc.o
    0x2000010e   0x0800428e   0x00000001   Data   RW         1361    .data.uwTickFreq    stm32f1xx_hal.o
    0x2000010f   0x0800428f   0x00000001   PAD
    0x20000110   0x08004290   0x00000004   Data   RW         1360    .data.uwTickPrio    stm32f1xx_hal.o
    0x20000114   0x08004294   0x00000004   PAD
    0x20000118        -       0x00000001   Zero   RW           17    .bss.LED2           hc595.o
    0x20000119        -       0x00000001   Zero   RW           18    .bss.LED3           hc595.o
    0x2000011a        -       0x00000002   Zero   RW           64    .bss.NRF24L01_TX_start  24l01.o
    0x2000011c        -       0x00000020   Zero   RW           63    .bss.Rev_Buff       24l01.o
    0x2000013c        -       0x00000001   Zero   RW           22    .bss.SEG7_Display.i  hc595.o
    0x2000013d        -       0x00000001   Zero   RW           21    .bss.SEG7_Display.nums  hc595.o
    0x2000013e   0x08004294   0x00000002   PAD
    0x20000140        -       0x00000020   Zero   RW           78    .bss.Send_buf       key_map.o
    0x20000160        -       0x00000001   Zero   RW         1728    .bss.USBD_SetConfig.cfgidx  usbd_ctlreq.o
    0x20000161   0x08004294   0x00000003   PAD
    0x20000164        -       0x00000200   Zero   RW          331    .bss.USBD_StrDesc   usbd_desc.o
    0x20000364        -       0x00000014   Zero   RW          406    .bss.USBD_static_malloc.mem  usbd_conf.o
    0x20000378        -       0x00000224   Zero   RW          302    .bss.hUsbDeviceFS   usb_device.o
    0x2000059c        -       0x00000044   Zero   RW          179    .bss.hdma_i2c1_rx   i2c.o
    0x200005e0        -       0x00000460   Zero   RW          405    .bss.hpcd_USB_FS    usbd_conf.o
    0x20000a40        -       0x00000058   Zero   RW          217    .bss.hspi1          spi.o
    0x20000a98        -       0x00000040   Zero   RW          240    .bss.huart1         usart.o
    0x20000ad8        -       0x00000004   Zero   RW         1362    .bss.uwTick         stm32f1xx_hal.o
    0x20000adc   0x08004294   0x00000004   PAD
    0x20000ae0        -       0x00001000   Zero   RW            1    STACK               startup_stm32f103xe.o


==============================================================================

Image component sizes


      Code (inc. data)   RO Data    RW Data    ZI Data      Debug   Object Name

       840         24         10          5         34       5804   24l01.o
       466          0          0          0          0       3530   gpio.o
       188          0          0          6          4       1590   hc595.o
         0          0          0          0         68       5163   i2c.o
      1202        266          0          0         32       1688   key_map.o
       166          0          0          0          0       2467   main.o
       326          0          0          0         88       5309   spi.o
        36          8        304          0       4096        780   startup_stm32f103xe.o
       152          0          0          5          4       6575   stm32f1xx_hal.o
       202          0          0          0          0       8958   stm32f1xx_hal_cortex.o
       608          0          0          0          0       7445   stm32f1xx_hal_dma.o
       512          4          0          0          0       4775   stm32f1xx_hal_gpio.o
        74          0          0          0          0       1327   stm32f1xx_hal_msp.o
      1968          0          0          0          0      11560   stm32f1xx_hal_pcd.o
        52          0          0          0          0       3598   stm32f1xx_hal_pcd_ex.o
      1540         20          0          0          0       7818   stm32f1xx_hal_rcc.o
       270          0          0          0          0       3792   stm32f1xx_hal_rcc_ex.o
       654          0          0          0          0      20368   stm32f1xx_hal_spi.o
       126          0          0          0          0       3642   stm32f1xx_hal_spi_ex.o
       486          0          0          0          0      17040   stm32f1xx_hal_uart.o
        78          0          0          0          0       1773   stm32f1xx_it.o
      1532          4          0          0          0       9884   stm32f1xx_ll_usb.o
        80          0         24          4          0       2294   system_stm32f1xx.o
       318          0          0          0         64       5358   usart.o
        88          0          0          0        548       3184   usb_device.o
       644          0          0          0       1140      15375   usbd_conf.o
       586          0          0          0          0       7221   usbd_core.o
       998         24          0          0          1       7213   usbd_ctlreq.o
       326         72          0         76        512       3959   usbd_desc.o
       320         10          0        157          0       5953   usbd_hid.o
       102          0          0          0          0       4613   usbd_ioreq.o

    ----------------------------------------------------------------------
     14954        432        372        272       6604     190056   Object Totals
         0          0         32          0          0          0   (incl. Generated)
        14          0          2         19         13          0   (incl. Padding)

    ----------------------------------------------------------------------

      Code (inc. data)   RO Data    RW Data    ZI Data      Debug   Library Member Name

         0          0          0          0          0          0   entry.o
         0          0          0          0          0          0   entry10a.o
         0          0          0          0          0          0   entry11a.o
         8          4          0          0          0          0   entry2.o
         4          0          0          0          0          0   entry5.o
         0          0          0          0          0          0   entry7b.o
         0          0          0          0          0          0   entry8b.o
         8          4          0          0          0          0   entry9a.o
        30          0          0          0          0          0   handlers.o
        36          8          0          0          0         68   init.o
        30          0          0          0          0         68   llshl.o
        32          0          0          0          0         68   llushr.o
      1154         54          0          0          0        352   printf8.o
        36          6          0          0          0         80   puts.o
         0          0          0          4          0          0   stdout.o
        98          0          0          0          0         92   uldiv.o

    ----------------------------------------------------------------------
      1442         76          0          4          0        728   Library Totals
         6          0          0          0          0          0   (incl. Padding)

    ----------------------------------------------------------------------

      Code (inc. data)   RO Data    RW Data    ZI Data      Debug   Library Name

      1436         76          0          4          0        728   mc_w.l

    ----------------------------------------------------------------------
      1442         76          0          4          0        728   Library Totals

    ----------------------------------------------------------------------

==============================================================================


      Code (inc. data)   RO Data    RW Data    ZI Data      Debug   

     16396        508        372        276       6604     190176   Grand Totals
     16396        508        372        276       6604     190176   ELF Image Totals
     16396        508        372        276          0          0   ROM Totals

==============================================================================

    Total RO  Size (Code + RO Data)                16768 (  16.38kB)
    Total RW  Size (RW Data + ZI Data)              6880 (   6.72kB)
    Total ROM Size (Code + RO Data + RW Data)      17044 (  16.64kB)

==============================================================================

