:020000040800F2
:10000000E01A002045010008871F0008CF1C0008E7
:10001000851F00082F0200082D3C0008000000008A
:100020000000000000000000000000003D24000867
:100030003D02000800000000D5220008F328000857
:100040005F0100085F0100085F0100085F01000810
:100050005F0100085F0100085F0100085F01000800
:100060005F0100085F0100085F0100085F010008F0
:100070005F0100085F0100085F0100085F010008E0
:100080005F010008310200085F0100085F010008FD
:10009000B73B00085F0100085F0100085F0100082E
:1000A0005F0100085F0100085F0100085F010008B0
:1000B0005F0100085F0100085F0100085F010008A0
:1000C0005F0100085F0100085F0100085F01000890
:1000D0005F0100085F0100085F0100085F01000880
:1000E0003F0200085F0100085F0100085F0100088F
:1000F0005F0100085F0100085F0100085F01000860
:100100005F0100085F0100085F0100085F0100084F
:100110005F0100085F0100085F0100085F0100083F
:100120005F0100085F0100085F0100085F0100082F
:10013000DFF80CD000F04AF800480047473C0008C0
:10014000E01A00200648804706480047FEE7FEE721
:10015000FEE7FEE7FEE7FEE7FEE7FEE7FEE7FEE777
:100160006D290008310100082DE9F05F05460020E7
:1001700092469B4688460646814640241BE0284618
:1001800041464746224600F042F853465A46C01AB6
:10019000914110D311461846224600F029F82D1A35
:1001A00067EB01084F4622460120002100F020F8AD
:1001B00017EB00094E41201EA4F10104DFDC484684
:1001C00031462A464346BDE8F09F0000064C074DE5
:1001D00006E0E06840F0010394E807009847103417
:1001E000AC42F6D3FFF7A8FF604100088041000849
:1001F000202A04DB203A00FA02F1002070479140E7
:10020000C2F1200320FA03F3194390407047202ADB
:1002100004DB203A21FA02F00021704721FA02F3B0
:10022000D040C2F120029140084319467047FEE7D2
:1002300040F29C50C2F2000000F00DB8704780B54B
:100240004FF4005000F03DF94FF40040BDE880400D
:1002500000F037B9704710B5D0E90FC3DCF80020C3
:10026000D0F800E0DEF8001011F0040F1EBF0424E7
:100270009C4014EA020432D18C075AD502249C40D7
:10028000144056D0DEF8001011F0200F08D1DEF82F
:10029000001021F00A01CEF80010012180F8211091
:1002A0000422C4F2020202F17C018E455AD940F2C6
:1002B0000841C4F202018E4500F0BA8040F21C41B0
:1002C000C4F202018E4500F0B58040F23041C4F224
:1002D00002018E4540F0B0804FF40071B4E0DEF8CA
:1002E00000100422C4F2020211F0200F02BFDEF857
:1002F000001021F00401CEF8001002F17C018E45BF
:1003000044D940F20841C4F202018E4500F09F80BA
:1003100040F21C41C4F202018E4500F09A8040F286
:100320003041C4F202018E4540F095804FF4806167
:1003300099E0090740F1BE8008219940114008BFAB
:1003400010BDDEF8001021F00E01CEF800100121E2
:1003500001FA03F2CCF8042081634FF48071018428
:10036000016BA3E04321C4F202018E4522DD6B2123
:10037000C4F202018E4541DC4421C4F202018E45E3
:100380007AD05821C4F202018E456FE04321C4F2B5
:1003900002018E4520DD6B21C4F202018E453ADC5C
:1003A0004421C4F202018E4569D05821C4F20201F1
:1003B0008E455EE00821C4F202018E4562D01C2108
:1003C000C4F202018E455FD03021C4F202018E4595
:1003D0004CD14FF400715FE00821C4F202018E4558
:1003E00054D01C21C4F202018E4551D03021C4F2F8
:1003F00002018E453DD14FF4806155E06C21C4F27D
:1004000002018E4546D08021C4F202018E452DD1D5
:100410004FF0007140E06C21C4F202018E4541D0E2
:100420008021C4F202018E4523D14FF080613BE070
:10043000022109E0202107E002F588634FF4003132
:100440009E4508BF4FF40051C2F8001425E0042176
:1004500009E0402107E002F588634FF480219E45C2
:1004600008BF4FF48041C2F800141EE04FF4003181
:1004700012E04FF4802117E04FF400510CE04FF4EC
:10048000804111E0022107E0202105E004210BE07A
:10049000402109E04FF400111160002180F8201084
:1004A000816A03E04FF480011160C16A11B1BDE8B7
:1004B0001040084710BDB0F5005F08BF01F09ABEBC
:1004C000704740F21441C4F201010A68024214BFAD
:1004D00008607047FFF7EFBF2DE9F04F82B041F69B
:1004E0000042062740F200484FF6FF754FF0000C1F
:1004F0004FF00F0E4FF0000A4FF0000BC4F2010254
:10050000C4F20108C1F210059042A0F18042A2F5A8
:10051000843208BF05274FEAB223052B38BF4FEAC4
:10052000B227012200970E6802FA0AF916EA090FAB
:1005300000F0B7804E68AE4208DC032E34D8DFE806
:1005400006F028023E42D1F80CB042E04FF6FF73AD
:10055000C1F221039E420DDC0023C1F211039E4231
:1005600017D00023C1F212039E4212D00023C1F221
:1005700021030CE00023C1F222039E4209D0002394
:10058000C1F231039E4204D00023C1F232039E42E5
:100590001FD18E6886B1012E4FF0080B14BFC0F832
:1005A0001490C0F8109014E0112E0FD0122E04BF3A
:1005B000CE6806F10C0B0CE04FF0040B09E0CE689E
:1005C00006F1080B05E04FF0000B02E0CE6806F1E3
:1005D000040BBAF1080F6346044628BF203B28BF2E
:1005E000043427680EFA03F60BFA03F3B7433B43D0
:1005F0002360CB79DB0654D541F218032AF00306B9
:100600004FF60842C4F202034644CFF6FF721F467B
:100610001B6843F001033B603B6803F00103019357
:100620000CF00C03019C0EFA03F7B45824EA0707F8
:10063000009C04FA03F33B43B3500122D1F804E0D9
:10064000D8F800301EF4803F0CBF23EA090643EAC5
:1006500009065FEA8E33C8F80060D8F8043054BF4A
:1006600023EA090643EA09065FEACE23C8F80460D4
:10067000D8F8083054BF23EA090643EA09065FEABE
:100680008E234FF00F0E40F20C43C8F80860C4F2FE
:1006900001031F461B6854BF23EA090343EA090309
:1006A0003B600AF1010A0CF1040CBAF1100F04BF0F
:1006B00002B0BDE8F08F36E7002A08BF09040161E7
:1006C000704740F6D820C2F200000068704740F240
:1006D0000E1040F6D821C2F20000C2F200010078EC
:1006E0000A6810440860704780B542F20000C4F206
:1006F0000200016841F010010160032000F091F850
:10070000002000F004F800F028F8002080BDB0B50B
:10071000044640F20E104FF47A71C2F200000078E5
:10072000B1FBF0F040F25401C2F200010968B1FBE4
:10073000F0F001F014FA01250F2C0CD858B94FF045
:10074000FF3021460022002500F039F840F2101059
:10075000C2F2000004602846B0BD80B582B041F20C
:100760001800C4F20200016841F001010160016853
:1007700001F0010101910199416841F0805141600E
:10078000406800F0805000900098052000F049F883
:1007900004200222C4F20100016862F31A610160C0
:1007A00002B080BD00F01F010122400902FA01F1F0
:1007B0004EF20012CEF2000242F82010704780B5CF
:1007C00000F160434EF60C5E002803F5644C00F027
:1007D0000F03CEF2000EA3F104037344B8BF03F17C
:1007E0000C0CDEF80000C0F3022000F1040EC31E62
:1007F00080F00700BEF1070F4FF0010E38BF002355
:10080000042828BF04200EFA00F0013808400EFA30
:1008100003F10F3198401140084300018CF80000AB
:1008200080BD4EF60C514FF6FF03CEF200010A6870
:100830001A4060F30A2242F0806040F0FD700860C8
:10084000704780B501F07F0E00EB411C11F0800F66
:1008500000EB4E1000F1280008BF0CF50A702AB119
:100860000121C3808172190C018102E00021838083
:100870008172002080BD704700EB4112D0F85C040B
:10088000D26B02F056BB00EB4112D0F85C04D2F8F8
:100890003C2202F09FBB10B5044601F07F000A46DF
:1008A00004EB401312F0800F4FEAD21203F128013B
:1008B00008BF03F50A714A70087094F828040128EB
:1008C00001D1022008E0012084F82804206802F009
:1008D000BAFF002084F82804C0B210BDB0B50446A9
:1008E00001F07F030A4600EB4110002504EB4311A1
:1008F00012F0800F01F1280108BF00F50A71D0093C
:100900000B708D70487094F82804012801D10225DD
:1009100007E0012084F82804206803F02EF884F80A
:100920002854E8B2B0BD70B5064601F07F000C4611
:1009300006EB401514F0800F05F1280108BF05F5FE
:100940000A71E5094D7008700A61CB7096F82804A9
:10095000012801D1022008E0012086F8280430682F
:1009600002F060FE002086F82804C0B270BD80B599
:1009700001F07F0C4FF0000E00EB4C1101F50F77EA
:1009800087E80C4081F829E281F828C201F50A7154
:10099000006803F049F8002080BDB0B5044601F0BE
:1009A0007F050A4600EB411004EB451112F0800F61
:1009B0004FEAD21201F1280108BF00F50A710120A7
:1009C0000D7088704A7094F82824012A01D1022001
:1009D0000DE084F82804206803F004F825B92068A5
:1009E00004F22C4102F0C7FF002084F82804C0B2B2
:1009F000B0BD80B501F07F0C00EB4C1101F828CFA1
:100A00004FF0000C01F1140E8EE80C1001224A7018
:100A1000006803F009F8002080BD2DE9F04F83B095
:100A20000446006803F0CDF810F4004F01D12068AF
:100A3000DEE14FF0000AADF80AA0ADF808A020688A
:100A4000B0F94410B1F1FF3FADF80A1000F3D081C6
:100A500004F22C4148F60F790191BDF80A1011F00B
:100A60000F0B34D04FEA4B011FFA81F830F8181001
:100A7000ADF80810BDF90810B1F1FF3F00F31C817B
:100A800030F8181040F68F7204EB4B1909F50A770D
:100A9000114020F8181099F83212002900F0B280A5
:100AA000397830F82120B0F8503003EBC10112F44E
:100AB000804F00EB410140F0BB80D1F80C546FF344
:100AC0009F25002D00F0C180B9F83022B7E0BDF8B5
:100AD0000A20018812F0100F2AD101EA09010180D1
:100AE000B0F8501094F8282001EBC20100EB41004F
:100AF000D0F804046FF39F206064E16B0844002188
:100B0000E0632046FFF7B8FE94F82400002800F0C8
:100B10006781206C002840F06381206894F82410DD
:100B200041F08001C9B2A0F84C1084F824A057E12C
:100B3000ADF80810BDF8081011F4006F45D1BDF9EB
:100B40000810B1F1FF3F00F34B81018840F68F722E
:100B500011400180B0F8501094F8282201EBC20136
:100B600000EB4101D1F80C346FF39F23002BC4F844
:100B700044320DD0B4F82C22D4F83C129BB203F0CE
:100B800023F8D4F83C02D4F844120844C4F83C02D8
:100B900020460021FFF777FE2068B0F85010D4F807
:100BA000383200F20C423F2BC0F008815F0140F266
:100BB000FF3613F01F0F27EA060708BF07F5F847AF
:100BC00007F4F84343F40043FEE0B0F8501094F803
:100BD000282201EBC20100EB4101D1F80C3401994C
:100BE0006FF39F23C4F84432B4F82C2202F0ECFFD8
:100BF000206840F68F72018811400180204600F085
:100C000044FAEDE0B0F850103A7801EBC20100EB85
:100C10004101D1F80C546FF39F25002D00F0CC80DA
:100C2000B9F82C22D9F83C12ABB202F0CDFF19E092
:100C3000D1F804546FF39F253DB1B9F82E22D9F8AD
:100C40003C12ABB202F0C0FF00E00025387821680A
:100C500040F60F7331F820201A4048F2C0031A43BF
:100C600021F82020D9E98F10D9F84432AAB21344D0
:100C700011440028C9F84432C9F83C1203D0D9F80D
:100C80003832934204D939782046FFF7FCFD11E051
:100C90003A7802F07F0204EB4213C3E98F10C3F8E5
:100CA00044A283F829A283F8282203F50A71206858
:100CB00002F0BAFE48F60F79BDF8080010F0800F78
:100CC00000F08E80206804EB4B1707F1280630F8FF
:100CD000181001EA090120F8181097F83210A9B18C
:100CE000317830F82120B0F8503003EBC10112F018
:100CF000400F00EB410120D1D1F80C343D466FF399
:100D00009F2345F8443F2BB33A8E1FE0B0F85020A4
:100D100031783D4602EBC10200EB4202D2F80434C6
:100D20006FF39F2345F8443F13B3BA8DF96B9BB221
:100D300002F067FF206831781AE0D1F804343D46AC
:100D40006FF39F2345F8443F23B1FA8DF96B9BB2B3
:100D500002F057FF3178206840F60F7330F82120F9
:100D60001A4048F2C00303F57F531A4320F82120AC
:100D7000B0F8502002EBC10200EB4202D2F804347A
:100D80006FF39F232B60D7E90F623344002AFB6384
:100D90000ED001F07F0704EB471101F8287FC1E96D
:100DA00005320122C1F81CA04A7002F03DFE17E096
:100DB0002046FFF761FD13E0002553E703F001072C
:100DC00007EB53039B029BB242F8113043F60F72BC
:100DD0000188114048F2C00202F53F5251400180A3
:100DE0002068B0F944100029ADF80A10FFF635AEBE
:100DF00002F0E7FE10F4806F19D02068B0F84410BC
:100E000021F48061A0F84410204600F00FF994F816
:100E1000280401280BD000250120002184F824504B
:100E200084F82804206802F0E6FE84F8285420683C
:100E300002F0C7FE0146206811F4804F1EBFB0F8D3
:100E4000441021F48041A0F8441002F0BAFE01469B
:100E5000206811F4005F1EBFB0F8441021F4005167
:100E6000A0F8441002F0ADFE0146206811F4805F46
:100E700015D0B0F8401021F00401A0F84010B0F8EF
:100E8000401021F00801A0F84010204600F0E0F8E2
:100E90002068B0F8441021F48051A0F8441002F00A
:100EA00090FE10F4006F1AD02068B0F8401041F0A6
:100EB0000801A0F84010B0F8441021F40061A0F837
:100EC0004410B0F8401041F00401A0F8401002F0C6
:100ED00078FE10F4805F02D1204600F0F7F8206819
:100EE00002F06FFE10F4007F09D02068B0F84410C3
:100EF00021F40071A0F84410204600F0ADF82068FD
:100F000002F05FFE10F4807F06D02068B0F8441035
:100F100021F48071A0F8441003B0BDE8F08FF0B563
:100F200085B0044600285BD094F8290428B9002035
:100F300084F82804204600F057F8032084F8290498
:100F4000206802F00FFD94E82F50D4E907678DE880
:100F50002050CDE9036702F074FC206800210025D1
:100F600002F047FE0120002100226318203183F89F
:100F7000282083F829009A860132B1F5F07F83F8A2
:100F80002B50C3E90E551D64EFD100200021002233
:100F90006318203183F8282283F829029A860132C7
:100FA000B1F5F07F83F82B02C3E98E00C3F840024D
:100FB000EED194E88F00D4E90565D4E907CECDE9F8
:100FC000007602AE86E8205002F0BAFC002501202F
:100FD00084F8245084F82904206802F0AFFC00E073
:100FE0000125284605B0F0BD45F600410068C4F271
:100FF0000001884218BF704780B582B041F21C00E2
:101000000122C4F20200016841F4000101600121E3
:10101000006800F40000019001981420FFF7CFFB56
:10102000142002B0BDE88040FFF7BCBB10B50446F9
:101030008068022818BFFFF70DF9D4F85C0401217D
:1010400002F099F8D4F85C04BDE8104002F060B8F2
:10105000D0F85C0402F07BB8D0F85C0402F07DB8F4
:1010600010B5044690F82804012801D102200AE0B6
:10107000012084F8241084F82804206802F0BBFDC5
:10108000002084F82804C0B210BDD0F85C2400F21F
:101090002C41104602F084B810B5044690F828049C
:1010A000012801D102200FE00120012184F8280449
:1010B0002046FFF7E0FB206802F03EFC206802F0CB
:1010C00072FD002084F82804C0B210BD10B504469B
:1010D000D0F85C0402F0B3F8A06938B14EF61050B5
:1010E000CEF20000016841F00601016010BD2DE95B
:1010F000F04182B00446007841F20406C4F20206D0
:10110000C00762D0B06910F0805F0BD1B0694FF0BA
:10111000010840F08050B061B06900F0805001904B
:10112000019801E04FF0000847F20007C4F2000701
:10113000386810F4807F10D1386840F480703860CF
:10114000FFF7BFFA0546386810F4807F05D1FFF736
:10115000B8FA401B6428F6D94EE0F06910F44070EC
:1011600025D0616801F44071884220D040F24041AE
:10117000F0690122C4F242210A60002210F0010F3E
:101180000A6020F44071F16111D0FFF79AFA054628
:10119000F06910F0020F0AD141F28837FFF791FA97
:1011A000401BB84228D8F06910F0020FF6D0F06961
:1011B0006168B8F1000F20F4407040EA0100F0616E
:1011C0001EBFB06920F08050B061206810F0020F9F
:1011D00005D03168A26821F4404111433160C00656
:1011E00005D53068616920F4800008433060002034
:1011F000C0B202B0BDE8F0810320F9E770472DE9E5
:10120000F04141F2000704464FF480500D46C4F20D
:101210000207395801F00701A94209D2395821F0D3
:10122000070129433950385800F00700A84257D128
:10123000206810F0020F11D0410742BF796841F4D5
:10124000E0617960010742BF796841F460517960DB
:101250007968A26821F0F00111437960C00738D1A4
:101260004FF48050395801F00701A94209D9395883
:1012700021F0070129433950385800F00700A842EF
:101280002ED1206810F0040F05D07968E26821F4AF
:10129000E06111437960000706D57868216920F480
:1012A000605040EAC100786000F098F8796844F234
:1012B0003C120024C0F60002C1F30311515CC84087
:1012C00040F25401C2F2000108600020FFF71FFA4B
:1012D00007E06068012807D1396811F4003F0BD19D
:1012E0000124E0B2BDE8F0813968022802D1890109
:1012F000F6D501E08907F3D5796821F003010843A9
:101300007860FFF7DEF906466068022813D00128EE
:1013100024D1786800F00C000428A1D041F288386C
:10132000FFF7CFF9801B404529D8786800F00C0002
:101330000428F5D194E7786800F00C0008283FF401
:101340008FAF41F28838FFF7BCF9801B404516D8B3
:10135000786800F00C000828F5D181E7786810F073
:101360000C0F3FF47DAF41F28838FFF7AAF9801BDC
:10137000404504D8786810F00C0FF6D170E70324CC
:10138000AFE74C200121C4F242200160704740F2D7
:10139000540041F2040144F24C12C2F20000C4F2C3
:1013A0000201C0F6000200680968C1F30221515C25
:1013B000C840704740F2540041F2040144F24C121C
:1013C000C2F20000C4F20201C0F60002006809681F
:1013D000C1F3C221515CC8407047000041F20401D2
:1013E00042F20040C4F20201C0F2F4000A6802F0C6
:1013F0000C03042B08BF7047082B0DD1C2F3834C9C
:101400000CA312F4803F13F80C300AD140F6001000
:10141000C0F23D005843704741F20020C0F27A000C
:101420007047096807A25843C1F34041515CB0FBC3
:10143000F1F0704702030405060708090A0B0C0DBA
:101440000E0F10100102000010B541F20804C4F2A2
:101450000204206810F0800F08BF10BDFFF7CEFE19
:101460008020A07010BD2DE9F04383B004460078C1
:1014700041F2000941F20407C4F20209C4F2020772
:10148000C0075AD0386800F00C0004281BD0386818
:1014900000F00C00082803D1386810F4803F12D106
:1014A0006068C0B1B0F5803F08D0D9F80010B0F541
:1014B000A02F2AD141F48020C9F80000D9F80000FB
:1014C00040F4803029E0D9F8000010F4003F34D017
:1014D000606890BB3CE1D9F8000020F48030C9F886
:1014E0000000D9F8000020F48020C9F80000FFF7C0
:1014F000E8F80546D9F8000010F4003F1DD0FFF7CA
:10150000E0F8401B6428F5D976E121F48030C9F871
:101510000000D9F8000020F48020C9F80000FFF78F
:10152000D0F80546D9F8000010F4003F05D1FFF7C8
:10153000C8F8401B6428F5D95EE12078800735D5CE
:10154000386810F00C0F08D0386800F00C0008283C
:101550000CD1386810F4803F08D1D9F8000010F0A1
:10156000020F1AD02069012817D0F1E0216900206C
:10157000C4F24220002900F0B28001210160FFF78F
:10158000A0F80546D9F8000010F0020F05D1FFF7CA
:1015900098F8401B0228F5D92EE1D9F800006169BE
:1015A00020F0F80040EAC100C9F8000020780007E8
:1015B00038D5A1690020C4F2422019B30121C0F836
:1015C0008014FFF77EF80546386A10F0020F05D147
:1015D000FFF777F8401B0228F6D90DE140F25400DE
:1015E00044F6D351C2F20000C1F262010068A0FBD0
:1015F0000101480A029000BF0298411E0028029192
:10160000F9D10FE00021C0F88014FFF75AF8054621
:10161000386A10F0020F05D0FFF753F8401B02287C
:10162000F6D9E9E02078400740F18A80B86910F0E7
:10163000805F0BD1B8694FF0010840F08050B8616D
:10164000B86900F080500190019801E04FF0000867
:1016500046F20006CFF6FE7659F8060010F4807FB9
:1016600013D159F8060040F4807049F80600FFF7DE
:1016700028F8054659F8060010F4807F05D1FFF7D9
:1016800020F8401B6428F5D9B6E0E06858B101287D
:1016900005D0F969052833D141F00400F861F869F3
:1016A00040F0010032E0F86920F00100F861F869CB
:1016B00020F00400F861FFF704F80546F86910F01F
:1016C000020F36D041F28836FEF7FBFF401BB042D6
:1016D00000F29280F86910F0020FF5D129E00021A4
:1016E0000160FEF7EEFF0546D9F8000010F0020F8A
:1016F0003FF45CAFFEF7E5FF401B0228F4D97BE026
:1017000021F00100F861F86920F00400F861FEF7AB
:10171000D8FF0546F86910F0020F0AD141F2883669
:10172000FEF7CFFF401BB04266D8F86910F0020FF9
:10173000F6D0B8F1000F1EBFB86920F08050B86134
:10174000E669002E4AD0386800F00C00082801D164
:10175000012052E040F200080020C4F24228C8F8FC
:101760006000FEF7AEFF0546D9F80000022E00F03B
:10177000007032D148B1FEF7A4FF401B02283BD8CD
:10178000D9F8000010F0007FF5D1206AB0F5803F55
:1017900005D13968A26821F40031114339603968F4
:1017A000626A104321F47411084338600120C8F8BC
:1017B0006000FEF786FF0446D9F8000010F0007FB5
:1017C0000CD1FEF77EFF001B022815D8D9F80010B7
:1017D000002011F0007FF4D00FE008B900200CE0E9
:1017E000FEF76FFF401B032806D2D9F80010002037
:1017F00011F0007FF4D100E00320C0B203B0BDE8D7
:10180000F08370B50546C0B300264FF0000CAE6201
:1018100095F8510020B9284600F032F8D5F828C0D4
:10182000022185F8511029680A6822F040020A60F6
:10183000D5E90123D5E903041A4310436A6920431B
:101840001043AA6902F400731843EB6918432B6A2A
:10185000184340EA0C000860042000EA12406A6A5B
:1018600010434860E86A0861C86920F40060C861F4
:1018700001206E6585F8510000E00126304670BDFC
:1018800070B586B0002643F60001CDE90466CDE9C7
:101890000266C4F20001006888423DD043F20001B4
:1018A000C4F20101884266D141F2180040F60044BA
:1018B00002ADC4F20200C4F20104016841F4805197
:1018C0000160016801F4805101910199016841F0C2
:1018D000080101602946006800F0080001900198A5
:1018E0000220039028200290032005902046FEF756
:1018F000F3FD002010210390029104902046294618
:10190000FEF7EAFD0420C4F20100016841F0E06145
:1019100041F0010101602EE041F2180040F6004460
:1019200002ADC4F20200C4F20104416841F48041F6
:101930004160416801F4804101910199016841F0E1
:10194000080101602946006800F008000190019834
:10195000022003904FF4204002900320059020467F
:10196000FEF7BAFD4FF480400396294602902046C8
:101970000496FEF7B1FD06B070BD2DE9F04782B0C8
:10198000044690F850001D4616468A46012801D1AB
:101990000220C3E0012084F85000FEF792FE94F884
:1019A00051108146012964D1BAF1000F4FF00100B6
:1019B00018BF002E00F0AC80002D00F0A98094F834
:1019C0005100DDF82880012804BF052084F851006B
:1019D00000206065E587A663A587C4F830A0A586CA
:1019E000C4E91000E5862068016811F0400F02BFCD
:1019F000016841F040010160E2686168B2F5006F82
:101A000045D111B1E18E012905D13AF8021BC1601F
:101A1000E08E0138E086012708F10105E08E10B95B
:101A2000E08F00286AD067B1E08E58B120688168E5
:101A300011F0020F06D03AF8021BC160E08E0138A7
:101A4000E0860027E08F58B12068816811F0010F0F
:101A500006D0C068012726F8020BE08F0138E08726
:101A6000002DDBD0FEF72DFEA0EB09004045D5D3BD
:101A70004DE06068B0F5827F07D10220042947D18C
:101A8000A16800293FF490AF42E0022040E011B18C
:101A9000E18E012905D11AF8011B0173E08E01388E
:101AA000E086012708F10105E08E08B9E08F28B330
:101AB00067B1E08E58B12068816811F0020F06D03E
:101AC0001AF8011B0173E08E0138E0860027E08FD1
:101AD00058B12068816811F0010F06D0C068012755
:101AE00006F8010BE08F0138E087002DDCD0FEF70F
:101AF000E8FDA0EB09004045D6D308E020460221CE
:101B000001224346CDF8009000F043FC50B1032081
:101B1000002184F85010012184F85110C0B202B0A5
:101B2000BDE8F0872046802100224346CDF8009092
:101B300000F02FFC38B1606D40F02000606520207F
:101B400060650120E4E7A16800200029E0D1019050
:101B50002168CA680192896801910199D8E7411EFC
:101B60000020B0EB116F1CBF012070474EF2100235
:101B7000F023CEF2000251604EF62351CEF2000166
:101B80000B70072190601160704710B5044640B398
:101B900094F8390028B9002084F83800204600F075
:101BA00022F8242084F839002068C16821F400510B
:101BB000C160204600F002FF2068016921F49041D5
:101BC0000161416921F02A014161C16841F400517C
:101BD000C16000202021E06384F8391084F83A10B5
:101BE00010BD012010BD70B586B0002644F600017E
:101BF000CDE90466CDE90266C4F2000100688842BE
:101C000032D043F60001C4F2010188425DD141F2B5
:101C1000180040F6000402ADC4F20200C4F2010450
:101C2000016841F480410160016801F48041019143
:101C30000199016841F0040101602946006800F043
:101C4000040001900198022003904FF4007002906C
:101C5000032005902046FEF73FFC00204FF48061F2
:101C60000390029104902CE041F2180002ADC4F2FE
:101C70000200416841F480214160416801F4802103
:101C800001910199016841F008010160294600684D
:101C900000F0080001900198022003904FF480604A
:101CA00002900320059040F60000C4F2010000F508
:101CB00080642046FEF710FC4FF40060039602900B
:101CC000049620462946FEF707FC06B070BDFEE7E5
:101CD0002DE9F04F85B041F21800002440F60008CD
:101CE00000220494C4F20200C4F20108016808F55D
:101CF000006741F010010160016801F010010091DE
:101D00000099016841F020010160016801F02001A3
:101D100000910099016841F004010160016801F03F
:101D2000040100910099016841F0080101607E21E1
:101D3000006800F00800009000983846FEF7BCFCF0
:101D400008F5806541F2830100222846FEF7B4FCC5
:101D500040464FF480710022FEF7AEFC40464FF43F
:101D6000004101224FF0010BFEF7A6FC284640215E
:101D70000122FEF7A1FC40F2000901AE8020C1F271
:101D800011093146CDF80890019038460394FEF7CA
:101D9000A3FB09F5001A4FF400503146CDF808A016
:101DA000019038460394FEF797FB4FF4804002946D
:101DB0003146019038460394FEF78EFB09F58010FA
:101DC000314602904FF40040019038460394FEF7EC
:101DD00083FB6E20CDF808B04FF003093146019027
:101DE00038460394CDF81090FEF776FB4046314616
:101DF000CDE9019A0394FEF76FFBCC20CDF8089053
:101E0000314601904046FEF767FB1020CDF808B040
:101E10004FF0020A3146019038460394CDF810A0E5
:101E2000FEF75AFB28463146CDE901BBCDE9034A0E
:101E3000FEF752FB41F2C200CDF808B031460190E6
:101E40002846CDE90349FEF747FB00203146C1F2A1
:101E5000110002900420019028460394FEF73CFBF9
:101E60004FF48070CDF808B0314601904046CDE97E
:101E7000034AFEF731FB4FF40040CDF808B031467D
:101E800001904046CDE90349FEF726FB28200321B7
:101E90000322FEF794FC2820FEF784FC05B0BDE881
:101EA000F08F80B540F6402043F200024FF482717B
:101EB00000234FF4007C4FF0100EC2F20000C4F279
:101EC0000102C0E900210A21C0E90233C0E904335C
:101ED000C0E906CEC0E90833C0E90A31FFF791FC3A
:101EE000002814BFBDE8804080BDFEF7B3B980B5BF
:101EF00040F6982043F600024FF4612100234FF092
:101F00000C0CC2F20000C4F20102C0E90021C0E9D9
:101F10000233C0E9043CC0E90633FFF736FE00286F
:101F200014BFBDE8804080BDFEF794B980B540F293
:101F3000783040F20C010022C2F20000C2F200012F
:101F400000F0BBFF08B1FEF785F940F2783040F2AF
:101F50007401C2F20000C2F2000101F096F908B16A
:101F6000FEF778F940F27830C2F2000001F0A1F9F2
:101F700008B1FEF76FF940F2A0100121C4F2212050
:101F8000016080BDFEE7FFF75FBA70B584B048F22C
:101F90009810002601210DF10E020123C4F2212028
:101FA000466001600A200DF10F018DF80F6000906E
:101FB00040F64020C2F20000FFF7DFFC40F2580478
:101FC00030200522C2F20004214600F09FF80DF1F6
:101FD000090510200522294600F056F820782978B6
:101FE000814209D1013601340135F0B20428F5D916
:101FF00000F003F804B070BDFEE7B0B548F29C14E1
:1020000000252720FF21C4F22124256000F0C2F81A
:1020100040F21A10FF21C2F200000580E22000F019
:10202000B9F844F254112A200522C0F6000100F04C
:102030006DF844F2591130200522C0F6000100F07D
:1020400065F821200121012500F0A4F822200121BA
:1020500000F0A0F82320012100F09CF824200021AA
:1020600000F098F825206D2100F094F831200C2123
:1020700000F090F82620272100F08CF820200F2176
:1020800000F088F82560B0BD2DE9F04F83B014460C
:1020900048F298120D4600214FF00A0B0123C4F2BA
:1020A000212211608DF8090040F640200DF1090150
:1020B00002AACDF800B0C2F20000FFF75EFC9DF866
:1020C0000880CCB140F640294FF0FF0A0DF10B0615
:1020D0000DF10A07C2F20009484631463A4601238B
:1020E0008DF80BA0CDF800B0FFF747FC9DF80A0073
:1020F000013C05F8010BEFD148F298100121C4F220
:1021000021200160404603B0BDE8F08F2DE9F04F7B
:1021100083B0144648F298120D4600214FF00A0B86
:102120000123C4F2212211608DF8090040F64020FD
:102130000DF1090102AACDF800B0C2F20000FFF7CC
:102140001CFC9DF80880DCB140F640294FF0000AE5
:102150000DF10B060DF10A07C2F2000915F8010B8B
:1021600031463A460123CDF800B08DF80B004846C1
:10217000FFF703FC0AF1010A5FFA8AF0A042EDD3EF
:1021800048F298100121C4F221200160404603B0BA
:10219000BDE8F08F2DE9F04383B048F2981840F67F
:1021A00040250C4600210A2702AA01234FF001090D
:1021B000C4F22128C2F20005C8F800108DF8090009
:1021C0000DF1090128460097FFF7D7FB9DF808603D
:1021D0000DF10B010DF10A02284601238DF80B4089
:1021E0000097FFF7CAFBC8F80090304603B0BDE87F
:1021F000F083000070B582B040F23410C4F22220A7
:102200000068002858D148F2981500200DF1070108
:102210000DF1060201230126C4F221252860FF20CA
:102220008DF807000A20009040F64020C2F200001E
:10223000FFF7A3FB9DF8064027202E602146FFF7FD
:10224000A9FF14F0400F04D11EA0214601F012FD99
:1022500032E040F21C1461200C22C2F2000421463C
:10226000FFF712FFE220FF21FFF794FF207878B1FB
:10227000002612A5C1B2284601F0FCFC0136F0B2DE
:10228000205C0028F6D1300602D00DA001F044FFFA
:10229000204600F0D5F840F204012068C2F20001A7
:1022A00008602079087140F21910C2F2000001782C
:1022B000B1FA81F14909017002B070BD25642000B6
:1022C0000D0000006572726F723A2030782530324E
:1022D000580D0A00704740F23C10C2F2000001782D
:1022E00001310170C9B2042938BF7047B0B540F25E
:1022F0003D1C40F2191200230024C2F2000CC2F26D
:102300000002037001209CF800E0127800FA0EF140
:1023100041EA421140F21812C2F20002127841EA78
:10232000821140F25102C2F20002127841EAC21157
:1023300040F28412C4F22222C1F3C01501344900D4
:102340009560E5B210601360082DF5D340F20400EB
:10235000002101230024C2F2000010F80E00C04347
:10236000C0F3C015013440009560E5B21360116000
:10237000082DF5D30120BEF1030F50600EF10100CE
:1023800088BF00208CF8000000205060BDE8B040FD
:1023900070472DE9F04381B0814600680F461D4625
:1023A000164681683940C91BB1FA81F14909914249
:1023B00014D0DDF820806C1C44B18DB1FEF781F99A
:1023C000A0EB0801D9F80000A94209D28168394080
:1023D000C91BB1FA81F14909B142EDD1002029E0D0
:1023E000416821F0E0014160D9F80410B1F5827F25
:1023F0000BD1D9F80810B1F5004F02D0B1F5806FBC
:1024000003D1016821F040010160D9F82810B1F52D
:10241000005F08D101684DF6FF721140016001684C
:1024200041F400510160002089F85000012089F832
:1024300051000320C0B201B0BDE8F0837047000036
:1024400080B540F2401C00224FF0020EC2F2000C98
:10245000CCE9002207E08CF8001026E20EF1010E14
:102460000CF8013021E2D1B2415C842900F21D82D6
:10247000DFE811F032022E022A0291002602210228
:1024800091001D0291009100170213020F020B022E
:1024900007020302FF019100FA01F6019100910089
:1024A000F101ED01E901E501E101DD01D901910051
:1024B0009100D401CF019100CB01C701C301BF013D
:1024C000BB01B701B30191009100AE01A9019100D8
:1024D000A501A1019D019901950191018D0188013D
:1024E00091008401910091007F017B0177019100AF
:1024F000910072016E0191006A01660162015E0144
:102500005A01560152014E014A0191004601420111
:102510003E013A01360132012E012A012601220133
:102520001E011A01160112010E010A010601910095
:102530000201FE00FA009100F600F200EE00EA004F
:10254000E6009100E200DE00DA00D600D200CE0004
:10255000CA00C600C20091009100BD009100B80001
:10256000B400B000AC00A800A400A0009C00910042
:1025700097009300910091008D00890085005FFA1B
:102580008EF129236AE75FFA8EF12C2366E75FFA62
:102590008EF13A2362E7FFE72DE05FFA8EF14C23DC
:1025A0005CE79CF8001041F0040154E75FFA8EF1FB
:1025B000332353E75FFA8EF14D234FE75FFA8EF135
:1025C0005B234BE75FFA8EF1262347E75FFA8EF134
:1025D0003B2343E75FFA8EF117233FE75FFA8EF163
:1025E00021233BE79CF8001041F0080133E75FFA34
:1025F0008EF1272332E7B3E05FFA8EF140232DE717
:102600005FFA8EF15A2329E75FFA8EF1492325E715
:102610005FFA8EF1472321E75FFA8EF152231DE71F
:102620005FFA8EF1412319E75FFA8EF10C2315E76B
:102630005FFA8EF1082311E75FFA8EF145230DE76B
:102640005FFA8EF15E2309E75FFA8EF1592305E701
:102650005FFA8EF1582301E75FFA8EF11A23FDE647
:102660005FFA8EF16323F9E65FFA8EF11923F5E63E
:102670005FFA8EF11C23F1E65FFA8EF10A23EDE694
:102680005FFA8EF15F23E9E65FFA8EF16023E5E6FB
:102690005FFA8EF16523E1E65FFA8EF13E23DDE617
:1026A0005FFA8EF15623D9E65FFA8EF12823D5E63C
:1026B0005FFA8EF12523D1E65FFA8EF14E23CDE647
:1026C0005FFA8EF13C23C9E65FFA8EF11B23C5E663
:1026D0005FFA8EF12B23C1E65FFA8EF13D23BDE652
:1026E0005FFA8EF11F23B9E65FFA8EF12E23B5E66D
:1026F0005FFA8EF11423B1E65FFA8EF12023ADE686
:102700005FFA8EF10E23A9E65FFA8EF13123A5E67A
:102710005FFA8EF15C23A1E65FFA8EF115239DE648
:102720005FFA8EF1352399E65FFA8EF11E2395E666
:102730005FFA8EF1112391E65FFA8EF106238DE6A2
:102740005FFA8EF1302389E65FFA8EF10B2385E67E
:102750005FFA8EF1132381E65FFA8EF134237DE672
:102760000BE05FFA8EF1232378E65FFA8EF11D23EA
:1027700074E65FFA8EF1222370E62DE05FFA8EF1A7
:1027800012236BE69CF8001041F0010163E65FFA4A
:102790008EF12D2362E65FFA8EF12A235EE65FFA60
:1027A0008EF14F235AE65FFA8EF1462356E65FFA22
:1027B0008EF1052352E65FFA8EF13F234EE65FFA73
:1027C0008EF139234AE69CF8001041F0020142E6FE
:1027D0005FFA8EF1242341E624E05FFA8EF1502364
:1027E0003CE65FFA8EF1552338E65FFA8EF142231C
:1027F00034E65FFA8EF1182330E65FFA8EF1382363
:102800002CE65FFA8EF12F2328E65FFA8EF1432340
:1028100024E69CF8001041F020011CE65FFA8EF1DE
:102820000F231BE61BE05FFA8EF1542316E65FFAD6
:102830008EF15D2312E65FFA8EF153230EE65FFA06
:102840008EF116230AE65FFA8EF1442306E65FFA5C
:102850008EF1612302E65FFA8EF15123FEE524E05A
:102860005FFA8EF14A23F9E59CF8001041F040012F
:10287000F1E55FFA8EF10723F0E55FFA8EF1572359
:10288000ECE55FFA8EF11023E8E55FFA8EF148235C
:10289000E4E55FFA8EF14B23E0E55FFA8EF1372332
:1028A000DCE55FFA8EF10D23D8E50132DBE55FFA56
:1028B0008EF10423D2E59CF8001041F01001CAE526
:1028C0005FFA8EF13623C9E55FFA8EF10923C5E57B
:1028D0005FFA8EF16223C1E540F2783040F2401198
:1028E0000822C2F20000C2F20001BDE8804000F000
:1028F0007ABA80B5FDF7EBFEBDE88040FFF7EBBC90
:10290000B0B596B0002401204FF480314FF400326E
:102910000225CDE91144CDE90F44CDE90444CDE9C8
:1029200002440C900D910E9210904FF4E010CDE9FE
:10293000135115900CA8FEF796FD0F200221CDE94A
:1029400007054FF480600994CDE90A0407A8FEF753
:1029500056FC122001904FF40040039001A8069409
:10296000FEF7C5FBFEF70DFD16B0B0BD41F200004D
:102970000022C4F20200CFF6FF02016841F001011B
:102980000160416811404FF6FF724160CFF6F66278
:10299000016811400160016821F4802101604168F3
:1029A00021F4FE0141604FF41F0181604EF6085092
:1029B0004FF00061CEF20000016070472DE9F04356
:1029C00081B00446006841F20C660169E26821F4B6
:1029D000405111430161A168D4E90423C768114340
:1029E000B74319433943C1604169A26921F4407179
:1029F0001143416143F60001C4F20101884242D013
:102A0000FEF7C5FCD4F804808146FEF7C0FC65687B
:102A10000646FEF7BCFC6168192778438900B0FBC5
:102A2000F1F048F21F51C5F2EB11A0FB01235A0946
:102A3000642302FB130206FB07F3AE00B3FBF6F3BD
:102A4000181A4FEA88031044322202EB0010A0FB50
:102A50000102F02000EA521009FB07F2B2FBF3F288
:102A6000A2FB01124FF6F071C7F6FF7101EA5201A5
:102A70004518FEF78CFC616878438900B0FBF1F6DD
:102A8000FEF785FC41E0FEF795FCD4F80480814612
:102A9000FEF790FC65680646FEF78CFC6168192716
:102AA00078438900B0FBF1F048F21F51C5F2EB11F9
:102AB000A0FB01235A09642302FB130206FB07F360
:102AC000AE00B3FBF6F3181A4FEA88031044322223
:102AD00002EB0010A0FB0102F02000EA521009FBFB
:102AE00007F2B2FBF3F2A2FB01124FF6F071C7F648
:102AF000FF7101EA52014518FEF75CFC61687843FA
:102B00008900B0FBF1F6FEF755FC616848F21F52F0
:102B10007843C5F2EB128900B0FBF1F0A0FB02375D
:102B2000311A7B09642703FB17000844322101EBAB
:102B30000010A0FB0201C1F3431021682843886004
:102B400001B0BDE8F08380B5D0F8142252689047F8
:102B5000002080BD80B513460A46002100F0C6FA69
:102B6000002080BD80B513460A46002100F070FBAE
:102B7000002080BD10B58021044600F03CFB2046BB
:102B80000021BDE8104000F036BB80B505210022D1
:102B90000023C0F8F411002100F0A8FA002080BD45
:102BA00080B513460A460221C0F8F4110021C0E99D
:102BB000063300F04DFB002080BD80B504210022CB
:102BC0000023C0F8F411002100F042FB002080BD7A
:102BD00010B540F264140A4603A0C2F20004214674
:102BE00000F09BF8204610BD48494420436F6E66B4
:102BF000696700001220088040F26000C2F2000005
:102C00007047000010B540F264140A4603A0C2F2F7
:102C10000004214600F081F8204610BD48494420B8
:102C2000496E746572666163650000000420088067
:102C300040F2F000C2F200007047000010B540F210
:102C400064140A4603A0C2F20004214600F065F8AD
:102C5000204610BD53544D6963726F656C65637493
:102C6000726F6E696373000010B540F264140A4617
:102C700003A0C2F20004214600F04FF8204610BD28
:102C800053544D33322048756D616E20696E746502
:102C9000726661636500000070B51A2008804FF20B
:102CA000E870C1F6FF7001688268891830D040F280
:102CB000F40C40684FF0000E302237230025C2F29A
:102CC000000C0CF1020403EB1176B1F1204F38BF78
:102CD00042EA11760901665545F001060235102DCC
:102CE00004F806E0EFD10021302237230CF1120462
:102CF000002503EB1076B0F1204F38BF42EA107682
:102D00000001665545F001060235082DA155F0D1A8
:102D100040F2F400C2F2000070BD80B560B30378E9
:102D200073B100F1010C00231CF801EB0133BEF17B
:102D3000000FF9D15FFA83FC022303EB4C0300E0A0
:102D40000223138003224A700B7090F800E0BEF15A
:102D5000000F11D0013002234FF0000CDAB201F85D
:102D600002E043F001020233D2B201F802C010F8CF
:102D700001EBBEF1000FF1D180BDD0F818020021A7
:102D800001730020704710B58121044600F0BFF8A0
:102D9000D4F8180220B100F03EFC0020C4F818025C
:102DA000002010BD2921018040F2AC00C2F20000D9
:102DB00070470A21018040F2E400C2F2000070472F
:102DC00010B5812103220823044600F07AF910206F
:102DD00000F022FC01460028C4F818020EBF0120B2
:102DE0000020087310BD94460A4690F8FC11032990
:102DF0000CD1D0F818120B7B43B980B501230B73AB
:102E00008121634600F024FABDE88040002070472D
:102E100080B50B78D0F818C213F060030FD0202BC8
:102E200030D14B78023B092B2FD8DFE803F0052780
:102E30002E2E2E2E2E2E32360CF104011FE04B7852
:102E40000B2B14D00A2B16D0062B1BD14A8821231A
:102E5000B3EB122F25D0120A222A2BD1CA8840F2B6
:102E60002801C2F20001292A28BF292208E0887817
:102E7000CCF8080006E00CF1080100E061460122F0
:102E8000FFF78EFE0020C0B280BDFFF773FE022068
:102E9000F9E7C878CCF80400F4E78878CCF80000AB
:102EA000F0E7CA8840F2D801C2F20001092A28BF1F
:102EB0000922E5E700220021E2E798B1D0F81432B8
:102EC00013B10023C0F8143209B1C0F8101280B554
:102ED0000121027080F8FC1100F0AEF80020BDE87E
:102EE000804000E00220C0B2704780B5D0F82002D8
:102EF000FDF7F4FC032884BF022080BD40F20021CE
:102F0000C000C0F2012121FA00F0C0B280BD80B53E
:102F1000D0F82002FDF7BFFC032884BF022080BD4B
:102F200040F20021C000C0F2012121FA00F0C0B23D
:102F300080BDB0B5044659B1D4F814024269002AE4
:102F400046D094F8FC01032842D1204690473FE048
:102F5000D4F8F401022834D1D4E90710814208D909
:102F6000081A114683B2E06120461A46FFF7FAFDBF
:102F700013E0A169814217D3B1FBF0F202FB1010FC
:102F800090B9D4F8F80181420ED2204600210022E7
:102F90000025FFF7E7FDC4F8F85120460021002284
:102FA000002300F0A3F80CE0D4F81402C16829B1A2
:102FB00094F8FC01032801D1204688472046FFF7FA
:102FC000E4FD94F80002012804BF002084F8000208
:102FD0000020B0BD10B5044651B1D4F81402826986
:102FE00042B394F8FC01032824D12046904721E005
:102FF000D4F8F40103281DD1D4E9431081420CD93F
:10300000091A8142C4F80C1138BF0846114683B230
:1030100020461A46FFF79EFD0CE0D4F81402016921
:1030200029B194F8FC01032801D1204688472046A5
:10303000FFF7C3FD002010BD10B545F60042044661
:1030400040F2E0504FF0080C02230021C2F20000D1
:10305000C4F20002C0F85C44C4F82002C0E9002CAD
:10306000C0E90231C0E906110162FDF758FF08B15D
:10307000FDF7F0F8D4F82002002100221823FDF714
:10308000E0FBD4F82002802100225823FDF7D9FB71
:10309000D4F82002812100224FF48073FDF7D1FB88
:1030A000002010BDD0F8200201F07F0211F0800F47
:1030B00000EB421000F12A0208BF00F22A22107829
:1030C000704780B59446D0F820021A466346FDF753
:1030D0002AFC032884BF022080BD40F20021C000EA
:1030E000C0F2012121FA00F0C0B280BD80B5D0F855
:1030F0002002FDF73CFC032884BF022080BD40F283
:103100000021C000C0F2012121FA00F0C0B280BD50
:10311000B0B500210022082304460825FFF7D1FF9F
:103120002046802100220823C4F81051FFF7C9FF70
:103130000120256284F8FC01D4F8180228B1D4F8E3
:10314000140221794268204690470020B0BD90F8D3
:10315000FD1180F8FC110020704790F8FC11032944
:1031600007D1D0F81412C96919B180B58847BDE8F4
:1031700080400020704701740020704780B5D0F86F
:103180002002FDF76DFF032884BF022080BD40F2BE
:103190000021C000C0F2012121FA00F0C0B280BDC0
:1031A000B0B500F502750446284600F063F8B4F89F
:1031B0000E120120C4E97D0194F8080200F01F01FD
:1031C000022907D001290AD071B92046294600F00A
:1031D00075F80EE02046294600F08EF909E02046F9
:1031E000294600F0F6F904E000F08001204600F0E6
:1031F00002F80020B0BD80B5D0F82002FDF7CDFB6D
:10320000032884BF022080BD40F20021C000C0F22C
:10321000012121FA00F0C0B280BD80B5D0F82002B3
:10322000FDF73AFF032884BF022080BD40F2002151
:10323000C000C0F2012121FA00F0C0B280BD90F8B8
:10324000FC1180F8FD11042180F8FC11002070476A
:1032500080B5D0F82002FDF7CCFB032884BF022004
:1032600080BD40F20021C000C0F2012121FA00F02F
:10327000C0B280BD0A7802704A7842704A884280A3
:103280008A888280C988C180704700291ABFC0F827
:10329000141200200220C0B27047D0F8142232B1BC
:1032A00080B512689047002818BF022080BD022018
:1032B000704780B5FFF7B1FF002080BDB0B582B088
:1032C000044648780D46092800F2D080DFE800F077
:1032D0000517CE24CE5C7CCE354594F8FC0100F079
:1032E000FE00022840F0C280D4F8040204F10C0170
:1032F0000222002818BF0220E0602046E0E094F897
:10330000FC0100F0FE00022840F0B080688801282F
:1033100040F0B480002004E06888012840F0AE80CE
:103320000120C4F804022946D4F814028268204619
:1033300090472046FFF741FCA0E0E888012840F0D4
:10334000958094F8FC01032854D0022840F08E8028
:103350000020214641F8080F4DE0688840F26015D2
:10336000C2F20005C1B22870022980F07F8094F873
:10337000FC01032842D0022840F078800029D8D0F0
:10338000032084F8FC0144E0A888002840F06E8007
:10339000E888002840F06A8094F8FC01032800F0D7
:1033A0006580688800F07F052046E9B284F8FE5108
:1033B000FFF7E4FE2046FFF700FC002D0CBF0120C4
:1033C000022084F8FC0159E068884FF0FF3101EBDE
:1033D000102106294AD8DFE801F004312449493E8A
:1033E0004700D4F81012207C0A680DF106019047BE
:1033F000014658E0211D2046012261E0002940D00D
:10340000606888423FF495AFC1B22046FFF79BFB4E
:10341000297820466160FFF740FF02287FF489AFDA
:1034200024E0C0B2052821D8DFE800F0034D525750
:103430005C61D4F81012207C4A68D6E7217CD4F86D
:10344000140200290CBF816AC16A0DF10600884789
:103450000146022026E0207C40B9D4F81402416BDA
:103460000DF106008847C3E7207C98B120468021F3
:10347000FFF7C1FE20460021FFF7BDFE002002B08D
:10348000B0BD00206060022084F8FC012046FFF7F8
:103490005AFB4EE7D4F81402016B0DF10600884781
:1034A000014607204870BDF806000028E6D0EA88EB
:1034B000002AE3D0904238BF02462046ADF80620ED
:1034C000FFF76EFBDAE7D4F81012207C8A688CE7ED
:1034D000D4F81012207CCA6887E7D4F81012207C38
:1034E0000A6982E7D4F81012207C4A697DE7D4F893
:1034F0001012207C8A6978E7B0B5044608780D463A
:1035000000F06000202806D1D4F814022946826811
:10351000204690475BE06878297988B1012818D067
:10352000032854D194F8FC01032816D1688860BBA5
:1035300041F08000802828D02046FFF75CFE24E080
:1035400094F8FC0103282AD002280ED148060AD19B
:103550003DE094F8FC01032810D0022805D141F089
:103560008000802833D0204605E020468021FFF7E8
:1035700042FE20460021FFF73EFE28E0688830BB6F
:10358000480608D02046FFF7B0FCD4F814022946BC
:103590008268204690472046FFF70FFB17E001F0B6
:1035A0007F0011F0800F04EB001000F1140508BF3C
:1035B00000F582752046FFF775FD002829464FF07B
:1035C000020218BF012028602046FFF7E9FA002018
:1035D000B0BDB0B5044690F8FC010D46032803D1F8
:1035E000287910F0FE0F09D020468021FFF703FE56
:1035F00020460021FFF7FFFD0020B0BDD4F81402E3
:103600002946826820469047E8880028F4D1204661
:10361000FFF7D3FAF0E7704740F26430C2F20000DF
:103620007047000070B5CA78032A0CD8DFE802F0B2
:10363000020D161D0B7848F68F1430F82320224017
:1036400042F4007219E00B7819E00B7848F68F14F9
:1036500030F82320224042F480620EE00B7848F6D6
:103660008F1430F82320224007E00B7848F68F149F
:1036700030F82320224042F4C06220F8232030F8A2
:10368000232040F60F7448F2800C22401A4342EA8D
:103690000C0220F8232000EB83028C7A002C49D006
:1036A000168840F60F652E400CF580752E43168067
:1036B000CE88B0F8505005EBC30526F0010600EBAC
:1036C0004505C5F800640E89B0F8505005EBC303FA
:1036D00000EB430026F00103C0F808344978108855
:1036E00000F48040002946D038B1108840F60F71B0
:1036F00008400CF5804108431080108810F0400FFE
:1037000007D0108840F60F7108400CF140010843C3
:103710001080108840F60F7108400CF58041084376
:1037200040F63F7110801088084043F60F7140EA60
:103730000C0046E04D788C88B0F8506006EBC3066C
:1037400024F0010E002D42D000EB4600C0F800E44A
:10375000108810F0400F07D0108840F60F71084015
:103760000CF1400108431080108840F63F7108407A
:103770000CF1200161E038B1108840F60F7108406B
:103780000CF5804108431080108810F0400F07D0DE
:10379000108840F60F7108400CF14001084310807A
:1037A000108840F60F7108400CF14001084343F6C1
:1037B0000F711080108808400CF54051484040F6C9
:1037C0003F7110801088084040EA0C0036E000EBA2
:1037D0004604DB00C4F808E4B0F85060096900F260
:1037E0000C4033443F290ED34E0140F2FF3511F017
:1037F0001F0F26EA050608BF06F5F84606F4F8414D
:1038000041F4004105E001F0010606EB5101890297
:1038100089B240F81310108810F4804F07D0108838
:1038200040F60F7108400CF5804108431080108865
:1038300043F60F7108400CF54051484010800020BD
:1038400070BD0020704780B50A784B78897A48F2BD
:10385000800C30F822E000EB820049B30EF4804285
:1038600093B33AB1018840F60F7211400CF58042D3
:1038700011430180018811F0400F07D0018840F604
:103880000F7211400CF1400211430180018840F693
:103890000F7211400CF58042114340F63F720180D7
:1038A0000188114041EA0C01018043F60F7231E0BA
:1038B000BBB35FEA4E612BD5018840F60F72114011
:1038C0000CF14002114322E03AB1018840F60F7238
:1038D00011400CF5804211430180018811F0400F26
:1038E00007D0018840F60F7211400CF140021143DD
:1038F0000180018840F60F7211400CF14002114323
:1039000043F60F7201800188114041EA0C010180E9
:1039100040F63F720188114041EA0C01018000200D
:1039200080BD5FEA4E41C0D5018840F60F7211405C
:103930000CF580421143B7E7002070470020704724
:103940000121A0F840100021A0F84010A0F8441078
:10395000A0F85010B0F8401041F43F41A0F84010DA
:1039600000207047B0F8401044F2FF221140A0F848
:103970004010002070470020704780B50B784978D0
:1039800030F823205B0091B1510648F2B00E0BD500
:1039900030F813C040F60F710CEA010C0EF1100163
:1039A00041EA0C0120F8131040F63F7111E0510478
:1039B0004BF2800E0BD530F813C040F60F710CEAB5
:1039C000010C0EF5805141EA0C0120F8131043F66A
:1039D0000F7130F81320114081EA0E0120F8131006
:1039E000002080BD0B7800EB830C53B14A7830F88F
:1039F000231049F280007AB140F63F72A0F57F6053
:103A00000CE030F8230043F63F71014049F280009A
:103A1000CFF6FF70103002E043F60F7211404840BD
:103A2000ACF800000020704770B50A698E699642B4
:103A3000134688BF3346A3EB02038B6188BF16464B
:103A40004A788B7A012A34D1BBB30B7830F8232023
:103A5000B0F8505005EBC30500EB830300EB4505C0
:103A6000C5F80464B6B2751C0026B6EB550F13D02A
:103A700052064FEA55064FF0080258BF06228A5AEE
:103A8000496900EB4200724200F5806031F8026B38
:103A9000013220F8046BF9D1188840F60F71084004
:103AA0004BF28001CFF6FF7101F580510843188079
:103AB00022E033B35AB3097869E0B2B2002301328D
:103AC000B3EB520F0DD08B8852084C69524200EB79
:103AD000430303F5806334F8025B013223F8045B8F
:103AE000F9D1B0F85020097802EBC10200EB810354
:103AF00000EB4202C2F8046440F63F7048F2B001A5
:103B00004BE0B0F85020097802EBC10C24E0B0F88B
:103B10005020097800F204433F2E02EBC10E4FEA19
:103B2000C10C0ED3720140F2FF3416F01F0F22EACF
:103B3000040208BF02F5F84202F4F84242F40042DF
:103B400005E006F0010202EB5602920292B243F83F
:103B50001E20B0F85020944400F20C433F2E0ED3A8
:103B6000720140F2FF3516F01F0F22EA050208BF6E
:103B700002F5F84202F4F84242F4004205E006F091
:103B8000010202EB5602920292B243F81C2000EBB3
:103B9000810343F60F704BF280011A8810404840B1
:103BA0001880002070BDB0F8401041F43F41A0F8EB
:103BB00040100020704740F2E050C2F20000FCF7D5
:103BC0002CBFB0F84400704703F1010C0023B3EBA5
:103BD0005C0F08BF704700EB42004FEA5C0300F542
:103BE00080605A4250F8043B013221F8023BF9D17F
:103BF00070470020704711B98021A0F84C100020B8
:103C0000704703F1010C0023B3EB5C0F08BF704752
:103C100000EB42004FEA5C0300F580605A4231F845
:103C2000023B013220F8043BF9D17047FEE740F631
:103C30009821C2F2000109680A6812F0400FFBD017
:103C4000C2B24A60704780B5FCF74EFDFEF758FEE1
:103C5000FEF73EF8FEF74BF9FEF768F9FEF721F99B
:103C600040F218100121C2F200000170FEF78DF938
:103C7000FEE700000FB4054B10B503A9044A0298F3
:103C800000F018F810BC5DF814FB00002F3C000891
:103C90000000002002E008C8121F08C1002AFAD163
:103CA00070477047002001E001C1121F002AFBD1BC
:103CB000704700002DE9FF4F8DB00F4605460026E6
:103CC00006E025280BD0DDE90F1290476D1C761C0D
:103CD00028780028F5D111B03046BDE8F08F0024D7
:103CE000A246A1460122EC4900E0044315F8013F39
:103CF000203B02FA03F00842F7D128782A2810D096
:103D00006FF02F022878A0F13001092914D80AEBAE
:103D10008A0102EB410144F0020400EB010A6D1C30
:103D2000F0E701CF5FEA000A03D544F40054CAF17A
:103D3000000A44F002046D1C28782E2817D115F8CB
:103D4000010F44F004042A280ED06FF02F022878C7
:103D5000A0F1300109290AD809EB890102EB4101E0
:103D600000EB01096D1CF2E757F8049B6D1C2878E5
:103D70006C280FD006DC4C2817D068280DD06A2894
:103D800014D104E0742810D07A280FD10DE044F447
:103D900000140AE044F4801401E044F4401469780B
:103DA000814202D104F580146D1C6D1C2A786E2AA4
:103DB0001FD00CDC632A31D004DC002A8BD0582AB7
:103DC00011D1A3E0642A68D0692A0CD165E0732A76
:103DD0002ED004DC6F2A73D0702A04D19BE0752AA0
:103DE0006FD0782A6ED01046DDE90F129047761C0E
:103DF00050E1C4F30250022806D0032809D0042859
:103E000001CF09D0066045E101CFF117C0E900619B
:103E100040E101CF06803DE106703BE117F8040B5D
:103E20008DF8000000208DF80100EB46012003E032
:103E300057F804BB4FF0FF3061074FF0000102D488
:103E40000DE008F10101884649450FDA8045F8DBAD
:103E50001BF808100029F4D108E008F10101884698
:103E60008142FADB1BF808100029F6D1DDE90F23A7
:103E7000AAEB08008146214600F036F9304400EBF9
:103E8000080604E0DDE90F121BF8010B9047B8F1BA
:103E90000108F7D221464846F7E00A21C4F302534D
:103EA0004FF0000B0891022B04D001CFC117032B58
:103EB00009D00AE0FF1D27F00707F7E8020108E034
:103EC00032E01FE020E000B2C117042B01D140B264
:103ED000C117031E71F1000307DA4FF0000CD0EB9D
:103EE0000C006CEB01012D2302E0230504D52B23EC
:103EF0008DF82430012303E0E30701D02023F7E706
:103F0000984658E00A2110E010210EE010204FF0F2
:103F1000000B08900CE010214FF0000B44F004045B
:103F20004FF00809089103E008214FF0000B0891B9
:103F3000C4F30253022B04D001CF0021032B06D07F
:103F400006E0FF1D27F00707F7E8020103E080B253
:103F5000042B00D1C0B24FF0000823072BD5702AE4
:103F600007D0DDF820C08CF0100C5CEA0B0C05D0FB
:103F70000EE040238DF82430012308E050EA0103CD
:103F800006D030238DF824308DF825200223984662
:103F9000DDF820C08CF0080C5CEA0B0C0BD150EA69
:103FA000010301D1630706D530238DF824304FF08B
:103FB0000108A9F10109582A04D038A20B9208AAD5
:103FC0000A920BE03AA2F9E75B46089AFCF7CCF8B4
:103FD0000B9B9B5C0A9A521E0A92137050EA0102D4
:103FE000F2D10A98ADEB000000F1200B600702D57A
:103FF00024F4803401E04FF00109D94502DDA9EB3A
:104000000B0000E0002000EB0B0141440890AAEBFC
:10401000010AE00306D4DDE90F232146504600F0F3
:1040200063F806444FF0000908E009A911F80900F7
:10403000DDE90F12904709F10109761CC145F4DB57
:10404000E0030CD5DDE90F232146504600F04CF883
:10405000064404E0DDE90F1230209047761C0899F1
:10406000481E08900029F5DC08E00A980A990078B3
:10407000491C0A91DDE90F129047761CBBF1000143
:10408000ABF1010BF1DC21465046DDE90F2300F0D6
:1040900019F806446D1C1BE6092801003031323343
:1040A0003435363738396162636465660000000074
:1040B000303132333435363738394142434445465E
:1040C000000000002DE9F041044600251E46174679
:1040D000880404D405E039462020B0476D1C641ED6
:1040E000F9D52846BDE8F0812DE9F04104460025C8
:1040F0001E469046C80301D5302700E020278804DB
:1041000004D505E041463846B0476D1C641EF9D51C
:104110002846BDE8F081000010B5044601E0FFF735
:1041200086FD14F8010B04490028F8D1BDE81040C1
:104130000A20FFF77CBD0000000000200000000006
:104140000000000001020304060708090000000047
:1041500001020304895A313233895A313233000063
:10416000804100080000002018010000943C000875
:104170009842000818010020C8190000A43C00085B
:10418000000000003F065B4F66000000F52B0008B2
:104190002D2C00083D2C0008692C0008992C0008E3
:1041A000D12B0008052C000805010906A10105070F
:1041B00019E029E71500250195087501810295018F
:1041C000750881039506750825FF1900296581008A
:1041D000C001000000A24A048C5A353231000000B0
:1041E000120100020000000883042B5700020102A4
:1041F00003010000C12D0008872D0008112E0008C2
:1042000000000000000000007B2D000800000000FE
:10421000000000000000000000000000A52D0008C4
:10422000A52D0008A52D0008B32D000809022900BE
:10423000010100C03209040000020301010009214C
:10424000100100012229000705810308000A070563
:10425000010301000A0000000921110100012229C7
:10426000000000000A0600020000004001000000FB
:10427000040309041A03000000000000000000000D
:10428000000000000000000000000000000001002D
:08429000100000000000000016
:0400000508000131BD
:00000001FF
