Component: ARM Compiler 6.10.1 Tool: armlink [5d142800]

==============================================================================

Section Cross References

    startup_stm32l051xx.o(RESET) refers to startup_stm32l051xx.o(STACK) for __initial_sp
    startup_stm32l051xx.o(RESET) refers to startup_stm32l051xx.o(.text) for Reset_Handler
    startup_stm32l051xx.o(RESET) refers to stm32l0xx_it.o(.text.NMI_Handler) for NMI_Handler
    startup_stm32l051xx.o(RESET) refers to stm32l0xx_it.o(.text.HardFault_Handler) for HardFault_Handler
    startup_stm32l051xx.o(RESET) refers to stm32l0xx_it.o(.text.SVC_Handler) for SVC_Handler
    startup_stm32l051xx.o(RESET) refers to stm32l0xx_it.o(.text.PendSV_Handler) for PendSV_Handler
    startup_stm32l051xx.o(RESET) refers to stm32l0xx_it.o(.text.SysTick_Handler) for SysTick_Handler
    startup_stm32l051xx.o(RESET) refers to stm32l0xx_it.o(.text.EXTI0_1_IRQHandler) for EXTI0_1_IRQHandler
    startup_stm32l051xx.o(RESET) refers to stm32l0xx_it.o(.text.EXTI2_3_IRQHandler) for EXTI2_3_IRQHandler
    startup_stm32l051xx.o(RESET) refers to stm32l0xx_it.o(.text.EXTI4_15_IRQHandler) for EXTI4_15_IRQHandler
    startup_stm32l051xx.o(.text) refers to system_stm32l0xx.o(.text.SystemInit) for SystemInit
    startup_stm32l051xx.o(.text) refers to entry.o(.ARM.Collect$$$$00000000) for __main
    main.o(.text.main) refers to stm32l0xx_hal.o(.text.HAL_Init) for HAL_Init
    main.o(.text.main) refers to main.o(.text.SystemClock_Config) for SystemClock_Config
    main.o(.text.main) refers to gpio.o(.text.MX_GPIO_Init) for MX_GPIO_Init
    main.o(.text.main) refers to spi.o(.text.MX_SPI1_Init) for MX_SPI1_Init
    main.o(.text.main) refers to stm32l0xx_hal.o(.text.HAL_Delay) for HAL_Delay
    main.o(.text.main) refers to 24l01.o(.text.NRF24L01_Init) for NRF24L01_Init
==============================================================================

Removing Unused input sections from the image.

    Removing startup_stm32l051xx.o(HEAP), (512 bytes).
    Removing main.o(.text), (0 bytes).
    Removing main.o(.ARM.exidx.text.main), (8 bytes).
    Removing main.o(.ARM.exidx.text.SystemClock_Config), (8 bytes).
    Removing main.o(.ARM.exidx.text.Error_Handler), (8 bytes).
    Removing main.o(.ARM.use_no_argv), (4 bytes).
    Removing gpio.o(.text), (0 bytes).
    Removing gpio.o(.ARM.exidx.text.MX_GPIO_Init), (8 bytes).
    Removing spi.o(.text), (0 bytes).
    Removing spi.o(.ARM.exidx.text.MX_SPI1_Init), (8 bytes).
    Removing spi.o(.ARM.exidx.text.HAL_SPI_MspInit), (8 bytes).
    Removing spi.o(.text.HAL_SPI_MspDeInit), (48 bytes).
    Removing spi.o(.ARM.exidx.text.HAL_SPI_MspDeInit), (8 bytes).
    Removing stm32l0xx_it.o(.text), (0 bytes).
    Removing stm32l0xx_it.o(.ARM.exidx.text.NMI_Handler), (8 bytes).
    Removing stm32l0xx_it.o(.ARM.exidx.text.HardFault_Handler), (8 bytes).
    Removing stm32l0xx_it.o(.ARM.exidx.text.SVC_Handler), (8 bytes).
    Removing stm32l0xx_it.o(.ARM.exidx.text.PendSV_Handler), (8 bytes).
==============================================================================

Image Symbol Table

    Local Symbols

    Symbol Name                              Value     Ov Type        Size  Object(Section)

    ../clib/microlib/division.c              0x00000000   Number         0  uidiv.o ABSOLUTE
    ../clib/microlib/init/entry.s            0x00000000   Number         0  entry7b.o ABSOLUTE
    ../clib/microlib/init/entry.s            0x00000000   Number         0  entry5.o ABSOLUTE
    ../clib/microlib/init/entry.s            0x00000000   Number         0  entry2.o ABSOLUTE
    ../clib/microlib/init/entry.s            0x00000000   Number         0  entry.o ABSOLUTE
    ../clib/microlib/init/entry.s            0x00000000   Number         0  entry7a.o ABSOLUTE
    ../clib/microlib/init/entry.s            0x00000000   Number         0  entry11b.o ABSOLUTE
    ../clib/microlib/init/entry.s            0x00000000   Number         0  entry11a.o ABSOLUTE
    ../clib/microlib/init/entry.s            0x00000000   Number         0  entry10b.o ABSOLUTE
    ../clib/microlib/init/entry.s            0x00000000   Number         0  entry10a.o ABSOLUTE
    ../clib/microlib/init/entry.s            0x00000000   Number         0  entry9b.o ABSOLUTE
    ../clib/microlib/init/entry.s            0x00000000   Number         0  entry9a.o ABSOLUTE
    ../clib/microlib/init/entry.s            0x00000000   Number         0  entry8b.o ABSOLUTE
    ../clib/microlib/init/entry.s            0x00000000   Number         0  entry8a.o ABSOLUTE
    ../clib/microlib/string/memset.c         0x00000000   Number         0  memseta.o ABSOLUTE
    24l01.c                                  0x00000000   Number         0  24l01.o ABSOLUTE
    KEY_scan.c                               0x00000000   Number         0  key_scan.o ABSOLUTE
    PWR.c                                    0x00000000   Number         0  pwr.o ABSOLUTE
    dc.s                                     0x00000000   Number         0  dc.o ABSOLUTE
    gpio.c                                   0x00000000   Number         0  gpio.o ABSOLUTE
    handlers.s                               0x00000000   Number         0  handlers.o ABSOLUTE
    init.s                                   0x00000000   Number         0  init.o ABSOLUTE
    main.c                                   0x00000000   Number         0  main.o ABSOLUTE
    spi.c                                    0x00000000   Number         0  spi.o ABSOLUTE
    startup_stm32l051xx.s                    0x00000000   Number         0  startup_stm32l051xx.o ABSOLUTE
    stm32l0xx_hal.c                          0x00000000   Number         0  stm32l0xx_hal.o ABSOLUTE
    stm32l0xx_hal_cortex.c                   0x00000000   Number         0  stm32l0xx_hal_cortex.o ABSOLUTE
    stm32l0xx_hal_dma.c                      0x00000000   Number         0  stm32l0xx_hal_dma.o ABSOLUTE
    stm32l0xx_hal_flash.c                    0x00000000   Number         0  stm32l0xx_hal_flash.o ABSOLUTE
    stm32l0xx_hal_flash_ex.c                 0x00000000   Number         0  stm32l0xx_hal_flash_ex.o ABSOLUTE
    stm32l0xx_hal_flash_ramfunc.c            0x00000000   Number         0  stm32l0xx_hal_flash_ramfunc.o ABSOLUTE
    stm32l0xx_hal_gpio.c                     0x00000000   Number         0  stm32l0xx_hal_gpio.o ABSOLUTE
    stm32l0xx_hal_i2c.c                      0x00000000   Number         0  stm32l0xx_hal_i2c.o ABSOLUTE
    stm32l0xx_hal_i2c_ex.c                   0x00000000   Number         0  stm32l0xx_hal_i2c_ex.o ABSOLUTE
    stm32l0xx_hal_msp.c                      0x00000000   Number         0  stm32l0xx_hal_msp.o ABSOLUTE
    stm32l0xx_hal_pwr.c                      0x00000000   Number         0  stm32l0xx_hal_pwr.o ABSOLUTE
    stm32l0xx_hal_pwr_ex.c                   0x00000000   Number         0  stm32l0xx_hal_pwr_ex.o ABSOLUTE
    stm32l0xx_hal_rcc.c                      0x00000000   Number         0  stm32l0xx_hal_rcc.o ABSOLUTE
    stm32l0xx_hal_rcc_ex.c                   0x00000000   Number         0  stm32l0xx_hal_rcc_ex.o ABSOLUTE
    stm32l0xx_hal_spi.c                      0x00000000   Number         0  stm32l0xx_hal_spi.o ABSOLUTE
    stm32l0xx_hal_tim.c                      0x00000000   Number         0  stm32l0xx_hal_tim.o ABSOLUTE
    stm32l0xx_hal_tim_ex.c                   0x00000000   Number         0  stm32l0xx_hal_tim_ex.o ABSOLUTE
    stm32l0xx_it.c                           0x00000000   Number         0  stm32l0xx_it.o ABSOLUTE
    system_stm32l0xx.c                       0x00000000   Number         0  system_stm32l0xx.o ABSOLUTE
    RESET                                    0x08000000   Section      192  startup_stm32l051xx.o(RESET)
    .ARM.Collect$$$$00000000                 0x080000c0   Section        0  entry.o(.ARM.Collect$$$$00000000)
    .ARM.Collect$$$$00000001                 0x080000c0   Section        4  entry2.o(.ARM.Collect$$$$00000001)
    .ARM.Collect$$$$00000004                 0x080000c4   Section        4  entry5.o(.ARM.Collect$$$$00000004)
    .ARM.Collect$$$$00000008                 0x080000c8   Section        0  entry7b.o(.ARM.Collect$$$$00000008)
    .ARM.Collect$$$$0000000A                 0x080000c8   Section        0  entry8b.o(.ARM.Collect$$$$0000000A)
    .ARM.Collect$$$$0000000B                 0x080000c8   Section        8  entry9a.o(.ARM.Collect$$$$0000000B)
    .ARM.Collect$$$$0000000D                 0x080000d0   Section        0  entry10a.o(.ARM.Collect$$$$0000000D)
    .ARM.Collect$$$$0000000F                 0x080000d0   Section        0  entry11a.o(.ARM.Collect$$$$0000000F)
    .ARM.Collect$$$$00002712                 0x080000d0   Section        4  entry2.o(.ARM.Collect$$$$00002712)
    __lit__00000000                          0x080000d0   Data           4  entry2.o(.ARM.Collect$$$$00002712)
    .text                                    0x080000d4   Section       28  startup_stm32l051xx.o(.text)
    .text                                    0x080000f0   Section        0  uidiv.o(.text)
    .text                                    0x0800011c   Section        0  memseta.o(.text)
    .text                                    0x08000140   Section       36  init.o(.text)
    [Anonymous Symbol]                       0x08000164   Section        0  stm32l0xx_it.o(.text.EXTI0_1_IRQHandler)
    [Anonymous Symbol]                       0x08000174   Section        0  stm32l0xx_it.o(.text.EXTI2_3_IRQHandler)
    [Anonymous Symbol]                       0x08000184   Section        0  stm32l0xx_it.o(.text.EXTI4_15_IRQHandler)
    [Anonymous Symbol]                       0x080001bc   Section        0  pwr.o(.text.Enter_STOP)
    __arm_cp.0_0                             0x08000204   Number         4  pwr.o(.text.Enter_STOP)
    __arm_cp.0_1                             0x08000208   Number         4  pwr.o(.text.Enter_STOP)
    __arm_cp.0_2                             0x0800020c   Number         4  pwr.o(.text.Enter_STOP)
    __arm_cp.0_3                             0x08000210   Number         4  pwr.o(.text.Enter_STOP)
    [Anonymous Symbol]                       0x08000214   Section        0  main.o(.text.Error_Handler)
    [Anonymous Symbol]                       0x08000218   Section        0  key_scan.o(.text.Get_KEY_value)
    __arm_cp.1_0                             0x08000300   Number         4  key_scan.o(.text.Get_KEY_value)
    __arm_cp.1_1                             0x08000304   Number         4  key_scan.o(.text.Get_KEY_value)
    __arm_cp.1_2                             0x08000308   Number         4  key_scan.o(.text.Get_KEY_value)
    __arm_cp.1_3                             0x0800030c   Number         4  key_scan.o(.text.Get_KEY_value)
    [Anonymous Symbol]                       0x08000310   Section        0  stm32l0xx_hal.o(.text.HAL_Delay)
    [Anonymous Symbol]                       0x0800032a   Section        0  stm32l0xx_hal_gpio.o(.text.HAL_GPIO_EXTI_Callback)
    [Anonymous Symbol]                       0x0800032c   Section        0  stm32l0xx_hal_gpio.o(.text.HAL_GPIO_EXTI_IRQHandler)
    __arm_cp.6_0                             0x08000340   Number         4  stm32l0xx_hal_gpio.o(.text.HAL_GPIO_EXTI_IRQHandler)
    [Anonymous Symbol]                       0x08000344   Section        0  stm32l0xx_hal_gpio.o(.text.HAL_GPIO_Init)
    __arm_cp.0_0                             0x080004ec   Number         4  stm32l0xx_hal_gpio.o(.text.HAL_GPIO_Init)
    __arm_cp.0_1                             0x080004f0   Number         4  stm32l0xx_hal_gpio.o(.text.HAL_GPIO_Init)
    __arm_cp.0_3                             0x080004f4   Number         4  stm32l0xx_hal_gpio.o(.text.HAL_GPIO_Init)
    __arm_cp.0_4                             0x080004f8   Number         4  stm32l0xx_hal_gpio.o(.text.HAL_GPIO_Init)
    __arm_cp.0_5                             0x080004fc   Number         4  stm32l0xx_hal_gpio.o(.text.HAL_GPIO_Init)
    [Anonymous Symbol]                       0x08000500   Section        0  stm32l0xx_hal_gpio.o(.text.HAL_GPIO_WritePin)
    [Anonymous Symbol]                       0x08000510   Section        0  stm32l0xx_hal.o(.text.HAL_GetTick)
    [Anonymous Symbol]                       0x08000518   Section        0  stm32l0xx_hal.o(.text.HAL_IncTick)
    __arm_cp.5_0                             0x08000524   Number         4  stm32l0xx_hal.o(.text.HAL_IncTick)
    [Anonymous Symbol]                       0x08000528   Section        0  stm32l0xx_hal.o(.text.HAL_Init)
    [Anonymous Symbol]                       0x0800054c   Section        0  stm32l0xx_hal.o(.text.HAL_InitTick)
    [Anonymous Symbol]                       0x08000578   Section        0  stm32l0xx_hal_msp.o(.text.HAL_MspInit)
    __arm_cp.0_0                             0x0800058c   Number         4  stm32l0xx_hal_msp.o(.text.HAL_MspInit)
    [Anonymous Symbol]                       0x08000590   Section        0  stm32l0xx_hal_cortex.o(.text.HAL_NVIC_DisableIRQ)
    __arm_cp.2_0                             0x080005a0   Number         4  stm32l0xx_hal_cortex.o(.text.HAL_NVIC_DisableIRQ)
    [Anonymous Symbol]                       0x080005a4   Section        0  stm32l0xx_hal_cortex.o(.text.HAL_NVIC_EnableIRQ)
    __arm_cp.1_0                             0x080005b4   Number         4  stm32l0xx_hal_cortex.o(.text.HAL_NVIC_EnableIRQ)
    [Anonymous Symbol]                       0x080005b8   Section        0  stm32l0xx_hal_cortex.o(.text.HAL_NVIC_SetPriority)
    __arm_cp.0_0                             0x080005f0   Number         4  stm32l0xx_hal_cortex.o(.text.HAL_NVIC_SetPriority)
    __arm_cp.0_1                             0x080005f4   Number         4  stm32l0xx_hal_cortex.o(.text.HAL_NVIC_SetPriority)
    [Anonymous Symbol]                       0x080005f8   Section        0  stm32l0xx_hal_pwr_ex.o(.text.HAL_PWREx_EnableFastWakeUp)
    [Anonymous Symbol]                       0x08000608   Section        0  stm32l0xx_hal_pwr_ex.o(.text.HAL_PWREx_EnableUltraLowPower)
    [Anonymous Symbol]                       0x08000618   Section        0  stm32l0xx_hal_pwr.o(.text.HAL_PWR_EnterSTOPMode)
    __arm_cp.9_0                             0x08000648   Number         4  stm32l0xx_hal_pwr.o(.text.HAL_PWR_EnterSTOPMode)
    __arm_cp.9_1                             0x0800064c   Number         4  stm32l0xx_hal_pwr.o(.text.HAL_PWR_EnterSTOPMode)
    [Anonymous Symbol]                       0x08000650   Section        0  stm32l0xx_hal_rcc.o(.text.HAL_RCC_ClockConfig)
    __arm_cp.3_0                             0x08000800   Number         4  stm32l0xx_hal_rcc.o(.text.HAL_RCC_ClockConfig)
    __arm_cp.3_1                             0x08000804   Number         4  stm32l0xx_hal_rcc.o(.text.HAL_RCC_ClockConfig)
    __arm_cp.3_2                             0x08000808   Number         4  stm32l0xx_hal_rcc.o(.text.HAL_RCC_ClockConfig)
    __arm_cp.3_3                             0x0800080c   Number         4  stm32l0xx_hal_rcc.o(.text.HAL_RCC_ClockConfig)
    __arm_cp.3_4                             0x08000810   Number         4  stm32l0xx_hal_rcc.o(.text.HAL_RCC_ClockConfig)
    [Anonymous Symbol]                       0x08000814   Section        0  stm32l0xx_hal_rcc.o(.text.HAL_RCC_GetSysClockFreq)
    __arm_cp.2_0                             0x08000880   Number         4  stm32l0xx_hal_rcc.o(.text.HAL_RCC_GetSysClockFreq)
    __arm_cp.2_1                             0x08000884   Number         4  stm32l0xx_hal_rcc.o(.text.HAL_RCC_GetSysClockFreq)
    __arm_cp.2_2                             0x08000888   Number         4  stm32l0xx_hal_rcc.o(.text.HAL_RCC_GetSysClockFreq)
    __arm_cp.2_3                             0x0800088c   Number         4  stm32l0xx_hal_rcc.o(.text.HAL_RCC_GetSysClockFreq)
    __arm_cp.2_4                             0x08000890   Number         4  stm32l0xx_hal_rcc.o(.text.HAL_RCC_GetSysClockFreq)
    [Anonymous Symbol]                       0x08000894   Section        0  stm32l0xx_hal_rcc.o(.text.HAL_RCC_OscConfig)
    __arm_cp.1_0                             0x08000d44   Number         4  stm32l0xx_hal_rcc.o(.text.HAL_RCC_OscConfig)
    __arm_cp.1_1                             0x08000d48   Number         4  stm32l0xx_hal_rcc.o(.text.HAL_RCC_OscConfig)
    __arm_cp.1_2                             0x08000d4c   Number         4  stm32l0xx_hal_rcc.o(.text.HAL_RCC_OscConfig)
    __arm_cp.1_3                             0x08000d50   Number         4  stm32l0xx_hal_rcc.o(.text.HAL_RCC_OscConfig)
    __arm_cp.1_4                             0x08000d54   Number         4  stm32l0xx_hal_rcc.o(.text.HAL_RCC_OscConfig)
    [Anonymous Symbol]                       0x08000d58   Section        0  stm32l0xx_hal_spi.o(.text.HAL_SPI_Init)
    [Anonymous Symbol]                       0x08000ddc   Section        0  spi.o(.text.HAL_SPI_MspInit)
    __arm_cp.1_0                             0x08000e2c   Number         4  spi.o(.text.HAL_SPI_MspInit)
    __arm_cp.1_1                             0x08000e30   Number         4  spi.o(.text.HAL_SPI_MspInit)
    __arm_cp.1_2                             0x08000e34   Number         4  spi.o(.text.HAL_SPI_MspInit)
    [Anonymous Symbol]                       0x08000e38   Section        0  stm32l0xx_hal_spi.o(.text.HAL_SPI_TransmitReceive)
    [Anonymous Symbol]                       0x08001038   Section        0  stm32l0xx_hal_cortex.o(.text.HAL_SYSTICK_Config)
    __arm_cp.4_0                             0x08001060   Number         4  stm32l0xx_hal_cortex.o(.text.HAL_SYSTICK_Config)
    __arm_cp.4_1                             0x08001064   Number         4  stm32l0xx_hal_cortex.o(.text.HAL_SYSTICK_Config)
    __arm_cp.4_2                             0x08001068   Number         4  stm32l0xx_hal_cortex.o(.text.HAL_SYSTICK_Config)
    [Anonymous Symbol]                       0x0800106c   Section        0  stm32l0xx_it.o(.text.HardFault_Handler)
    [Anonymous Symbol]                       0x08001070   Section        0  key_scan.o(.text.KEY_IO_Init)
    [Anonymous Symbol]                       0x0800108c   Section        0  key_scan.o(.text.KEY_IO_LOW)
    __arm_cp.4_2                             0x080010b0   Number         4  key_scan.o(.text.KEY_IO_LOW)
    [Anonymous Symbol]                       0x080010b4   Section        0  key_scan.o(.text.KEY_Send)
    [Anonymous Symbol]                       0x080010c0   Section        0  key_scan.o(.text.KEY_handler)
    __arm_cp.2_0                             0x080011c8   Number         4  key_scan.o(.text.KEY_handler)
    __arm_cp.2_1                             0x080011cc   Number         4  key_scan.o(.text.KEY_handler)
    __arm_cp.2_2                             0x080011d0   Number         4  key_scan.o(.text.KEY_handler)
    __arm_cp.2_3                             0x080011d4   Number         4  key_scan.o(.text.KEY_handler)
    __arm_cp.2_4                             0x080011d8   Number         4  key_scan.o(.text.KEY_handler)
    __arm_cp.2_5                             0x080011dc   Number         4  key_scan.o(.text.KEY_handler)
    __arm_cp.2_6                             0x080011e0   Number         4  key_scan.o(.text.KEY_handler)
    [Anonymous Symbol]                       0x080011e4   Section        0  gpio.o(.text.MX_GPIO_Init)
    __arm_cp.0_0                             0x080012cc   Number         4  gpio.o(.text.MX_GPIO_Init)
    __arm_cp.0_1                             0x080012d0   Number         4  gpio.o(.text.MX_GPIO_Init)
    __arm_cp.0_2                             0x080012d4   Number         4  gpio.o(.text.MX_GPIO_Init)
    __arm_cp.0_3                             0x080012d8   Number         4  gpio.o(.text.MX_GPIO_Init)
    __arm_cp.0_4                             0x080012dc   Number         4  gpio.o(.text.MX_GPIO_Init)
    __arm_cp.0_5                             0x080012e0   Number         4  gpio.o(.text.MX_GPIO_Init)
    [Anonymous Symbol]                       0x080012e4   Section        0  spi.o(.text.MX_SPI1_Init)
    __arm_cp.0_1                             0x0800131c   Number         4  spi.o(.text.MX_SPI1_Init)
    [Anonymous Symbol]                       0x08001320   Section        0  stm32l0xx_it.o(.text.NMI_Handler)
    [Anonymous Symbol]                       0x08001324   Section        0  24l01.o(.text.NRF24L01_Init)
    __arm_cp.1_2                             0x0800139c   Number         4  24l01.o(.text.NRF24L01_Init)
    __arm_cp.1_3                             0x080013a0   Number         4  24l01.o(.text.NRF24L01_Init)
    [Anonymous Symbol]                       0x080013a4   Section        0  24l01.o(.text.NRF24L01_POWER_Mode)
    __arm_cp.9_0                             0x080013c0   Number         4  24l01.o(.text.NRF24L01_POWER_Mode)
    [Anonymous Symbol]                       0x080013c4   Section        0  24l01.o(.text.NRF24L01_Read_Buf)
    __arm_cp.3_0                             0x08001420   Number         4  24l01.o(.text.NRF24L01_Read_Buf)
    [Anonymous Symbol]                       0x08001424   Section        0  24l01.o(.text.NRF24L01_TX_Mode)
    __arm_cp.4_2                             0x080014c0   Number         4  24l01.o(.text.NRF24L01_TX_Mode)
    __arm_cp.4_3                             0x080014c4   Number         4  24l01.o(.text.NRF24L01_TX_Mode)
    [Anonymous Symbol]                       0x080014c8   Section        0  24l01.o(.text.NRF24L01_TxPacket)
    __arm_cp.8_2                             0x08001500   Number         4  24l01.o(.text.NRF24L01_TxPacket)
    [Anonymous Symbol]                       0x08001504   Section        0  24l01.o(.text.NRF24L01_Write_Buf)
    [Anonymous Symbol]                       0x0800155c   Section        0  24l01.o(.text.NRF24L01_Write_Reg)
    __arm_cp.5_0                             0x080015a0   Number         4  24l01.o(.text.NRF24L01_Write_Reg)
    [Anonymous Symbol]                       0x080015a4   Section        0  24l01.o(.text.NRF_IRQHandler)
    __arm_cp.12_0                            0x0800161c   Number         4  24l01.o(.text.NRF_IRQHandler)
    __arm_cp.12_1                            0x08001620   Number         4  24l01.o(.text.NRF_IRQHandler)
    __arm_cp.12_2                            0x08001624   Number         4  24l01.o(.text.NRF_IRQHandler)
    [Anonymous Symbol]                       0x08001628   Section        0  stm32l0xx_it.o(.text.PendSV_Handler)
    [Anonymous Symbol]                       0x0800162a   Section        0  stm32l0xx_hal_spi.o(.text.SPI_EndRxTxTransaction)
    SPI_EndRxTxTransaction                   0x0800162b   Thumb Code    66  stm32l0xx_hal_spi.o(.text.SPI_EndRxTxTransaction)
    [Anonymous Symbol]                       0x0800166c   Section        0  stm32l0xx_hal_spi.o(.text.SPI_WaitFlagStateUntilTimeout)
    SPI_WaitFlagStateUntilTimeout            0x0800166d   Thumb Code   134  stm32l0xx_hal_spi.o(.text.SPI_WaitFlagStateUntilTimeout)
    [Anonymous Symbol]                       0x080016f2   Section        0  stm32l0xx_it.o(.text.SVC_Handler)
    [Anonymous Symbol]                       0x080016f4   Section        0  stm32l0xx_it.o(.text.SysTick_Handler)
    [Anonymous Symbol]                       0x080016fc   Section        0  main.o(.text.SystemClock_Config)
    __arm_cp.1_0                             0x08001754   Number         4  main.o(.text.SystemClock_Config)
    [Anonymous Symbol]                       0x08001758   Section        0  system_stm32l0xx.o(.text.SystemInit)
    __arm_cp.0_0                             0x08001798   Number         4  system_stm32l0xx.o(.text.SystemInit)
    __arm_cp.0_1                             0x0800179c   Number         4  system_stm32l0xx.o(.text.SystemInit)
    __arm_cp.0_2                             0x080017a0   Number         4  system_stm32l0xx.o(.text.SystemInit)
    __arm_cp.0_3                             0x080017a4   Number         4  system_stm32l0xx.o(.text.SystemInit)
    [Anonymous Symbol]                       0x080017a8   Section        0  main.o(.text.main)
    __arm_cp.0_0                             0x08001858   Number         4  main.o(.text.main)
    __arm_cp.0_1                             0x0800185c   Number         4  main.o(.text.main)
    __arm_cp.0_2                             0x08001860   Number         4  main.o(.text.main)
    __arm_cp.0_3                             0x08001864   Number         4  main.o(.text.main)
    __arm_cp.0_4                             0x08001868   Number         4  main.o(.text.main)
    __arm_cp.0_5                             0x0800186c   Number         4  main.o(.text.main)
    i.__scatterload_copy                     0x08001870   Section       14  handlers.o(i.__scatterload_copy)
    i.__scatterload_null                     0x0800187e   Section        2  handlers.o(i.__scatterload_null)
    i.__scatterload_zeroinit                 0x08001880   Section       14  handlers.o(i.__scatterload_zeroinit)
    [Anonymous Symbol]                       0x20000018   Section        0  key_scan.o(.bss.KEY_handler.gflag)
    KEY_handler.gflag                        0x20000018   Data           1  key_scan.o(.bss.KEY_handler.gflag)
    STACK                                    0x20000138   Section     1024  startup_stm32l051xx.o(STACK)

    Global Symbols

    Symbol Name                              Value     Ov Type        Size  Object(Section)

    BuildAttributes$$THM_ISAv3M$S$PE$A:L22$X:L11$S22$IEEE1$IW$~IW$USESV6$~STKCKD$USESV7$~SHL$OSPACE$EBA8$MICROLIB$REQ8$PRES8$EABIv2 0x00000000   Number         0  anon$$obj.o ABSOLUTE
    __cpp_initialize__aeabi_                  - Undefined Weak Reference
    __cxa_finalize                            - Undefined Weak Reference
    __decompress                              - Undefined Weak Reference
    _clock_init                               - Undefined Weak Reference
    _microlib_exit                            - Undefined Weak Reference
    __Vectors_Size                           0x000000c0   Number         0  startup_stm32l051xx.o ABSOLUTE
    __Vectors                                0x08000000   Data           4  startup_stm32l051xx.o(RESET)
    __Vectors_End                            0x080000c0   Data           0  startup_stm32l051xx.o(RESET)
    __main                                   0x080000c1   Thumb Code     0  entry.o(.ARM.Collect$$$$00000000)
    _main_stk                                0x080000c1   Thumb Code     0  entry2.o(.ARM.Collect$$$$00000001)
    _main_scatterload                        0x080000c5   Thumb Code     0  entry5.o(.ARM.Collect$$$$00000004)
    __main_after_scatterload                 0x080000c9   Thumb Code     0  entry5.o(.ARM.Collect$$$$00000004)
    _main_clock                              0x080000c9   Thumb Code     0  entry7b.o(.ARM.Collect$$$$00000008)
    _main_cpp_init                           0x080000c9   Thumb Code     0  entry8b.o(.ARM.Collect$$$$0000000A)
    _main_init                               0x080000c9   Thumb Code     0  entry9a.o(.ARM.Collect$$$$0000000B)
    __rt_final_cpp                           0x080000d1   Thumb Code     0  entry10a.o(.ARM.Collect$$$$0000000D)
    __rt_final_exit                          0x080000d1   Thumb Code     0  entry11a.o(.ARM.Collect$$$$0000000F)
    Reset_Handler                            0x080000d5   Thumb Code     8  startup_stm32l051xx.o(.text)
    ADC1_COMP_IRQHandler                     0x080000e7   Thumb Code     0  startup_stm32l051xx.o(.text)
    DMA1_Channel1_IRQHandler                 0x080000e7   Thumb Code     0  startup_stm32l051xx.o(.text)
    DMA1_Channel2_3_IRQHandler               0x080000e7   Thumb Code     0  startup_stm32l051xx.o(.text)
    DMA1_Channel4_5_6_7_IRQHandler           0x080000e7   Thumb Code     0  startup_stm32l051xx.o(.text)
    FLASH_IRQHandler                         0x080000e7   Thumb Code     0  startup_stm32l051xx.o(.text)
    I2C1_IRQHandler                          0x080000e7   Thumb Code     0  startup_stm32l051xx.o(.text)
    I2C2_IRQHandler                          0x080000e7   Thumb Code     0  startup_stm32l051xx.o(.text)
    LPTIM1_IRQHandler                        0x080000e7   Thumb Code     0  startup_stm32l051xx.o(.text)
    LPUART1_IRQHandler                       0x080000e7   Thumb Code     0  startup_stm32l051xx.o(.text)
    PVD_IRQHandler                           0x080000e7   Thumb Code     0  startup_stm32l051xx.o(.text)
    RCC_IRQHandler                           0x080000e7   Thumb Code     0  startup_stm32l051xx.o(.text)
    RTC_IRQHandler                           0x080000e7   Thumb Code     0  startup_stm32l051xx.o(.text)
    SPI1_IRQHandler                          0x080000e7   Thumb Code     0  startup_stm32l051xx.o(.text)
    SPI2_IRQHandler                          0x080000e7   Thumb Code     0  startup_stm32l051xx.o(.text)
    TIM21_IRQHandler                         0x080000e7   Thumb Code     0  startup_stm32l051xx.o(.text)
    TIM22_IRQHandler                         0x080000e7   Thumb Code     0  startup_stm32l051xx.o(.text)
    TIM2_IRQHandler                          0x080000e7   Thumb Code     0  startup_stm32l051xx.o(.text)
    TIM6_IRQHandler                          0x080000e7   Thumb Code     0  startup_stm32l051xx.o(.text)
    USART1_IRQHandler                        0x080000e7   Thumb Code     0  startup_stm32l051xx.o(.text)
    USART2_IRQHandler                        0x080000e7   Thumb Code     0  startup_stm32l051xx.o(.text)
    WWDG_IRQHandler                          0x080000e7   Thumb Code     0  startup_stm32l051xx.o(.text)
    __aeabi_uidiv                            0x080000f1   Thumb Code     0  uidiv.o(.text)
    __aeabi_uidivmod                         0x080000f1   Thumb Code    44  uidiv.o(.text)
    __aeabi_memset                           0x0800011d   Thumb Code    14  memseta.o(.text)
    __aeabi_memset4                          0x0800011d   Thumb Code     0  memseta.o(.text)
    __aeabi_memset8                          0x0800011d   Thumb Code     0  memseta.o(.text)
    __aeabi_memclr                           0x0800012b   Thumb Code     4  memseta.o(.text)
    __aeabi_memclr4                          0x0800012b   Thumb Code     0  memseta.o(.text)
    __aeabi_memclr8                          0x0800012b   Thumb Code     0  memseta.o(.text)
    _memset$wrapper                          0x0800012f   Thumb Code    18  memseta.o(.text)
    __scatterload                            0x08000141   Thumb Code    28  init.o(.text)
    __scatterload_rt2                        0x08000141   Thumb Code     0  init.o(.text)
    EXTI0_1_IRQHandler                       0x08000165   Thumb Code    16  stm32l0xx_it.o(.text.EXTI0_1_IRQHandler)
    EXTI2_3_IRQHandler                       0x08000175   Thumb Code    16  stm32l0xx_it.o(.text.EXTI2_3_IRQHandler)
    EXTI4_15_IRQHandler                      0x08000185   Thumb Code    54  stm32l0xx_it.o(.text.EXTI4_15_IRQHandler)
    Enter_STOP                               0x080001bd   Thumb Code    88  pwr.o(.text.Enter_STOP)
    Error_Handler                            0x08000215   Thumb Code     2  main.o(.text.Error_Handler)
    Get_KEY_value                            0x08000219   Thumb Code   248  key_scan.o(.text.Get_KEY_value)
    HAL_Delay                                0x08000311   Thumb Code    26  stm32l0xx_hal.o(.text.HAL_Delay)
    HAL_GPIO_EXTI_Callback                   0x0800032b   Thumb Code     2  stm32l0xx_hal_gpio.o(.text.HAL_GPIO_EXTI_Callback)
    HAL_GPIO_EXTI_IRQHandler                 0x0800032d   Thumb Code    24  stm32l0xx_hal_gpio.o(.text.HAL_GPIO_EXTI_IRQHandler)
    HAL_GPIO_Init                            0x08000345   Thumb Code   448  stm32l0xx_hal_gpio.o(.text.HAL_GPIO_Init)
    HAL_GPIO_WritePin                        0x08000501   Thumb Code    16  stm32l0xx_hal_gpio.o(.text.HAL_GPIO_WritePin)
    HAL_GetTick                              0x08000511   Thumb Code    12  stm32l0xx_hal.o(.text.HAL_GetTick)
    HAL_IncTick                              0x08000519   Thumb Code    16  stm32l0xx_hal.o(.text.HAL_IncTick)
    HAL_Init                                 0x08000529   Thumb Code    40  stm32l0xx_hal.o(.text.HAL_Init)
    HAL_InitTick                             0x0800054d   Thumb Code    48  stm32l0xx_hal.o(.text.HAL_InitTick)
    HAL_MspInit                              0x08000579   Thumb Code    24  stm32l0xx_hal_msp.o(.text.HAL_MspInit)
    HAL_NVIC_DisableIRQ                      0x08000591   Thumb Code    20  stm32l0xx_hal_cortex.o(.text.HAL_NVIC_DisableIRQ)
    HAL_NVIC_EnableIRQ                       0x080005a5   Thumb Code    20  stm32l0xx_hal_cortex.o(.text.HAL_NVIC_EnableIRQ)
    HAL_NVIC_SetPriority                     0x080005b9   Thumb Code    64  stm32l0xx_hal_cortex.o(.text.HAL_NVIC_SetPriority)
    HAL_PWREx_EnableFastWakeUp               0x080005f9   Thumb Code    20  stm32l0xx_hal_pwr_ex.o(.text.HAL_PWREx_EnableFastWakeUp)
    HAL_PWREx_EnableUltraLowPower            0x08000609   Thumb Code    20  stm32l0xx_hal_pwr_ex.o(.text.HAL_PWREx_EnableUltraLowPower)
    HAL_PWR_EnterSTOPMode                    0x08000619   Thumb Code    56  stm32l0xx_hal_pwr.o(.text.HAL_PWR_EnterSTOPMode)
    HAL_RCC_ClockConfig                      0x08000651   Thumb Code   452  stm32l0xx_hal_rcc.o(.text.HAL_RCC_ClockConfig)
    HAL_RCC_GetSysClockFreq                  0x08000815   Thumb Code   128  stm32l0xx_hal_rcc.o(.text.HAL_RCC_GetSysClockFreq)
    HAL_RCC_OscConfig                        0x08000895   Thumb Code  1224  stm32l0xx_hal_rcc.o(.text.HAL_RCC_OscConfig)
    HAL_SPI_Init                             0x08000d59   Thumb Code   130  stm32l0xx_hal_spi.o(.text.HAL_SPI_Init)
    HAL_SPI_MspInit                          0x08000ddd   Thumb Code    92  spi.o(.text.HAL_SPI_MspInit)
    HAL_SPI_TransmitReceive                  0x08000e39   Thumb Code   510  stm32l0xx_hal_spi.o(.text.HAL_SPI_TransmitReceive)
    HAL_SYSTICK_Config                       0x08001039   Thumb Code    52  stm32l0xx_hal_cortex.o(.text.HAL_SYSTICK_Config)
    HardFault_Handler                        0x0800106d   Thumb Code     2  stm32l0xx_it.o(.text.HardFault_Handler)
    KEY_IO_Init                              0x08001071   Thumb Code    36  key_scan.o(.text.KEY_IO_Init)
    KEY_IO_LOW                               0x0800108d   Thumb Code    52  key_scan.o(.text.KEY_IO_LOW)
    KEY_Send                                 0x080010b5   Thumb Code    16  key_scan.o(.text.KEY_Send)
    KEY_handler                              0x080010c1   Thumb Code   296  key_scan.o(.text.KEY_handler)
    MX_GPIO_Init                             0x080011e5   Thumb Code   256  gpio.o(.text.MX_GPIO_Init)
    MX_SPI1_Init                             0x080012e5   Thumb Code    64  spi.o(.text.MX_SPI1_Init)
    NMI_Handler                              0x08001321   Thumb Code     2  stm32l0xx_it.o(.text.NMI_Handler)
    NRF24L01_Init                            0x08001325   Thumb Code   136  24l01.o(.text.NRF24L01_Init)
    NRF24L01_POWER_Mode                      0x080013a5   Thumb Code    32  24l01.o(.text.NRF24L01_POWER_Mode)
    NRF24L01_Read_Buf                        0x080013c5   Thumb Code   100  24l01.o(.text.NRF24L01_Read_Buf)
    NRF24L01_TX_Mode                         0x08001425   Thumb Code   172  24l01.o(.text.NRF24L01_TX_Mode)
    NRF24L01_TxPacket                        0x080014c9   Thumb Code    68  24l01.o(.text.NRF24L01_TxPacket)
    NRF24L01_Write_Buf                       0x08001505   Thumb Code    96  24l01.o(.text.NRF24L01_Write_Buf)
    NRF24L01_Write_Reg                       0x0800155d   Thumb Code    76  24l01.o(.text.NRF24L01_Write_Reg)
    NRF_IRQHandler                           0x080015a5   Thumb Code   136  24l01.o(.text.NRF_IRQHandler)
    PendSV_Handler                           0x08001629   Thumb Code     2  stm32l0xx_it.o(.text.PendSV_Handler)
    SVC_Handler                              0x080016f3   Thumb Code     2  stm32l0xx_it.o(.text.SVC_Handler)
    SysTick_Handler                          0x080016f5   Thumb Code     8  stm32l0xx_it.o(.text.SysTick_Handler)
    SystemClock_Config                       0x080016fd   Thumb Code    92  main.o(.text.SystemClock_Config)
    SystemInit                               0x08001759   Thumb Code    80  system_stm32l0xx.o(.text.SystemInit)
    main                                     0x080017a9   Thumb Code   200  main.o(.text.main)
    __scatterload_copy                       0x08001871   Thumb Code    14  handlers.o(i.__scatterload_copy)
    __scatterload_null                       0x0800187f   Thumb Code     2  handlers.o(i.__scatterload_null)
    __scatterload_zeroinit                   0x08001881   Thumb Code    14  handlers.o(i.__scatterload_zeroinit)
    AHBPrescTable                            0x0800188e   Data          16  system_stm32l0xx.o(.rodata.AHBPrescTable)
    PLLMulTable                              0x0800189e   Data           9  system_stm32l0xx.o(.rodata.PLLMulTable)
    RX_ADDRESS                               0x080018a7   Data           5  24l01.o(.rodata.RX_ADDRESS)
    TX_ADDRESS                               0x080018ac   Data           5  24l01.o(.rodata.TX_ADDRESS)
    Region$$Table$$Base                      0x080018b4   Number         0  anon$$obj.o(Region$$Table)
    Region$$Table$$Limit                     0x080018d4   Number         0  anon$$obj.o(Region$$Table)
    SystemCoreClock                          0x20000000   Data           4  system_stm32l0xx.o(.data.SystemCoreClock)
    TEST_ADDRESS                             0x20000004   Data           5  24l01.o(.data.TEST_ADDRESS)
    key_time_check                           0x2000000c   Data           4  main.o(.data.key_time_check)
    key_time_last                            0x20000010   Data           4  main.o(.data.key_time_last)
    Key_buf                                  0x2000001a   Data          22  key_scan.o(.bss.Key_buf)
    Key_buf_out                              0x20000030   Data          22  key_scan.o(.bss.Key_buf_out)
    NRF24L01_TX_OK                           0x20000046   Data           1  24l01.o(.bss.NRF24L01_TX_OK)
    NRF24L01_TX_start                        0x20000048   Data           2  24l01.o(.bss.NRF24L01_TX_start)
    Send_buf                                 0x2000004c   Data         132  key_scan.o(.bss.Send_buf)
    hspi1                                    0x200000d0   Data          88  spi.o(.bss.hspi1)
    led_time_last                            0x20000128   Data           4  main.o(.bss.led_time_last)
    offset                                   0x2000012c   Data           1  key_scan.o(.bss.offset)
    uwTick                                   0x20000130   Data           4  stm32l0xx_hal.o(.bss.uwTick)
    __initial_sp                             0x20000538   Data           0  startup_stm32l051xx.o(STACK)



==============================================================================

Memory Map of the image

  Image Entry point : 0x080000c1

  Load Region LR_IROM1 (Base: 0x08000000, Size: 0x000018f0, Max: 0x00010000, ABSOLUTE)

    Execution Region ER_IROM1 (Exec base: 0x08000000, Load base: 0x08000000, Size: 0x000018d4, Max: 0x00010000, ABSOLUTE)

    Exec Addr    Load Addr    Size         Type   Attr      Idx    E Section Name        Object

    0x08000000   0x08000000   0x000000c0   Data   RO            3    RESET               startup_stm32l051xx.o
    0x080000c0   0x080000c0   0x00000000   Code   RO          904  * .ARM.Collect$$$$00000000  mc_p.l(entry.o)
    0x080000c0   0x080000c0   0x00000004   Code   RO          911    .ARM.Collect$$$$00000001  mc_p.l(entry2.o)
    0x080000c4   0x080000c4   0x00000004   Code   RO          914    .ARM.Collect$$$$00000004  mc_p.l(entry5.o)
    0x080000c8   0x080000c8   0x00000000   Code   RO          916    .ARM.Collect$$$$00000008  mc_p.l(entry7b.o)
    0x080000c8   0x080000c8   0x00000000   Code   RO          918    .ARM.Collect$$$$0000000A  mc_p.l(entry8b.o)
    0x080000c8   0x080000c8   0x00000008   Code   RO          919    .ARM.Collect$$$$0000000B  mc_p.l(entry9a.o)
    0x080000d0   0x080000d0   0x00000000   Code   RO          921    .ARM.Collect$$$$0000000D  mc_p.l(entry10a.o)
    0x080000d0   0x080000d0   0x00000000   Code   RO          923    .ARM.Collect$$$$0000000F  mc_p.l(entry11a.o)
    0x080000d0   0x080000d0   0x00000004   Code   RO          912    .ARM.Collect$$$$00002712  mc_p.l(entry2.o)
    0x080000d4   0x080000d4   0x0000001c   Code   RO            4    .text               startup_stm32l051xx.o
    0x080000f0   0x080000f0   0x0000002c   Code   RO          907    .text               mc_p.l(uidiv.o)
    0x0800011c   0x0800011c   0x00000024   Code   RO          909    .text               mc_p.l(memseta.o)
    0x08000140   0x08000140   0x00000024   Code   RO          925    .text               mc_p.l(init.o)
    0x08000164   0x08000164   0x00000010   Code   RO           73    .text.EXTI0_1_IRQHandler  stm32l0xx_it.o
    0x08000174   0x08000174   0x00000010   Code   RO           75    .text.EXTI2_3_IRQHandler  stm32l0xx_it.o
    0x08000184   0x08000184   0x00000036   Code   RO           77    .text.EXTI4_15_IRQHandler  stm32l0xx_it.o
    0x080001ba   0x080001ba   0x00000002   PAD
    0x080001bc   0x080001bc   0x00000058   Code   RO          892    .text.Enter_STOP    pwr.o
    0x08000214   0x08000214   0x00000002   Code   RO           15    .text.Error_Handler  main.o
    0x08000216   0x08000216   0x00000002   PAD
    0x08000218   0x08000218   0x000000f8   Code   RO          866    .text.Get_KEY_value  key_scan.o
    0x08000310   0x08000310   0x0000001a   Code   RO          257    .text.HAL_Delay     stm32l0xx_hal.o
    0x0800032a   0x0800032a   0x00000002   Code   RO          663    .text.HAL_GPIO_EXTI_Callback  stm32l0xx_hal_gpio.o
    0x0800032c   0x0800032c   0x00000018   Code   RO          661    .text.HAL_GPIO_EXTI_IRQHandler  stm32l0xx_hal_gpio.o
    0x08000344   0x08000344   0x000001bc   Code   RO          649    .text.HAL_GPIO_Init  stm32l0xx_hal_gpio.o
    0x08000500   0x08000500   0x00000010   Code   RO          655    .text.HAL_GPIO_WritePin  stm32l0xx_hal_gpio.o
    0x08000510   0x08000510   0x00000008   Code   RO          255    .text.HAL_GetTick   stm32l0xx_hal.o
    0x08000518   0x08000518   0x00000010   Code   RO          253    .text.HAL_IncTick   stm32l0xx_hal.o
    0x08000528   0x08000528   0x00000024   Code   RO          243    .text.HAL_Init      stm32l0xx_hal.o
    0x0800054c   0x0800054c   0x0000002c   Code   RO          245    .text.HAL_InitTick  stm32l0xx_hal.o
    0x08000578   0x08000578   0x00000018   Code   RO           89    .text.HAL_MspInit   stm32l0xx_hal_msp.o
    0x08000590   0x08000590   0x00000014   Code   RO          785    .text.HAL_NVIC_DisableIRQ  stm32l0xx_hal_cortex.o
    0x080005a4   0x080005a4   0x00000014   Code   RO          783    .text.HAL_NVIC_EnableIRQ  stm32l0xx_hal_cortex.o
    0x080005b8   0x080005b8   0x00000040   Code   RO          781    .text.HAL_NVIC_SetPriority  stm32l0xx_hal_cortex.o
    0x080005f8   0x080005f8   0x00000010   Code   RO          758    .text.HAL_PWREx_EnableFastWakeUp  stm32l0xx_hal_pwr_ex.o
    0x08000608   0x08000608   0x00000010   Code   RO          762    .text.HAL_PWREx_EnableUltraLowPower  stm32l0xx_hal_pwr_ex.o
    0x08000618   0x08000618   0x00000038   Code   RO          729    .text.HAL_PWR_EnterSTOPMode  stm32l0xx_hal_pwr.o
    0x08000650   0x08000650   0x000001c4   Code   RO          497    .text.HAL_RCC_ClockConfig  stm32l0xx_hal_rcc.o
    0x08000814   0x08000814   0x00000080   Code   RO          495    .text.HAL_RCC_GetSysClockFreq  stm32l0xx_hal_rcc.o
    0x08000894   0x08000894   0x000004c4   Code   RO          493    .text.HAL_RCC_OscConfig  stm32l0xx_hal_rcc.o
    0x08000d58   0x08000d58   0x00000082   Code   RO          120    .text.HAL_SPI_Init  stm32l0xx_hal_spi.o
    0x08000dda   0x08000dda   0x00000002   PAD
    0x08000ddc   0x08000ddc   0x0000005c   Code   RO           47    .text.HAL_SPI_MspInit  spi.o
    0x08000e38   0x08000e38   0x000001fe   Code   RO          134    .text.HAL_SPI_TransmitReceive  stm32l0xx_hal_spi.o
    0x08001036   0x08001036   0x00000002   PAD
    0x08001038   0x08001038   0x00000034   Code   RO          789    .text.HAL_SYSTICK_Config  stm32l0xx_hal_cortex.o
    0x0800106c   0x0800106c   0x00000002   Code   RO           65    .text.HardFault_Handler  stm32l0xx_it.o
    0x0800106e   0x0800106e   0x00000002   PAD
    0x08001070   0x08001070   0x0000001c   Code   RO          874    .text.KEY_IO_Init   key_scan.o
    0x0800108c   0x0800108c   0x00000028   Code   RO          872    .text.KEY_IO_LOW    key_scan.o
    0x080010b4   0x080010b4   0x0000000c   Code   RO          870    .text.KEY_Send      key_scan.o
    0x080010c0   0x080010c0   0x00000124   Code   RO          868    .text.KEY_handler   key_scan.o
    0x080011e4   0x080011e4   0x00000100   Code   RO           32    .text.MX_GPIO_Init  gpio.o
    0x080012e4   0x080012e4   0x0000003c   Code   RO           45    .text.MX_SPI1_Init  spi.o
    0x08001320   0x08001320   0x00000002   Code   RO           63    .text.NMI_Handler   stm32l0xx_it.o
    0x08001322   0x08001322   0x00000002   PAD
    0x08001324   0x08001324   0x00000080   Code   RO          824    .text.NRF24L01_Init  24l01.o
    0x080013a4   0x080013a4   0x00000020   Code   RO          840    .text.NRF24L01_POWER_Mode  24l01.o
    0x080013c4   0x080013c4   0x00000060   Code   RO          828    .text.NRF24L01_Read_Buf  24l01.o
    0x08001424   0x08001424   0x000000a4   Code   RO          830    .text.NRF24L01_TX_Mode  24l01.o
    0x080014c8   0x080014c8   0x0000003c   Code   RO          838    .text.NRF24L01_TxPacket  24l01.o
    0x08001504   0x08001504   0x00000058   Code   RO          826    .text.NRF24L01_Write_Buf  24l01.o
    0x0800155c   0x0800155c   0x00000048   Code   RO          832    .text.NRF24L01_Write_Reg  24l01.o
    0x080015a4   0x080015a4   0x00000084   Code   RO          846    .text.NRF_IRQHandler  24l01.o
    0x08001628   0x08001628   0x00000002   Code   RO           69    .text.PendSV_Handler  stm32l0xx_it.o
    0x0800162a   0x0800162a   0x00000042   Code   RO          130    .text.SPI_EndRxTxTransaction  stm32l0xx_hal_spi.o
    0x0800166c   0x0800166c   0x00000086   Code   RO          228    .text.SPI_WaitFlagStateUntilTimeout  stm32l0xx_hal_spi.o
    0x080016f2   0x080016f2   0x00000002   Code   RO           67    .text.SVC_Handler   stm32l0xx_it.o
    0x080016f4   0x080016f4   0x00000008   Code   RO           71    .text.SysTick_Handler  stm32l0xx_it.o
    0x080016fc   0x080016fc   0x0000005c   Code   RO           13    .text.SystemClock_Config  main.o
    0x08001758   0x08001758   0x00000050   Code   RO          101    .text.SystemInit    system_stm32l0xx.o
    0x080017a8   0x080017a8   0x000000c8   Code   RO           11    .text.main          main.o
    0x08001870   0x08001870   0x0000000e   Code   RO          929    i.__scatterload_copy  mc_p.l(handlers.o)
    0x0800187e   0x0800187e   0x00000002   Code   RO          930    i.__scatterload_null  mc_p.l(handlers.o)
    0x08001880   0x08001880   0x0000000e   Code   RO          931    i.__scatterload_zeroinit  mc_p.l(handlers.o)
    0x0800188e   0x0800188e   0x00000010   Data   RO          106    .rodata.AHBPrescTable  system_stm32l0xx.o
    0x0800189e   0x0800189e   0x00000009   Data   RO          108    .rodata.PLLMulTable  system_stm32l0xx.o
    0x080018a7   0x080018a7   0x00000005   Data   RO          849    .rodata.RX_ADDRESS  24l01.o
    0x080018ac   0x080018ac   0x00000005   Data   RO          848    .rodata.TX_ADDRESS  24l01.o
    0x080018b1   0x080018b1   0x00000003   PAD
    0x080018b4   0x080018b4   0x00000020   Data   RO          927    Region$$Table       anon$$obj.o


    Execution Region RW_IRAM1 (Exec base: 0x20000000, Load base: 0x080018d8, Size: 0x00000538, Max: 0x00002000, ABSOLUTE)

    Exec Addr    Load Addr    Size         Type   Attr      Idx    E Section Name        Object

    0x20000000   0x080018d8   0x00000004   Data   RW          105    .data.SystemCoreClock  system_stm32l0xx.o
    0x20000004   0x080018dc   0x00000005   Data   RW          850    .data.TEST_ADDRESS  24l01.o
    0x20000009   0x080018e1   0x00000003   PAD
    0x2000000c   0x080018e4   0x00000004   Data   RW           17    .data.key_time_check  main.o
    0x20000010   0x080018e8   0x00000004   Data   RW           18    .data.key_time_last  main.o
    0x20000014   0x080018ec   0x00000004   PAD
    0x20000018        -       0x00000001   Zero   RW          879    .bss.KEY_handler.gflag  key_scan.o
    0x20000019   0x080018ec   0x00000001   PAD
    0x2000001a        -       0x00000016   Zero   RW          878    .bss.Key_buf        key_scan.o
    0x20000030        -       0x00000016   Zero   RW          876    .bss.Key_buf_out    key_scan.o
    0x20000046        -       0x00000001   Zero   RW          851    .bss.NRF24L01_TX_OK  24l01.o
    0x20000047   0x080018ec   0x00000001   PAD
    0x20000048        -       0x00000002   Zero   RW          852    .bss.NRF24L01_TX_start  24l01.o
    0x2000004a   0x080018ec   0x00000002   PAD
    0x2000004c        -       0x00000084   Zero   RW          880    .bss.Send_buf       key_scan.o
    0x200000d0        -       0x00000058   Zero   RW           51    .bss.hspi1          spi.o
    0x20000128        -       0x00000004   Zero   RW           19    .bss.led_time_last  main.o
    0x2000012c        -       0x00000001   Zero   RW          877    .bss.offset         key_scan.o
    0x2000012d   0x080018ec   0x00000003   PAD
    0x20000130        -       0x00000004   Zero   RW          299    .bss.uwTick         stm32l0xx_hal.o
    0x20000134   0x080018ec   0x00000004   PAD
    0x20000138        -       0x00000400   Zero   RW            1    STACK               startup_stm32l051xx.o


==============================================================================

Image component sizes


      Code (inc. data)   RO Data    RW Data    ZI Data      Debug   Object Name

       772         44         10          5          3       7417   24l01.o
       256         24          0          0          0       2781   gpio.o
       620         92          0          0        178       4378   key_scan.o
       294         28          0          8          4       3306   main.o
        88         16          0          0          0       1894   pwr.o
       152         16          0          0         88       4988   spi.o
        28          8        192          0       1024        604   startup_stm32l051xx.o
       130          4          0          0          4       6747   stm32l0xx_hal.o
       156         28          0          0          0       6718   stm32l0xx_hal_cortex.o
       486         24          0          0          0       5170   stm32l0xx_hal_gpio.o
        24          4          0          0          0       1174   stm32l0xx_hal_msp.o
        56          8          0          0          0       4629   stm32l0xx_hal_pwr.o
        32          0          0          0          0       2126   stm32l0xx_hal_pwr_ex.o
      1800         68          0          0          0       8207   stm32l0xx_hal_rcc.o
       840          0          0          0          0      21458   stm32l0xx_hal_spi.o
       102          0          0          0          0       1357   stm32l0xx_it.o
        80         16         25          4          0       2437   system_stm32l0xx.o

    ----------------------------------------------------------------------
      5928        380        262         20       1316      85391   Object Totals
         0          0         32          0          0          0   (incl. Generated)
        12          0          3          3         15          0   (incl. Padding)

    ----------------------------------------------------------------------

      Code (inc. data)   RO Data    RW Data    ZI Data      Debug   Library Member Name

         0          0          0          0          0          0   entry.o
         0          0          0          0          0          0   entry10a.o
         0          0          0          0          0          0   entry11a.o
         8          4          0          0          0          0   entry2.o
         4          0          0          0          0          0   entry5.o
         0          0          0          0          0          0   entry7b.o
         0          0          0          0          0          0   entry8b.o
         8          4          0          0          0          0   entry9a.o
        30          0          0          0          0          0   handlers.o
        36          8          0          0          0         68   init.o
        36          0          0          0          0        100   memseta.o
        44          0          0          0          0         72   uidiv.o

    ----------------------------------------------------------------------
       166         16          0          0          0        240   Library Totals
         0          0          0          0          0          0   (incl. Padding)

    ----------------------------------------------------------------------

      Code (inc. data)   RO Data    RW Data    ZI Data      Debug   Library Name

       166         16          0          0          0        240   mc_p.l

    ----------------------------------------------------------------------
       166         16          0          0          0        240   Library Totals

    ----------------------------------------------------------------------

==============================================================================


      Code (inc. data)   RO Data    RW Data    ZI Data      Debug   

      6094        396        262         20       1316      85499   Grand Totals
      6094        396        262         20       1316      85499   ELF Image Totals
      6094        396        262         20          0          0   ROM Totals

==============================================================================

    Total RO  Size (Code + RO Data)                 6356 (   6.21kB)
    Total RW  Size (RW Data + ZI Data)              1336 (   1.30kB)
    Total ROM Size (Code + RO Data + RW Data)       6376 (   6.23kB)

==============================================================================

