:020000040800F2
:1000000038050020D5000008211300086D100008F5
:1000100000000000000000000000000000000000E0
:10002000000000000000000000000000F3160008BF
:10003000000000000000000029160008F516000866
:10004000E7000008E7000008E7000008E7000008F4
:10005000E700000865010008750100088501000837
:1000600000000000E7000008E7000008E7000008C3
:10007000E7000008E700000800000000E7000008B3
:1000800000000000E7000008000000000000000081
:10009000E700000800000000E7000008E700000893
:1000A000E7000008E7000008E7000008E700000894
:1000B000E7000008E7000008000000000000000062
:1000C0000348854600F03CF800480047A91700089F
:1000D000380500200448804704480047FEE7FEE753
:1000E000FEE7FEE7FEE7FEE759170008C10000083B
:1000F00030B50B46014600202022012409E00D46C0
:10010000D5409D4205D31D469540491B2546954047
:1001100040191546521E002DF1DC30BDD2B201E06F
:100120000270401C491EFBD270470022F6E710B552
:1001300013460A4604461946FFF7F0FF204610BD55
:10014000064C0125064E05E0E36807CC2B430C3C2A
:1001500098471034B442F7D3FFF7B6FFB41800083D
:10016000D418000880B5012000F0E0F8022000F06B
:10017000DDF880BD80B5042000F0D8F8082000F03C
:10018000D5F880BD10B5102000F0D0F8202000F088
:10019000CDF8402000F0CAF8802000F0C7F8012414
:1001A000200200F0C3F8600200F0C0F8A00200F0E6
:1001B000BDF8E00200F0BAF810BD0000B0B500F0E4
:1001C00065FF012460030F490860A0030860E50390
:1001D0000D60002001F0E6F800F016FA00F00CFACD
:1001E00009480168A94301602046214600F014FA3D
:1001F00000F03EFF00F08CF9044940180449086003
:10020000B0BDC046280800500C1002401027000066
:100210000C00002070470000F0B589B001263002C4
:10022000079070020690B0020590F002049030032F
:10023000039070030290B0030190F003009000213E
:10024000314C0D46C8B202230A283AD8800002A7D2
:100250003A58304637469746BF020008B9020008B0
:10026000850200088B02000891020008970200082E
:100270009D020008A3020008A9020008AF020008BE
:10028000B50200080423022016E00420079B13E0B7
:100290000798069B10E00698059B0DE00598049BC7
:1002A0000AE00498039B07E00398029B04E002988D
:1002B000019B01E00198009B124A10601F46114803
:1002C000076108A80222028008A80288531E038042
:1002D000002AF9D14A00A0180C4B1F68A25A084BFB
:1002E000BB439FB2BA4201D003806D1C491C0B294D
:1002F000A8D1009803490860E8B209B0F0BDC04633
:10030000FF0F0000180400501A00002010000050D9
:10031000B0B5451C00D1054600F0FAF8044600F0DF
:10032000F7F8001BA842FAD3B0BD704780B5044966
:100330000A68024202D00860FFF7F7FF80BDC0469E
:1003400014040140F0B58AB007900D68002D00D16B
:10035000CAE0664B05200622079C9C4200D010464E
:100360000B221207079B9B180A22D3410093042BF0
:1003700000D300900024E04308900120264602901C
:1003800003462A460591581E029D099085402A4041
:100390000392002A00D19EE006930A464F6810217E
:1003A0003943122912D11C2131400F278F40089860
:1003B0004740099840084F4B1840079B1818036A9C
:1003C0003B4017698F401F4307625768122F0496FE
:1003D0001BD801210846B840474A104215D00320D7
:1003E000A040089E7040079A936803400598C06833
:1003F000A04018439060380908400999884075402A
:10040000049E516829400143516003233846184037
:10041000A0400193A34008994B40079A15681D40DE
:1004200005431560D068184005998B68A3400343C5
:10043000D360012528070742069B4CD0534802464B
:100440000068284310600C2030400F238340089E32
:100450007340099F019A9743284A09951546BA584F
:100460001A40009B834013437B51039D2A467240F0
:100470001F4E3768384610402F43099B1B044968BC
:100480000191194200D03846194E306077683846DD
:1004900010402F4309994B040199194200D0384666
:1004A0007060B768384610402F43099B1B050199BF
:1004B0001942049E0B4600D038460D498860C86832
:1004C00002400543099840050342069B084600D0B8
:1004D0002A46C26005990A681046D840A41C361DF9
:1004E0005B1C002800D04EE70AB0F0BD001C005095
:1004F00000040140FCFFFF7F0600060008000140E9
:1005000010B528231824002A00D02346C15010BD5E
:10051000044800687047C04602480168491C0160F1
:100520007047C0463001002080B5B54801684022C0
:100530000A430260002000F009F80146012000296A
:1005400000D080BD00F018F8002080BDB0B5044692
:10055000AF4800687D21C900FFF7CAFD00F06CFDBF
:100560000125002805D10025E84321462A4600F050
:1005700023F82846B0BDC046044801680122114353
:100580000160110742680A4342607047341002401C
:100590001F21014001208840014908607047C04682
:1005A00080E100E01F2101400120884001490860EE
:1005B0007047C04600E100E0002805DB0322034647
:1005C00093430B4A9A1806E00F220240083A03238D
:1005D0009A43084BD218C000182303408801C0B2C8
:1005E0009840FF21994013688B4303431360704781
:1005F00000E400E01CED00E00120800212490A68DE
:1006000002430A607047C046012040020E490A6852
:1006100002430A607047C04610B50B4A13680324B2
:10062000A343034313600948036804221343036090
:10063000012901D130BF02E040BF20BF20BF0168C7
:100640009143016010BDC0460070004010ED00E015
:10065000F0B581B00D4604460127002874D0684AE1
:10066000116801200140A94208D211680127B9434D
:100670002943116011683940A94265D121680222DD
:10068000114207D05F4A16461268F0239A43A368C6
:1006900013433360C90737D15949086801273840E7
:1006A000A84207D90868B84328430860086838405A
:1006B000A84249D120680421084208D00721090234
:1006C000504A134612688A43E168114319600007D3
:1006D00009D50720C0024B490A46096881432069B1
:1006E000C0000843106000F095F846490968090900
:1006F0000F220A404549895CC840454908600020EE
:10070000FFF724FF01B0F0BD6168032908D002297A
:100710000FD10B20C0433B4A105801277A0405E053
:100720000B20C043374A105801277A0610420BD0DD
:100730000DE00B22D243334B9A58012901D15207C5
:1007400000E09205074602D4F8B201B0F0BD2D4892
:10075000024600680327B84308431060FFF7D8FE3D
:1007600006466068012815D0032825D0022835D117
:10077000244800680C21009108E0FFF7C9FE801BA7
:1007800021498842E0D81F4800680099084008289D
:10079000F3D181E71B4800680C21009108E0FFF7C6
:1007A000B7FE801B18498842CED8164800680099C9
:1007B00008400428F3D16FE7124800680C2100912B
:1007C00008E0FFF7A5FE801B0F498842BCD80D4802
:1007D0000068009908400C28F3D15DE709480068DB
:1007E0000C21009108E0FFF793FE801B0649884228
:1007F000AAD80448006800990842F4D14CE7C046E2
:10080000002002400C100240881300008E180008DF
:1008100000000020B0B51A4BD9688A080324224092
:10082000002A17D01748022A1BD0032A1AD18A0C93
:100830000F251540144A525D890D2140491CDC6882
:1008400001252D042C4216D118681023184211D00E
:100850000F4810E05868400B0721014001200004B8
:100860008840B0BD18681021084201D00848B0BDCA
:100870000648B0BD054842431046FFF739FCB0BDFD
:100880000010024000127A009E1800080024F400B4
:1008900000093D00F0B587B004460120002C00D1CE
:1008A0004DE2FE4BD8680C210140059101200490D7
:1008B0000004DF68039007402078C00750D00498F8
:1008C00046040598082804D005980C2808D1002F64
:1008D00006D01868304243D06068002840D1DFE17C
:1008E0006568039A9542029508D0186805210904A5
:1008F0008D4206D104998904084318601868104392
:1009000009E0904318601868104006900698049813
:100910008104186888431860FFF7FAFDE14B05462B
:1009200018683040029900290DD0002818D1FFF72F
:10093000EFFDDC4B411B0320642900D9FFE118685F
:100940003042F4D00CE000280AD0FFF7E1FDFD4B67
:10095000411B0320642900D9F1E118683042F4D129
:100960002078800720D42078C00600D4BFE0059806
:1009700000284AD0A1691868002900D1A3E001210C
:100980000A02104318604E02FFF7C2FDED4B054608
:100990001868304200D086E0FFF7BAFDE94B411BF2
:1009A00003200229F4D9CAE1E0680599042904D09A
:1009B00005990C2954D1002F52D11A6804211140F5
:1009C000002802D1002900D06AE11F2109025A68DB
:1009D0008A43216909021143596019680922914328
:1009E00001431960FFF716FFD649C96809090F22AC
:1009F0000A40D549895CC840D44908600020FFF707
:100A0000A5FDD04B0028AED099E1012041021A6823
:100A10000A4203D0A169002900D190E107204003D8
:100A200059688143206A01435960FF2109065A68C9
:100A30008A43E169090611435960400B03998140DB
:100A4000D86800090F220240BF48805CC140BF48FF
:100A500001600020FFF77AFDBA4B002847D06EE115
:100A60001968002800D1C8E00922914301431960A8
:100A7000FFF74EFDB34B05461868042608E0FFF764
:100A800047FDB04B411B0320022900D957E11868EC
:100A90003042F4D01F2000025968814320690002CF
:100AA000084358605FE70720400359688143206A84
:100AB00008435860FF20000659688143E06900063A
:100AC0000843586013E001210A02904318604E0267
:100AD000FFF71EFD9B4B05461868304207D0FFF715
:100AE00017FD984B411B03200229F5D927E12078F7
:100AF00000072ED56169186D002915D00121084322
:100B00001865FFF705FD8F4B0546186D022608E0B6
:100B1000FFF7FEFC8B4B411B0320022900D90EE19D
:100B2000186D3042F4D014E0012188431865FFF7B6
:100B3000EFFC844B0546186D022608E0FFF7E8FC41
:100B4000804B411B0320022900D9F8E0186D304288
:100B5000F4D12078400700D484E001252907986B60
:100B60000022084203D1986B08439863012200A831
:100B700026C02F02764E3068384211D13068384393
:100B80003060FFF7C5FC6F4B05463068384207D12F
:100B9000FFF7BEFC6B4B411B03206429F5D9CEE067
:100BA000A168029D6E0200290CD0B94207D0186DD1
:100BB00005221202914236D1A90208431865186D28
:100BC000384335E0186DB8431865A802196D8143A4
:100BD0001965FFF79DFC5B4B0546186D30423AD016
:100BE0005C4FFFF795FC574B411B0320B94200D9DE
:100BF000A5E0186D3042F4D12DE001208143196049
:100C0000FFF786FC4F4B05461868042608E0FFF7FF
:100C10007FFC4C4B411B0320022900D98FE0186850
:100C20003042F4D19FE6B8431865A902186D884395
:100C30001865FFF76DFC434B0546186D30420AD12D
:100C4000444FFFF765FC3F4B411B0320B94276D868
:100C5000186D3042F5D00198002803D0986B0099A8
:100C600088439863676A002F68D005980C281BD1C9
:100C7000012F15D0D868039A0240A16A8A420FD189
:100C80000F2189040140E26A914209D103218905BB
:100C90000840216B8842049850D050E00010024078
:100CA00004984CE000100240012001061A688A43B3
:100CB0001A604606FFF72CFC224A054610683040B1
:100CC000022F2FD1002809D0FFF722FC1D4A411B1B
:100CD0000320022933D810683042F5D1FD200004EA
:100CE000D1688143234628330DCB08431043184372
:100CF0001449C860DA48401C124909680143114888
:100D00000160FFF705FC04460E48006807E0FFF7A6
:100D1000FFFB0C4A011B0320022910D81068304247
:100D2000F5D00BE0002809D0FFF7F2FB054A411B84
:100D30000320022903D810683042F5D1002007B003
:100D4000F0BDC046001002408E18000800000020D0
:100D50000070004088130000F0B581B00446012007
:100D6000002C38D00020A0625121615C254651350D
:100D7000002906D1502000212154204600F02EF8F1
:100D8000A06A00900221297021680A6840239A43D2
:100D90000A6001225602A3691E406768A0683843B2
:100DA000E768074320693843676907433743E069C9
:100DB0003843266A0643009806430E60180C042345
:100DC0000340606A18434860D002CB698343CB611B
:100DD000002060652A7001B0F0BD000010B586B03B
:100DE000044601A81421FFF7A0F920680F498842A2
:100DF00019D1012000030E498A6802438A600868FD
:100E00000222104308600868104000900098029287
:100E1000382001900392032004900020059005489B
:100E200001A9FFF78FFA06B010BDC046003001409F
:100E30002C10024000040050F0B587B01F46164643
:100E400004465020235C224650320220012B00D160
:100E5000EEE003910120029205901070FFF758FB1D
:100E600005465120215C204651300490012974D15F
:100E700003980028059800D1D4E0002E059800D1F1
:100E8000D0E0002F059800D1CCE004980078042829
:100E900002D005200499087000206065E787A663EA
:100EA000A78703992163A786206401906064E78681
:100EB0002068026840210A4202D102680A430260A7
:100EC00000900C9E61680198421A4A417B1EC11A2B
:100ED000594111430122D202E368934249D10029CA
:100EE00008D003980188009AD160801C2063E08EAE
:100EF000401EE0860127E08E002802D1E08F002806
:100F000079D020688168022211420DD0E18E012F34
:100F10000AD1002908D0216B0A88C260891C21638C
:100F2000E18E491EE18600278168012211420BD023
:100F3000E18F002908D0C068A16B0880881CA063DD
:100F4000E08F401EE0870127FFF7E2FA411B0320F4
:100F5000721CD0D0B142CED364E0412082006368DD
:100F6000022093425ED104295CD1A168002959D1A5
:100F70007EE7002909D00398017800980173206B5F
:100F8000401C2063E08E401EE0860127E08E002892
:100F900002D1E08F00282ED0206881680222114201
:100FA0000FD0E18E012F0CD100290AD0216B0978D6
:100FB0000173206B401C2063E08E401EE086206899
:100FC00000278168012211420CD0E18F002909D04D
:100FD000C068A16B0870A06B401CA063E08F401E2E
:100FE000E0870127FFF794FA411B0320721CCDD044
:100FF000B142CBD316E0204631462A4600F015FB1D
:10100000002803D02020606501200BE0A0680028A4
:10101000019807D1002006902168CA680692896865
:10102000069106990599049A11700021029A11708F
:10103000C0B207B0F0BD0000411E01200A0E0DD164
:101040000748084A516008490B680340032080079D
:101050001843086000209060072111607047C04667
:10106000FFFFFF0010E000E020ED00E0FEE70000E1
:1010700080B50520FFF78CFA0620FFF789FA0720D4
:10108000FFF786FAE6489449016080BD80B5CC48F8
:10109000914901600648924901600520FFF782FAF4
:1010A0000620FFF77FFA0720FFF77CFA80BDC046D5
:1010B0001404014080B5464800F006FA80BDC046E1
:1010C000F0B585B0FFF7A8F8002803D03E4801210D
:1010D000017076E03C480178012972D1002101704D
:1010E0003A480178002902D03948FFF71EF800225B
:1010F00036480270364F15460C206843029068004F
:1011000034490B5A0493091801913349085A039042
:10111000002401200346A34003990B420CD019463A
:10112000049E314009040DD0501C284908700299D2
:101130006118491CD2B22CE004989843049001999C
:10114000088028E000920026234A374611880B4287
:10115000394600D00146B54200D00F46921C761C9D
:101160000B2EF3D10398834205D0F8B2012802D1A7
:10117000009A174F0FE004981843049001990880D3
:10118000009A501C114E307002996118491CD2B25D
:101190000F4FB9540246641C0C2CBAD16D1C0B2D98
:1011A000AAD1FFF7B5F90D4940180D4908607D2017
:1011B000C400FFF7ADF90019D1490860044800F0F8
:1011C00083F905B0F0BDC046180000202C010020B6
:1011D0004C000020300000201A00002010270000E2
:1011E0000C000020F0B58BB000240A943748016849
:1011F00004221143016001681140059105990168BD
:10120000012529430160016829400591059901687C
:1012100002221143016000681040059005980720E4
:10122000049047032A4839462246FFF769F9294EB8
:10123000294930462A46FFF763F9C0210391304619
:101240002246FFF75DF9079506970894099406AFC3
:101250001F483946FFF776F8204807902048069047
:10126000089505200290000701903946FFF76AF8BB
:1012700011200790184806900894032609961548EF
:101280003946FFF75FF80794092000030690089598
:1012900001983946FFF756F8079503980690089489
:1012A00009960C483946FFF74DF802982946224620
:1012B000FFF782F9062029462246FFF77DF90498B8
:1012C00029462246FFF778F90BB0F0BD2C100240FA
:1012D000000800500004005007FF0000000031101B
:1012E000FF0F000080B5CE480C4A002107230162A1
:1012F00041628162C36241239B000CC0FC330160E8
:1013000041608160C160036141610838FFF724FDDD
:10131000002801D0FEF77EFF80BDC04600300140AE
:1013200070470000F0B587B09D48802101614021E1
:10133000016006A900240C700A206A461060B848B3
:1013400005AA01230293FFF777FD3020134D0527EF
:1013500029463A4600F0D6F8102003AE31463A4608
:1013600000F030F8641C28783178814208D16D1C77
:10137000761CE0B20428F5D900F054F807B0F0BDAF
:1013800002984403064D7D208000FEF7C1FF2C60CB
:10139000C820FEF7BDFF2C61F5E7C0460400002021
:1013A0001808005080B5002802D020200E2104E04B
:1013B0009A488021016020200C2100F0CFF880BDE8
:1013C00028040050F0B587B014460D46744A4021F9
:1013D000116106A908700A2668460660904805AFA4
:1013E00001233A46FFF728FD38780290002C10D0F0
:1013F0008B4F04A9FF2008706846066003AA0123EA
:101400003846FFF719FD03982870641E6D1C002CE8
:10141000EFD1402062490860029807B0F0BDC04695
:1014200018040050F0B583B05D48402707611E20C6
:10143000C6431E3602A90E700A206A46106078481C
:1014400001AC012522462B46FFF7F6FC21785448D3
:1014500007602724204600F081F8F1B2E12000F077
:101460007DF8302016490526324600F04BF82A2038
:101470001449324600F046F82120294600F06EF863
:101480002220294600F06AF82320294600F066F859
:1014900024203F2100F062F825206D2100F05EF845
:1014A0002620214600F05AF831200C24214600F075
:1014B00055F82020214600F051F803B0F0BDC04699
:1014C000AC180008A7180008F0B581B00446344DE8
:1014D00080262E6120200E2100F040F8514F3888E0
:1014E000002802D0DE4800210160A0200C22214605
:1014F00000F008F82E600120388001B0F0BDC04631
:1015000010000020F0B587B014460D46244A402153
:10151000116106A908700A2668460660404805AFB2
:1015200001233A46FFF788FC38780290002C0FD050
:101530000027287804A908706846066003AA0123DA
:101540003748FFF779FC6D1C7F1CF8B2A042F0D33E
:10155000402013490860029807B0F0BDF0B587B08D
:1015600002910F4940260E6106A908700A246846B8
:1015700004602B4805AF01253A462B46FFF75CFC7B
:101580003F7804A9029808706846046003AA2448BA
:101590002B46FFF751FC02480660384607B0F0BD05
:1015A0001804005070B584B01C4D40262E601E20DB
:1015B000C0431E3003A908700A206A46106018480C
:1015C00002AC01232246FFF737FC24780F20C043EA
:1015D0002E5027202146FFF7C1FF80202860286079
:1015E00020200C21FFF7BAFFE12010210C4208D186
:1015F000A00610D50B48002101809A4801210170F6
:1016000009E0084900220A8096490A7001461E3105
:10161000C9B2FFF7A3FF04B070BDC0462804005054
:10162000D0000020480000207047B0B513460A469D
:101630000446412080006168814205D18021204616
:1016400000F014F8002508E05120205C0025052852
:101650000AD10121204600F009F8002804D0606D6D
:101660002021014361650325E8B2B0BDF0B581B02A
:101670001D4616460F460446006881683940002220
:10168000009209E0711C05D0FEF742FF411B206863
:10169000B14205D281683940B942F3D0009825E0C3
:1016A0004168E022914341604121890062688A4299
:1016B0000BD1A1680122D303994202D09202914238
:1016C00003D1016840229143016001214A03A36ACA
:1016D000934205D103689343036003681343036097
:1016E000502000222254512021540320C0B201B0C6
:1016F000F0BD704780B5FEF70FFF80BDB0B592B06A
:1017000005AD281D3021FEF710FD0024049403943C
:10171000029401940320C0020E490A68824301200A
:10172000C30213430B600B90102105910C94C0036E
:101730000D900E942846FFF7ADF80F20009004940A
:1017400003940294019468462146FEF781FF12B08B
:10175000B0BDC04600700040012002020E490B6877
:1017600013430B60CA680D4B1340CB600A680C4BE7
:1017700013400B608A6882438A6082040B6893433B
:101780000B60FD221204CB689343CB6000220A61F8
:10179000C006044908607047001002400C40FF88F2
:1017A000F6FFF6FE08ED00E0F0B583B0FEF7BCFEF4
:1017B000FFF7A4FFFFF716FDFFF794FD01256E0369
:1017C000254F7E604B2080000190FEF7A1FD7E61D9
:1017D0006420FEF79DFDFFF7A5FD204C0295FFF765
:1017E0006FFCFEF795FE2168884202D9FEF7E6FC01
:1017F00015E0FEF78DFE1A49096888420FD97D2051
:10180000354626463C46C700FEF782FEC0192746ED
:1018100034462E46029D12490860FFF74BFC1148E2
:101820000078002801D07E610EE0FEF771FE0E49BF
:101830000968884208D9FEF76BFE019940180A49E9
:101840000860386870403860E80308490968014258
:10185000C5D1FFF7A7FEC2E7140800500C00002016
:101860001000002046000020280100201000005039
:1018700002E008C8121F08C1002AFAD17047704759
:10188000002001E001C1121F002AFBD170470000B7
:101890000000000000000102030406070809030419
:1018A00006080C10182030895A313233895A3132E7
:1018B00033000000D81800080000002018000000C5
:1018C00070180008F018000818000020200500001B
:1018D0008018000800000000000020008C5A3532FB
:1018E0003100000010270000E803000000000000A5
:04000005080000C12E
:00000001FF
