Component: ARM Compiler 6.10.1 Tool: armlink [5d142800]

==============================================================================

Section Cross References

    startup_stm32f042x6.o(RESET) refers to startup_stm32f042x6.o(STACK) for __initial_sp
    startup_stm32f042x6.o(RESET) refers to startup_stm32f042x6.o(.text) for Reset_Handler
    startup_stm32f042x6.o(RESET) refers to stm32f0xx_it.o(.text.NMI_Handler) for NMI_Handler
    startup_stm32f042x6.o(RESET) refers to stm32f0xx_it.o(.text.HardFault_Handler) for HardFault_Handler
    startup_stm32f042x6.o(RESET) refers to stm32f0xx_it.o(.text.SVC_Handler) for SVC_Handler
    startup_stm32f042x6.o(RESET) refers to stm32f0xx_it.o(.text.PendSV_Handler) for PendSV_Handler
    startup_stm32f042x6.o(RESET) refers to stm32f0xx_it.o(.text.SysTick_Handler) for SysTick_Handler
    startup_stm32f042x6.o(RESET) refers to stm32f0xx_it.o(.text.EXTI2_3_IRQHandler) for EXTI2_3_IRQHandler
    startup_stm32f042x6.o(RESET) refers to stm32f0xx_it.o(.text.USB_IRQHandler) for USB_IRQHandler
    startup_stm32f042x6.o(.text) refers to startup_stm32f042x6.o(STACK) for __initial_sp
    startup_stm32f042x6.o(.text) refers to system_stm32f0xx.o(.text.SystemInit) for SystemInit
    startup_stm32f042x6.o(.text) refers to entry.o(.ARM.Collect$$$$00000000) for __main
    main.o(.text.HAL_GPIO_EXTI_Callback) refers to 24l01.o(.text.NRF_IRQHandler) for NRF_IRQHandler
    main.o(.ARM.exidx.text.HAL_GPIO_EXTI_Callback) refers to main.o(.text.HAL_GPIO_EXTI_Callback) for [Anonymous Symbol]
    main.o(.text.main) refers to stm32f0xx_hal.o(.text.HAL_Init) for HAL_Init
    main.o(.text.main) refers to memseta.o(.text) for __aeabi_memclr4
    main.o(.text.main) refers to stm32f0xx_hal_rcc.o(.text.HAL_RCC_OscConfig) for HAL_RCC_OscConfig
    main.o(.text.main) refers to stm32f0xx_hal_rcc.o(.text.HAL_RCC_ClockConfig) for HAL_RCC_ClockConfig
==============================================================================

Removing Unused input sections from the image.

    Removing startup_stm32f042x6.o(HEAP), (512 bytes).
    Removing main.o(.text), (0 bytes).
    Removing main.o(.ARM.exidx.text.HAL_GPIO_EXTI_Callback), (8 bytes).
    Removing main.o(.ARM.exidx.text.main), (8 bytes).
    Removing main.o(.ARM.exidx.text.SystemClock_Config), (8 bytes).
    Removing main.o(.ARM.exidx.text.Error_Handler), (8 bytes).
    Removing main.o(.ARM.exidx.text.fputc), (8 bytes).
    Removing main.o(.ARM.use_no_argv), (4 bytes).
    Removing gpio.o(.text), (0 bytes).
    Removing gpio.o(.ARM.exidx.text.MX_GPIO_Init), (8 bytes).
    Removing spi.o(.text), (0 bytes).
    Removing spi.o(.ARM.exidx.text.MX_SPI1_Init), (8 bytes).
    Removing spi.o(.ARM.exidx.text.HAL_SPI_MspInit), (8 bytes).
    Removing spi.o(.text.HAL_SPI_MspDeInit), (44 bytes).
    Removing spi.o(.ARM.exidx.text.HAL_SPI_MspDeInit), (8 bytes).
    Removing tim.o(.text), (0 bytes).
    Removing tim.o(.ARM.exidx.text.MX_TIM2_Init), (8 bytes).
    Removing tim.o(.text.HAL_TIM_MspPostInit), (140 bytes).
==============================================================================

Image Symbol Table

    Local Symbols

    Symbol Name                              Value     Ov Type        Size  Object(Section)

    ../clib/microlib/division.c              0x00000000   Number         0  uidiv.o ABSOLUTE
    ../clib/microlib/division.c              0x00000000   Number         0  uldiv.o ABSOLUTE
    ../clib/microlib/init/entry.s            0x00000000   Number         0  entry10a.o ABSOLUTE
    ../clib/microlib/init/entry.s            0x00000000   Number         0  entry7b.o ABSOLUTE
    ../clib/microlib/init/entry.s            0x00000000   Number         0  entry11b.o ABSOLUTE
    ../clib/microlib/init/entry.s            0x00000000   Number         0  entry7a.o ABSOLUTE
    ../clib/microlib/init/entry.s            0x00000000   Number         0  entry11a.o ABSOLUTE
    ../clib/microlib/init/entry.s            0x00000000   Number         0  entry10b.o ABSOLUTE
    ../clib/microlib/init/entry.s            0x00000000   Number         0  entry5.o ABSOLUTE
    ../clib/microlib/init/entry.s            0x00000000   Number         0  entry9b.o ABSOLUTE
    ../clib/microlib/init/entry.s            0x00000000   Number         0  entry.o ABSOLUTE
    ../clib/microlib/init/entry.s            0x00000000   Number         0  entry8b.o ABSOLUTE
    ../clib/microlib/init/entry.s            0x00000000   Number         0  entry9a.o ABSOLUTE
    ../clib/microlib/init/entry.s            0x00000000   Number         0  entry8a.o ABSOLUTE
    ../clib/microlib/init/entry.s            0x00000000   Number         0  entry2.o ABSOLUTE
    ../clib/microlib/longlong.c              0x00000000   Number         0  llushr.o ABSOLUTE
    ../clib/microlib/longlong.c              0x00000000   Number         0  llsshr.o ABSOLUTE
    ../clib/microlib/longlong.c              0x00000000   Number         0  llshl.o ABSOLUTE
    ../clib/microlib/printf/printf.c         0x00000000   Number         0  printfb.o ABSOLUTE
    ../clib/microlib/printf/printf.c         0x00000000   Number         0  printf6.o ABSOLUTE
    ../clib/microlib/printf/printf.c         0x00000000   Number         0  printf5.o ABSOLUTE
    ../clib/microlib/printf/printf.c         0x00000000   Number         0  printf4.o ABSOLUTE
    ../clib/microlib/printf/printf.c         0x00000000   Number         0  printf3.o ABSOLUTE
    ../clib/microlib/printf/printf.c         0x00000000   Number         0  printf2.o ABSOLUTE
    ../clib/microlib/printf/printf.c         0x00000000   Number         0  printf1.o ABSOLUTE
    ../clib/microlib/printf/printf.c         0x00000000   Number         0  printf0.o ABSOLUTE
    ../clib/microlib/printf/printf.c         0x00000000   Number         0  printfa.o ABSOLUTE
    ../clib/microlib/printf/printf.c         0x00000000   Number         0  printf8.o ABSOLUTE
    ../clib/microlib/printf/printf.c         0x00000000   Number         0  printf7.o ABSOLUTE
    ../clib/microlib/printf/stubs.s          0x00000000   Number         0  stubs.o ABSOLUTE
    ../clib/microlib/stdio/puts.c            0x00000000   Number         0  puts_e.o ABSOLUTE
    ../clib/microlib/stdio/puts.c            0x00000000   Number         0  puts.o ABSOLUTE
    ../clib/microlib/stdio/streams.c         0x00000000   Number         0  stdout.o ABSOLUTE
    ../clib/microlib/string/memset.c         0x00000000   Number         0  memseta.o ABSOLUTE
    ../clib/microlib/stubs.s                 0x00000000   Number         0  iusefp.o ABSOLUTE
    ../fplib/microlib/fpadd.c                0x00000000   Number         0  dadd.o ABSOLUTE
    ../fplib/microlib/fpdiv.c                0x00000000   Number         0  ddiv.o ABSOLUTE
    ../fplib/microlib/fpepilogue.c           0x00000000   Number         0  depilogue.o ABSOLUTE
    ../fplib/microlib/fpfix.c                0x00000000   Number         0  dfixul.o ABSOLUTE
    ../fplib/microlib/fpmul.c                0x00000000   Number         0  dmul.o ABSOLUTE
    24l01.c                                  0x00000000   Number         0  24l01.o ABSOLUTE
    KEY_map.c                                0x00000000   Number         0  key_map.o ABSOLUTE
    cdrcmple.s                               0x00000000   Number         0  cdrcmple.o ABSOLUTE
    dc.s                                     0x00000000   Number         0  dc.o ABSOLUTE
    gpio.c                                   0x00000000   Number         0  gpio.o ABSOLUTE
    handlers.s                               0x00000000   Number         0  handlers.o ABSOLUTE
    init.s                                   0x00000000   Number         0  init.o ABSOLUTE
    main.c                                   0x00000000   Number         0  main.o ABSOLUTE
    spi.c                                    0x00000000   Number         0  spi.o ABSOLUTE
    startup_stm32f042x6.s                    0x00000000   Number         0  startup_stm32f042x6.o ABSOLUTE
    stm32f0xx_hal.c                          0x00000000   Number         0  stm32f0xx_hal.o ABSOLUTE
    stm32f0xx_hal_cortex.c                   0x00000000   Number         0  stm32f0xx_hal_cortex.o ABSOLUTE
    stm32f0xx_hal_dma.c                      0x00000000   Number         0  stm32f0xx_hal_dma.o ABSOLUTE
    stm32f0xx_hal_flash.c                    0x00000000   Number         0  stm32f0xx_hal_flash.o ABSOLUTE
    stm32f0xx_hal_flash_ex.c                 0x00000000   Number         0  stm32f0xx_hal_flash_ex.o ABSOLUTE
    stm32f0xx_hal_gpio.c                     0x00000000   Number         0  stm32f0xx_hal_gpio.o ABSOLUTE
    stm32f0xx_hal_i2c.c                      0x00000000   Number         0  stm32f0xx_hal_i2c.o ABSOLUTE
    stm32f0xx_hal_i2c_ex.c                   0x00000000   Number         0  stm32f0xx_hal_i2c_ex.o ABSOLUTE
    stm32f0xx_hal_msp.c                      0x00000000   Number         0  stm32f0xx_hal_msp.o ABSOLUTE
    stm32f0xx_hal_pcd.c                      0x00000000   Number         0  stm32f0xx_hal_pcd.o ABSOLUTE
    stm32f0xx_hal_pcd_ex.c                   0x00000000   Number         0  stm32f0xx_hal_pcd_ex.o ABSOLUTE
    stm32f0xx_hal_pwr.c                      0x00000000   Number         0  stm32f0xx_hal_pwr.o ABSOLUTE
    stm32f0xx_hal_pwr_ex.c                   0x00000000   Number         0  stm32f0xx_hal_pwr_ex.o ABSOLUTE
    stm32f0xx_hal_rcc.c                      0x00000000   Number         0  stm32f0xx_hal_rcc.o ABSOLUTE
    stm32f0xx_hal_rcc_ex.c                   0x00000000   Number         0  stm32f0xx_hal_rcc_ex.o ABSOLUTE
    stm32f0xx_hal_spi.c                      0x00000000   Number         0  stm32f0xx_hal_spi.o ABSOLUTE
    stm32f0xx_hal_spi_ex.c                   0x00000000   Number         0  stm32f0xx_hal_spi_ex.o ABSOLUTE
    stm32f0xx_hal_tim.c                      0x00000000   Number         0  stm32f0xx_hal_tim.o ABSOLUTE
    stm32f0xx_hal_tim_ex.c                   0x00000000   Number         0  stm32f0xx_hal_tim_ex.o ABSOLUTE
    stm32f0xx_it.c                           0x00000000   Number         0  stm32f0xx_it.o ABSOLUTE
    system_stm32f0xx.c                       0x00000000   Number         0  system_stm32f0xx.o ABSOLUTE
    tim.c                                    0x00000000   Number         0  tim.o ABSOLUTE
    usb_device.c                             0x00000000   Number         0  usb_device.o ABSOLUTE
    usbd_conf.c                              0x00000000   Number         0  usbd_conf.o ABSOLUTE
    usbd_core.c                              0x00000000   Number         0  usbd_core.o ABSOLUTE
    usbd_ctlreq.c                            0x00000000   Number         0  usbd_ctlreq.o ABSOLUTE
    usbd_desc.c                              0x00000000   Number         0  usbd_desc.o ABSOLUTE
    usbd_hid.c                               0x00000000   Number         0  usbd_hid.o ABSOLUTE
    usbd_ioreq.c                             0x00000000   Number         0  usbd_ioreq.o ABSOLUTE
    RESET                                    0x08000000   Section      192  startup_stm32f042x6.o(RESET)
    .ARM.Collect$$$$00000000                 0x080000c0   Section        0  entry.o(.ARM.Collect$$$$00000000)
    .ARM.Collect$$$$00000001                 0x080000c0   Section        4  entry2.o(.ARM.Collect$$$$00000001)
    .ARM.Collect$$$$00000004                 0x080000c4   Section        4  entry5.o(.ARM.Collect$$$$00000004)
    .ARM.Collect$$$$00000008                 0x080000c8   Section        0  entry7b.o(.ARM.Collect$$$$00000008)
    .ARM.Collect$$$$0000000A                 0x080000c8   Section        0  entry8b.o(.ARM.Collect$$$$0000000A)
    .ARM.Collect$$$$0000000B                 0x080000c8   Section        8  entry9a.o(.ARM.Collect$$$$0000000B)
    .ARM.Collect$$$$0000000D                 0x080000d0   Section        0  entry10a.o(.ARM.Collect$$$$0000000D)
    .ARM.Collect$$$$0000000F                 0x080000d0   Section        0  entry11a.o(.ARM.Collect$$$$0000000F)
    .ARM.Collect$$$$00002712                 0x080000d0   Section        4  entry2.o(.ARM.Collect$$$$00002712)
    __lit__00000000                          0x080000d0   Data           4  entry2.o(.ARM.Collect$$$$00002712)
    .text                                    0x080000d4   Section       88  startup_stm32f042x6.o(.text)
    .text                                    0x0800012c   Section        0  uidiv.o(.text)
    .text                                    0x08000158   Section        0  llushr.o(.text)
    .text                                    0x0800017a   Section        0  memseta.o(.text)
    .text                                    0x0800019e   Section        0  uldiv.o(.text)
    .text                                    0x08000200   Section       36  init.o(.text)
    .text                                    0x08000224   Section        0  llshl.o(.text)
    [Anonymous Symbol]                       0x08000244   Section        0  stm32f0xx_it.o(.text.EXTI2_3_IRQHandler)
    [Anonymous Symbol]                       0x0800024e   Section        0  main.o(.text.Error_Handler)
    [Anonymous Symbol]                       0x08000250   Section        0  main.o(.text.HAL_GPIO_EXTI_Callback)
    [Anonymous Symbol]                       0x0800025c   Section        0  stm32f0xx_hal_gpio.o(.text.HAL_GPIO_EXTI_IRQHandler)
    __arm_cp.6_0                             0x08000270   Number         4  stm32f0xx_hal_gpio.o(.text.HAL_GPIO_EXTI_IRQHandler)
    [Anonymous Symbol]                       0x08000274   Section        0  stm32f0xx_hal_gpio.o(.text.HAL_GPIO_Init)
    __arm_cp.0_0                             0x08000418   Number         4  stm32f0xx_hal_gpio.o(.text.HAL_GPIO_Init)
    __arm_cp.0_1                             0x0800041c   Number         4  stm32f0xx_hal_gpio.o(.text.HAL_GPIO_Init)
    __arm_cp.0_3                             0x08000420   Number         4  stm32f0xx_hal_gpio.o(.text.HAL_GPIO_Init)
    __arm_cp.0_4                             0x08000424   Number         4  stm32f0xx_hal_gpio.o(.text.HAL_GPIO_Init)
    __arm_cp.0_5                             0x08000428   Number         4  stm32f0xx_hal_gpio.o(.text.HAL_GPIO_Init)
    __arm_cp.0_6                             0x0800042c   Number         4  stm32f0xx_hal_gpio.o(.text.HAL_GPIO_Init)
    [Anonymous Symbol]                       0x08000430   Section        0  stm32f0xx_hal_gpio.o(.text.HAL_GPIO_WritePin)
    [Anonymous Symbol]                       0x08000440   Section        0  stm32f0xx_hal.o(.text.HAL_GetTick)
    [Anonymous Symbol]                       0x08000448   Section        0  stm32f0xx_hal.o(.text.HAL_IncTick)
    __arm_cp.5_0                             0x08000454   Number         4  stm32f0xx_hal.o(.text.HAL_IncTick)
    [Anonymous Symbol]                       0x08000458   Section        0  stm32f0xx_hal.o(.text.HAL_Init)
    __arm_cp.0_0                             0x08000474   Number         4  stm32f0xx_hal.o(.text.HAL_Init)
    [Anonymous Symbol]                       0x08000478   Section        0  stm32f0xx_hal.o(.text.HAL_InitTick)
    [Anonymous Symbol]                       0x0800049c   Section        0  stm32f0xx_hal_msp.o(.text.HAL_MspInit)
    __arm_cp.0_0                             0x080004d0   Number         4  stm32f0xx_hal_msp.o(.text.HAL_MspInit)
    __arm_cp.0_1                             0x080004d4   Number         4  stm32f0xx_hal_msp.o(.text.HAL_MspInit)
    [Anonymous Symbol]                       0x080004d8   Section        0  stm32f0xx_hal_cortex.o(.text.HAL_NVIC_EnableIRQ)
    __arm_cp.1_0                             0x080004e8   Number         4  stm32f0xx_hal_cortex.o(.text.HAL_NVIC_EnableIRQ)
    [Anonymous Symbol]                       0x080004ec   Section        0  stm32f0xx_hal_cortex.o(.text.HAL_NVIC_SetPriority)
    __arm_cp.0_0                             0x08000524   Number         4  stm32f0xx_hal_cortex.o(.text.HAL_NVIC_SetPriority)
    __arm_cp.0_1                             0x08000528   Number         4  stm32f0xx_hal_cortex.o(.text.HAL_NVIC_SetPriority)
    [Anonymous Symbol]                       0x0800052c   Section        0  stm32f0xx_hal_pcd_ex.o(.text.HAL_PCDEx_PMAConfig)
    [Anonymous Symbol]                       0x0800056a   Section        0  usbd_conf.o(.text.HAL_PCD_DataInStageCallback)
    [Anonymous Symbol]                       0x08000582   Section        0  usbd_conf.o(.text.HAL_PCD_DataOutStageCallback)
    [Anonymous Symbol]                       0x080005a0   Section        0  stm32f0xx_hal_pcd.o(.text.HAL_PCD_EP_Close)
    __arm_cp.22_0                            0x08000674   Number         4  stm32f0xx_hal_pcd.o(.text.HAL_PCD_EP_Close)
    [Anonymous Symbol]                       0x08000678   Section        0  stm32f0xx_hal_pcd.o(.text.HAL_PCD_EP_ClrStall)
    __arm_cp.28_1                            0x08000708   Number         4  stm32f0xx_hal_pcd.o(.text.HAL_PCD_EP_ClrStall)
    __arm_cp.28_3                            0x0800070c   Number         4  stm32f0xx_hal_pcd.o(.text.HAL_PCD_EP_ClrStall)
    [Anonymous Symbol]                       0x08000710   Section        0  stm32f0xx_hal_pcd.o(.text.HAL_PCD_EP_Open)
    __arm_cp.21_0                            0x08000944   Number         4  stm32f0xx_hal_pcd.o(.text.HAL_PCD_EP_Open)
    __arm_cp.21_1                            0x08000948   Number         4  stm32f0xx_hal_pcd.o(.text.HAL_PCD_EP_Open)
    __arm_cp.21_2                            0x0800094c   Number         4  stm32f0xx_hal_pcd.o(.text.HAL_PCD_EP_Open)
    __arm_cp.21_3                            0x08000950   Number         4  stm32f0xx_hal_pcd.o(.text.HAL_PCD_EP_Open)
    __arm_cp.21_4                            0x08000954   Number         4  stm32f0xx_hal_pcd.o(.text.HAL_PCD_EP_Open)
    __arm_cp.21_5                            0x08000958   Number         4  stm32f0xx_hal_pcd.o(.text.HAL_PCD_EP_Open)
    __arm_cp.21_6                            0x0800095c   Number         4  stm32f0xx_hal_pcd.o(.text.HAL_PCD_EP_Open)
    __arm_cp.21_7                            0x08000960   Number         4  stm32f0xx_hal_pcd.o(.text.HAL_PCD_EP_Open)
    __arm_cp.21_8                            0x08000964   Number         4  stm32f0xx_hal_pcd.o(.text.HAL_PCD_EP_Open)
    __arm_cp.21_9                            0x08000968   Number         4  stm32f0xx_hal_pcd.o(.text.HAL_PCD_EP_Open)
    __arm_cp.21_10                           0x0800096c   Number         4  stm32f0xx_hal_pcd.o(.text.HAL_PCD_EP_Open)
    __arm_cp.21_11                           0x08000970   Number         4  stm32f0xx_hal_pcd.o(.text.HAL_PCD_EP_Open)
    [Anonymous Symbol]                       0x08000974   Section        0  stm32f0xx_hal_pcd.o(.text.HAL_PCD_EP_Receive)
    __arm_cp.23_0                            0x08000aa8   Number         4  stm32f0xx_hal_pcd.o(.text.HAL_PCD_EP_Receive)
    __arm_cp.23_1                            0x08000aac   Number         4  stm32f0xx_hal_pcd.o(.text.HAL_PCD_EP_Receive)
    __arm_cp.23_2                            0x08000ab0   Number         4  stm32f0xx_hal_pcd.o(.text.HAL_PCD_EP_Receive)
    __arm_cp.23_3                            0x08000ab4   Number         4  stm32f0xx_hal_pcd.o(.text.HAL_PCD_EP_Receive)
    [Anonymous Symbol]                       0x08000ab8   Section        0  stm32f0xx_hal_pcd.o(.text.HAL_PCD_EP_SetStall)
    __arm_cp.27_0                            0x08000b44   Number         4  stm32f0xx_hal_pcd.o(.text.HAL_PCD_EP_SetStall)
    __arm_cp.27_1                            0x08000b48   Number         4  stm32f0xx_hal_pcd.o(.text.HAL_PCD_EP_SetStall)
    __arm_cp.27_2                            0x08000b4c   Number         4  stm32f0xx_hal_pcd.o(.text.HAL_PCD_EP_SetStall)
    __arm_cp.27_3                            0x08000b50   Number         4  stm32f0xx_hal_pcd.o(.text.HAL_PCD_EP_SetStall)
    __arm_cp.27_4                            0x08000b54   Number         4  stm32f0xx_hal_pcd.o(.text.HAL_PCD_EP_SetStall)
    [Anonymous Symbol]                       0x08000b58   Section        0  stm32f0xx_hal_pcd.o(.text.HAL_PCD_EP_Transmit)
    __arm_cp.25_0                            0x08000c5c   Number         4  stm32f0xx_hal_pcd.o(.text.HAL_PCD_EP_Transmit)
    __arm_cp.25_1                            0x08000c60   Number         4  stm32f0xx_hal_pcd.o(.text.HAL_PCD_EP_Transmit)
    __arm_cp.25_2                            0x08000c64   Number         4  stm32f0xx_hal_pcd.o(.text.HAL_PCD_EP_Transmit)
    [Anonymous Symbol]                       0x08000c68   Section        0  stm32f0xx_hal_pcd.o(.text.HAL_PCD_IRQHandler)
    __arm_cp.6_21                            0x08001098   Number         4  stm32f0xx_hal_pcd.o(.text.HAL_PCD_IRQHandler)
    __arm_cp.6_0                             0x08001348   Number         4  stm32f0xx_hal_pcd.o(.text.HAL_PCD_IRQHandler)
    __arm_cp.6_1                             0x0800134c   Number         4  stm32f0xx_hal_pcd.o(.text.HAL_PCD_IRQHandler)
    __arm_cp.6_2                             0x08001350   Number         4  stm32f0xx_hal_pcd.o(.text.HAL_PCD_IRQHandler)
    __arm_cp.6_3                             0x08001354   Number         4  stm32f0xx_hal_pcd.o(.text.HAL_PCD_IRQHandler)
    __arm_cp.6_4                             0x08001358   Number         4  stm32f0xx_hal_pcd.o(.text.HAL_PCD_IRQHandler)
    __arm_cp.6_5                             0x0800135c   Number         4  stm32f0xx_hal_pcd.o(.text.HAL_PCD_IRQHandler)
    __arm_cp.6_6                             0x08001360   Number         4  stm32f0xx_hal_pcd.o(.text.HAL_PCD_IRQHandler)
    __arm_cp.6_8                             0x08001364   Number         4  stm32f0xx_hal_pcd.o(.text.HAL_PCD_IRQHandler)
    __arm_cp.6_9                             0x08001368   Number         4  stm32f0xx_hal_pcd.o(.text.HAL_PCD_IRQHandler)
    __arm_cp.6_10                            0x0800136c   Number         4  stm32f0xx_hal_pcd.o(.text.HAL_PCD_IRQHandler)
    __arm_cp.6_11                            0x08001370   Number         4  stm32f0xx_hal_pcd.o(.text.HAL_PCD_IRQHandler)
    __arm_cp.6_12                            0x08001374   Number         4  stm32f0xx_hal_pcd.o(.text.HAL_PCD_IRQHandler)
    __arm_cp.6_13                            0x08001378   Number         4  stm32f0xx_hal_pcd.o(.text.HAL_PCD_IRQHandler)
    __arm_cp.6_14                            0x0800137c   Number         4  stm32f0xx_hal_pcd.o(.text.HAL_PCD_IRQHandler)
    __arm_cp.6_15                            0x08001380   Number         4  stm32f0xx_hal_pcd.o(.text.HAL_PCD_IRQHandler)
    [Anonymous Symbol]                       0x08001384   Section        0  stm32f0xx_hal_pcd.o(.text.HAL_PCD_Init)
    [Anonymous Symbol]                       0x08001410   Section        0  usbd_conf.o(.text.HAL_PCD_MspInit)
    __arm_cp.0_0                             0x08001448   Number         4  usbd_conf.o(.text.HAL_PCD_MspInit)
    __arm_cp.0_1                             0x0800144c   Number         4  usbd_conf.o(.text.HAL_PCD_MspInit)
    [Anonymous Symbol]                       0x08001450   Section        0  usbd_conf.o(.text.HAL_PCD_ResetCallback)
    [Anonymous Symbol]                       0x08001474   Section        0  usbd_conf.o(.text.HAL_PCD_ResumeCallback)
    [Anonymous Symbol]                       0x08001498   Section        0  usbd_conf.o(.text.HAL_PCD_SOFCallback)
    [Anonymous Symbol]                       0x080014a6   Section        0  stm32f0xx_hal_pcd.o(.text.HAL_PCD_SetAddress)
    [Anonymous Symbol]                       0x080014d4   Section        0  usbd_conf.o(.text.HAL_PCD_SetupStageCallback)
    [Anonymous Symbol]                       0x080014ea   Section        0  stm32f0xx_hal_pcd.o(.text.HAL_PCD_Start)
    [Anonymous Symbol]                       0x080014fc   Section        0  usbd_conf.o(.text.HAL_PCD_SuspendCallback)
    __arm_cp.7_0                             0x0800151c   Number         4  usbd_conf.o(.text.HAL_PCD_SuspendCallback)
    [Anonymous Symbol]                       0x08001520   Section        0  stm32f0xx_hal_rcc_ex.o(.text.HAL_RCCEx_PeriphCLKConfig)
    __arm_cp.0_0                             0x08001660   Number         4  stm32f0xx_hal_rcc_ex.o(.text.HAL_RCCEx_PeriphCLKConfig)
    __arm_cp.0_1                             0x08001664   Number         4  stm32f0xx_hal_rcc_ex.o(.text.HAL_RCCEx_PeriphCLKConfig)
    __arm_cp.0_2                             0x08001668   Number         4  stm32f0xx_hal_rcc_ex.o(.text.HAL_RCCEx_PeriphCLKConfig)
    [Anonymous Symbol]                       0x0800166c   Section        0  stm32f0xx_hal_rcc.o(.text.HAL_RCC_ClockConfig)
    __arm_cp.2_0                             0x08001860   Number         4  stm32f0xx_hal_rcc.o(.text.HAL_RCC_ClockConfig)
    __arm_cp.2_1                             0x08001864   Number         4  stm32f0xx_hal_rcc.o(.text.HAL_RCC_ClockConfig)
    __arm_cp.2_2                             0x08001868   Number         4  stm32f0xx_hal_rcc.o(.text.HAL_RCC_ClockConfig)
    __arm_cp.2_3                             0x0800186c   Number         4  stm32f0xx_hal_rcc.o(.text.HAL_RCC_ClockConfig)
    __arm_cp.2_4                             0x08001870   Number         4  stm32f0xx_hal_rcc.o(.text.HAL_RCC_ClockConfig)
    __arm_cp.2_5                             0x08001874   Number         4  stm32f0xx_hal_rcc.o(.text.HAL_RCC_ClockConfig)
    __arm_cp.2_6                             0x08001878   Number         4  stm32f0xx_hal_rcc.o(.text.HAL_RCC_ClockConfig)
    __arm_cp.2_7                             0x0800187c   Number         4  stm32f0xx_hal_rcc.o(.text.HAL_RCC_ClockConfig)
    [Anonymous Symbol]                       0x08001880   Section        0  stm32f0xx_hal_rcc.o(.text.HAL_RCC_GetHCLKFreq)
    __arm_cp.7_0                             0x08001888   Number         4  stm32f0xx_hal_rcc.o(.text.HAL_RCC_GetHCLKFreq)
    [Anonymous Symbol]                       0x0800188c   Section        0  stm32f0xx_hal_rcc.o(.text.HAL_RCC_OscConfig)
    __arm_cp.1_4                             0x08001c70   Number         4  stm32f0xx_hal_rcc.o(.text.HAL_RCC_OscConfig)
    __arm_cp.1_1                             0x08001d4c   Number         4  stm32f0xx_hal_rcc.o(.text.HAL_RCC_OscConfig)
    __arm_cp.1_2                             0x08001d50   Number         4  stm32f0xx_hal_rcc.o(.text.HAL_RCC_OscConfig)
    [Anonymous Symbol]                       0x08001d54   Section        0  stm32f0xx_hal_spi.o(.text.HAL_SPI_Init)
    [Anonymous Symbol]                       0x08001e10   Section        0  spi.o(.text.HAL_SPI_MspInit)
    __arm_cp.1_0                             0x08001e70   Number         4  spi.o(.text.HAL_SPI_MspInit)
    __arm_cp.1_1                             0x08001e74   Number         4  spi.o(.text.HAL_SPI_MspInit)
    [Anonymous Symbol]                       0x08001e78   Section        0  stm32f0xx_hal_spi.o(.text.HAL_SPI_TransmitReceive)
    __arm_cp.6_0                             0x080022e8   Number         4  stm32f0xx_hal_spi.o(.text.HAL_SPI_TransmitReceive)
    __arm_cp.6_1                             0x080022ec   Number         4  stm32f0xx_hal_spi.o(.text.HAL_SPI_TransmitReceive)
    [Anonymous Symbol]                       0x080022f0   Section        0  stm32f0xx_hal_cortex.o(.text.HAL_SYSTICK_Config)
    __arm_cp.4_0                             0x08002318   Number         4  stm32f0xx_hal_cortex.o(.text.HAL_SYSTICK_Config)
    __arm_cp.4_1                             0x0800231c   Number         4  stm32f0xx_hal_cortex.o(.text.HAL_SYSTICK_Config)
    __arm_cp.4_2                             0x08002320   Number         4  stm32f0xx_hal_cortex.o(.text.HAL_SYSTICK_Config)
    [Anonymous Symbol]                       0x08002324   Section        0  stm32f0xx_hal_tim_ex.o(.text.HAL_TIMEx_ConfigBreakDeadTime)
    [Anonymous Symbol]                       0x08002386   Section        0  stm32f0xx_hal_tim_ex.o(.text.HAL_TIMEx_MasterConfigSynchronization)
    [Anonymous Symbol]                       0x080023cc   Section        0  stm32f0xx_hal_tim.o(.text.HAL_TIM_Base_Init)
    [Anonymous Symbol]                       0x0800248c   Section        0  tim.o(.text.HAL_TIM_Base_MspInit)
    __arm_cp.4_1                             0x080024b4   Number         4  tim.o(.text.HAL_TIM_Base_MspInit)
    [Anonymous Symbol]                       0x080024b8   Section        0  stm32f0xx_hal_tim.o(.text.HAL_TIM_PWM_ConfigChannel)
    __arm_cp.74_0                            0x08002714   Number         4  stm32f0xx_hal_tim.o(.text.HAL_TIM_PWM_ConfigChannel)
    __arm_cp.74_1                            0x08002718   Number         4  stm32f0xx_hal_tim.o(.text.HAL_TIM_PWM_ConfigChannel)
    __arm_cp.74_3                            0x0800271c   Number         4  stm32f0xx_hal_tim.o(.text.HAL_TIM_PWM_ConfigChannel)
    [Anonymous Symbol]                       0x08002720   Section        0  stm32f0xx_hal_tim.o(.text.HAL_TIM_PWM_Init)
    __arm_cp.25_0                            0x080027e0   Number         4  stm32f0xx_hal_tim.o(.text.HAL_TIM_PWM_Init)
    __arm_cp.25_2                            0x080027e4   Number         4  stm32f0xx_hal_tim.o(.text.HAL_TIM_PWM_Init)
    __arm_cp.25_3                            0x080027e8   Number         4  stm32f0xx_hal_tim.o(.text.HAL_TIM_PWM_Init)
    __arm_cp.25_4                            0x080027ec   Number         4  stm32f0xx_hal_tim.o(.text.HAL_TIM_PWM_Init)
    [Anonymous Symbol]                       0x080027f0   Section        0  tim.o(.text.HAL_TIM_PWM_MspInit)
    __arm_cp.3_0                             0x08002814   Number         4  tim.o(.text.HAL_TIM_PWM_MspInit)
    [Anonymous Symbol]                       0x08002818   Section        0  stm32f0xx_hal_tim.o(.text.HAL_TIM_PWM_Start)
    __arm_cp.29_0                            0x08002850   Number         4  stm32f0xx_hal_tim.o(.text.HAL_TIM_PWM_Start)
    __arm_cp.29_1                            0x08002854   Number         4  stm32f0xx_hal_tim.o(.text.HAL_TIM_PWM_Start)
    __arm_cp.29_2                            0x08002858   Number         4  stm32f0xx_hal_tim.o(.text.HAL_TIM_PWM_Start)
    [Anonymous Symbol]                       0x0800285c   Section        0  stm32f0xx_it.o(.text.HardFault_Handler)
    [Anonymous Symbol]                       0x08002860   Section        0  tim.o(.text.LED1_SET)
    [Anonymous Symbol]                       0x08002868   Section        0  tim.o(.text.LED2_SET)
    [Anonymous Symbol]                       0x08002870   Section        0  gpio.o(.text.MX_GPIO_Init)
    __arm_cp.0_2                             0x08002910   Number         4  gpio.o(.text.MX_GPIO_Init)
    [Anonymous Symbol]                       0x08002914   Section        0  spi.o(.text.MX_SPI1_Init)
    __arm_cp.0_0                             0x08002954   Number         4  spi.o(.text.MX_SPI1_Init)
    __arm_cp.0_1                             0x08002958   Number         4  spi.o(.text.MX_SPI1_Init)
    [Anonymous Symbol]                       0x0800295c   Section        0  tim.o(.text.MX_TIM16_Init)
    __arm_cp.2_0                             0x08002a6c   Number         4  tim.o(.text.MX_TIM16_Init)
    __arm_cp.2_1                             0x08002a70   Number         4  tim.o(.text.MX_TIM16_Init)
    [Anonymous Symbol]                       0x08002a74   Section        0  tim.o(.text.MX_TIM2_Init)
    __arm_cp.0_0                             0x08002b58   Number         4  tim.o(.text.MX_TIM2_Init)
    __arm_cp.0_1                             0x08002b5c   Number         4  tim.o(.text.MX_TIM2_Init)
    __arm_cp.0_2                             0x08002b60   Number         4  tim.o(.text.MX_TIM2_Init)
    __arm_cp.0_3                             0x08002b64   Number         4  tim.o(.text.MX_TIM2_Init)
    __arm_cp.0_4                             0x08002b68   Number         4  tim.o(.text.MX_TIM2_Init)
    [Anonymous Symbol]                       0x08002b6c   Section        0  usb_device.o(.text.MX_USB_DEVICE_Init)
    __arm_cp.0_0                             0x08002ba0   Number         4  usb_device.o(.text.MX_USB_DEVICE_Init)
    __arm_cp.0_1                             0x08002ba4   Number         4  usb_device.o(.text.MX_USB_DEVICE_Init)
    __arm_cp.0_2                             0x08002ba8   Number         4  usb_device.o(.text.MX_USB_DEVICE_Init)
    [Anonymous Symbol]                       0x08002bac   Section        0  stm32f0xx_it.o(.text.NMI_Handler)
    [Anonymous Symbol]                       0x08002bb0   Section        0  24l01.o(.text.NRF24L01_Init)
    __arm_cp.1_0                             0x08002d38   Number         4  24l01.o(.text.NRF24L01_Init)
    __arm_cp.1_1                             0x08002d3c   Number         4  24l01.o(.text.NRF24L01_Init)
    __arm_cp.1_2                             0x08002d40   Number         4  24l01.o(.text.NRF24L01_Init)
    __arm_cp.1_3                             0x08002d44   Number         4  24l01.o(.text.NRF24L01_Init)
    [Anonymous Symbol]                       0x08002d48   Section        0  24l01.o(.text.NRF24L01_RX_Mode)
    __arm_cp.4_0                             0x08003058   Number         4  24l01.o(.text.NRF24L01_RX_Mode)
    __arm_cp.4_1                             0x0800305c   Number         4  24l01.o(.text.NRF24L01_RX_Mode)
    __arm_cp.4_2                             0x08003060   Number         4  24l01.o(.text.NRF24L01_RX_Mode)
    __arm_cp.4_3                             0x08003064   Number         4  24l01.o(.text.NRF24L01_RX_Mode)
    [Anonymous Symbol]                       0x08003068   Section        0  24l01.o(.text.NRF_IRQHandler)
    __arm_cp.12_0                            0x08003394   Number         4  24l01.o(.text.NRF_IRQHandler)
    __arm_cp.12_1                            0x08003398   Number         4  24l01.o(.text.NRF_IRQHandler)
    __arm_cp.12_2                            0x0800339c   Number         4  24l01.o(.text.NRF_IRQHandler)
    __arm_cp.12_5                            0x080033a8   Number         4  24l01.o(.text.NRF_IRQHandler)
    __arm_cp.12_6                            0x080033ac   Number         4  24l01.o(.text.NRF_IRQHandler)
    [Anonymous Symbol]                       0x080033c0   Section        0  stm32f0xx_it.o(.text.PendSV_Handler)
    [Anonymous Symbol]                       0x080033c2   Section        0  stm32f0xx_hal_spi.o(.text.SPI_WaitFifoStateUntilTimeout)
    SPI_WaitFifoStateUntilTimeout            0x080033c3   Thumb Code   238  stm32f0xx_hal_spi.o(.text.SPI_WaitFifoStateUntilTimeout)
    [Anonymous Symbol]                       0x080034b0   Section        0  stm32f0xx_it.o(.text.SVC_Handler)
    [Anonymous Symbol]                       0x080034b4   Section        0  key_map.o(.text.Send_data)
    __arm_cp.0_0                             0x08003878   Number         4  key_map.o(.text.Send_data)
    __arm_cp.0_1                             0x0800387c   Number         4  key_map.o(.text.Send_data)
    [Anonymous Symbol]                       0x08003880   Section        0  stm32f0xx_it.o(.text.SysTick_Handler)
    [Anonymous Symbol]                       0x08003888   Section        0  main.o(.text.SystemClock_Config)
    [Anonymous Symbol]                       0x080038d4   Section        0  system_stm32f0xx.o(.text.SystemInit)
    __arm_cp.0_0                             0x08003920   Number         4  system_stm32f0xx.o(.text.SystemInit)
    __arm_cp.0_1                             0x08003924   Number         4  system_stm32f0xx.o(.text.SystemInit)
    __arm_cp.0_2                             0x08003928   Number         4  system_stm32f0xx.o(.text.SystemInit)
    [Anonymous Symbol]                       0x0800392c   Section        0  usbd_core.o(.text.USBD_ClrClassConfig)
    [Anonymous Symbol]                       0x0800393c   Section        0  usbd_ioreq.o(.text.USBD_CtlContinueRx)
    [Anonymous Symbol]                       0x0800394e   Section        0  usbd_ioreq.o(.text.USBD_CtlContinueSendData)
    [Anonymous Symbol]                       0x08003960   Section        0  usbd_ctlreq.o(.text.USBD_CtlError)
    [Anonymous Symbol]                       0x08003974   Section        0  usbd_ioreq.o(.text.USBD_CtlReceiveStatus)
    [Anonymous Symbol]                       0x0800398e   Section        0  usbd_ioreq.o(.text.USBD_CtlSendData)
    [Anonymous Symbol]                       0x080039ac   Section        0  usbd_ioreq.o(.text.USBD_CtlSendStatus)
    [Anonymous Symbol]                       0x080039c8   Section        0  usbd_desc.o(.text.USBD_FS_ConfigStrDescriptor)
    [Anonymous Symbol]                       0x080039e8   Section        0  usbd_desc.o(.text.USBD_FS_DeviceDescriptor)
    __arm_cp.0_0                             0x080039f0   Number         4  usbd_desc.o(.text.USBD_FS_DeviceDescriptor)
    [Anonymous Symbol]                       0x080039f4   Section        0  usbd_desc.o(.text.USBD_FS_InterfaceStrDescriptor)
    [Anonymous Symbol]                       0x08003a18   Section        0  usbd_desc.o(.text.USBD_FS_LangIDStrDescriptor)
    __arm_cp.1_0                             0x08003a20   Number         4  usbd_desc.o(.text.USBD_FS_LangIDStrDescriptor)
    [Anonymous Symbol]                       0x08003a24   Section        0  usbd_desc.o(.text.USBD_FS_ManufacturerStrDescriptor)
    [Anonymous Symbol]                       0x08003a4c   Section        0  usbd_desc.o(.text.USBD_FS_ProductStrDescriptor)
    __arm_cp.3_1                             0x08003a78   Number         4  usbd_desc.o(.text.USBD_FS_ProductStrDescriptor)
    [Anonymous Symbol]                       0x08003a7c   Section        0  usbd_desc.o(.text.USBD_FS_SerialStrDescriptor)
    __arm_cp.4_0                             0x08003bbc   Number         4  usbd_desc.o(.text.USBD_FS_SerialStrDescriptor)
    __arm_cp.4_1                             0x08003bc0   Number         4  usbd_desc.o(.text.USBD_FS_SerialStrDescriptor)
    [Anonymous Symbol]                       0x08003bc4   Section        0  usbd_ctlreq.o(.text.USBD_GetString)
    [Anonymous Symbol]                       0x08003c16   Section        0  usbd_hid.o(.text.USBD_HID_DataIn)
    USBD_HID_DataIn                          0x08003c17   Thumb Code    12  usbd_hid.o(.text.USBD_HID_DataIn)
    [Anonymous Symbol]                       0x08003c22   Section        0  usbd_hid.o(.text.USBD_HID_DeInit)
    USBD_HID_DeInit                          0x08003c23   Thumb Code    34  usbd_hid.o(.text.USBD_HID_DeInit)
    [Anonymous Symbol]                       0x08003c44   Section        0  usbd_hid.o(.text.USBD_HID_GetCfgDesc)
    USBD_HID_GetCfgDesc                      0x08003c45   Thumb Code    12  usbd_hid.o(.text.USBD_HID_GetCfgDesc)
    __arm_cp.4_0                             0x08003c4c   Number         4  usbd_hid.o(.text.USBD_HID_GetCfgDesc)
    [Anonymous Symbol]                       0x08003c50   Section        0  usbd_hid.o(.text.USBD_HID_GetDeviceQualifierDesc)
    USBD_HID_GetDeviceQualifierDesc          0x08003c51   Thumb Code    12  usbd_hid.o(.text.USBD_HID_GetDeviceQualifierDesc)
    __arm_cp.5_0                             0x08003c58   Number         4  usbd_hid.o(.text.USBD_HID_GetDeviceQualifierDesc)
    [Anonymous Symbol]                       0x08003c5c   Section        0  usbd_hid.o(.text.USBD_HID_Init)
    USBD_HID_Init                            0x08003c5d   Thumb Code    40  usbd_hid.o(.text.USBD_HID_Init)
    [Anonymous Symbol]                       0x08003c84   Section        0  usbd_hid.o(.text.USBD_HID_SendReport)
    [Anonymous Symbol]                       0x08003cb4   Section        0  usbd_hid.o(.text.USBD_HID_Setup)
    USBD_HID_Setup                           0x08003cb5   Thumb Code   212  usbd_hid.o(.text.USBD_HID_Setup)
    __arm_cp.2_0                             0x08003d80   Number         4  usbd_hid.o(.text.USBD_HID_Setup)
    __arm_cp.2_1                             0x08003d84   Number         4  usbd_hid.o(.text.USBD_HID_Setup)
    [Anonymous Symbol]                       0x08003d88   Section        0  usbd_core.o(.text.USBD_Init)
    [Anonymous Symbol]                       0x08003dc0   Section        0  usbd_conf.o(.text.USBD_LL_ClearStallEP)
    [Anonymous Symbol]                       0x08003de0   Section        0  usbd_conf.o(.text.USBD_LL_CloseEP)
    [Anonymous Symbol]                       0x08003e00   Section        0  usbd_core.o(.text.USBD_LL_DataInStage)
    [Anonymous Symbol]                       0x08003ec6   Section        0  usbd_core.o(.text.USBD_LL_DataOutStage)
    [Anonymous Symbol]                       0x08003f48   Section        0  usbd_conf.o(.text.USBD_LL_Init)
    __arm_cp.13_0                            0x08003fac   Number         4  usbd_conf.o(.text.USBD_LL_Init)
    __arm_cp.13_1                            0x08003fb0   Number         4  usbd_conf.o(.text.USBD_LL_Init)
    [Anonymous Symbol]                       0x08003fb4   Section        0  usbd_conf.o(.text.USBD_LL_IsStallEP)
    [Anonymous Symbol]                       0x08003fd8   Section        0  usbd_conf.o(.text.USBD_LL_OpenEP)
    [Anonymous Symbol]                       0x08003ffc   Section        0  usbd_conf.o(.text.USBD_LL_PrepareReceive)
    [Anonymous Symbol]                       0x0800401c   Section        0  usbd_core.o(.text.USBD_LL_Reset)
    [Anonymous Symbol]                       0x08004066   Section        0  usbd_core.o(.text.USBD_LL_Resume)
    [Anonymous Symbol]                       0x08004076   Section        0  usbd_core.o(.text.USBD_LL_SOF)
    [Anonymous Symbol]                       0x08004094   Section        0  usbd_core.o(.text.USBD_LL_SetSpeed)
    [Anonymous Symbol]                       0x0800409c   Section        0  usbd_conf.o(.text.USBD_LL_SetUSBAddress)
    [Anonymous Symbol]                       0x080040bc   Section        0  usbd_core.o(.text.USBD_LL_SetupStage)
    __arm_cp.8_0                             0x08004124   Number         4  usbd_core.o(.text.USBD_LL_SetupStage)
    [Anonymous Symbol]                       0x08004128   Section        0  usbd_conf.o(.text.USBD_LL_StallEP)
    [Anonymous Symbol]                       0x08004148   Section        0  usbd_conf.o(.text.USBD_LL_Start)
    [Anonymous Symbol]                       0x08004168   Section        0  usbd_core.o(.text.USBD_LL_Suspend)
    [Anonymous Symbol]                       0x0800417c   Section        0  usbd_conf.o(.text.USBD_LL_Transmit)
    __arm_cp.24_0                            0x0800419c   Number         4  usbd_conf.o(.text.USBD_LL_Transmit)
    [Anonymous Symbol]                       0x080041a0   Section        0  usbd_ctlreq.o(.text.USBD_ParseSetupRequest)
    [Anonymous Symbol]                       0x080041c8   Section        0  usbd_core.o(.text.USBD_RegisterClass)
    [Anonymous Symbol]                       0x080041da   Section        0  usbd_core.o(.text.USBD_SetClassConfig)
    [Anonymous Symbol]                       0x080041fa   Section        0  usbd_core.o(.text.USBD_Start)
    [Anonymous Symbol]                       0x08004204   Section        0  usbd_ctlreq.o(.text.USBD_StdDevReq)
    __arm_cp.0_0                             0x080045e4   Number         4  usbd_ctlreq.o(.text.USBD_StdDevReq)
    [Anonymous Symbol]                       0x080045e8   Section        0  usbd_ctlreq.o(.text.USBD_StdEPReq)
    [Anonymous Symbol]                       0x0800473c   Section        0  usbd_ctlreq.o(.text.USBD_StdItfReq)
    [Anonymous Symbol]                       0x0800479a   Section        0  usbd_conf.o(.text.USBD_static_free)
    [Anonymous Symbol]                       0x0800479c   Section        0  usbd_conf.o(.text.USBD_static_malloc)
    __arm_cp.28_0                            0x080047a0   Number         4  usbd_conf.o(.text.USBD_static_malloc)
    [Anonymous Symbol]                       0x080047a4   Section        0  stm32f0xx_it.o(.text.USB_IRQHandler)
    __arm_cp.6_0                             0x080047b0   Number         4  stm32f0xx_it.o(.text.USB_IRQHandler)
    [Anonymous Symbol]                       0x080047b4   Section        0  main.o(.text.fputc)
    [Anonymous Symbol]                       0x080047b8   Section        0  main.o(.text.main)
    __arm_cp.1_0                             0x08004860   Number         4  main.o(.text.main)
    __arm_cp.1_1                             0x08004864   Number         4  main.o(.text.main)
    __arm_cp.1_2                             0x08004868   Number         4  main.o(.text.main)
    i.__0printf$8                            0x0800486c   Section        0  printf8.o(i.__0printf$8)
    i.__scatterload_copy                     0x0800488c   Section       14  handlers.o(i.__scatterload_copy)
    i.__scatterload_null                     0x0800489a   Section        2  handlers.o(i.__scatterload_null)
    i.__scatterload_zeroinit                 0x0800489c   Section       14  handlers.o(i.__scatterload_zeroinit)
    i._printf_core                           0x080048ac   Section        0  printf8.o(i._printf_core)
    _printf_core                             0x080048ad   Thumb Code  1020  printf8.o(i._printf_core)
    i._printf_post_padding                   0x08004cd4   Section        0  printf8.o(i._printf_post_padding)
    _printf_post_padding                     0x08004cd5   Thumb Code    32  printf8.o(i._printf_post_padding)
    i._printf_pre_padding                    0x08004cf4   Section        0  printf8.o(i._printf_pre_padding)
    _printf_pre_padding                      0x08004cf5   Thumb Code    44  printf8.o(i._printf_pre_padding)
    i.puts                                   0x08004d20   Section        0  puts.o(i.puts)
    HAL_RCC_GetSysClockFreq.aPLLMULFactorTable 0x08004d50   Data          16  stm32f0xx_hal_rcc.o(.rodata.cst16)
    HAL_RCC_GetSysClockFreq.aPredivFactorTable 0x08004d60   Data          16  stm32f0xx_hal_rcc.o(.rodata.cst16)
    .data                                    0x20000000   Section        4  stdout.o(.data)
    [Anonymous Symbol]                       0x20000020   Section        0  usbd_hid.o(.data.HID_MOUSE_ReportDesc)
    HID_MOUSE_ReportDesc                     0x20000020   Data          41  usbd_hid.o(.data.HID_MOUSE_ReportDesc)
    [Anonymous Symbol]                       0x200000a4   Section        0  usbd_hid.o(.data.USBD_HID_CfgDesc)
    USBD_HID_CfgDesc                         0x200000a4   Data          41  usbd_hid.o(.data.USBD_HID_CfgDesc)
    [Anonymous Symbol]                       0x200000d0   Section        0  usbd_hid.o(.data.USBD_HID_Desc)
    USBD_HID_Desc                            0x200000d0   Data           9  usbd_hid.o(.data.USBD_HID_Desc)
    [Anonymous Symbol]                       0x200000dc   Section        0  usbd_hid.o(.data.USBD_HID_DeviceQualifierDesc)
    USBD_HID_DeviceQualifierDesc             0x200000dc   Data          10  usbd_hid.o(.data.USBD_HID_DeviceQualifierDesc)
    [Anonymous Symbol]                       0x20000108   Section        0  main.o(.bss..L_MergedGlobals)
    [Anonymous Symbol]                       0x20000158   Section        0  usbd_ctlreq.o(.bss.USBD_SetConfig.cfgidx)
    USBD_SetConfig.cfgidx                    0x20000158   Data           1  usbd_ctlreq.o(.bss.USBD_SetConfig.cfgidx)
    [Anonymous Symbol]                       0x2000035c   Section        0  usbd_conf.o(.bss.USBD_static_malloc.mem)
    USBD_static_malloc.mem                   0x2000035c   Data          20  usbd_conf.o(.bss.USBD_static_malloc.mem)
    STACK                                    0x200008a0   Section     1024  startup_stm32f042x6.o(STACK)

    Global Symbols

    Symbol Name                              Value     Ov Type        Size  Object(Section)

    BuildAttributes$$THM_ISAv3M$S$PE$A:L22$X:L11$S22$IEEE1$IW$~IW$USESV6$~STKCKD$USESV7$~SHL$OTIME$ROPI$EBA8$MICROLIB$REQ8$PRES8$EABIv2 0x00000000   Number         0  anon$$obj.o ABSOLUTE
    _printf_a                                0x00000000   Number         0  stubs.o ABSOLUTE
    _printf_c                                0x00000000   Number         0  stubs.o ABSOLUTE
    _printf_charcount                        0x00000000   Number         0  stubs.o ABSOLUTE
    _printf_d                                0x00000000   Number         0  stubs.o ABSOLUTE
    _printf_e                                0x00000000   Number         0  stubs.o ABSOLUTE
    _printf_f                                0x00000000   Number         0  stubs.o ABSOLUTE
    _printf_flags                            0x00000000   Number         0  stubs.o ABSOLUTE
    _printf_fp_dec                           0x00000000   Number         0  stubs.o ABSOLUTE
    _printf_fp_hex                           0x00000000   Number         0  stubs.o ABSOLUTE
    _printf_g                                0x00000000   Number         0  stubs.o ABSOLUTE
    _printf_i                                0x00000000   Number         0  stubs.o ABSOLUTE
    _printf_int_dec                          0x00000000   Number         0  stubs.o ABSOLUTE
    _printf_l                                0x00000000   Number         0  stubs.o ABSOLUTE
    _printf_lc                               0x00000000   Number         0  stubs.o ABSOLUTE
    _printf_ll                               0x00000000   Number         0  stubs.o ABSOLUTE
    _printf_lld                              0x00000000   Number         0  stubs.o ABSOLUTE
    _printf_lli                              0x00000000   Number         0  stubs.o ABSOLUTE
    _printf_llo                              0x00000000   Number         0  stubs.o ABSOLUTE
    _printf_llu                              0x00000000   Number         0  stubs.o ABSOLUTE
    _printf_llx                              0x00000000   Number         0  stubs.o ABSOLUTE
    _printf_longlong_dec                     0x00000000   Number         0  stubs.o ABSOLUTE
    _printf_longlong_hex                     0x00000000   Number         0  stubs.o ABSOLUTE
    _printf_longlong_oct                     0x00000000   Number         0  stubs.o ABSOLUTE
    _printf_ls                               0x00000000   Number         0  stubs.o ABSOLUTE
    _printf_mbtowc                           0x00000000   Number         0  stubs.o ABSOLUTE
    _printf_n                                0x00000000   Number         0  stubs.o ABSOLUTE
    _printf_o                                0x00000000   Number         0  stubs.o ABSOLUTE
    _printf_p                                0x00000000   Number         0  stubs.o ABSOLUTE
    _printf_percent                          0x00000000   Number         0  stubs.o ABSOLUTE
    _printf_pre_padding                      0x00000000   Number         0  stubs.o ABSOLUTE
    _printf_return_value                     0x00000000   Number         0  stubs.o ABSOLUTE
    _printf_s                                0x00000000   Number         0  stubs.o ABSOLUTE
    _printf_sizespec                         0x00000000   Number         0  stubs.o ABSOLUTE
    _printf_str                              0x00000000   Number         0  stubs.o ABSOLUTE
    _printf_truncate_signed                  0x00000000   Number         0  stubs.o ABSOLUTE
    _printf_truncate_unsigned                0x00000000   Number         0  stubs.o ABSOLUTE
    _printf_u                                0x00000000   Number         0  stubs.o ABSOLUTE
    _printf_wc                               0x00000000   Number         0  stubs.o ABSOLUTE
    _printf_wctomb                           0x00000000   Number         0  stubs.o ABSOLUTE
    _printf_widthprec                        0x00000000   Number         0  stubs.o ABSOLUTE
    _printf_x                                0x00000000   Number         0  stubs.o ABSOLUTE
    __cpp_initialize__aeabi_                  - Undefined Weak Reference
    __cxa_finalize                            - Undefined Weak Reference
    __decompress                              - Undefined Weak Reference
    _clock_init                               - Undefined Weak Reference
    _microlib_exit                            - Undefined Weak Reference
    __Vectors_Size                           0x000000c0   Number         0  startup_stm32f042x6.o ABSOLUTE
    __Vectors                                0x08000000   Data           4  startup_stm32f042x6.o(RESET)
    __Vectors_End                            0x080000c0   Data           0  startup_stm32f042x6.o(RESET)
    __main                                   0x080000c1   Thumb Code     0  entry.o(.ARM.Collect$$$$00000000)
    _main_stk                                0x080000c1   Thumb Code     0  entry2.o(.ARM.Collect$$$$00000001)
    _main_scatterload                        0x080000c5   Thumb Code     0  entry5.o(.ARM.Collect$$$$00000004)
    __main_after_scatterload                 0x080000c9   Thumb Code     0  entry5.o(.ARM.Collect$$$$00000004)
    _main_clock                              0x080000c9   Thumb Code     0  entry7b.o(.ARM.Collect$$$$00000008)
    _main_cpp_init                           0x080000c9   Thumb Code     0  entry8b.o(.ARM.Collect$$$$0000000A)
    _main_init                               0x080000c9   Thumb Code     0  entry9a.o(.ARM.Collect$$$$0000000B)
    __rt_final_cpp                           0x080000d1   Thumb Code     0  entry10a.o(.ARM.Collect$$$$0000000D)
    __rt_final_exit                          0x080000d1   Thumb Code     0  entry11a.o(.ARM.Collect$$$$0000000F)
    Reset_Handler                            0x080000d5   Thumb Code    38  startup_stm32f042x6.o(.text)
    ADC1_IRQHandler                          0x08000105   Thumb Code     0  startup_stm32f042x6.o(.text)
    CEC_CAN_IRQHandler                       0x08000105   Thumb Code     0  startup_stm32f042x6.o(.text)
    DMA1_Channel1_IRQHandler                 0x08000105   Thumb Code     0  startup_stm32f042x6.o(.text)
    DMA1_Channel2_3_IRQHandler               0x08000105   Thumb Code     0  startup_stm32f042x6.o(.text)
    DMA1_Channel4_5_IRQHandler               0x08000105   Thumb Code     0  startup_stm32f042x6.o(.text)
    EXTI0_1_IRQHandler                       0x08000105   Thumb Code     0  startup_stm32f042x6.o(.text)
    EXTI4_15_IRQHandler                      0x08000105   Thumb Code     0  startup_stm32f042x6.o(.text)
    FLASH_IRQHandler                         0x08000105   Thumb Code     0  startup_stm32f042x6.o(.text)
    I2C1_IRQHandler                          0x08000105   Thumb Code     0  startup_stm32f042x6.o(.text)
    PVD_VDDIO2_IRQHandler                    0x08000105   Thumb Code     0  startup_stm32f042x6.o(.text)
    RCC_CRS_IRQHandler                       0x08000105   Thumb Code     0  startup_stm32f042x6.o(.text)
    RTC_IRQHandler                           0x08000105   Thumb Code     0  startup_stm32f042x6.o(.text)
    SPI1_IRQHandler                          0x08000105   Thumb Code     0  startup_stm32f042x6.o(.text)
    SPI2_IRQHandler                          0x08000105   Thumb Code     0  startup_stm32f042x6.o(.text)
    TIM14_IRQHandler                         0x08000105   Thumb Code     0  startup_stm32f042x6.o(.text)
    TIM16_IRQHandler                         0x08000105   Thumb Code     0  startup_stm32f042x6.o(.text)
    TIM17_IRQHandler                         0x08000105   Thumb Code     0  startup_stm32f042x6.o(.text)
    TIM1_BRK_UP_TRG_COM_IRQHandler           0x08000105   Thumb Code     0  startup_stm32f042x6.o(.text)
    TIM1_CC_IRQHandler                       0x08000105   Thumb Code     0  startup_stm32f042x6.o(.text)
    TIM2_IRQHandler                          0x08000105   Thumb Code     0  startup_stm32f042x6.o(.text)
    TIM3_IRQHandler                          0x08000105   Thumb Code     0  startup_stm32f042x6.o(.text)
    TSC_IRQHandler                           0x08000105   Thumb Code     0  startup_stm32f042x6.o(.text)
    USART1_IRQHandler                        0x08000105   Thumb Code     0  startup_stm32f042x6.o(.text)
    USART2_IRQHandler                        0x08000105   Thumb Code     0  startup_stm32f042x6.o(.text)
    WWDG_IRQHandler                          0x08000105   Thumb Code     0  startup_stm32f042x6.o(.text)
    __aeabi_uidiv                            0x0800012d   Thumb Code     0  uidiv.o(.text)
    __aeabi_uidivmod                         0x0800012d   Thumb Code    44  uidiv.o(.text)
    __aeabi_llsr                             0x08000159   Thumb Code    34  llushr.o(.text)
    _ll_ushift_r                             0x08000159   Thumb Code     0  llushr.o(.text)
    __aeabi_memset                           0x0800017b   Thumb Code    14  memseta.o(.text)
    __aeabi_memset4                          0x0800017b   Thumb Code     0  memseta.o(.text)
    __aeabi_memset8                          0x0800017b   Thumb Code     0  memseta.o(.text)
    __aeabi_memclr                           0x08000189   Thumb Code     4  memseta.o(.text)
    __aeabi_memclr4                          0x08000189   Thumb Code     0  memseta.o(.text)
    __aeabi_memclr8                          0x08000189   Thumb Code     0  memseta.o(.text)
    _memset$wrapper                          0x0800018d   Thumb Code    18  memseta.o(.text)
    __aeabi_uldivmod                         0x0800019f   Thumb Code    96  uldiv.o(.text)
    __scatterload                            0x08000201   Thumb Code    28  init.o(.text)
    __scatterload_rt2                        0x08000201   Thumb Code     0  init.o(.text)
    __aeabi_llsl                             0x08000225   Thumb Code    32  llshl.o(.text)
    _ll_shift_l                              0x08000225   Thumb Code     0  llshl.o(.text)
    EXTI2_3_IRQHandler                       0x08000245   Thumb Code    10  stm32f0xx_it.o(.text.EXTI2_3_IRQHandler)
    Error_Handler                            0x0800024f   Thumb Code     2  main.o(.text.Error_Handler)
    HAL_GPIO_EXTI_Callback                   0x08000251   Thumb Code    12  main.o(.text.HAL_GPIO_EXTI_Callback)
    HAL_GPIO_EXTI_IRQHandler                 0x0800025d   Thumb Code    24  stm32f0xx_hal_gpio.o(.text.HAL_GPIO_EXTI_IRQHandler)
    HAL_GPIO_Init                            0x08000275   Thumb Code   448  stm32f0xx_hal_gpio.o(.text.HAL_GPIO_Init)
    HAL_GPIO_WritePin                        0x08000431   Thumb Code    16  stm32f0xx_hal_gpio.o(.text.HAL_GPIO_WritePin)
    HAL_GetTick                              0x08000441   Thumb Code    12  stm32f0xx_hal.o(.text.HAL_GetTick)
    HAL_IncTick                              0x08000449   Thumb Code    16  stm32f0xx_hal.o(.text.HAL_IncTick)
    HAL_Init                                 0x08000459   Thumb Code    32  stm32f0xx_hal.o(.text.HAL_Init)
    HAL_InitTick                             0x08000479   Thumb Code    36  stm32f0xx_hal.o(.text.HAL_InitTick)
    HAL_MspInit                              0x0800049d   Thumb Code    60  stm32f0xx_hal_msp.o(.text.HAL_MspInit)
    HAL_NVIC_EnableIRQ                       0x080004d9   Thumb Code    20  stm32f0xx_hal_cortex.o(.text.HAL_NVIC_EnableIRQ)
    HAL_NVIC_SetPriority                     0x080004ed   Thumb Code    64  stm32f0xx_hal_cortex.o(.text.HAL_NVIC_SetPriority)
    HAL_PCDEx_PMAConfig                      0x0800052d   Thumb Code    62  stm32f0xx_hal_pcd_ex.o(.text.HAL_PCDEx_PMAConfig)
    HAL_PCD_DataInStageCallback              0x0800056b   Thumb Code    24  usbd_conf.o(.text.HAL_PCD_DataInStageCallback)
    HAL_PCD_DataOutStageCallback             0x08000583   Thumb Code    28  usbd_conf.o(.text.HAL_PCD_DataOutStageCallback)
    HAL_PCD_EP_Close                         0x080005a1   Thumb Code   228  stm32f0xx_hal_pcd.o(.text.HAL_PCD_EP_Close)
    HAL_PCD_EP_ClrStall                      0x08000679   Thumb Code   164  stm32f0xx_hal_pcd.o(.text.HAL_PCD_EP_ClrStall)
    HAL_PCD_EP_Open                          0x08000711   Thumb Code   612  stm32f0xx_hal_pcd.o(.text.HAL_PCD_EP_Open)
    HAL_PCD_EP_Receive                       0x08000975   Thumb Code   324  stm32f0xx_hal_pcd.o(.text.HAL_PCD_EP_Receive)
    HAL_PCD_EP_SetStall                      0x08000ab9   Thumb Code   160  stm32f0xx_hal_pcd.o(.text.HAL_PCD_EP_SetStall)
    HAL_PCD_EP_Transmit                      0x08000b59   Thumb Code   272  stm32f0xx_hal_pcd.o(.text.HAL_PCD_EP_Transmit)
    HAL_PCD_IRQHandler                       0x08000c69   Thumb Code  1820  stm32f0xx_hal_pcd.o(.text.HAL_PCD_IRQHandler)
    HAL_PCD_Init                             0x08001385   Thumb Code   140  stm32f0xx_hal_pcd.o(.text.HAL_PCD_Init)
    HAL_PCD_MspInit                          0x08001411   Thumb Code    64  usbd_conf.o(.text.HAL_PCD_MspInit)
    HAL_PCD_ResetCallback                    0x08001451   Thumb Code    34  usbd_conf.o(.text.HAL_PCD_ResetCallback)
    HAL_PCD_ResumeCallback                   0x08001475   Thumb Code    40  usbd_conf.o(.text.HAL_PCD_ResumeCallback)
    HAL_PCD_SOFCallback                      0x08001499   Thumb Code    14  usbd_conf.o(.text.HAL_PCD_SOFCallback)
    HAL_PCD_SetAddress                       0x080014a7   Thumb Code    46  stm32f0xx_hal_pcd.o(.text.HAL_PCD_SetAddress)
    HAL_PCD_SetupStageCallback               0x080014d5   Thumb Code    22  usbd_conf.o(.text.HAL_PCD_SetupStageCallback)
    HAL_PCD_Start                            0x080014eb   Thumb Code    18  stm32f0xx_hal_pcd.o(.text.HAL_PCD_Start)
    HAL_PCD_SuspendCallback                  0x080014fd   Thumb Code    36  usbd_conf.o(.text.HAL_PCD_SuspendCallback)
    HAL_RCCEx_PeriphCLKConfig                0x08001521   Thumb Code   336  stm32f0xx_hal_rcc_ex.o(.text.HAL_RCCEx_PeriphCLKConfig)
    HAL_RCC_ClockConfig                      0x0800166d   Thumb Code   536  stm32f0xx_hal_rcc.o(.text.HAL_RCC_ClockConfig)
    HAL_RCC_GetHCLKFreq                      0x08001881   Thumb Code    12  stm32f0xx_hal_rcc.o(.text.HAL_RCC_GetHCLKFreq)
    HAL_RCC_OscConfig                        0x0800188d   Thumb Code  1224  stm32f0xx_hal_rcc.o(.text.HAL_RCC_OscConfig)
    HAL_SPI_Init                             0x08001d55   Thumb Code   186  stm32f0xx_hal_spi.o(.text.HAL_SPI_Init)
    HAL_SPI_MspInit                          0x08001e11   Thumb Code   104  spi.o(.text.HAL_SPI_MspInit)
    HAL_SPI_TransmitReceive                  0x08001e79   Thumb Code  1144  stm32f0xx_hal_spi.o(.text.HAL_SPI_TransmitReceive)
    HAL_SYSTICK_Config                       0x080022f1   Thumb Code    52  stm32f0xx_hal_cortex.o(.text.HAL_SYSTICK_Config)
    HAL_TIMEx_ConfigBreakDeadTime            0x08002325   Thumb Code    98  stm32f0xx_hal_tim_ex.o(.text.HAL_TIMEx_ConfigBreakDeadTime)
    HAL_TIMEx_MasterConfigSynchronization    0x08002387   Thumb Code    68  stm32f0xx_hal_tim_ex.o(.text.HAL_TIMEx_MasterConfigSynchronization)
    HAL_TIM_Base_Init                        0x080023cd   Thumb Code   212  stm32f0xx_hal_tim.o(.text.HAL_TIM_Base_Init)
    HAL_TIM_Base_MspInit                     0x0800248d   Thumb Code    48  tim.o(.text.HAL_TIM_Base_MspInit)
    HAL_TIM_PWM_ConfigChannel                0x080024b9   Thumb Code   620  stm32f0xx_hal_tim.o(.text.HAL_TIM_PWM_ConfigChannel)
    HAL_TIM_PWM_Init                         0x08002721   Thumb Code   212  stm32f0xx_hal_tim.o(.text.HAL_TIM_PWM_Init)
    HAL_TIM_PWM_MspInit                      0x080027f1   Thumb Code    40  tim.o(.text.HAL_TIM_PWM_MspInit)
    HAL_TIM_PWM_Start                        0x08002819   Thumb Code    68  stm32f0xx_hal_tim.o(.text.HAL_TIM_PWM_Start)
    HardFault_Handler                        0x0800285d   Thumb Code     2  stm32f0xx_it.o(.text.HardFault_Handler)
    LED1_SET                                 0x08002861   Thumb Code    12  tim.o(.text.LED1_SET)
    LED2_SET                                 0x08002869   Thumb Code    12  tim.o(.text.LED2_SET)
    MX_GPIO_Init                             0x08002871   Thumb Code   172  gpio.o(.text.MX_GPIO_Init)
    MX_SPI1_Init                             0x08002915   Thumb Code    72  spi.o(.text.MX_SPI1_Init)
    MX_TIM16_Init                            0x0800295d   Thumb Code   292  tim.o(.text.MX_TIM16_Init)
    MX_TIM2_Init                             0x08002a75   Thumb Code   248  tim.o(.text.MX_TIM2_Init)
    MX_USB_DEVICE_Init                       0x08002b6d   Thumb Code    64  usb_device.o(.text.MX_USB_DEVICE_Init)
    NMI_Handler                              0x08002bad   Thumb Code     2  stm32f0xx_it.o(.text.NMI_Handler)
    NRF24L01_Init                            0x08002bb1   Thumb Code   408  24l01.o(.text.NRF24L01_Init)
    NRF24L01_RX_Mode                         0x08002d49   Thumb Code   800  24l01.o(.text.NRF24L01_RX_Mode)
    NRF_IRQHandler                           0x08003069   Thumb Code   856  24l01.o(.text.NRF_IRQHandler)
    PendSV_Handler                           0x080033c1   Thumb Code     2  stm32f0xx_it.o(.text.PendSV_Handler)
    SVC_Handler                              0x080034b1   Thumb Code     2  stm32f0xx_it.o(.text.SVC_Handler)
    Send_data                                0x080034b5   Thumb Code   972  key_map.o(.text.Send_data)
    SysTick_Handler                          0x08003881   Thumb Code     8  stm32f0xx_it.o(.text.SysTick_Handler)
    SystemClock_Config                       0x08003889   Thumb Code    76  main.o(.text.SystemClock_Config)
    SystemInit                               0x080038d5   Thumb Code    88  system_stm32f0xx.o(.text.SystemInit)
    USBD_ClrClassConfig                      0x0800392d   Thumb Code    16  usbd_core.o(.text.USBD_ClrClassConfig)
    USBD_CtlContinueRx                       0x0800393d   Thumb Code    18  usbd_ioreq.o(.text.USBD_CtlContinueRx)
    USBD_CtlContinueSendData                 0x0800394f   Thumb Code    18  usbd_ioreq.o(.text.USBD_CtlContinueSendData)
    USBD_CtlError                            0x08003961   Thumb Code    20  usbd_ctlreq.o(.text.USBD_CtlError)
    USBD_CtlReceiveStatus                    0x08003975   Thumb Code    26  usbd_ioreq.o(.text.USBD_CtlReceiveStatus)
    USBD_CtlSendData                         0x0800398f   Thumb Code    30  usbd_ioreq.o(.text.USBD_CtlSendData)
    USBD_CtlSendStatus                       0x080039ad   Thumb Code    26  usbd_ioreq.o(.text.USBD_CtlSendStatus)
    USBD_FS_ConfigStrDescriptor              0x080039c9   Thumb Code    36  usbd_desc.o(.text.USBD_FS_ConfigStrDescriptor)
    USBD_FS_DeviceDescriptor                 0x080039e9   Thumb Code    12  usbd_desc.o(.text.USBD_FS_DeviceDescriptor)
    USBD_FS_InterfaceStrDescriptor           0x080039f5   Thumb Code    40  usbd_desc.o(.text.USBD_FS_InterfaceStrDescriptor)
    USBD_FS_LangIDStrDescriptor              0x08003a19   Thumb Code    12  usbd_desc.o(.text.USBD_FS_LangIDStrDescriptor)
    USBD_FS_ManufacturerStrDescriptor        0x08003a25   Thumb Code    44  usbd_desc.o(.text.USBD_FS_ManufacturerStrDescriptor)
    USBD_FS_ProductStrDescriptor             0x08003a4d   Thumb Code    48  usbd_desc.o(.text.USBD_FS_ProductStrDescriptor)
    USBD_FS_SerialStrDescriptor              0x08003a7d   Thumb Code   328  usbd_desc.o(.text.USBD_FS_SerialStrDescriptor)
    USBD_GetString                           0x08003bc5   Thumb Code    82  usbd_ctlreq.o(.text.USBD_GetString)
    USBD_HID_SendReport                      0x08003c85   Thumb Code    46  usbd_hid.o(.text.USBD_HID_SendReport)
    USBD_Init                                0x08003d89   Thumb Code    54  usbd_core.o(.text.USBD_Init)
    USBD_LL_ClearStallEP                     0x08003dc1   Thumb Code    36  usbd_conf.o(.text.USBD_LL_ClearStallEP)
    USBD_LL_CloseEP                          0x08003de1   Thumb Code    36  usbd_conf.o(.text.USBD_LL_CloseEP)
    USBD_LL_DataInStage                      0x08003e01   Thumb Code   198  usbd_core.o(.text.USBD_LL_DataInStage)
    USBD_LL_DataOutStage                     0x08003ec7   Thumb Code   130  usbd_core.o(.text.USBD_LL_DataOutStage)
    USBD_LL_Init                             0x08003f49   Thumb Code   108  usbd_conf.o(.text.USBD_LL_Init)
    USBD_LL_IsStallEP                        0x08003fb5   Thumb Code    36  usbd_conf.o(.text.USBD_LL_IsStallEP)
    USBD_LL_OpenEP                           0x08003fd9   Thumb Code    40  usbd_conf.o(.text.USBD_LL_OpenEP)
    USBD_LL_PrepareReceive                   0x08003ffd   Thumb Code    36  usbd_conf.o(.text.USBD_LL_PrepareReceive)
    USBD_LL_Reset                            0x0800401d   Thumb Code    74  usbd_core.o(.text.USBD_LL_Reset)
    USBD_LL_Resume                           0x08004067   Thumb Code    16  usbd_core.o(.text.USBD_LL_Resume)
    USBD_LL_SOF                              0x08004077   Thumb Code    30  usbd_core.o(.text.USBD_LL_SOF)
    USBD_LL_SetSpeed                         0x08004095   Thumb Code     6  usbd_core.o(.text.USBD_LL_SetSpeed)
    USBD_LL_SetUSBAddress                    0x0800409d   Thumb Code    36  usbd_conf.o(.text.USBD_LL_SetUSBAddress)
    USBD_LL_SetupStage                       0x080040bd   Thumb Code   108  usbd_core.o(.text.USBD_LL_SetupStage)
    USBD_LL_StallEP                          0x08004129   Thumb Code    36  usbd_conf.o(.text.USBD_LL_StallEP)
    USBD_LL_Start                            0x08004149   Thumb Code    36  usbd_conf.o(.text.USBD_LL_Start)
    USBD_LL_Suspend                          0x08004169   Thumb Code    20  usbd_core.o(.text.USBD_LL_Suspend)
    USBD_LL_Transmit                         0x0800417d   Thumb Code    36  usbd_conf.o(.text.USBD_LL_Transmit)
    USBD_ParseSetupRequest                   0x080041a1   Thumb Code    40  usbd_ctlreq.o(.text.USBD_ParseSetupRequest)
    USBD_RegisterClass                       0x080041c9   Thumb Code    18  usbd_core.o(.text.USBD_RegisterClass)
    USBD_SetClassConfig                      0x080041db   Thumb Code    32  usbd_core.o(.text.USBD_SetClassConfig)
    USBD_Start                               0x080041fb   Thumb Code    10  usbd_core.o(.text.USBD_Start)
    USBD_StdDevReq                           0x08004205   Thumb Code   996  usbd_ctlreq.o(.text.USBD_StdDevReq)
    USBD_StdEPReq                            0x080045e9   Thumb Code   340  usbd_ctlreq.o(.text.USBD_StdEPReq)
    USBD_StdItfReq                           0x0800473d   Thumb Code    94  usbd_ctlreq.o(.text.USBD_StdItfReq)
    USBD_static_free                         0x0800479b   Thumb Code     2  usbd_conf.o(.text.USBD_static_free)
    USBD_static_malloc                       0x0800479d   Thumb Code     8  usbd_conf.o(.text.USBD_static_malloc)
    USB_IRQHandler                           0x080047a5   Thumb Code    16  stm32f0xx_it.o(.text.USB_IRQHandler)
    fputc                                    0x080047b5   Thumb Code     2  main.o(.text.fputc)
    main                                     0x080047b9   Thumb Code   180  main.o(.text.main)
    __0printf$8                              0x0800486d   Thumb Code    24  printf8.o(i.__0printf$8)
    __1printf$8                              0x0800486d   Thumb Code     0  printf8.o(i.__0printf$8)
    __2printf                                0x0800486d   Thumb Code     0  printf8.o(i.__0printf$8)
    __scatterload_copy                       0x0800488d   Thumb Code    14  handlers.o(i.__scatterload_copy)
    __scatterload_null                       0x0800489b   Thumb Code     2  handlers.o(i.__scatterload_null)
    __scatterload_zeroinit                   0x0800489d   Thumb Code    14  handlers.o(i.__scatterload_zeroinit)
    puts                                     0x08004d21   Thumb Code    28  puts.o(i.puts)
    AHBPrescTable                            0x08004d40   Data          16  system_stm32f0xx.o(.rodata.AHBPrescTable)
    Region$$Table$$Base                      0x08004d70   Number         0  anon$$obj.o(Region$$Table)
    Region$$Table$$Limit                     0x08004d90   Number         0  anon$$obj.o(Region$$Table)
    __stdout                                 0x20000000   Data           4  stdout.o(.data)
    FS_Desc                                  0x20000004   Data          28  usbd_desc.o(.data.FS_Desc)
    SystemCoreClock                          0x2000004c   Data           4  system_stm32f0xx.o(.data.SystemCoreClock)
    TEST_ADDRESS                             0x20000050   Data           5  24l01.o(.data.TEST_ADDRESS)
    USBD_FS_DeviceDesc                       0x20000058   Data          18  usbd_desc.o(.data.USBD_FS_DeviceDesc)
    USBD_HID                                 0x2000006c   Data          56  usbd_hid.o(.data.USBD_HID)
    USBD_LangIDDesc                          0x200000e8   Data           4  usbd_desc.o(.data.USBD_LangIDDesc)
    USBD_StringSerial                        0x200000ec   Data          26  usbd_desc.o(.data.USBD_StringSerial)
    light_value                              0x20000108   Data           2  main.o(.bss..L_MergedGlobals)
    light_time_check                         0x2000010c   Data           4  main.o(.bss..L_MergedGlobals)
    NRF24L01_TX_start                        0x20000110   Data           2  24l01.o(.bss.NRF24L01_TX_start)
    Rev_Buff                                 0x20000112   Data          32  24l01.o(.bss.Rev_Buff)
    Send_buf                                 0x20000138   Data          32  key_map.o(.bss.Send_buf)
    USBD_StrDesc                             0x2000015c   Data         512  usbd_desc.o(.bss.USBD_StrDesc)
    hUsbDeviceFS                             0x20000370   Data         548  usb_device.o(.bss.hUsbDeviceFS)
    hpcd_USB_FS                              0x20000594   Data         544  usbd_conf.o(.bss.hpcd_USB_FS)
    hspi1                                    0x200007b4   Data         100  spi.o(.bss.hspi1)
    htim16                                   0x20000818   Data          64  tim.o(.bss.htim16)
    htim2                                    0x20000858   Data          64  tim.o(.bss.htim2)
    uwTick                                   0x20000898   Data           4  stm32f0xx_hal.o(.bss.uwTick)
    __initial_sp                             0x20000ca0   Data           0  startup_stm32f042x6.o(STACK)



==============================================================================

Memory Map of the image

  Image Entry point : 0x080000c1

  Load Region LR_IROM1 (Base: 0x08000000, Size: 0x00004e98, Max: 0x00008000, ABSOLUTE)

    Execution Region ER_IROM1 (Exec base: 0x08000000, Load base: 0x08000000, Size: 0x00004d90, Max: 0x00008000, ABSOLUTE)

    Exec Addr    Load Addr    Size         Type   Attr      Idx    E Section Name        Object

    0x08000000   0x08000000   0x000000c0   Data   RO            3    RESET               startup_stm32f042x6.o
    0x080000c0   0x080000c0   0x00000000   Code   RO         1469  * .ARM.Collect$$$$00000000  mc_p.l(entry.o)
    0x080000c0   0x080000c0   0x00000004   Code   RO         1743    .ARM.Collect$$$$00000001  mc_p.l(entry2.o)
    0x080000c4   0x080000c4   0x00000004   Code   RO         1746    .ARM.Collect$$$$00000004  mc_p.l(entry5.o)
    0x080000c8   0x080000c8   0x00000000   Code   RO         1748    .ARM.Collect$$$$00000008  mc_p.l(entry7b.o)
    0x080000c8   0x080000c8   0x00000000   Code   RO         1750    .ARM.Collect$$$$0000000A  mc_p.l(entry8b.o)
    0x080000c8   0x080000c8   0x00000008   Code   RO         1751    .ARM.Collect$$$$0000000B  mc_p.l(entry9a.o)
    0x080000d0   0x080000d0   0x00000000   Code   RO         1753    .ARM.Collect$$$$0000000D  mc_p.l(entry10a.o)
    0x080000d0   0x080000d0   0x00000000   Code   RO         1755    .ARM.Collect$$$$0000000F  mc_p.l(entry11a.o)
    0x080000d0   0x080000d0   0x00000004   Code   RO         1744    .ARM.Collect$$$$00002712  mc_p.l(entry2.o)
    0x080000d4   0x080000d4   0x00000058   Code   RO            4    .text               startup_stm32f042x6.o
    0x0800012c   0x0800012c   0x0000002c   Code   RO         1476    .text               mc_p.l(uidiv.o)
    0x08000158   0x08000158   0x00000022   Code   RO         1478    .text               mc_p.l(llushr.o)
    0x0800017a   0x0800017a   0x00000024   Code   RO         1480    .text               mc_p.l(memseta.o)
    0x0800019e   0x0800019e   0x00000060   Code   RO         1758    .text               mc_p.l(uldiv.o)
    0x080001fe   0x080001fe   0x00000002   PAD
    0x08000200   0x08000200   0x00000024   Code   RO         1771    .text               mc_p.l(init.o)
    0x08000224   0x08000224   0x00000020   Code   RO         1773    .text               mc_p.l(llshl.o)
    0x08000244   0x08000244   0x0000000a   Code   RO          106    .text.EXTI2_3_IRQHandler  stm32f0xx_it.o
    0x0800024e   0x0800024e   0x00000002   Code   RO           17    .text.Error_Handler  main.o
    0x08000250   0x08000250   0x0000000c   Code   RO           11    .text.HAL_GPIO_EXTI_Callback  main.o
    0x0800025c   0x0800025c   0x00000018   Code   RO         1054    .text.HAL_GPIO_EXTI_IRQHandler  stm32f0xx_hal_gpio.o
    0x08000274   0x08000274   0x000001bc   Code   RO         1042    .text.HAL_GPIO_Init  stm32f0xx_hal_gpio.o
    0x08000430   0x08000430   0x00000010   Code   RO         1048    .text.HAL_GPIO_WritePin  stm32f0xx_hal_gpio.o
    0x08000440   0x08000440   0x00000008   Code   RO          842    .text.HAL_GetTick   stm32f0xx_hal.o
    0x08000448   0x08000448   0x00000010   Code   RO          840    .text.HAL_IncTick   stm32f0xx_hal.o
    0x08000458   0x08000458   0x00000020   Code   RO          830    .text.HAL_Init      stm32f0xx_hal.o
    0x08000478   0x08000478   0x00000024   Code   RO          832    .text.HAL_InitTick  stm32f0xx_hal.o
    0x0800049c   0x0800049c   0x0000003c   Code   RO          120    .text.HAL_MspInit   stm32f0xx_hal_msp.o
    0x080004d8   0x080004d8   0x00000014   Code   RO         1106    .text.HAL_NVIC_EnableIRQ  stm32f0xx_hal_cortex.o
    0x080004ec   0x080004ec   0x00000040   Code   RO         1104    .text.HAL_NVIC_SetPriority  stm32f0xx_hal_cortex.o
    0x0800052c   0x0800052c   0x0000003e   Code   RO          328    .text.HAL_PCDEx_PMAConfig  stm32f0xx_hal_pcd_ex.o
    0x0800056a   0x0800056a   0x00000018   Code   RO          184    .text.HAL_PCD_DataInStageCallback  usbd_conf.o
    0x08000582   0x08000582   0x0000001c   Code   RO          182    .text.HAL_PCD_DataOutStageCallback  usbd_conf.o
    0x0800059e   0x0800059e   0x00000002   PAD
    0x080005a0   0x080005a0   0x000000d8   Code   RO          293    .text.HAL_PCD_EP_Close  stm32f0xx_hal_pcd.o
    0x08000678   0x08000678   0x00000098   Code   RO          305    .text.HAL_PCD_EP_ClrStall  stm32f0xx_hal_pcd.o
    0x08000710   0x08000710   0x00000264   Code   RO          291    .text.HAL_PCD_EP_Open  stm32f0xx_hal_pcd.o
    0x08000974   0x08000974   0x00000144   Code   RO          295    .text.HAL_PCD_EP_Receive  stm32f0xx_hal_pcd.o
    0x08000ab8   0x08000ab8   0x000000a0   Code   RO          303    .text.HAL_PCD_EP_SetStall  stm32f0xx_hal_pcd.o
    0x08000b58   0x08000b58   0x00000110   Code   RO          299    .text.HAL_PCD_EP_Transmit  stm32f0xx_hal_pcd.o
    0x08000c68   0x08000c68   0x0000071c   Code   RO          261    .text.HAL_PCD_IRQHandler  stm32f0xx_hal_pcd.o
    0x08001384   0x08001384   0x0000008c   Code   RO          249    .text.HAL_PCD_Init  stm32f0xx_hal_pcd.o
    0x08001410   0x08001410   0x00000040   Code   RO          176    .text.HAL_PCD_MspInit  usbd_conf.o
    0x08001450   0x08001450   0x00000022   Code   RO          188    .text.HAL_PCD_ResetCallback  usbd_conf.o
    0x08001472   0x08001472   0x00000002   PAD
    0x08001474   0x08001474   0x00000024   Code   RO          192    .text.HAL_PCD_ResumeCallback  usbd_conf.o
    0x08001498   0x08001498   0x0000000e   Code   RO          186    .text.HAL_PCD_SOFCallback  usbd_conf.o
    0x080014a6   0x080014a6   0x0000002e   Code   RO          265    .text.HAL_PCD_SetAddress  stm32f0xx_hal_pcd.o
    0x080014d4   0x080014d4   0x00000016   Code   RO          180    .text.HAL_PCD_SetupStageCallback  usbd_conf.o
    0x080014ea   0x080014ea   0x00000012   Code   RO          259    .text.HAL_PCD_Start  stm32f0xx_hal_pcd.o
    0x080014fc   0x080014fc   0x00000024   Code   RO          190    .text.HAL_PCD_SuspendCallback  usbd_conf.o
    0x08001520   0x08001520   0x0000014c   Code   RO          795    .text.HAL_RCCEx_PeriphCLKConfig  stm32f0xx_hal_rcc_ex.o
    0x0800166c   0x0800166c   0x00000214   Code   RO          761    .text.HAL_RCC_ClockConfig  stm32f0xx_hal_rcc.o
    0x08001880   0x08001880   0x0000000c   Code   RO          771    .text.HAL_RCC_GetHCLKFreq  stm32f0xx_hal_rcc.o
    0x0800188c   0x0800188c   0x000004c8   Code   RO          759    .text.HAL_RCC_OscConfig  stm32f0xx_hal_rcc.o
    0x08001d54   0x08001d54   0x000000ba   Code   RO          341    .text.HAL_SPI_Init  stm32f0xx_hal_spi.o
    0x08001e0e   0x08001e0e   0x00000002   PAD
    0x08001e10   0x08001e10   0x00000068   Code   RO           49    .text.HAL_SPI_MspInit  spi.o
    0x08001e78   0x08001e78   0x00000478   Code   RO          353    .text.HAL_SPI_TransmitReceive  stm32f0xx_hal_spi.o
    0x080022f0   0x080022f0   0x00000034   Code   RO         1112    .text.HAL_SYSTICK_Config  stm32f0xx_hal_cortex.o
    0x08002324   0x08002324   0x00000062   Code   RO          736    .text.HAL_TIMEx_ConfigBreakDeadTime  stm32f0xx_hal_tim_ex.o
    0x08002386   0x08002386   0x00000044   Code   RO          734    .text.HAL_TIMEx_MasterConfigSynchronization  stm32f0xx_hal_tim_ex.o
    0x080023ca   0x080023ca   0x00000002   PAD
    0x080023cc   0x080023cc   0x000000c0   Code   RO          465    .text.HAL_TIM_Base_Init  stm32f0xx_hal_tim.o
    0x0800248c   0x0800248c   0x0000002c   Code   RO           73    .text.HAL_TIM_Base_MspInit  tim.o
    0x080024b8   0x080024b8   0x00000268   Code   RO          613    .text.HAL_TIM_PWM_ConfigChannel  stm32f0xx_hal_tim.o
    0x08002720   0x08002720   0x000000d0   Code   RO          515    .text.HAL_TIM_PWM_Init  stm32f0xx_hal_tim.o
    0x080027f0   0x080027f0   0x00000028   Code   RO           71    .text.HAL_TIM_PWM_MspInit  tim.o
    0x08002818   0x08002818   0x00000044   Code   RO          523    .text.HAL_TIM_PWM_Start  stm32f0xx_hal_tim.o
    0x0800285c   0x0800285c   0x00000002   Code   RO           98    .text.HardFault_Handler  stm32f0xx_it.o
    0x0800285e   0x0800285e   0x00000002   PAD
    0x08002860   0x08002860   0x00000008   Code   RO           79    .text.LED1_SET      tim.o
    0x08002868   0x08002868   0x00000008   Code   RO           81    .text.LED2_SET      tim.o
    0x08002870   0x08002870   0x000000a4   Code   RO           34    .text.MX_GPIO_Init  gpio.o
    0x08002914   0x08002914   0x00000048   Code   RO           47    .text.MX_SPI1_Init  spi.o
    0x0800295c   0x0800295c   0x00000118   Code   RO           69    .text.MX_TIM16_Init  tim.o
    0x08002a74   0x08002a74   0x000000f8   Code   RO           65    .text.MX_TIM2_Init  tim.o
    0x08002b6c   0x08002b6c   0x00000040   Code   RO          133    .text.MX_USB_DEVICE_Init  usb_device.o
    0x08002bac   0x08002bac   0x00000002   Code   RO           96    .text.NMI_Handler   stm32f0xx_it.o
    0x08002bae   0x08002bae   0x00000002   PAD
    0x08002bb0   0x08002bb0   0x00000198   Code   RO         1416    .text.NRF24L01_Init  24l01.o
    0x08002d48   0x08002d48   0x00000320   Code   RO         1422    .text.NRF24L01_RX_Mode  24l01.o
    0x08003068   0x08003068   0x00000358   Code   RO         1438    .text.NRF_IRQHandler  24l01.o
    0x080033c0   0x080033c0   0x00000002   Code   RO          102    .text.PendSV_Handler  stm32f0xx_it.o
    0x080033c2   0x080033c2   0x000000ee   Code   RO          403    .text.SPI_WaitFifoStateUntilTimeout  stm32f0xx_hal_spi.o
    0x080034b0   0x080034b0   0x00000002   Code   RO          100    .text.SVC_Handler   stm32f0xx_it.o
    0x080034b2   0x080034b2   0x00000002   PAD
    0x080034b4   0x080034b4   0x000003cc   Code   RO         1456    .text.Send_data     key_map.o
    0x08003880   0x08003880   0x00000008   Code   RO          104    .text.SysTick_Handler  stm32f0xx_it.o
    0x08003888   0x08003888   0x0000004c   Code   RO           15    .text.SystemClock_Config  main.o
    0x080038d4   0x080038d4   0x00000058   Code   RO         1264    .text.SystemInit    system_stm32f0xx.o
    0x0800392c   0x0800392c   0x00000010   Code   RO         1296    .text.USBD_ClrClassConfig  usbd_core.o
    0x0800393c   0x0800393c   0x00000012   Code   RO         1363    .text.USBD_CtlContinueRx  usbd_ioreq.o
    0x0800394e   0x0800394e   0x00000012   Code   RO         1359    .text.USBD_CtlContinueSendData  usbd_ioreq.o
    0x08003960   0x08003960   0x00000014   Code   RO         1335    .text.USBD_CtlError  usbd_ctlreq.o
    0x08003974   0x08003974   0x0000001a   Code   RO         1367    .text.USBD_CtlReceiveStatus  usbd_ioreq.o
    0x0800398e   0x0800398e   0x0000001e   Code   RO         1357    .text.USBD_CtlSendData  usbd_ioreq.o
    0x080039ac   0x080039ac   0x0000001a   Code   RO         1365    .text.USBD_CtlSendStatus  usbd_ioreq.o
    0x080039c6   0x080039c6   0x00000002   PAD
    0x080039c8   0x080039c8   0x00000020   Code   RO          156    .text.USBD_FS_ConfigStrDescriptor  usbd_desc.o
    0x080039e8   0x080039e8   0x0000000c   Code   RO          146    .text.USBD_FS_DeviceDescriptor  usbd_desc.o
    0x080039f4   0x080039f4   0x00000024   Code   RO          158    .text.USBD_FS_InterfaceStrDescriptor  usbd_desc.o
    0x08003a18   0x08003a18   0x0000000c   Code   RO          148    .text.USBD_FS_LangIDStrDescriptor  usbd_desc.o
    0x08003a24   0x08003a24   0x00000028   Code   RO          150    .text.USBD_FS_ManufacturerStrDescriptor  usbd_desc.o
    0x08003a4c   0x08003a4c   0x00000030   Code   RO          152    .text.USBD_FS_ProductStrDescriptor  usbd_desc.o
    0x08003a7c   0x08003a7c   0x00000148   Code   RO          154    .text.USBD_FS_SerialStrDescriptor  usbd_desc.o
    0x08003bc4   0x08003bc4   0x00000052   Code   RO         1343    .text.USBD_GetString  usbd_ctlreq.o
    0x08003c16   0x08003c16   0x0000000c   Code   RO         1388    .text.USBD_HID_DataIn  usbd_hid.o
    0x08003c22   0x08003c22   0x00000022   Code   RO         1384    .text.USBD_HID_DeInit  usbd_hid.o
    0x08003c44   0x08003c44   0x0000000c   Code   RO         1390    .text.USBD_HID_GetCfgDesc  usbd_hid.o
    0x08003c50   0x08003c50   0x0000000c   Code   RO         1392    .text.USBD_HID_GetDeviceQualifierDesc  usbd_hid.o
    0x08003c5c   0x08003c5c   0x00000028   Code   RO         1382    .text.USBD_HID_Init  usbd_hid.o
    0x08003c84   0x08003c84   0x0000002e   Code   RO         1394    .text.USBD_HID_SendReport  usbd_hid.o
    0x08003cb2   0x08003cb2   0x00000002   PAD
    0x08003cb4   0x08003cb4   0x000000d4   Code   RO         1386    .text.USBD_HID_Setup  usbd_hid.o
    0x08003d88   0x08003d88   0x00000036   Code   RO         1282    .text.USBD_Init     usbd_core.o
    0x08003dbe   0x08003dbe   0x00000002   PAD
    0x08003dc0   0x08003dc0   0x00000020   Code   RO          218    .text.USBD_LL_ClearStallEP  usbd_conf.o
    0x08003de0   0x08003de0   0x00000020   Code   RO          212    .text.USBD_LL_CloseEP  usbd_conf.o
    0x08003e00   0x08003e00   0x000000c6   Code   RO         1302    .text.USBD_LL_DataInStage  usbd_core.o
    0x08003ec6   0x08003ec6   0x00000082   Code   RO         1300    .text.USBD_LL_DataOutStage  usbd_core.o
    0x08003f48   0x08003f48   0x0000006c   Code   RO          202    .text.USBD_LL_Init  usbd_conf.o
    0x08003fb4   0x08003fb4   0x00000024   Code   RO          220    .text.USBD_LL_IsStallEP  usbd_conf.o
    0x08003fd8   0x08003fd8   0x00000024   Code   RO          210    .text.USBD_LL_OpenEP  usbd_conf.o
    0x08003ffc   0x08003ffc   0x00000020   Code   RO          226    .text.USBD_LL_PrepareReceive  usbd_conf.o
    0x0800401c   0x0800401c   0x0000004a   Code   RO         1304    .text.USBD_LL_Reset  usbd_core.o
    0x08004066   0x08004066   0x00000010   Code   RO         1310    .text.USBD_LL_Resume  usbd_core.o
    0x08004076   0x08004076   0x0000001e   Code   RO         1312    .text.USBD_LL_SOF   usbd_core.o
    0x08004094   0x08004094   0x00000006   Code   RO         1306    .text.USBD_LL_SetSpeed  usbd_core.o
    0x0800409a   0x0800409a   0x00000002   PAD
    0x0800409c   0x0800409c   0x00000020   Code   RO          222    .text.USBD_LL_SetUSBAddress  usbd_conf.o
    0x080040bc   0x080040bc   0x0000006c   Code   RO         1298    .text.USBD_LL_SetupStage  usbd_core.o
    0x08004128   0x08004128   0x00000020   Code   RO          216    .text.USBD_LL_StallEP  usbd_conf.o
    0x08004148   0x08004148   0x00000020   Code   RO          206    .text.USBD_LL_Start  usbd_conf.o
    0x08004168   0x08004168   0x00000014   Code   RO         1308    .text.USBD_LL_Suspend  usbd_core.o
    0x0800417c   0x0800417c   0x00000024   Code   RO          224    .text.USBD_LL_Transmit  usbd_conf.o
    0x080041a0   0x080041a0   0x00000028   Code   RO         1341    .text.USBD_ParseSetupRequest  usbd_ctlreq.o
    0x080041c8   0x080041c8   0x00000012   Code   RO         1286    .text.USBD_RegisterClass  usbd_core.o
    0x080041da   0x080041da   0x00000020   Code   RO         1294    .text.USBD_SetClassConfig  usbd_core.o
    0x080041fa   0x080041fa   0x0000000a   Code   RO         1288    .text.USBD_Start    usbd_core.o
    0x08004204   0x08004204   0x000003e4   Code   RO         1333    .text.USBD_StdDevReq  usbd_ctlreq.o
    0x080045e8   0x080045e8   0x00000154   Code   RO         1339    .text.USBD_StdEPReq  usbd_ctlreq.o
    0x0800473c   0x0800473c   0x0000005e   Code   RO         1337    .text.USBD_StdItfReq  usbd_ctlreq.o
    0x0800479a   0x0800479a   0x00000002   Code   RO          234    .text.USBD_static_free  usbd_conf.o
    0x0800479c   0x0800479c   0x00000008   Code   RO          232    .text.USBD_static_malloc  usbd_conf.o
    0x080047a4   0x080047a4   0x00000010   Code   RO          108    .text.USB_IRQHandler  stm32f0xx_it.o
    0x080047b4   0x080047b4   0x00000002   Code   RO           19    .text.fputc         main.o
    0x080047b6   0x080047b6   0x00000002   PAD
    0x080047b8   0x080047b8   0x000000b4   Code   RO           13    .text.main          main.o
    0x0800486c   0x0800486c   0x00000020   Code   RO         1689    i.__0printf$8       mc_p.l(printf8.o)
    0x0800488c   0x0800488c   0x0000000e   Code   RO         1783    i.__scatterload_copy  mc_p.l(handlers.o)
    0x0800489a   0x0800489a   0x00000002   Code   RO         1784    i.__scatterload_null  mc_p.l(handlers.o)
    0x0800489c   0x0800489c   0x0000000e   Code   RO         1785    i.__scatterload_zeroinit  mc_p.l(handlers.o)
    0x080048aa   0x080048aa   0x00000002   PAD
    0x080048ac   0x080048ac   0x00000428   Code   RO         1696    i._printf_core      mc_p.l(printf8.o)
    0x08004cd4   0x08004cd4   0x00000020   Code   RO         1697    i._printf_post_padding  mc_p.l(printf8.o)
    0x08004cf4   0x08004cf4   0x0000002c   Code   RO         1698    i._printf_pre_padding  mc_p.l(printf8.o)
    0x08004d20   0x08004d20   0x00000020   Code   RO         1472    i.puts              mc_p.l(puts.o)
    0x08004d40   0x08004d40   0x00000010   Data   RO         1269    .rodata.AHBPrescTable  system_stm32f0xx.o
    0x08004d50   0x08004d50   0x00000020   Data   RO          783    .rodata.cst16       stm32f0xx_hal_rcc.o
    0x08004d70   0x08004d70   0x00000020   Data   RO         1781    Region$$Table       anon$$obj.o


    Execution Region RW_IRAM1 (Exec base: 0x20000000, Load base: 0x08004d90, Size: 0x00000ca0, Max: 0x00001800, ABSOLUTE)

    Exec Addr    Load Addr    Size         Type   Attr      Idx    E Section Name        Object

    0x20000000   0x08004d90   0x00000004   Data   RW         1757    .data               mc_p.l(stdout.o)
    0x20000004   0x08004d94   0x0000001c   Data   RW          160    .data.FS_Desc       usbd_desc.o
    0x20000020   0x08004db0   0x00000029   Data   RW         1399    .data.HID_MOUSE_ReportDesc  usbd_hid.o
    0x20000049   0x08004dd9   0x00000003   PAD
    0x2000004c   0x08004ddc   0x00000004   Data   RW         1268    .data.SystemCoreClock  system_stm32f0xx.o
    0x20000050   0x08004de0   0x00000005   Data   RW         1442    .data.TEST_ADDRESS  24l01.o
    0x20000055   0x08004de5   0x00000003   PAD
    0x20000058   0x08004de8   0x00000012   Data   RW          161    .data.USBD_FS_DeviceDesc  usbd_desc.o
    0x2000006a   0x08004dfa   0x00000002   PAD
    0x2000006c   0x08004dfc   0x00000038   Data   RW         1398    .data.USBD_HID      usbd_hid.o
    0x200000a4   0x08004e34   0x00000029   Data   RW         1401    .data.USBD_HID_CfgDesc  usbd_hid.o
    0x200000cd   0x08004e5d   0x00000003   PAD
    0x200000d0   0x08004e60   0x00000009   Data   RW         1400    .data.USBD_HID_Desc  usbd_hid.o
    0x200000d9   0x08004e69   0x00000003   PAD
    0x200000dc   0x08004e6c   0x0000000a   Data   RW         1402    .data.USBD_HID_DeviceQualifierDesc  usbd_hid.o
    0x200000e6   0x08004e76   0x00000002   PAD
    0x200000e8   0x08004e78   0x00000004   Data   RW          162    .data.USBD_LangIDDesc  usbd_desc.o
    0x200000ec   0x08004e7c   0x0000001a   Data   RW          163    .data.USBD_StringSerial  usbd_desc.o
    0x20000106   0x08004e96   0x00000002   PAD
    0x20000108        -       0x00000008   Zero   RW           22    .bss..L_MergedGlobals  main.o
    0x20000110        -       0x00000002   Zero   RW         1444    .bss.NRF24L01_TX_start  24l01.o
    0x20000112        -       0x00000020   Zero   RW         1443    .bss.Rev_Buff       24l01.o
    0x20000132   0x08004e96   0x00000006   PAD
    0x20000138        -       0x00000020   Zero   RW         1458    .bss.Send_buf       key_map.o
    0x20000158        -       0x00000001   Zero   RW         1345    .bss.USBD_SetConfig.cfgidx  usbd_ctlreq.o
    0x20000159   0x08004e96   0x00000003   PAD
    0x2000015c        -       0x00000200   Zero   RW          164    .bss.USBD_StrDesc   usbd_desc.o
    0x2000035c        -       0x00000014   Zero   RW          237    .bss.USBD_static_malloc.mem  usbd_conf.o
    0x20000370        -       0x00000224   Zero   RW          135    .bss.hUsbDeviceFS   usb_device.o
    0x20000594        -       0x00000220   Zero   RW          236    .bss.hpcd_USB_FS    usbd_conf.o
    0x200007b4        -       0x00000064   Zero   RW           53    .bss.hspi1          spi.o
    0x20000818        -       0x00000040   Zero   RW           84    .bss.htim16         tim.o
    0x20000858        -       0x00000040   Zero   RW           83    .bss.htim2          tim.o
    0x20000898        -       0x00000004   Zero   RW          870    .bss.uwTick         stm32f0xx_hal.o
    0x2000089c   0x08004e96   0x00000004   PAD
    0x200008a0        -       0x00000400   Zero   RW            1    STACK               startup_stm32f042x6.o


==============================================================================

Image component sizes


      Code (inc. data)   RO Data    RW Data    ZI Data      Debug   Object Name

      2064         76          0          5         34      20242   24l01.o
       164          4          0          0          0       2627   gpio.o
       972        280          0          0         32       1732   key_map.o
       272         12          0          0          8       3376   main.o
       176         16          0          0        100       4977   spi.o
        88         38        192          0       1024        616   startup_stm32f042x6.o
        92          8          0          0          4       5121   stm32f0xx_hal.o
       136         24          0          0          0       5600   stm32f0xx_hal_cortex.o
       484         28          0          0          0       5115   stm32f0xx_hal_gpio.o
        60          8          0          0          0       1344   stm32f0xx_hal_msp.o
      3760        204          0          0          0      16479   stm32f0xx_hal_pcd.o
        62          0          0          0          0       3328   stm32f0xx_hal_pcd_ex.o
      1768         48         32          0          0       8105   stm32f0xx_hal_rcc.o
       332         12          0          0          0       6919   stm32f0xx_hal_rcc_ex.o
      1568          8          0          0          0      35032   stm32f0xx_hal_spi.o
      1084         44          0          0          0      50926   stm32f0xx_hal_tim.o
       166          0          0          0          0      16925   stm32f0xx_hal_tim_ex.o
        42          4          0          0          0       1219   stm32f0xx_it.o
        88         12         16          4          0       1879   system_stm32f0xx.o
       628         36          0          0        128       7670   tim.o
        64         12          0          0        548       3113   usb_device.o
       676         28          0          0        564      14631   usbd_conf.o
       712          4          0          0          0       7292   usbd_core.o
      1572         28          0          0          1       8611   usbd_ctlreq.o
       508         92          0         76        512       4538   usbd_desc.o
       368         26          0        157          0       6051   usbd_hid.o
       118          0          0          0          0       4620   usbd_ioreq.o

    ----------------------------------------------------------------------
     18048       1052        272        260       2968     248088   Object Totals
         0          0         32          0          0          0   (incl. Generated)
        24          0          0         18         13          0   (incl. Padding)

    ----------------------------------------------------------------------

      Code (inc. data)   RO Data    RW Data    ZI Data      Debug   Library Member Name

         0          0          0          0          0          0   entry.o
         0          0          0          0          0          0   entry10a.o
         0          0          0          0          0          0   entry11a.o
         8          4          0          0          0          0   entry2.o
         4          0          0          0          0          0   entry5.o
         0          0          0          0          0          0   entry7b.o
         0          0          0          0          0          0   entry8b.o
         8          4          0          0          0          0   entry9a.o
        30          0          0          0          0          0   handlers.o
        36          8          0          0          0         68   init.o
        32          0          0          0          0         68   llshl.o
        34          0          0          0          0         68   llushr.o
        36          0          0          0          0        100   memseta.o
      1172         52          0          0          0        324   printf8.o
        32          4          0          0          0         68   puts.o
         0          0          0          4          0          0   stdout.o
        44          0          0          0          0         72   uidiv.o
        96          0          0          0          0         84   uldiv.o

    ----------------------------------------------------------------------
      1536         72          0          4          0        852   Library Totals
         4          0          0          0          0          0   (incl. Padding)

    ----------------------------------------------------------------------

      Code (inc. data)   RO Data    RW Data    ZI Data      Debug   Library Name

      1532         72          0          4          0        852   mc_p.l

    ----------------------------------------------------------------------
      1536         72          0          4          0        852   Library Totals

    ----------------------------------------------------------------------

==============================================================================


      Code (inc. data)   RO Data    RW Data    ZI Data      Debug   

     19584       1124        272        264       2968     248340   Grand Totals
     19584       1124        272        264       2968     248340   ELF Image Totals
     19584       1124        272        264          0          0   ROM Totals

==============================================================================

    Total RO  Size (Code + RO Data)                19856 (  19.39kB)
    Total RW  Size (RW Data + ZI Data)              3232 (   3.16kB)
    Total ROM Size (Code + RO Data + RW Data)      20120 (  19.65kB)

==============================================================================

