:020000040800F2
:10000000A00C0020D5000008AD2B00085D280008DA
:1000100000000000000000000000000000000000E0
:10002000000000000000000000000000B1340008E3
:100030000000000000000000C13300088138000803
:100040000501000805010008050100080501000878
:100050000501000805010008450200080501000827
:100060000501000805010008050100080501000858
:100070000501000805010008050100080501000848
:100080000501000800000000000000000501000854
:100090000000000005010008050100080501000836
:1000A0000000000005010008050100080501000826
:1000B000050100080000000005010008A547000830
:1000C0000348854600F09CF800480047B9470008FF
:1000D000A00C00200C4880F308880C480168090E29
:1000E0000B4A914205D10B480B4901600B480C4962
:1000F00001600C4880470C480047FEE7FEE7FEE73A
:10010000FEE7FEE7FEE70000A00C00200400000070
:100110001F00000018100240010000000000014014
:1001200000000000D5380008C100000830B50B46BB
:10013000014600202022012409E00D46D5409D42C1
:1001400005D31D469540491B254695404019154647
:10015000521E002DF1DC30BD10B5202A04DB08460C
:10016000203AD040002110BD0B46D340D04020247F
:10017000A21A91400843194610BDD2B201E00270A4
:10018000401C491EFBD270470022F6E710B513460B
:100190000A4604461946FFF7F0FF204610BDF0B5A9
:1001A0001FB40646002082B005464024019100900D
:1001B0001BE0019922460F463046FFF7CDFF049A17
:1001C000059B801A994110D310461946224600F02B
:1001D00029F8361A8F410197224601200021009FFD
:1001E00000F020F838184D4100902046641E002889
:1001F000DFDC019B00982946324607B0F0BD0000C5
:10020000064C0125064E05E0E36807CC2B430C3C69
:1002100098471034B442F7D3FFF756FF704D0008EB
:10022000904D000810B5202A04DB0146203A914089
:10023000002010BD914020239C1A0346E34019433F
:10024000904010BD80B5082000F008F880BD7047D0
:1002500080B5082801D102F007FF80BD80B50449B0
:100260000A68024202D00860FFF7F2FF80BDC04674
:1002700014040140F0B58DB00C68002C00D1C9E029
:10028000654B022200920522984200D0009200267F
:10029000F74301220B960292154605910A902246D9
:1002A000089707956B1E029D09939D402A40049272
:1002B000002A00D1A2E04C6810222243122A12D157
:1002C0001C220B9B1A400F2494407C40099B5B0826
:1002D000534F3B40C3181F6A27400C6994403C436E
:1002E000089F1C624C68032223461340B3400192CE
:1002F000B2407A40076817401F430760122C0696E9
:100300001DD801270397A740464B1F4217D0876887
:1003100017400599CE68069886403E430A98866045
:1003200026090398064009988640089845400A988F
:1003300043682B403343069E0A9805994360C3687F
:1003400013408A68B2401A43C260E200089F55D544
:100350005F48014600680125284308600868284076
:100360000C900C200B9908400F2383407B40099C84
:1003700001998C430C992C490A4661581940A718D9
:100380000923DE0600230A9AB2420A9A04D0274BB8
:100390009A42009B00D1012383400B433B60049AA7
:1003A0001446089844401D4807683B4623401743BD
:1003B0002E0405994968314200D03B4603604768E6
:1003C0003B46234017436E04314200D03B46436016
:1003D00087683B46234017432E05314200D03B46F9
:1003E0008360C3681C401A436B0519420599034694
:1003F0000A98069E00D01446DC60089F0A681346DF
:10040000079DEB40B61C0B9C241D0B946D1C002B10
:1004100000D046E70DB0F0BD0008004800040140E0
:10042000FCFFFF7F060006000800014000040048B2
:1004300010B528231824002A00D02346C15010BD2F
:10044000044800687047C04602480168491C0160C2
:100450007047C0469808002010B506480168102271
:100460000A4302600024204600F006F800F016F867
:10047000204610BD00200240B0B5044601F000FA4D
:100480007D21C900FFF752FE01F032FF0025E8434D
:1004900021462A4600F02AF82846B0BD82B00C4812
:1004A0000168012211430160016811400191019925
:1004B000110742680A434260406808400090009873
:1004C0000448016810220A43026002B07047C04627
:1004D00018100240000001401F2101400120884007
:1004E000014908607047C04600E100E0002805DBD4
:1004F0000322034693430B4A9A1806E00F22024058
:10050000083A03239A43084BD218C000182303402B
:100510008801C0B29840FF21994013688B43034380
:100520001360704700E400E01CED00E070B51C258E
:100530002C464C4304192126F600A4197F260E40B0
:100540006E43801928308025294200D00446002AB5
:1005500006D0E3800120A072180C2081002070BD1D
:10056000A3800020A072002070BD80B58722920079
:1005700083581C224A438018826B184603F040FCC3
:1005800080BD80B58722920083581C224A43801880
:100590002322D2008258184603F095FC80BD00004B
:1005A000F0B581B07F230A461A401C245443041935
:1005B0002125ED00651928348026314200D02546DA
:1005C000CC096C702A703D22D6008219875D022604
:1005D000012F35D0012717709B008900194003684F
:1005E000585A5E18AB7A2349002B1AD00096474D13
:1005F000F1350540D84B06461E40DB4B3343002DFA
:1006000000D10346402018400E4300281BD105436B
:10061000002D1CD0002C009E002F00D03380CE482F
:1006200008E0002C19D04306CB4B02D518400843F4
:100630003080303303404039194331800026167032
:10064000F0B201B0F0BD33460543002DE2D12F4694
:10065000002C009E002FE1D1E1E7430401D40446C1
:1006600004E0BD4B1840C04C04433480274B23406A
:10067000E1E7C046C080000070B51C252A464A4309
:1006800082182123DB00D2187F230C461C406543CF
:10069000451928358026314200D02A46147000249E
:1006A0009470CD0955703D22D4000219065D0224D4
:1006B000012E27D0012414709B0089001940006886
:1006C000445A4018002D05D06106A3490E4B05D4AD
:1006D000254608E0610409D423460CE00C401D4681
:1006E0001035254305803031294007E09A490C40F8
:1006F0009D4B23430380EE491940EE4B4B40038052
:1007000000241470E0B270BDB08000000F3F000004
:10071000F0B587B006930B467F2119401C244C434B
:1007200005192124E4002C1928358026334200D0F5
:100730002C460594DF0967702170E260069DE57024
:100740003D25ED004419465D0225012E00D1DEE075
:100750001D46029100920397012204922270794F64
:1007600006990329019419D88B0002A6F35829464B
:100770009F46C04685070008A7070008BD07000878
:10078000CF07000800684B00DBB25A00845A6E4D58
:100790002540704E2E436B4F865223E00068294659
:1007A0006B00DBB21EE000684A00D3B25A00855AE3
:1007B000654E2E40654D3543855212E000684B0072
:1007C000DBB25D00425B604E16405E4A07E00068A7
:1007D0004B00DBB25D00465B5B4A32405C4E164329
:1007E0004653584F059C5A00835A5B4D2B400B4390
:1007F000194639438152811806910299CAB2A17AE9
:10080000002939D055490B4055491943069B198099
:10081000D1000918049DAA028918E2885023C75AFA
:10082000504E3240CA532289C05A08184D490A40D6
:100830008280AA03069803881A401C4646490C4049
:1008400049482043002A0E4600D118464023034061
:100850003C4F394640310C43002B25D11A43002A26
:10086000039926D000290499002901D0069908800F
:1008700030400743019946E0A3880126B343502145
:10088000415AD5006918091804465034039A002AC1
:1008900015D0B0020B52069802884020024226D1A1
:1008A00010460199ED4B2AE020461A43002A03998D
:1008B000D8D10492002904990029D7D1D8E7B202EF
:1008C00089188B80911D0D4328182588009A3F2A8E
:1008D00020D317465201254911401F2294020B19BB
:1008E000174200D00B462340F103194316E0DB4BBF
:1008F0001A40384640301043069908800199303339
:10090000034020375F400698078000250D70E8B24D
:1009100007B0F0BD5108324089188902CF4A2952E8
:10092000B00306990988014205D011400E4A0A43D6
:1009300006990A8000E00A46F13810400C4F474003
:1009400098E7C046808000000F0900008084000006
:1009500080860000808200000F0F00000F0E000054
:1009600080810000FEFF000080C0FFFF00FC1F0030
:1009700080B0FFFFF0B588B07F2407910694214036
:100980001C244C43041909256D01002666512325BA
:10099000ED006251FF220A32A6542122D200A15456
:1009A00045229200A2589A421D4600D31546AD1A20
:1009B0004726B600A55189256D00655D0068502465
:1009C000045BCF0039190C189A4200D31A4603462B
:1009D0005033002D19D002943349091F05911F246B
:1009E000A6020125E90304913F2A0396019400958C
:1009F0001FD355012D4929408E19224200D00E46A1
:100A000003990E4004990E4318E0274963183F2AC2
:100A100035D35101254C0C401F26B50261193242D5
:100A200000D0214629400122D4030C43079A06999D
:100A30002CE011462940560871188E0202991A4C72
:100A4000059D4E532743198879180B183F2A0ED35A
:100A5000540116492140039D4C19019E324200D099
:100A60000C462C4004990C43079A06990EE0009C12
:100A70001440510809198C02079A069906E00121D1
:100A80001140520851188C02079A06991C8089005F
:100A900092000A40815A2D4B0B4006495940815221
:100AA000002008B0F0BDC0460604000000FCFFFFB7
:100AB0000F3F000080B00000F0B581B03D22D300B0
:100AC000C218C45C0223012C38D001230092137099
:100AD0001C273C464C4304192125ED0066197F2450
:100AE0000D4625406F43C71928378022114200D098
:100AF0003E463570B370CB097370A200002D0AD04A
:100B00008C0014400068015B0019002B0ED00D4AC8
:100B100011400D4B0DE08900114002685018525AE7
:100B20000A49303111400B4B103302E0074A1140A3
:100B3000074B009A4B40038000231370D8B201B0DA
:100B4000F0BDC0463F0F0000908000000F3F000046
:100B5000809000008090FFFFF0B583B01E467F2399
:100B600002910D4601931D401C216943471829231A
:100B70000121F9542823FD5400233B64BA637C6BA4
:100B8000B442334600D323461B1BFB63B44200D35D
:100B900034463223FE5C0368002E16D00198800094
:100BA000029EB6000640985B029098190190502072
:100BB000185AED002818C0188E024021029D801995
:100BC0000D4227D144802E3726E088020090A0B243
:100BD000401C40080ED000995918BE8D8F1946420E
:100BE00010785178090201433980921C761CBF1C91
:100BF000002EF5D15020185A0099891CEA000A43AA
:100C00001018C452019880000299890001405D18B3
:100C1000124A1AE0C4803037019DA0B2401C40083F
:100C20000DD099193B88CB184442107851780902AD
:100C300001431980921C641C9B1C002CF5D1288850
:100C4000064A104006490143298030322888104066
:100C5000044941402980002003B0F0BD0F0F00007F
:100C600080C00000B0800000F0B59DB0064600686E
:100C70004424025F0125E9021791AF030146443184
:100C8000002A199400DBDCE212971BAA00231380D0
:100C9000098809B21CAA118000290A9500DBCEE25E
:100CA0002321C900139171180291452189000791F0
:100CB00071180191432189000491711805917B21DC
:100CC000890071180C91092149011091711809913D
:100CD0002121C9000F9171180691314624310E91DE
:100CE000314628310B91A9021A910893D9431191E9
:100CF00018961CE00C9AC00700D0D1E0D2E0159BFA
:100D0000C90700D110E1197811700346ABE15C0806
:100D10000A9D2B40E3189B02129C8B522146F1390D
:100D200002880A40DC494A400280199C80E21CA9E2
:100D300009880F250D40002D4DD0690089B24F0064
:100D4000C15B1BAA1180C119128812B2002A00DBF4
:100D5000AAE10A88F74B1A400A801C2169437618D9
:100D60000F99731889214900715C0029169300D1ED
:100D7000A1E019788A00825AC90009185023C35A81
:100D8000C918129B1A4200D12EE11A9A89184A8872
:100D9000E9490A40E9490A42089B00D156E11A99FB
:100DA000401887214900715A44181398315893B25A
:100DB000580800D145E10D93119B039043431494CF
:100DC000159120880870000A4870891C5B1CA41CBF
:100DD000002BF6D12BE11CA90A88018810231A42A6
:100DE0002AD1D74A114001805021415A1A9A8018BD
:100DF00040180B990978C90040184088CE4908402E
:100E00003064B16B0818B06300213046FFF7ADFBCA
:100E10000E980078002800D10AE2F06B002800D07C
:100E200006E20E9B187880210143C8B231684C223B
:100E3000885200201870FBE11BAA11801B99179A99
:100E40001140090472D05021415A1A9A8318581837
:100E500006990978C9004018C088B749084009991F
:100E600008604208059909885918002A00D141E70D
:100E7000119B53430C460C9D26882E70360A6E70CB
:100E8000AD1C5B1CA41C002BF6D1520089181A9AC9
:100E9000921E02400C9B9A18189E199CC00701D004
:100EA0000878107030680188A24A114001803046ED
:100EB00000F010FBBCE15021425A1A9941188818E1
:100EC0001A78D2008018C0889B4A104000239B4AA1
:100ED000104200D1C7E0049AB25A891815911399AB
:100EE000725881B24B08149300D108E70391119B0B
:100EF000149C6343159C0D9221881170090A51704E
:100F0000921C5B1CA41C002BF6D114994900159B64
:100F10005B181A99891E039C21400D9A521821468C
:100F2000199CC90700D0EEE603469CE01BA909887E
:100F300009B2002900DB7BE101887E4A1140018073
:100F40005025425B1A9941188818069A1278D200E7
:100F50008018C088FC4A1040099A1060002826D0EA
:100F6000059A128889184308029A126815D0119EB2
:100F700016935E430C46174623883B701B0A7B7012
:100F8000BF1C761CA41C002EF6D1169B5B00C91852
:100F90001A9B9B1E0340D218189EC00701D00878E8
:100FA000107009980068029A1168081810600021F2
:100FB0003046FFF7E6FA3068415B1A9A8218921DB4
:100FC000019B1B683F2B00D2A1E65D01E44C25404C
:100FD0001F27BE02AC193B4200D02C4634400A9B6E
:100FE000DB032343189E97E61A9A8918CA88D649C4
:100FF0000A40D9490A42089B28D01A994018112161
:101000000901715A44181398315893B2580818D0EE
:101010000D93119B039043431494159120880870FD
:10102000000A4870891C5B1CA41C002BF6D1039895
:101030004000149C24181A98801E0D9B1840159986
:101040000918D80701D0207808701346189800684E
:10105000169909788900425ABC4C803C1440BF4A1A
:1010600014434452199C109AB15898B20918B150BF
:10107000139BF1580A18F250472189007358002B2E
:1010800003D007997158814208D916980178189EA3
:101090003046FFF776FA07E080B000001698017836
:1010A000189E3046FFF766FC1BA800888021084286
:1010B00000D1BDE03268D05BA5490840D0531C2068
:1010C000684330183221435C01462831002B39D067
:1010D0000B789900545A1493DB0015939B185025F4
:1010E000555B5B1957181646503640210C4253D1B8
:1010F0001A995918CB8894490B4003640146403132
:101100001691002B6CD00D97591C4F0864D01A997A
:101110005118038ECB1811994F43846B2178657851
:101120002D020D431D80A41C7F1C9B1C002FF5D19C
:1011300052E0C0468F0F0000FF030000FFFF0000D9
:101140000F8F00005023D45A1A9BD3189F1C3C19B0
:101150000D78E9001591645A7B490C4004640146FE
:10116000403116915032002C47D0641C660844D0A0
:101170001495848D1B1911994E43846B25786178E1
:10118000090229431980A41C761C9B1C002EF5D152
:101190001646199C149D32E01A9959184B886A49D1
:1011A0000B400364014640311691002B18D00D9777
:1011B000591C4F0810D01A995118C38DCB1811998A
:1011C0004F43846B217865782D020D431D80A41C4C
:1011D0007F1C9B1C002FF5D1199C149D0D9F01E0D5
:1011E000199C149D594980393B880B4059490B4340
:1011F0003B801A9951188F1C01E01646199C1599CD
:10120000169B79183288895A4F4A11401960826BAF
:1012100052188263C36B002B05D0189E30462946B6
:10122000FFF79AFC04E0189E30462946FFF79DF927
:101230003068015F1CAA1180002900DA77E50A9D59
:10124000129F015B404A521C0A401204014644317D
:10125000002A12D00888434A02400A80304600F033
:10126000F7F83D20C0003118325C3068012A04D004
:101270004C228023835200220A70015B39400A0409
:1012800001464431002A04D0374A813A0B88134082
:101290000B806A030B88134203D00A88334B134038
:1012A0000B802A4A134671330A881F461A401204DB
:1012B00011D04021425A2E4B13404352BD221202FC
:1012C0004252304600F0D6F83068015B294A0A40A5
:1012D0000253014644310A88179B1A40120415D064
:1012E0000A88254B13400B804022835A08241C4354
:1012F0008452835A04241C438452199C098839401F
:10130000090403D1304600F0F9F83068015B44303D
:101310006A02114205D1290202880A420ED11DB08B
:10132000F0BD0188154A0A400280304600F0B4F84A
:1013300030684430290202880A42F0D00188104AFD
:101340000A4002801DB0F0BDFF0300008F0F0000B7
:101350000F8F000080C00000FFFF0000C080000071
:1013600000FCFFFFFFFB000080C0FFFFFFDF00006D
:10137000FBFF0000FFEF0000FFF70000FFFD000093
:10138000FFFE000070B504460120002C3FD0FF2076
:10139000EA302518205C002806D13D20C00000213D
:1013A0002154204600F034F803202870606800289B
:1013B0001DD021462831002213460B7001264E70A5
:1013C000CA70CA600A614A611C315B1C8342F4D353
:1013D0002121C900611800220A7000234B70CB70D4
:1013E000CB600B614B611C31521C9042F4D12168DF
:1013F000402201238B5200208852442688535026D5
:101400008853BF2636028E52242160542B7070BD43
:1014100010B582B000680C49884201D002B010BDFE
:101420000121C805094A136803431360126802408A
:10143000019201981F2400222046FFF757F820460A
:10144000FFF74AF802B010BD005C00401C100240DB
:10145000B0B504468068022801D0FEF7F8FE872068
:1014600085006059012102F015FE605902F0D6FD99
:10147000B0BD000010B504468069002806D027489A
:10148000016806229143016002F0FEF98720800086
:10149000205802F0E8FD10BD80B587218900405832
:1014A00002F0E9FD80BD10B53D22D300C218C45C36
:1014B0000223012C0CD001231370002902D0242315
:1014C000C15403E000684C21802343520023137071
:1014D000D8B210BD80B58721890042587B21890090
:1014E0004118104602F0EAFD80BD00685821425ABA
:1014F0000123DB03134343520020704710B5044619
:1015000087208000205802F02FFEA069002804D018
:101510000248016806220A43026010BD10ED00E097
:10152000F0B587B001252A048178C9074C4C69D0F1
:10153000019205900326F04320582A07002110420B
:1015400009D10320C0432158114321502058104095
:101550000690069801210391029204952F02414CB6
:10156000206838420ED1206838432060FEF768FFBB
:1015700005462068384205D1FEF762FF401B64280B
:10158000F7D950E03002364909680140002927D0D8
:10159000059A52680240914222D0314802460068C2
:1015A0001168019B1943116011689943116001464C
:1015B0002D4B194011600499084211D0FEF740FFED
:1015C0000546274800680224204209D1A64FFEF7AD
:1015D00037FF401BB84226D8214800682042F6D089
:1015E0001F4C226820480240059841681143216041
:1015F00003990029049D05D00321CA43A158029BE9
:101600009943A15003682B4210D1990616D499032F
:101610001CD40026590506D5226940218A43016958
:10162000114321610026F0B207B0F0BD2169032209
:10163000914382680A4322619906E8D52169102204
:101640009143C2680A4322619903E2D5216980224D
:10165000914342690A43226100265905E3D5DBE73D
:101660002010024000700040FFFCFFFFF0B581B089
:101670000D467B4A116801273940A94208D21168FA
:101680000126B1432943116011683140A94268D154
:1016900001680222114207D0724B1E461B68F024DB
:1016A000A34384681C4334600090C90739D16C4956
:1016B000086801263040A842009B07D90868B0435B
:1016C0002843086008683040A8424AD1187840078B
:1016D00008D50720000263490A4609688143D86893
:1016E000084310605F480468A20803210A40032AE7
:1016F00028D05E48022A26D1C90322460A408A42DF
:1017000000D15B485749896A0F252940594A515CE5
:10171000FEF70CFD0146A00C2840574A105C4843D8
:1017200011E0009C616803291ED0022923D0012901
:101730002AD10320C0434B4A10580126720410429C
:101740000FD02AE04A484749096809090F220A4090
:101750004A49895CC8404C49086000263046FEF77B
:101760008BFEF0B201B0F0BD3E48006B01263204A2
:101770001042F6D011E00320C0433A4A1058012627
:1017800072061042EDD008E00323DB432046354CBF
:10179000E358044613423E46E3D03248024600680E
:1017A0000326B04308431060FEF74AFE2146074671
:1017B0006068032818D002282BD001283ED1294880
:1017C00000680C210C460840042806D16FE7254824
:1017D00000682040042800D169E7FEF731FEC01BF5
:1017E00021498842F3D9BCE71E4800680C210C4609
:1017F00008400C2806D15AE71A48006820400C28F7
:1018000000D154E7FEF71CFEC01B17498842F3D9EC
:10181000A7E7144800680C210C460840082806D1A8
:1018200045E7104800682040082800D13FE7FEF750
:1018300007FEC01B0C498842F3D992E709480068AB
:101840000C24204205D132E706480068204200D12E
:101850002DE7FEF7F5FDC01B03498842F4D980E768
:1018600000200240041002408813000000127A0099
:10187000006CDC02604D0008504D0008404D00082F
:10188000014800687047C0464C000020F0B585B0A4
:1018900003900078C007F64E1DD1039800788007AA
:1018A00062D571680C2001420BD071680140082993
:1018B00037D10320C003716801400120C003814279
:1018C0002FD130680221084246D00398C168012018
:1018D000012941D033E271680C200140042909D16B
:1018E0000120410432680A42D7D00399496800298F
:1018F000D3D124E271680140082907D10320C00335
:1019000071680140012000048142E9D003984168D8
:10191000002900D1C6E0012900D0DBE0012001044C
:10192000E1E00398C1683068002900D1A4E00121FA
:1019300008433060FEF784FD0546306802242042EB
:1019400003D009E03068204206D1FEF779FD411B43
:1019500003200229F6D9F2E13068F821884303997F
:101960000969C900014331600398007800072ED54A
:101970000398C169706A002914D00121084370627C
:10198000FEF75EFD0546706A0224204203D01EE089
:10199000706A20421BD1FEF753FD411B0320022930
:1019A000F6D9CCE1012188437062FEF749FD054676
:1019B000706A0224204203D109E0706A204206D0F6
:1019C000FEF73EFD411B03200229F6D9B7E103983B
:1019D0000078400700D4A9E001231907F06900222C
:1019E000084207D1F0690843F061F06908400490AB
:1019F0000498012200A80EC01C02D44F386820426F
:101A00000FD1386820433860FEF71AFD0546386864
:101A1000204206D1FEF714FD411B03206429F6D9AC
:101A20008DE10398816800290BD0012905D0306A27
:101A300005295BD1042108433062306A02990843CA
:101A40005AE0306A029988433062306A0421884340
:101A50003062FEF7F5FC0546306A022420425ED073
:101A6000BB4FFEF7EDFC411B0320B94200D966E1F4
:101A7000306A2042F5D152E0012188433060FEF700
:101A8000DFFC054630680224204204D16CE7306850
:101A9000204200D168E7FEF7D3FC411B0320022956
:101AA000F5D94CE10120010432688A433260810497
:101AB00032688A4332604404FEF7C2FC054630684F
:101AC000204200D1E9E6FEF7BBFC411B032064295C
:101AD000F5D934E13068052900D019E101218A04E3
:101AE0001043306009043068084318E102998843C4
:101AF0003062306A042188433062FEF7A1FC05465B
:101B0000306A022420420AD1914FFEF799FC411B12
:101B10000320B94200D912E1306A2042F5D0019881
:101B2000002803D0F06900998843F0610398007899
:101B3000C00645D503984169012919D1706B04216C
:101B400001437163706B012101437163FEF778FCFF
:101B50000546706B0224204203D00FE0706B2042D8
:101B60000CD1FEF76DFC411B03200229F6D9E6E0FB
:101B7000706B491D0BD1042188437063706BF82191
:101B8000884303998969C9000143716318E00421FE
:101B900008437063706B012188437063FEF750FC4B
:101BA0000546706B0224204203D109E0706B20428D
:101BB00006D0FEF745FC411B03200229F6D9BEE002
:101BC00003980078800655D40398446A0020002CBE
:101BD00000D1B4E0029070680C2101400120082976
:101BE00000D1ACE0012002063168019291433160DE
:101BF0004706FEF725FC054630683840022C68D1C0
:101C00000028019C09D0FEF71BFC411B0320022980
:101C100000D994E030683842F5D1F06A0F2188434A
:101C2000039A116B0143F1627B20C0037168814309
:101C3000D06A0843916A0143716030682043306084
:101C4000FEF7FEFB04463068384203D00298C0B26B
:101C500005B0F0BDFEF7F4FB011B032002296ED88E
:101C600030683842F6D00298C0B205B0F0BDC04628
:101C70000010024071680C2001400C2909D07168E5
:101C8000014008290FD10320C0037168014081423F
:101C900009D101200104726B0A4295D00399096AA7
:101CA00001294CD190E70398016A01200704706B69
:101CB00000291DD038437063FEF7C2FB0546706BE8
:101CC000384281D1FEF7BCFB411B03200229F6D923
:101CD00035E0002836D0FEF7B3FB411B0320032973
:101CE0002DD230683842F6D10298C0B205B0F0BDAE
:101CF000B8437063FEF7A4FB0546706B384200D111
:101D000062E7FEF79DFB411B03200229F5D916E08F
:101D100001210A04904330608904306888433060B0
:101D200001204404FEF78CFB05463068204200D0B9
:101D3000B3E5FEF785FB411B03206429F5D9C0B24A
:101D400005B0F0BD0298C0B205B0F0BD0070004013
:101D500088130000F0B583B004460120002C54D055
:101D60000026A6625D20205C25465D35002805D151
:101D70005C2000212154204600F04AF802222A70FB
:101D80002068016840239943016007210B02E16844
:101D9000994204D90F273F02B94204D105E0012638
:101DA0003603994201D00027A76201960295276B5E
:101DB000002F04D10127994200D83A46226301221C
:101DC0005702A3691F406568A6682E4325693543FD
:101DD00066692E433E43E5693543266A2E43A56A6C
:101DE00035430560019D0D43190C04230B402B4323
:101DF000616A1943636B0B434360D102C3698B4330
:101E0000C3610020206602990A7003B0F0BD000093
:101E100010B586B0002105910491039102910191C2
:101E20000068134A904201D006B010BD01200203A1
:101E3000104B5C6814435C605C6814400094009A2A
:101E400040041A6802431A601A680240009200981F
:101E500002200290E020019003910320049005915C
:101E60000920C00601A9FEF705FA06B010BDC0465C
:101E70000030014014100240F0B58BB01D460746FB
:101E80005C203C5C3B465C330220012C00D128E204
:101E90000A9107920120049306901870FEF7D0FA79
:101EA00009905D20395C38465D300590012935D1B7
:101EB0000A980028069800D10DE207980028069895
:101EC00000D108E2002D069800D104E205980078C0
:101ED000042802D0052005990870002139664620A3
:101EE0003D5244203D52079838640A98B863BD8734
:101EF000F96403913965FD87F9683C463E343E46F6
:101F0000463607200002814202D83088022813D3C7
:101F10000120020338684368934312E041208200A5
:101F20007B680220934200D0D5E1042900D0D2E1A1
:101F3000B9680029BCD0CEE10120020338684368AB
:101F4000134343600268402302931A4203D102689C
:101F5000029B1A430260109A08927A68E24B9942F7
:101F600050D3002A02D02188012907D10A9A11886A
:101F7000C1602188491E2180921C0A920899491C3F
:101F800057D001252088002803D13088002800D1AF
:101F90002FE10020002D08D02088002817D03868B5
:101FA00081680222114217D12846318800291FD0AA
:101FB00039688A6801231A421AD0C86807990880CC
:101FC0003088401E3080891C0791012511E0284689
:101FD00031880029ECD10BE00A9A1188C160208871
:101FE000401E2080921C0A92002031880029DFD1F7
:101FF0000546FEF725FA0999411A0320089A9142ED
:10200000C0D368E1002A02D02188012944D1218867
:10201000022936D30A9A1188C160921C0A92B348E9
:1020200037E0C168079A11803188491E3180921CBF
:10203000079201212288002A03D13288002A00D188
:10204000D7E00022002913D02288002A11D082680C
:1020500002231A420DD00A9A1188C1602188491EB4
:102060002180921C0A9200213288002AE2D003E0EB
:1020700011463288002ADDD0826801231A42D9D065
:10208000CFE70A9A11780173521C0A920120C043CB
:10209000401C2188081820800898401C63D0012526
:1020A000280301902088002803D13088002800D11F
:1020B0009FE0002D12D02088002810D03868816859
:1020C000022211420BD0218802292DD30A9A1188AD
:1020D000C1602088801E2080921C2CE0039D3088E7
:1020E00000282FD03868826801210A422AD032881D
:1020F000022A0FD3C268079B1A803288921E328050
:102100009B1C07933288012A1BD84168019A11430E
:10211000416007E0007B079908703088401E3080DE
:10212000491C079101250DE00A9A11780173208856
:10213000401E2080521C0A92002530880028D1D1F0
:1021400000E00D46FEF77CF90999411A0320089A30
:102150009142A7D3BFE0087B079908703088401EE2
:102160003080491C079101200BE00A9A107808730F
:102170002088401E2080521C0A92002031880029AD
:102180001FD12188002902D13188002931D00021B6
:10219000002812D02188002910D039688A680223CB
:1021A0001A420BD020880128DFD90A9A1088C8600B
:1021B0002088801E2080921CDEE708463188002996
:1021C000DFD039688B6801221342DAD030880128C9
:1021D000C1D9C868079B18803088801E30809B1C3E
:1021E000079330880128BED810034A6802434A602A
:1021F000B9E70324E50238680146083182682A42BB
:1022000019D0089E002E36D0721C03D10A682A42CB
:10221000FCD111E0FEF714F90999411A3868B1426E
:1022200029D281682942F5D101460831826880258A
:102230002A4205D116E0089E826880252A4211D0E4
:10224000002E18D0701C03D108682842FCD109E088
:10225000FEF7F6F80999411A3868B1420BD2806846
:102260002842F5D1610238463246099B01F0A9F8AF
:10227000002826D12AE04168E022914341604121B3
:1022800089007A688A420BD1B9680122D303994246
:1022900002D09202914203D10168029A91430160F7
:1022A00001214903BA6A8A4205D102688A43026061
:1022B00002680A4302600120059908700020049911
:1022C0000870386E2021084338663966396E01205F
:1022D000002900D108460699059A11700021049A38
:1022E0001170C0B20BB0F0BD01070000FEFF00008E
:1022F000411E01200A0E0DD10748084A51600849C5
:102300000B6803400320800718430860002090609A
:10231000072111607047C046FFFFFF0010E000E09A
:1023200020ED00E0F0B53C22845C02463C32022302
:10233000012C26D03D230224C4543F242402CD681E
:10234000A5430F24A6028F68B7432F431F25ED0234
:102350004E68AE433E4324030D68A543354307242E
:1023600064030E69A6432E434C6934430325AD0331
:10237000AC4389692143046861640121C15400238D
:102380001370D8B2F0BD70B53C22845C02463C327A
:102390000223012C17D03D230224C454046865682D
:1023A0007026B54365600D6866682E436660A56853
:1023B0008026B543A5604968A5680D43A560012145
:1023C000C15400231370D8B270BD0000F0B581B0C5
:1023D00004460120002C42D03D20205C25463D359E
:1023E000002805D13C2000212154204600F04EF861
:1023F000022028702068026801218B07C64F98428E
:10240000009105D0C34B984202D0F74B984228D197
:10241000C31B0027FE1A5E41F149411A7B1A4B414A
:1024200070218A43A7681743032109028F43226959
:102430003A4380218A43A16911430160E168C16286
:1024400061688162002E04D1E649884201D0002BE8
:1024500001D061690163009941612970002001B0D8
:10246000F0BDC11B00235E1A4E41DD49411A5B1AC3
:102470004B41DE49884206D0B84204D0F649884232
:102480001746D1D0D5E71746CEE7C04681B00068E1
:10249000F149884201D001B070470120400405494C
:1024A0000A6802430A60096801400091009801B07F
:1024B0007047C04618100240F0B584B03C23C55C9C
:1024C00003463C330224012D00D11FE101241C707E
:1024D0003D2602258555EA4107463D37032A00D9A6
:1024E00011E103977A44127952009744012F4F6DFE
:1024F0000268106AA0431062106AA84355680295EA
:1025000095698F680743732085430E682E431046F4
:102510001830CF4DAA4206D0CE4DAA4203D0CE4DA0
:10252000AA4200D0DBE00C25AF43CD68019604261B
:10253000B5433D43032636020094029CB4434F69E1
:102540008E692743009C3743019ECAE00268106AE7
:102550001025A8431062106A2025A8435768956982
:102560008E68360106437320000285430868000226
:102570002843029010461830B54DAA424CD0B54DB4
:10258000AA4256D0B44DAA4253D05FE02502026859
:10259000106AA8431062106A5668D5697327BD4354
:1025A0000F682F4302976502A8438D682F020743E7
:1025B00010461C30A64DAA4257D0A64DAA4261D063
:1025C000A54DAA425ED06AE025030268106AA843BE
:1025D00010626003156A854350680290D0698E6866
:1025E00036032E4373252D02A8430D682D020543A3
:1025F00010461C30964FBA4205D0964FBA4202D0D0
:10260000954FBA425AD1A7030196029EBE434F6925
:10261000BF013743019E52E0C025AE430096CD680E
:102620002D0101954F25019EAE430196009E019D0F
:102630002E430325AD02AF434D6900958D69019589
:10264000009DAD003D43019FBF002F435760029D99
:1026500095614D6895631662E50296692E43966111
:10266000A5029669AE43966136E00325AD02AF43FD
:1026700000972A4DFF3D0195CD682D02019F3D40F9
:10268000009F2F4303252D03AE434D6900958D69AF
:102690000195009D2D013543019E36012E43566064
:1026A000029DD5614D68D5631762D56908262E4312
:1026B000D661D5690426B543D5611FE0029F5760F6
:1026C000D5614D6815641662E502D6692E43D66160
:1026D000A502D669AE43D661096909020FE03D46FD
:1026E000029F576096614E68566315629569082689
:1026F0002E43966195690426B54395610969039F48
:1027000002680A4302603C7000241C70E0B204B00E
:10271000F0BDC046002C014000480140FFFBFFFF18
:10272000F0B581B004460120002C42D03D20205C51
:1027300025463D35002805D13C2000212154204666
:1027400000F056F8022028702068026801218B07EB
:10275000404F9842009105D03D4B984202D0224B09
:10276000984228D1C31B0027FE1A5E41C049411A76
:102770007B1A4B4170218A43A76817430321090242
:102780008F4322693A4380218A43A1691143016042
:10279000E168C16261688162002E04D12C498842DF
:1027A00001D0002B01D0616901630099416129705A
:1027B000002001B0F0BDC11B00235E1A4E41E84964
:1027C000411A5B1A4B410949884206D0B84204D0ED
:1027D000E34988421746D1D0D5E71746CEE7C04631
:1027E00000440140002C0140000400400020004053
:1027F00081B001218A070068904201D001B0704782
:10280000044802680A43026000680840009000988B
:1028100001B070471C100240012213468B40006833
:10282000016A99430162016A1943016208498842B9
:1028300005D00849884202D0C949884203D1D10352
:10284000436C0B43436401681143016000207047EF
:10285000002C01400048014000440140FEE7000018
:10286000BD490968C8637047804909684863704773
:10287000F0B589B000240894079402940125A804B7
:10288000B8490A6802430A600A6802400392039842
:1028900068040A6802430A600968014003910398CA
:1028A0000920C7061021009138462A46FDF7C0FDD1
:1028B000AD48022101912246FDF7BAFD144805906A
:1028C00008200490069504AE38463146FDF7D2FC48
:1028D00005950098049006940324079438463146E1
:1028E000FDF7C8FC0595019F049702980690079490
:1028F0009D483146FDF7BEFC062528463946029A1A
:10290000FDF7F4FD2846FDF7E7FD09B0F0BDC04630
:1029100000002110B0B50F480F4B002210210724F2
:102920000825026242628262C462026345634125F5
:10293000AD00240228C0FC35026044608260C260A1
:10294000056141610838FFF705FA002801D0FDF75D
:102950007EFCB0BDB40700200030014070B594B0DB
:1029600000210D910C910B910A9109910891079109
:102970003E487B4D2F22794B056042608160C360E9
:102980000161416181610691059104910391029178
:1029900001910091FFF71AFD002801D0FDF757FCC7
:1029A0003248FFF7BDFE002801D0FDF750FC0022A1
:1029B0000D920C920B920A92099208926020079055
:1029C0002A4807A9FFF778FD002801D0FDF73FFC52
:1029D0000020049003900290019000900690012640
:1029E00070030590214C69462046FFF79BFC0028A8
:1029F00001D0FDF72CFC0020139012901190109044
:102A00000F902168A9421AD0B20791422CD17104CB
:102A1000544A13680B43136012680A400E920E99D1
:102A20000221109104220F92119003201290139111
:102A30000920C0060FA9FDF71DFC14B070BDB1043C
:102A4000484A13680B43136012680A400E920E99AD
:102A50000221109132020F921190032012901391D3
:102A600041480FA9FDF706FC14B070BD18080020FE
:102A70000044014070B590B00024099408940125E9
:102A8000AE0735482F21354A066041608460C26038
:102A90000461846107940694059404940394029459
:102AA0000194FFF73DFE002801D0FDF7D0FB09940B
:102AB0000894294808A9FFF766FC002801D0FDF713
:102AC000C6FB02946020019003940594224C01A956
:102AD00008222046FFF7F0FC002801D0FDF7B7FBE5
:102AE00000200F900E900D900C900B9021681C4AC6
:102AF000914219D0B1422CD169041A4A13680B4390
:102B0000136012680A400A920A9902210C91042269
:102B10000B920D9003200E900F910920C0060BA977
:102B2000FDF7A8FB10B070BDA9040E4A13680B4353
:102B3000136012680A400A920A9902210C912A0233
:102B40000B920D9003200E900F9107480BA9FDF7F3
:102B500091FB10B070BDC04658080020E70300008C
:102B600000440140141002400004004880B50C48A5
:102B70000C49002201F008F9002801D0FDF767FB9D
:102B80000748094901F020FB002801D0FDF75FFB51
:102B9000034801F032FB002801D0FDF758FB80BD4F
:102BA00070030020040000206C000020704700002B
:102BB000F0B593B0604802210160604810210160C7
:102BC0000D4607910AA9002008700A276846076089
:102BD0005B4E09AA012430462346FFF74DF95748BA
:102BE00005610CA930200870684607600BAA3046C2
:102BF0002346FFF741F9534800780EAE307068461F
:102C000007600DAD4E4831462A462346FFF734F99A
:102C10004C484078307068460760494831462A463B
:102C20002346FFF729F947488078307068460760E7
:102C3000434831462A462346FFF71EF94148C078EB
:102C40003070684607603E4831462A462346FFF703
:102C500013F93C4800793070684607600897384897
:102C600031462A462346FFF707F9FC4D07982860AE
:102C7000286110A90870684607600FAAF848234623
:102C80000694FFF7F9F812AEFF2535706846076025
:102C900011AFF34831463A462346FFF7EDF838784E
:102CA000059035706846089C0460ED4831463A4608
:102CB000069BFFF7E1F838780490357068460460A9
:102CC000E74831463A46069C2346FFF7D5F8387860
:102CD00003903570684608990160E14831463A46EC
:102CE0002346FFF7C9F8387802903570684608998E
:102CF0000160DB4831463A462346FFF7BDF8114AEA
:102D00003878D649079B0B601178059B8B4212D10E
:102D10005178049B8B420ED19178039B8B420AD150
:102D2000D178029B8B4206D11179884203D100F001
:102D30000BF813B0F0BDFEE7280400481800004867
:102D4000B407002050000020F0B58DB0C248022129
:102D500008910161C14810210A9101610CA9272045
:102D6000079008700A2568460560BD480BAA012433
:102D70002346FFF781F87620C7433E4676360CA9F6
:102D80000E70684605600BAAB5482346FFF774F835
:102D9000B24A0A9B1360B348002106910180136177
:102DA00059370CA90F70684605600BAAAC4F38461E
:102DB0002346FFF761F80CA90E70684605600BAA60
:102DC00038462346FFF758F8A4480A990160016184
:102DD0000CA92A200870684605600BAA38462346CD
:102DE000FFF74AF80CAE8920059030706846056000
:102DF0000BAF9B4831463A462346FFF73DF85A2031
:102E00000490307068460560954831463A4623463E
:102E1000FFF732F83120099030706846056090481D
:102E200031463A462346FFF727F8322003903070A8
:102E3000684605608A4831463A462346FFF71CF843
:102E400033200290307068460560854831463A4626
:102E50002346FFF711F881480A99016001610CA926
:102E600030200870684605600BAA7D482346FFF7AE
:102E700003F80CAE05983070684605600BAF7848D3
:102E800031463A462346FEF7F7FF0498307068460D
:102E90000560734831463A462346FEF7EDFF099830
:102EA0003070684605606E4831463A462346FEF764
:102EB000E3FF0398307068460560694831463A463A
:102EC0002346FEF7D9FF02983070684605606448D3
:102ED00031463A462346FEF7CFFF60480A99016023
:102EE00001610F460CA921200870684605600BAAF5
:102EF0005B4E30462346FEF7BFFF0CA90C706846B8
:102F000005600BAA30462346FEF7B6FF534807601C
:102F100007610CA922200870684605600BAA30469C
:102F20002346FEF7A9FF0CA90C70684605600BAAA2
:102F300030462346FEF7A0FF4848076007610CA90A
:102F400023200870684605600BAA30462346FEF72A
:102F500093FF0CA90C70684605600BAA3046234607
:102F6000FEF78AFF3D48076007610CA9242008701E
:102F7000684605600BAA30462346FEF77DFF0CA984
:102F800006980870684605600BAA30462346FEF78F
:102F900073FF3248076007610CA925200870684656
:102FA00005600BAA30462346FEF766FF0CA96D208C
:102FB0000870684605600BAA30462346FEF75CFFA2
:102FC000F448076007610CA9099808706846056015
:102FD0000BAA30462346FEF74FFF0CA90C200870C1
:102FE000684605600BAA30462346FEF745FFE948D0
:102FF000076007610CA926200870684605600BAAC7
:1030000030462346FEF738FF0CA90798087068463B
:1030100005600BAA30462346FEF72EFFDD48076009
:1030200007610CA920200870684605600BAA30468D
:103030002346FEF721FF0CA90F20087068460560A3
:103040000BAA30462346FEF717FFD24807600898C0
:10305000014908600DB0F0BD180400481800004890
:10306000B407002010010020F0B593B00720C04342
:10307000C84A10580821084200D050E110261661B5
:1030800006A9FF20049008700A2768460760C24816
:1030900005AC012522462B46FEF7EEFE2478BD48FE
:1030A0000660BC48066108A92720087068460760CA
:1030B00007AAB9482B46FEF7DFFE0AA90C7068463E
:1030C000076009AAB4482B46FEF7D6FEB14A31463E
:1030D00016604020044204D1B5A0214601F0C6FB91
:1030E0001DE1029111610CA961200870684607601A
:1030F000A9480BAA012423460394FEF7BDFE0EAE99
:1031000004983070684607600DADA34831462A46E2
:103110002346FEF7B1FE0D98A0490870049C347058
:10312000684607609C4831462A46039BFEF7A4FE8A
:103130000D989A4948703470684607609648314641
:103140002A46039C2346FEF797FE0D989349887004
:1031500004983070684607608F4831462A462346F7
:10316000FEF78AFE0D988D49C870049C347068463D
:103170000760894831462A46039BFEF77DFE0D987D
:1031800086490871347068460760834831462A468C
:10319000039C2346FEF770FE0D9880494871049801
:1031A0003070684607607C4831462A462346FEF761
:1031B00063FE0D9879498871049C347068460760F5
:1031C000754831462A46039BFEF756FE0D98734913
:1031D000C8713470684607606F4831462A46039CC0
:1031E0002346FEF749FE0D986C490872049830702A
:1031F00068460760684831462A462346FEF73CFE8B
:103200000D9866494872049C3470684607606248AD
:1032100031462A46039BFEF72FFE0D985F498872C0
:103220003470684607605C4831462A46039E334640
:10323000FEF722FE0D985949C87202985549086058
:103240000861254620461D3810A9087068460760A9
:103250000FAA514C20463346FEF70EFE12A90D7000
:10326000684607604D4F11AA204634463346FEF7A4
:1032700003FE484802990160387800280FD00026E4
:1032800047A5C1B2284601F0F1FA761CF0B2385CCD
:103290000028F6D1300602D042A001F041FD3F4D9A
:1032A000284600F007F940480188404A914236D844
:1032B0006A78002A35D0621C2B78002B36D0531C3C
:1032C000AC78002C37D05A1CEC78002C38D0531C2A
:1032D0002C79002C39D05A1C6C79002C3AD0531C14
:1032E000AC79002C3BD05A1CEC79002C3CD0531C00
:1032F0002C7A002C3DD05A1C6C7A002C3ED0531CEA
:10330000AC7A002C3FD05A1CEC7A002C00D11A4623
:10331000D2B2C8235343C918018013B0F0BD13B013
:10332000F0BD1446621C2B78002BC8D12246531CDA
:10333000AC78002CC7D113465A1CEC78002CC6D1AF
:103340001A46531C2C79002CC5D113465A1C6C7993
:10335000002CC4D11A46531CAC79002CC3D113469F
:103360005A1CEC79002CC2D11A46531C2C7A002C22
:10337000C1D113465A1C6C7A002CC0D11A46531C7A
:10338000AC7A002CBFD113465A1CEC7A002CBFD16A
:10339000BDE7C04618000048B40700201201002015
:1033A000256420000D000000080100201305000026
:1033B0006572726F723A203078253032580D0A00EB
:1033C0007047F0B583B0019316460F460446006877
:1033D0008168002339421DD003214D02AF4210D134
:1033E000711C06D0002E26D1007B02A9087002981D
:1033F00034E0017B02AA1170029981682942F8D158
:1034000008E01D46002E29D0711C06D12B4681688C
:103410003942FCD1D8B203B0F0BDFDF711F80199E3
:10342000401AB0421AD2206880683842F5D12B4643
:10343000D8B203B0F0BD1F46007B02A90870029805
:10344000FCF7FEFF0199401AB04207D2206881685C
:103450002942F1D13B46D8B203B0F0BD20684168A3
:10346000E022914341604121890062688A420BD188
:10347000A1680122D303994202D09202914203D162
:10348000016840229143016001214A03A36A9342EB
:1034900005D10368934303600368134303605C2012
:1034A000002222545D2021540323D8B203B0F0BD82
:1034B00070470000B0B54C4900220A604A60022300
:1034C000D4B2045D842C04D9521CD4B2045D842C83
:1034D000FAD864007C44A4886400A744C70188002B
:1034E0008B0087008E009100870094008700870082
:1034F00097009A009D00A000A300A600A9008700E5
:10350000AC00AF0087008700B200B500B800BB0078
:10351000BE00C100C40087008700C700CA00870042
:10352000CD00D000D300D600D900DC00DF0087003A
:103530008700E200E5008700E800EB00EE00F10004
:10354000F400F700FA00FD00870000018700870003
:10355000030106010901870087000C010F018700A4
:103560001201150118011B011E012101240127016F
:103570002A0187002D0130013301360139013C0158
:103580003F014201450148014B014E0151015401E7
:1035900057015A015D0187006001630166018700E0
:1035A00069016C016F0172017501870078017B016F
:1035B0007E018101840187018A018D0190018700CC
:1035C000870093018700960199019C019F01A20148
:1035D000A501A801AB018700AE01B90187008700F2
:1035E000BC01BF01C201C046380100206CE7DCB25B
:1035F000622538E1DCB2092535E1DCB2362532E15D
:103600000C7810251BE1DCB204252CE1DCB20D2581
:1036100029E1DCB2372526E1DCB24B2523E1DCB21F
:10362000482520E1DCB210251DE1DCB257251AE166
:10363000DCB2072517E10C78402500E1DCB24A2511
:1036400011E1DCB251250EE1DCB261250BE1DCB207
:10365000442508E1DCB2162505E1DCB2532502E180
:10366000DCB25D25FFE0DCB25425FCE0DCB20F25C6
:10367000F9E00C782025E2E0DCB24325F3E0DCB28F
:103680002F25F0E0DCB23825EDE0DCB21825EAE0C9
:10369000DCB24225E7E0DCB25525E4E0DCB250259F
:1036A000E1E0DCB22425DEE00C780225C7E0DCB2E4
:1036B0003925D8E0DCB23F25D5E0DCB20525D2E0E3
:1036C000DCB24625CFE0DCB24F25CCE0DCB22A25C7
:1036D000C9E0DCB22D25C6E00C780125AFE0DCB2F4
:1036E0001225C0E0DCB22225BDE0DCB21D25BAE027
:1036F000DCB22325B7E0DCB23425B4E0DCB213251C
:10370000B1E0DCB20B25AEE0DCB23025ABE0DCB2E0
:103710000625A8E0DCB21125A5E0DCB21E25A2E05A
:10372000DCB235259FE0DCB215259CE0DCB25C25DF
:1037300099E0DCB2312596E0DCB20E2593E0DCB2F4
:10374000202590E0DCB214258DE0DCB22E258AE045
:10375000DCB21F2587E0DCB23D2584E0DCB22B25FE
:1037600081E0DCB21B257EE0DCB23C257BE0DCB2F4
:103770004E2578E0DCB2252575E0DCB2282572E024
:10378000DCB256256FE0DCB23E256CE0DCB265258C
:1037900069E0DCB2602566E0DCB25F2563E0DCB2A4
:1037A0000A2560E0DCB21C255DE0DCB219255AE098
:1037B000DCB2632557E0DCB21A2554E0DCB25825B0
:1037C00051E0DCB259254EE0DCB25E254BE0DCB2C4
:1037D000452548E0DCB2082545E0DCB20C2542E096
:1037E000DCB241253FE0DCB252253CE0DCB24725AB
:1037F00039E0DCB2492536E0DCB25A2533E0DCB2F0
:10380000402530E0DCB227252DE00C78082516E0B5
:10381000DCB2212527E0DCB2172524E0DCB23B2511
:1038200021E0DCB226251EE0DCB25B251BE0DCB229
:103830004D2518E0DCB2332515E00C78042525432E
:103840000D70521CD4B2045D842C00D841E63BE6D6
:10385000DCB24C2507E0DCB23A2504E0DCB22C25D2
:1038600001E0DCB229250D555B1C2DE60348024919
:10387000082200F007FAB0BD3801002070030020D4
:1038800080B5FCF7E1FD80BD70B598B00BAD281D8B
:103890003021FCF779FC00260596049603960296E3
:1038A00020200B900124139414962846FDF7EEFF78
:1038B000072007900320089009960A9607A821463A
:1038C000FDF7D4FE60040190069601A8FDF728FEDE
:1038D00018B070BD1248026801210A4302604268B4
:1038E000104B1340436002680F4B134003608A047F
:1038F0000368934303603F22120443689343436089
:10390000C26A0F239A43C262FF22D432036B9343ED
:103910000363426B8A434263002181607047C04663
:10392000001002400CB8FF08FFFFF6FE80B58522AC
:103930009200825852689047002080BD10B513460F
:103940000A460024214600F059FB204610BD10B560
:1039500013460A460024214600F010FC204610BD04
:1039600010B50446802100F0DFFB0021204600F066
:10397000DBFB10BD10B57D218900052242500024DB
:1039800021462246234600F039FB204610BD10B5E3
:1039900013460A467D218900022444508361C36195
:1039A0000024214600F0EAFB204610BD10B57D2121
:1039B000890004224250002421462246234600F07A
:1039C000DDFB204610BD000010B50A4603A02A4CBE
:1039D000214600F0F7F8204610BDC0464849442073
:1039E000436F6E66696700001220088000487047C8
:1039F0005800002010B50A4603A01F4C214600F0D5
:103A0000E1F8204610BDC04648494420496E74651F
:103A100072666163650000000420088000487047FA
:103A2000E800002010B50A4603A0134C214600F020
:103A3000C9F8204610BDC04653544D6963726F6586
:103A40006C656374726F6E696373000010B50A462B
:103A500003A0094C214600F0B5F8204610BDC04631
:103A600053544D33322048756D616E20696E746514
:103A700072666163650000005C010020F0B581B0F2
:103A80001A2008804D4801688268551800D191E0DD
:103A9000406800904A480021C1704171C171417273
:103AA000C1724173C1734174C1742C0F3023264617
:103AB0001E436F0F3734052F00D3264686700F2420
:103AC0002E46264037461F4337362A07520F052A0F
:103AD00000D3374607742E0E264037461F4337362D
:103AE0002A01520F052A00D3374607712E0D2640B2
:103AF00037461F4337362A02520F052A00D337466E
:103B000087712E0C264037461F4337362A03520F43
:103B1000052A00D3374607722E0B264037461F432F
:103B200037362A04520F052A00D3374687722E0AE9
:103B3000264037461F4337362A05520F052A00D341
:103B4000374607732E09264037461F4337362A0665
:103B5000520F052A00D337468773009F3E0F354624
:103B60001D437A0F3736052A00D3354685743D0E3E
:103B700025402E461E4337353A01520F052A00D301
:103B80002E4606753D0D25402E461E4337353A021A
:103B9000520F052A00D32E4686754175C1753D0C1E
:103BA00025402B4337353A03520F052A00D32B46C5
:103BB00003764176024801B0F0BDC046ACF7FF1F66
:103BC000EC000020B0B5002824D004780223002C9B
:103BD0000AD0441C0023651C5B1C2478002C2C4656
:103BE000F9D1DBB25B009B1C138003224A700B707F
:103BF0000378002B0ED0421C0220C4B20B550123C7
:103C00000343DBB20024CC54541C801C1378002BDB
:103C10002246F2D1B0BD4321C900415800200873AB
:103C2000704710B50446812100F0DAF84320C10046
:103C300060586418002803D000F0AFFD0020206019
:103C4000002010BD2921018000487047A4000020F9
:103C50000A21018000487047DC00002010B50446AE
:103C600081210322082300F0B7F9102000F096FD0F
:103C70004321C90060500121002801D000210173B7
:103C8000084610BD10B513460A467F218900415CE5
:103C9000032905D14321C90041580C7B002C01D0D8
:103CA000002010BD01240C73812100F067FA002070
:103CB00010BD000010B50A78602414404322D200E1
:103CC00083580022002C15D0202C34D14A78921E23
:103CD000092A39D87A44127952009744042E35358E
:103CE000353535353A3F191D0122FFF750FE0022C8
:103CF000D0B210BD4C780B2C1AD00A2C10D0062C48
:103D000019D14A88130A0022212B2CD0222B1346CA
:103D10002FD1CA882921292A00D30A46194B28E025
:103D2000083301221946FFF732FE0022D0B210BD3F
:103D3000887898600022D0B210BD01221946FFF7A2
:103D400026FE0022D0B210BDFFF70AFE0222D0B23A
:103D500010BDC87858600022D0B210BD88781860B5
:103D60000022D0B210BDCA880921092A00D30A4610
:103D7000034B1946FFF70BFE0022D0B210BDC04620
:103D8000D00000202000002010B50223002814D00D
:103D900085239C0003190459002C01D000241C60C9
:103DA000002902D021231B01C1507F21890001235A
:103DB0004354027000F0C8F80023D8B210BD0000D0
:103DC00080B5112252018058FCF756FC032804D814
:103DD000C000F249C140C8B280BD022080BDC046CB
:103DE00080B5112252018058FCF7DAFB032804D871
:103DF000C000EA49C140C8B280BD022080BDC046B3
:103E000070B5044600290DD08520800020584269F5
:103E1000002A56D07F208000205C032851D1204604
:103E200090474EE07D208000205802283FD1E06975
:103E3000266AB0420ED9801BE06183B2204611464B
:103E40001A46FFF784FD002120460A460B4600F083
:103E5000D5F82CE0A56928463146FCF767F9B5424C
:103E600015D3002913D13F20C000261820588542C1
:103E70000DD20025204629462A46FFF768FD356009
:103E8000204629462A462B4600F0B8F80FE0852048
:103E900080002058C168002906D07F208000205C67
:103EA000032801D1204688472046FFF763FD012003
:103EB00041026018615C012903D1002101700020DA
:103EC00070BD002070BD10B5044600290DD08520BE
:103ED000800020588269002A22D07F208000205C48
:103EE00003281DD1204690471AE07D2080002058ED
:103EF000032815D111200001205843218B00E158DF
:103F0000E31881420ED9091A1960814200D3014693
:103F10008BB2204611461A46FFF710FD002010BD57
:103F2000002010BD8520800020580169002906D09E
:103F30007F208000205C032801D12046884720464E
:103F4000FFF734FD002010BDB0B587218A00174966
:103F500088501122520181500823154C02250C6013
:103F60004B608D600D6100238B61CB610B62851806
:103F70000846FDF707FA002801D0FCF768F9286821
:103F80000024182321462246FCF7D0FA2868802115
:103F900058232246FCF7CAFA286801210B02812126
:103FA0002246FCF7C3FA2046B0BDC0469405002067
:103FB000005C00407F220A401C235343112252011F
:103FC0008058C0188522520082182A308023194256
:103FD00000D002461078704710B5144611225201E5
:103FE00080581A462346FCF793FB032804D8C000E8
:103FF0006A49C140C8B210BD022010BD10B51124DD
:1040000064010059FCF7B6FC032804D8C0006349DA
:10401000C140C8B210BD022010BDC04670B50446F4
:1040200000264025314632462B46FFF7D5FF1120AA
:10403000000125508021204632462B46FFF7CCFF59
:104040007F2080000121215425624320C000205898
:10405000002806D08520800020584268217920461B
:104060009047002070BDFF21FE31415C7F2292000D
:1040700081540020704780B57F218900415C03296D
:1040800006D1852189004158C969002900D0884797
:10409000002080BD017400207047000080B511220F
:1040A00052018058FDF7FFF9032804D8C0003B49AE
:1040B000C140C8B280BD022080BDC04670B5044674
:1040C0004120C600A519284600F06AF87D2080002E
:1040D000012121501348205A3F21C9006050A15DA1
:1040E0001F200840022809D001280DD0002811D136
:1040F0002046294600F086F8002070BD204629465B
:1041000000F072FA002070BD2046294600F016FB30
:10411000002070BD80200140204600F005F80020FE
:1041200070BDC0460E02000080B5112252018058B9
:10413000FCF7C2FC032804D8C0001849C140C8B22B
:1041400080BD022080BDC04680B511214901405884
:10415000FDF7CBF9032804D8C0001049C140C8B20C
:1041600080BD022080BDC0467F218900425CFF23C4
:10417000FE33C254042242540020704710B511246B
:1041800064010059FCF7E8FC032804D8C000034987
:10419000C140C8B210BD022010BDC04600020102DD
:1041A0000A7802704A7842708A78CB781B021343EF
:1041B00043800A794B791B02134383808A79C9793A
:1041C00009021143C18070470222002903D08522D1
:1041D000920081500022D0B2704780B585229200B3
:1041E0008258002A07D01268904701460220002911
:1041F00000D1084680BD022080BD80B5FFF7A4FF36
:10420000002080BD70B582B00D460446487809286C
:1042100040D8C0467844007940008744041E3B469D
:104220003B83953B5B727F208000205CFE21014038
:10423000022900D0A4E0812080002258012003211F
:10424000002A00D00846E06021460C3102222046B8
:10425000FFF79DFB002002B070BD7F208000205C36
:10426000FE210140022900D095E06888012800D095
:1042700074E1812080000021215085208000205899
:1042800082682046294690472046FFF78FFB002092
:1042900002B070BD80212046FFF746FF0021204676
:1042A000FFF742FF002002B070BD6888012800D0EF
:1042B00054E1812080000121215085208000205878
:1042C00082682046294690472046FFF76FFB002072
:1042D00002B070BDE888012868D17F208000205C92
:1042E000032800D18CE0022800D091E00020A060DB
:1042F0002146083101222046FFF749FB002002B089
:1043000070BD6888B74D2870C1B2022959D3802189
:104310002046FFF709FF00212046FFF705FF002098
:1043200002B070BDA888002803D1E888002800D119
:10433000BFE080212046FFF7F7FE00212046FFF76F
:10434000F3FE002002B070BD6888010A491E0629EC
:1043500000D998E07944097949008F44037F649437
:10436000948791002120000120580268207C01A937
:104370009047014601A80288002A00D0E3E0EDE062
:1043800080212046FFF7D0FE00212046FFF7CCFE1B
:10439000002002B070BD80212046FFF7C5FE00213D
:1043A0002046FFF7C1FE002002B070BD80212046EC
:1043B000FFF7BAFE00212046FFF7B6FE002002B04C
:1043C00070BD7F208000225C2018032A3AD0022A88
:1043D00064D1002900D190E0616003220270204680
:1043E000FFF7FBFE022800D0BBE080212046FFF74C
:1043F0009BFE00212046FFF797FE002002B070BD13
:10440000211D01222046FFF7C2FA002002B070BD34
:1044100080212046FFF788FE00212046FFF784FE1A
:10442000002002B070BDC0B205282CD878440079B5
:104430004000874402B2B7BCC1C621200001205809
:10444000426893E700295ED06068884200D08EE021
:104450002046FFF7ABFA002002B070BD8520800037
:104460002058217C00295BD0C16A5AE0207C0028BA
:1044700009D1852080002058416B01A8884778E742
:10448000207C002852D080212046FFF74DFE0021DD
:104490002046FFF749FE002002B070BD8021204673
:1044A000FFF742FE00212046FFF73EFE002002B04B
:1044B00070BD7F20810066186D880540605C032810
:1044C0000AD180212046FFF72FFE00212046FFF76A
:1044D0002BFE002002B070BDFF2040002554E9B241
:1044E0002046FFF7DBFD2046FFF760FA002D6DD078
:1044F00002203070002002B070BD2046FFF756FA4F
:10450000002002B070BD02220270002060602046D0
:10451000FFF70CFA2046FFF749FA002002B070BD01
:10452000816A01A888470146022007E085208000B3
:104530002058016B01A8884701460720487001A850
:104540000288002A0AD0E888002807D0824200D3D7
:10455000024601A802802046FFF719FA002002B0A7
:1045600070BD2046FFF722FA002002B070BDC1B234
:104570002046FFF7DBF9297861602046FFF72DFE22
:10458000022828D180212046FFF7CEFD00212046B9
:10459000FFF7CAFD002002B070BD212000012058A5
:1045A0008268E3E6212000012058C268DEE621206F
:1045B000000120580269D9E62120000120584269F3
:1045C000D4E62120000120588269CFE60120307016
:1045D000002002B070BD2046FFF7E8F9002002B0CD
:1045E00070BDC04658010020B0B50D46044608789D
:1045F00060210140202908D1852080002058826850
:104600002046294690470020B0BD297968780028C7
:1046100014D0012820D0032800D083E07F20800020
:10462000205C03283CD0022850D1802008438028F9
:1046300078D02046FFF778FD0020B0BD7F208200B3
:10464000A25C032A4CD0022A64D148066AD02046D4
:10465000FFF76AFD0020B0BD7F208000205C0328AA
:104660000AD0022860D18020084380285AD02046F2
:10467000FFF75AFD0020B0BD6888002852D14806D7
:1046800009D02046FFF79CFB8520800020588268D7
:104690002046294690472046FFF788F90020B0BD04
:1046A0006888002806D180200843802802D0204650
:1046B000FFF73AFD85208000205882682046294671
:1046C00090472046FFF772F90020B0BD80212046B8
:1046D000FFF72AFD00212046FFF726FD0020B0BD90
:1046E00008400001201841229200851814308022D1
:1046F000114200D005462046FFF75CFC012100284E
:1047000000D101462960022220462946FFF73FF9E1
:104710000020B0BD80212046FFF706FD0021204685
:10472000FFF702FD0020B0BD80212046FFF7FCFC12
:1047300000212046FFF7F8FC0020B0BDB0B50D46C3
:1047400004467F208000205C03280DD128790006D4
:10475000400E13D080212046FFF7E6FC00212046C2
:10476000FFF7E2FC0020B0BD80212046FFF7DCFC13
:1047700000212046FFF7D8FC0020B0BD8520800036
:1047800020588268204629469047E8880028F3D1BF
:104790002046FFF70BF90020B0BD70470048704776
:1047A0005C03002080B50248FCF75EFA80BDC0467D
:1047B000940500207047000070B598B0FBF74CFEE0
:1047C0000BAE301D3021FBF7DFFC00240594049470
:1047D0000394029420200B900125139514943046E5
:1047E000FDF754F8072007900320089009940A94D5
:1047F00007A82946FCF73AFF68040190069401A82F
:10480000FCF78EFEFEF734F8FEF784F8FEF732F977
:10481000FEF7A4F8FEF7AAF911480821FDF7FCFFFE
:1048200010482146FDF7F8FF2046FEF719F87D20D5
:104830008000FEF719F8FEF7BBF90B4C04E0401EB0
:10484000208080B2FEF70CF8FBF7FAFD6168884221
:10485000FAD9FBF7F5FD606020880028F4D0EEE778
:104860005808002018080020080100200FB410B5D7
:1048700003A9044B044A029800F018F810BC08BCC5
:1048800004B01847B54700080000002002E008C83F
:10489000121F08C1002AFAD170477047002001E0BA
:1048A00001C1121F002AFBD170470000FFB591B073
:1048B0000F460546002606E025280AD0149A1399CB
:1048C00090476D1C761C28780028F5D1304615B02D
:1048D000F0BD002400940121F34A029400E0044357
:1048E0006D1C2B780846203B98401042F7D1287861
:1048F0002A280ED0022128780246303A092A15D8F3
:10490000009A0A235A43303A80180C436D1C0090D9
:10491000F1E701CF0090002805DA012040030443AD
:10492000009840420090022004436D1C28782E28F5
:1049300015D10420044368786D1C2A280AD101CFC0
:104940006D1C02900BE002990A2251433039401845
:104950006D1C02902878014630390929F3D928784E
:104960006C2810D006DC4C281AD068280ED06A2893
:1049700017D104E0742813D07A2812D110E0012056
:10498000400504430CE00121090501E0032109056C
:104990000C436978814203D10120000524186D1C65
:1049A0006D1C287803906E281ED00CDC632831D053
:1049B00004DC00288AD0582811D1B2E064287BD0CA
:1049C00069280CD178E073282DD004DC6F2870D0D2
:1049D000702804D1A7E075286CD078286BD0149A81
:1049E00013999047761C62E06002400F022807D0BE
:1049F00003280AD0042838680AD006603F1D56E014
:104A00003868F11706604160F8E738680680F5E716
:104A10000670F3E73878694608740020487404A8E3
:104A20000390012003E0386803900020C0433F1D3D
:104A300061070FD5002101E00199491C029A0191FB
:104A4000914213DA8142F7DB019A0399895C0029CC
:104A5000F2D10BE0002101E00199491C0191814252
:104A6000FADB019A0399895C0029F5D10199009834
:104A7000139A401A00902146149B00F03BF90199CB
:104A80008019461807E0039803990078491C0391A0
:104A9000149A139990470198401E0190401CF2D13E
:104AA0002146149B139A009800F014F986196D1C86
:104AB00009E741E033E034E00A2000210490059149
:104AC0006002410F022905D001CFC2179446032985
:104AD00005D007E0FF1DFF08FF0003CF06E000B28E
:104AE000C2179446042902D140B2C1178C46002255
:104AF0006146944506DA0A460021404291418C46BF
:104B00002D2102E0210504D52B216A4611760121D1
:104B100003E0E10701D02021F7E7019154E00A20EA
:104B20000BE0102009E01020049000210420044331
:104B300008200591029003E00820002105910490CF
:104B40006002410F022905D001CF002294460329BB
:104B500006D006E0FF1DFF08FF0003CF8C4603E0F0
:104B600080B2042900D1C0B20021019121072BD5C8
:104B70000399702906D0049A1021059B4A401A43D4
:104B800005D00EE040216A461176012108E0614619
:104B9000014306D030216A461176039951760221ED
:104BA0000191049A0821059B4A401A430CD16146A1
:104BB000014301D1610707D530216A4611760121F1
:104BC00001910299491E02910399582904D037A1F5
:104BD00003910FA90F910DE039A1F9E76146059BFB
:104BE000049AFBF7DCFA039B8C469B5C0F9A521EDF
:104BF0000F92137061460143F0D10F9807A9081A6C
:104C000020300390600704D50120000484430298FB
:104C100001E0012002900399884201DD401A00E082
:104C2000002041180290019809180098401A00903D
:104C3000E00306D42146149B139A009800F05AF81A
:104C400086190020049008E006A9085C149A1399BC
:104C500090470498401C761C049001998842F3DB2D
:104C6000E0030CD52146149B139A009800F042F8FB
:104C7000861904E0149A302013999047761C029903
:104C8000481E02900029F5DC08E00F980F99007883
:104C9000491C0F91149A13999047761C0399481E4A
:104CA00003900029F1DCFBE60928010030313233A2
:104CB0003435363738396162636465660000000058
:104CC0003031323334353637383941424344454642
:104CD00000000000F8B5044600251E46174688046B
:104CE00004D405E039462020B0476D1C641EF9D578
:104CF0002846F8BDFFB50446002581B01E46C8030E
:104D000001D5302700E02027880404D505E0384687
:104D10000399B0476D1C641EF9D5284605B0F0BD57
:104D200010B5044601E0FFF745FD2078641C0349F7
:104D30000028F8D10A20FFF73DFD10BD000000203B
:104D4000000000000000000001020304060708093B
:104D500002030405060708090A0B0C0D0E0F1010BC
:104D60000102030405060708090A0B0C0D0E0F10BB
:104D7000904D000800000020080100008C48000849
:104D8000984E000808010020980B00009C4800087D
:104D900000000000E9390008193A0008253A000827
:104DA0004D3A00087D3A0008C9390008F539000875
:104DB00005010906A101050719E029E715002501EC
:104DC000950875018102950175088103950675089E
:104DD00025FF190029658100C000000000127A003B
:104DE0008C5A3532310000001201000200000040F0
:104DF00083042B5700020102030100005D3C000800
:104E0000233C0008B53C0008000000000000000042
:104E1000173C000800000000000000000000000037
:104E200000000000453C0008453C0008453C0008E7
:104E3000513C000809022900010100C032090400A8
:104E400000020301010009211101000122290007CC
:104E500005810308000A0705010301000A0000009C
:104E60000921110100012229000000000A060002A8
:104E70000000004001000000040309041A030000C0
:104E80000000000000000000000000000000000022
:084E900000000000000000001A
:04000005080000C12E
:00000001FF
