Component: ARM Compiler 6.10.1 Tool: armlink [5d142800]

==============================================================================

Section Cross References

    startup_stm32f103xb.o(RESET) refers to startup_stm32f103xb.o(STACK) for __initial_sp
    startup_stm32f103xb.o(RESET) refers to startup_stm32f103xb.o(.text) for Reset_Handler
    startup_stm32f103xb.o(RESET) refers to stm32f1xx_it.o(.text.NMI_Handler) for NMI_Handler
    startup_stm32f103xb.o(RESET) refers to stm32f1xx_it.o(.text.HardFault_Handler) for HardFault_Handler
    startup_stm32f103xb.o(RESET) refers to stm32f1xx_it.o(.text.MemManage_Handler) for MemManage_Handler
    startup_stm32f103xb.o(RESET) refers to stm32f1xx_it.o(.text.BusFault_Handler) for BusFault_Handler
    startup_stm32f103xb.o(RESET) refers to stm32f1xx_it.o(.text.UsageFault_Handler) for UsageFault_Handler
    startup_stm32f103xb.o(RESET) refers to stm32f1xx_it.o(.text.SVC_Handler) for SVC_Handler
    startup_stm32f103xb.o(RESET) refers to stm32f1xx_it.o(.text.DebugMon_Handler) for DebugMon_Handler
    startup_stm32f103xb.o(RESET) refers to stm32f1xx_it.o(.text.PendSV_Handler) for PendSV_Handler
    startup_stm32f103xb.o(RESET) refers to stm32f1xx_it.o(.text.SysTick_Handler) for SysTick_Handler
    startup_stm32f103xb.o(RESET) refers to key_scan.o(.text.EXTI2_IRQHandler) for EXTI2_IRQHandler
    startup_stm32f103xb.o(RESET) refers to key_scan.o(.text.EXTI9_5_IRQHandler) for EXTI9_5_IRQHandler
    startup_stm32f103xb.o(RESET) refers to key_scan.o(.text.EXTI15_10_IRQHandler) for EXTI15_10_IRQHandler
    startup_stm32f103xb.o(.text) refers to system_stm32f1xx.o(.text.SystemInit) for SystemInit
    startup_stm32f103xb.o(.text) refers to entry.o(.ARM.Collect$$$$00000000) for __main
    main.o(.text.main) refers to stm32f1xx_hal.o(.text.HAL_Init) for HAL_Init
    main.o(.text.main) refers to memseta.o(.text) for __aeabi_memclr4
==============================================================================

Removing Unused input sections from the image.

    Removing startup_stm32f103xb.o(HEAP), (2048 bytes).
    Removing main.o(.text), (0 bytes).
    Removing main.o(.ARM.exidx.text.main), (8 bytes).
    Removing main.o(.text.SystemClock_Config), (70 bytes).
    Removing main.o(.ARM.exidx.text.SystemClock_Config), (8 bytes).
    Removing main.o(.ARM.exidx.text.Error_Handler), (8 bytes).
    Removing main.o(.ARM.use_no_argv), (4 bytes).
    Removing gpio.o(.text), (0 bytes).
    Removing gpio.o(.ARM.exidx.text.MX_GPIO_Init), (8 bytes).
    Removing spi.o(.text), (0 bytes).
    Removing spi.o(.ARM.exidx.text.MX_SPI1_Init), (8 bytes).
    Removing spi.o(.ARM.exidx.text.HAL_SPI_MspInit), (8 bytes).
    Removing spi.o(.text.HAL_SPI_MspDeInit), (44 bytes).
    Removing spi.o(.ARM.exidx.text.HAL_SPI_MspDeInit), (8 bytes).
    Removing stm32f1xx_it.o(.text), (0 bytes).
    Removing stm32f1xx_it.o(.ARM.exidx.text.NMI_Handler), (8 bytes).
    Removing stm32f1xx_it.o(.ARM.exidx.text.HardFault_Handler), (8 bytes).
    Removing stm32f1xx_it.o(.ARM.exidx.text.MemManage_Handler), (8 bytes).
==============================================================================

Image Symbol Table

    Local Symbols

    Symbol Name                              Value     Ov Type        Size  Object(Section)

    ../clib/microlib/init/entry.s            0x00000000   Number         0  entry5.o ABSOLUTE
    ../clib/microlib/init/entry.s            0x00000000   Number         0  entry11b.o ABSOLUTE
    ../clib/microlib/init/entry.s            0x00000000   Number         0  entry8a.o ABSOLUTE
    ../clib/microlib/init/entry.s            0x00000000   Number         0  entry7a.o ABSOLUTE
    ../clib/microlib/init/entry.s            0x00000000   Number         0  entry2.o ABSOLUTE
    ../clib/microlib/init/entry.s            0x00000000   Number         0  entry7b.o ABSOLUTE
    ../clib/microlib/init/entry.s            0x00000000   Number         0  entry8b.o ABSOLUTE
    ../clib/microlib/init/entry.s            0x00000000   Number         0  entry9a.o ABSOLUTE
    ../clib/microlib/init/entry.s            0x00000000   Number         0  entry9b.o ABSOLUTE
    ../clib/microlib/init/entry.s            0x00000000   Number         0  entry10a.o ABSOLUTE
    ../clib/microlib/init/entry.s            0x00000000   Number         0  entry10b.o ABSOLUTE
    ../clib/microlib/init/entry.s            0x00000000   Number         0  entry11a.o ABSOLUTE
    ../clib/microlib/init/entry.s            0x00000000   Number         0  entry.o ABSOLUTE
    ../clib/microlib/string/memset.c         0x00000000   Number         0  memseta.o ABSOLUTE
    24l01.c                                  0x00000000   Number         0  24l01.o ABSOLUTE
    KEY_scan.c                               0x00000000   Number         0  key_scan.o ABSOLUTE
    PWR.c                                    0x00000000   Number         0  pwr.o ABSOLUTE
    dc.s                                     0x00000000   Number         0  dc.o ABSOLUTE
    gpio.c                                   0x00000000   Number         0  gpio.o ABSOLUTE
    handlers.s                               0x00000000   Number         0  handlers.o ABSOLUTE
    init.s                                   0x00000000   Number         0  init.o ABSOLUTE
    main.c                                   0x00000000   Number         0  main.o ABSOLUTE
    spi.c                                    0x00000000   Number         0  spi.o ABSOLUTE
    startup_stm32f103xb.s                    0x00000000   Number         0  startup_stm32f103xb.o ABSOLUTE
    stm32f1xx_hal.c                          0x00000000   Number         0  stm32f1xx_hal.o ABSOLUTE
    stm32f1xx_hal_cortex.c                   0x00000000   Number         0  stm32f1xx_hal_cortex.o ABSOLUTE
    stm32f1xx_hal_dma.c                      0x00000000   Number         0  stm32f1xx_hal_dma.o ABSOLUTE
    stm32f1xx_hal_flash.c                    0x00000000   Number         0  stm32f1xx_hal_flash.o ABSOLUTE
    stm32f1xx_hal_flash_ex.c                 0x00000000   Number         0  stm32f1xx_hal_flash_ex.o ABSOLUTE
    stm32f1xx_hal_gpio.c                     0x00000000   Number         0  stm32f1xx_hal_gpio.o ABSOLUTE
    stm32f1xx_hal_gpio_ex.c                  0x00000000   Number         0  stm32f1xx_hal_gpio_ex.o ABSOLUTE
    stm32f1xx_hal_msp.c                      0x00000000   Number         0  stm32f1xx_hal_msp.o ABSOLUTE
    stm32f1xx_hal_pwr.c                      0x00000000   Number         0  stm32f1xx_hal_pwr.o ABSOLUTE
    stm32f1xx_hal_rcc.c                      0x00000000   Number         0  stm32f1xx_hal_rcc.o ABSOLUTE
    stm32f1xx_hal_rcc_ex.c                   0x00000000   Number         0  stm32f1xx_hal_rcc_ex.o ABSOLUTE
    stm32f1xx_hal_spi.c                      0x00000000   Number         0  stm32f1xx_hal_spi.o ABSOLUTE
    stm32f1xx_hal_spi_ex.c                   0x00000000   Number         0  stm32f1xx_hal_spi_ex.o ABSOLUTE
    stm32f1xx_hal_tim.c                      0x00000000   Number         0  stm32f1xx_hal_tim.o ABSOLUTE
    stm32f1xx_hal_tim_ex.c                   0x00000000   Number         0  stm32f1xx_hal_tim_ex.o ABSOLUTE
    stm32f1xx_it.c                           0x00000000   Number         0  stm32f1xx_it.o ABSOLUTE
    system_stm32f1xx.c                       0x00000000   Number         0  system_stm32f1xx.o ABSOLUTE
    RESET                                    0x08000000   Section      236  startup_stm32f103xb.o(RESET)
    .ARM.Collect$$$$00000000                 0x080000ec   Section        0  entry.o(.ARM.Collect$$$$00000000)
    .ARM.Collect$$$$00000001                 0x080000ec   Section        4  entry2.o(.ARM.Collect$$$$00000001)
    .ARM.Collect$$$$00000004                 0x080000f0   Section        4  entry5.o(.ARM.Collect$$$$00000004)
    .ARM.Collect$$$$00000008                 0x080000f4   Section        0  entry7b.o(.ARM.Collect$$$$00000008)
    .ARM.Collect$$$$0000000A                 0x080000f4   Section        0  entry8b.o(.ARM.Collect$$$$0000000A)
    .ARM.Collect$$$$0000000B                 0x080000f4   Section        8  entry9a.o(.ARM.Collect$$$$0000000B)
    .ARM.Collect$$$$0000000D                 0x080000fc   Section        0  entry10a.o(.ARM.Collect$$$$0000000D)
    .ARM.Collect$$$$0000000F                 0x080000fc   Section        0  entry11a.o(.ARM.Collect$$$$0000000F)
    .ARM.Collect$$$$00002712                 0x080000fc   Section        4  entry2.o(.ARM.Collect$$$$00002712)
    __lit__00000000                          0x080000fc   Data           4  entry2.o(.ARM.Collect$$$$00002712)
    .text                                    0x08000100   Section       36  startup_stm32f103xb.o(.text)
    .text                                    0x08000124   Section        0  memseta.o(.text)
    .text                                    0x08000148   Section       36  init.o(.text)
    [Anonymous Symbol]                       0x0800016c   Section        0  stm32f1xx_it.o(.text.BusFault_Handler)
    [Anonymous Symbol]                       0x08000238   Section        0  stm32f1xx_it.o(.text.DebugMon_Handler)
    [Anonymous Symbol]                       0x0800023c   Section        0  key_scan.o(.text.EXTI15_10_IRQHandler)
    [Anonymous Symbol]                       0x08000274   Section        0  key_scan.o(.text.EXTI2_IRQHandler)
    [Anonymous Symbol]                       0x0800027c   Section        0  key_scan.o(.text.EXTI9_5_IRQHandler)
    [Anonymous Symbol]                       0x08000298   Section        0  pwr.o(.text.Enter_STOP)
    [Anonymous Symbol]                       0x080002d4   Section        0  main.o(.text.Error_Handler)
    [Anonymous Symbol]                       0x080002d8   Section        0  key_scan.o(.text.Get_KEY_value)
    [Anonymous Symbol]                       0x08000424   Section        0  stm32f1xx_hal.o(.text.HAL_Delay)
    [Anonymous Symbol]                       0x0800044c   Section        0  stm32f1xx_hal_gpio.o(.text.HAL_GPIO_EXTI_Callback)
    [Anonymous Symbol]                       0x08000450   Section        0  stm32f1xx_hal_gpio.o(.text.HAL_GPIO_EXTI_IRQHandler)
    [Anonymous Symbol]                       0x08000468   Section        0  stm32f1xx_hal_gpio.o(.text.HAL_GPIO_Init)
    [Anonymous Symbol]                       0x08000680   Section        0  stm32f1xx_hal_gpio.o(.text.HAL_GPIO_WritePin)
    [Anonymous Symbol]                       0x0800068c   Section        0  stm32f1xx_hal.o(.text.HAL_GetTick)
    [Anonymous Symbol]                       0x08000698   Section        0  stm32f1xx_hal.o(.text.HAL_IncTick)
    [Anonymous Symbol]                       0x080006ac   Section        0  stm32f1xx_hal.o(.text.HAL_Init)
    [Anonymous Symbol]                       0x080006d4   Section        0  stm32f1xx_hal.o(.text.HAL_InitTick)
    [Anonymous Symbol]                       0x08000718   Section        0  stm32f1xx_hal_msp.o(.text.HAL_MspInit)
    [Anonymous Symbol]                       0x08000764   Section        0  stm32f1xx_hal_cortex.o(.text.HAL_NVIC_EnableIRQ)
    [Anonymous Symbol]                       0x08000780   Section        0  stm32f1xx_hal_cortex.o(.text.HAL_NVIC_SetPriority)
    [Anonymous Symbol]                       0x080007e4   Section        0  stm32f1xx_hal_cortex.o(.text.HAL_NVIC_SetPriorityGrouping)
    [Anonymous Symbol]                       0x08000804   Section        0  stm32f1xx_hal_cortex.o(.text.HAL_NVIC_SystemReset)
    [Anonymous Symbol]                       0x08000808   Section        0  stm32f1xx_hal_pwr.o(.text.HAL_PWR_EnterSTOPMode)
    [Anonymous Symbol]                       0x0800085c   Section        0  stm32f1xx_hal_rcc.o(.text.HAL_RCC_ClockConfig)
    [Anonymous Symbol]                       0x08000a3c   Section        0  stm32f1xx_hal_rcc.o(.text.HAL_RCC_EnableCSS)
    [Anonymous Symbol]                       0x08000a48   Section        0  stm32f1xx_hal_rcc.o(.text.HAL_RCC_OscConfig)
    [Anonymous Symbol]                       0x08000ec4   Section        0  stm32f1xx_hal_spi_ex.o(.text.HAL_SPI_Init)
    [Anonymous Symbol]                       0x08000f44   Section        0  spi.o(.text.HAL_SPI_MspInit)
    [Anonymous Symbol]                       0x08000fd0   Section        0  stm32f1xx_hal_spi.o(.text.HAL_SPI_TransmitReceive)
    [Anonymous Symbol]                       0x08001364   Section        0  stm32f1xx_hal_cortex.o(.text.HAL_SYSTICK_Config)
    [Anonymous Symbol]                       0x08001390   Section        0  stm32f1xx_it.o(.text.HardFault_Handler)
    [Anonymous Symbol]                       0x08001414   Section        0  key_scan.o(.text.KEY_IO_Init)
    [Anonymous Symbol]                       0x08001484   Section        0  key_scan.o(.text.KEY_IO_LOW)
    [Anonymous Symbol]                       0x080014f8   Section        0  key_scan.o(.text.KEY_Send)
    [Anonymous Symbol]                       0x08001504   Section        0  key_scan.o(.text.KEY_handler)
    [Anonymous Symbol]                       0x080017f8   Section        0  gpio.o(.text.MX_GPIO_Init)
    [Anonymous Symbol]                       0x080019b0   Section        0  spi.o(.text.MX_SPI1_Init)
    [Anonymous Symbol]                       0x080019f8   Section        0  stm32f1xx_it.o(.text.MemManage_Handler)
    [Anonymous Symbol]                       0x08001aa0   Section        0  stm32f1xx_it.o(.text.NMI_Handler)
    [Anonymous Symbol]                       0x08001aa4   Section        0  24l01.o(.text.NRF24L01_Init)
    [Anonymous Symbol]                       0x08001c7c   Section        0  24l01.o(.text.NRF24L01_POWER_Mode)
    [Anonymous Symbol]                       0x08001d20   Section        0  24l01.o(.text.NRF24L01_TX_Mode)
    [Anonymous Symbol]                       0x080020a8   Section        0  24l01.o(.text.NRF24L01_TxPacket)
    [Anonymous Symbol]                       0x08002278   Section        0  24l01.o(.text.NRF_IRQHandler)
    [Anonymous Symbol]                       0x080023a8   Section        0  stm32f1xx_hal_cortex.o(.text.NVIC_SystemReset)
    NVIC_SystemReset                         0x080023a9   Thumb Code    36  stm32f1xx_hal_cortex.o(.text.NVIC_SystemReset)
    [Anonymous Symbol]                       0x080023cc   Section        0  stm32f1xx_hal_pwr.o(.text.PWR_OverloadWfe)
    PWR_OverloadWfe                          0x080023cd   Thumb Code     6  stm32f1xx_hal_pwr.o(.text.PWR_OverloadWfe)
    [Anonymous Symbol]                       0x080023d4   Section        0  stm32f1xx_it.o(.text.PendSV_Handler)
    [Anonymous Symbol]                       0x080023d8   Section        0  stm32f1xx_it.o(.text.SVC_Handler)
    [Anonymous Symbol]                       0x080023dc   Section        0  stm32f1xx_it.o(.text.SysTick_Handler)
    [Anonymous Symbol]                       0x080023e0   Section        0  system_stm32f1xx.o(.text.SystemInit)
    [Anonymous Symbol]                       0x08002430   Section        0  stm32f1xx_it.o(.text.UsageFault_Handler)
    [Anonymous Symbol]                       0x08002520   Section        0  main.o(.text.main)
    i.__scatterload_copy                     0x0800260a   Section       14  handlers.o(i.__scatterload_copy)
    i.__scatterload_null                     0x08002618   Section        2  handlers.o(i.__scatterload_null)
    i.__scatterload_zeroinit                 0x0800261a   Section       14  handlers.o(i.__scatterload_zeroinit)
    [Anonymous Symbol]                       0x08002638   Section        0  stm32f1xx_hal_rcc.o(.rodata.HAL_RCC_GetSysClockFreq.aPredivFactorTable)
    HAL_RCC_GetSysClockFreq.aPredivFactorTable 0x08002638   Data           2  stm32f1xx_hal_rcc.o(.rodata.HAL_RCC_GetSysClockFreq.aPredivFactorTable)
    HAL_RCC_GetSysClockFreq.aPLLMULFactorTable 0x0800263a   Data          16  stm32f1xx_hal_rcc.o(.rodata.cst16)
    [Anonymous Symbol]                       0x20000000   Section        0  main.o(.data..L_MergedGlobals)
    .L_MergedGlobals                         0x20000000   Data          12  main.o(.data..L_MergedGlobals)
    [Anonymous Symbol]                       0x2000000c   Section        0  stm32f1xx_hal.o(.data..L_MergedGlobals)
    .L_MergedGlobals                         0x2000000c   Data          12  stm32f1xx_hal.o(.data..L_MergedGlobals)
    [Anonymous Symbol]                       0x20000030   Section        0  24l01.o(.bss..L_MergedGlobals)
    .L_MergedGlobals                         0x20000030   Data           4  24l01.o(.bss..L_MergedGlobals)
    [Anonymous Symbol]                       0x20000040   Section        0  key_scan.o(.bss..L_MergedGlobals)
    .L_MergedGlobals                         0x20000040   Data          46  key_scan.o(.bss..L_MergedGlobals)
    [Anonymous Symbol]                       0x2000006e   Section        0  key_scan.o(.bss.KEY_handler.gflag)
    KEY_handler.gflag                        0x2000006e   Data           1  key_scan.o(.bss.KEY_handler.gflag)
    STACK                                    0x20000150   Section     2048  startup_stm32f103xb.o(STACK)

    Global Symbols

    Symbol Name                              Value     Ov Type        Size  Object(Section)

    BuildAttributes$$THM_ISAv4$P$D$K$B$S$PE$A:L22UL41UL21$X:L11$S22US41US21$IEEE1$IW$~IW$USESV6$~STKCKD$USESV7$~SHL$OTIME$EBA8$MICROLIB$REQ8$PRES8$EABIv2 0x00000000   Number         0  anon$$obj.o ABSOLUTE
    __cpp_initialize__aeabi_                  - Undefined Weak Reference
    __cxa_finalize                            - Undefined Weak Reference
    __decompress                              - Undefined Weak Reference
    _clock_init                               - Undefined Weak Reference
    _microlib_exit                            - Undefined Weak Reference
    __Vectors_Size                           0x000000ec   Number         0  startup_stm32f103xb.o ABSOLUTE
    __Vectors                                0x08000000   Data           4  startup_stm32f103xb.o(RESET)
    __Vectors_End                            0x080000ec   Data           0  startup_stm32f103xb.o(RESET)
    __main                                   0x080000ed   Thumb Code     0  entry.o(.ARM.Collect$$$$00000000)
    _main_stk                                0x080000ed   Thumb Code     0  entry2.o(.ARM.Collect$$$$00000001)
    _main_scatterload                        0x080000f1   Thumb Code     0  entry5.o(.ARM.Collect$$$$00000004)
    __main_after_scatterload                 0x080000f5   Thumb Code     0  entry5.o(.ARM.Collect$$$$00000004)
    _main_clock                              0x080000f5   Thumb Code     0  entry7b.o(.ARM.Collect$$$$00000008)
    _main_cpp_init                           0x080000f5   Thumb Code     0  entry8b.o(.ARM.Collect$$$$0000000A)
    _main_init                               0x080000f5   Thumb Code     0  entry9a.o(.ARM.Collect$$$$0000000B)
    __rt_final_cpp                           0x080000fd   Thumb Code     0  entry10a.o(.ARM.Collect$$$$0000000D)
    __rt_final_exit                          0x080000fd   Thumb Code     0  entry11a.o(.ARM.Collect$$$$0000000F)
    Reset_Handler                            0x08000101   Thumb Code     8  startup_stm32f103xb.o(.text)
    ADC1_2_IRQHandler                        0x0800011b   Thumb Code     0  startup_stm32f103xb.o(.text)
    CAN1_RX1_IRQHandler                      0x0800011b   Thumb Code     0  startup_stm32f103xb.o(.text)
    CAN1_SCE_IRQHandler                      0x0800011b   Thumb Code     0  startup_stm32f103xb.o(.text)
    DMA1_Channel1_IRQHandler                 0x0800011b   Thumb Code     0  startup_stm32f103xb.o(.text)
    DMA1_Channel2_IRQHandler                 0x0800011b   Thumb Code     0  startup_stm32f103xb.o(.text)
    DMA1_Channel3_IRQHandler                 0x0800011b   Thumb Code     0  startup_stm32f103xb.o(.text)
    DMA1_Channel4_IRQHandler                 0x0800011b   Thumb Code     0  startup_stm32f103xb.o(.text)
    DMA1_Channel5_IRQHandler                 0x0800011b   Thumb Code     0  startup_stm32f103xb.o(.text)
    DMA1_Channel6_IRQHandler                 0x0800011b   Thumb Code     0  startup_stm32f103xb.o(.text)
    DMA1_Channel7_IRQHandler                 0x0800011b   Thumb Code     0  startup_stm32f103xb.o(.text)
    EXTI0_IRQHandler                         0x0800011b   Thumb Code     0  startup_stm32f103xb.o(.text)
    EXTI1_IRQHandler                         0x0800011b   Thumb Code     0  startup_stm32f103xb.o(.text)
    EXTI3_IRQHandler                         0x0800011b   Thumb Code     0  startup_stm32f103xb.o(.text)
    EXTI4_IRQHandler                         0x0800011b   Thumb Code     0  startup_stm32f103xb.o(.text)
    FLASH_IRQHandler                         0x0800011b   Thumb Code     0  startup_stm32f103xb.o(.text)
    I2C1_ER_IRQHandler                       0x0800011b   Thumb Code     0  startup_stm32f103xb.o(.text)
    I2C1_EV_IRQHandler                       0x0800011b   Thumb Code     0  startup_stm32f103xb.o(.text)
    I2C2_ER_IRQHandler                       0x0800011b   Thumb Code     0  startup_stm32f103xb.o(.text)
    I2C2_EV_IRQHandler                       0x0800011b   Thumb Code     0  startup_stm32f103xb.o(.text)
    PVD_IRQHandler                           0x0800011b   Thumb Code     0  startup_stm32f103xb.o(.text)
    RCC_IRQHandler                           0x0800011b   Thumb Code     0  startup_stm32f103xb.o(.text)
    RTC_Alarm_IRQHandler                     0x0800011b   Thumb Code     0  startup_stm32f103xb.o(.text)
    RTC_IRQHandler                           0x0800011b   Thumb Code     0  startup_stm32f103xb.o(.text)
    SPI1_IRQHandler                          0x0800011b   Thumb Code     0  startup_stm32f103xb.o(.text)
    SPI2_IRQHandler                          0x0800011b   Thumb Code     0  startup_stm32f103xb.o(.text)
    TAMPER_IRQHandler                        0x0800011b   Thumb Code     0  startup_stm32f103xb.o(.text)
    TIM1_BRK_IRQHandler                      0x0800011b   Thumb Code     0  startup_stm32f103xb.o(.text)
    TIM1_CC_IRQHandler                       0x0800011b   Thumb Code     0  startup_stm32f103xb.o(.text)
    TIM1_TRG_COM_IRQHandler                  0x0800011b   Thumb Code     0  startup_stm32f103xb.o(.text)
    TIM1_UP_IRQHandler                       0x0800011b   Thumb Code     0  startup_stm32f103xb.o(.text)
    TIM2_IRQHandler                          0x0800011b   Thumb Code     0  startup_stm32f103xb.o(.text)
    TIM3_IRQHandler                          0x0800011b   Thumb Code     0  startup_stm32f103xb.o(.text)
    TIM4_IRQHandler                          0x0800011b   Thumb Code     0  startup_stm32f103xb.o(.text)
    USART1_IRQHandler                        0x0800011b   Thumb Code     0  startup_stm32f103xb.o(.text)
    USART2_IRQHandler                        0x0800011b   Thumb Code     0  startup_stm32f103xb.o(.text)
    USART3_IRQHandler                        0x0800011b   Thumb Code     0  startup_stm32f103xb.o(.text)
    USBWakeUp_IRQHandler                     0x0800011b   Thumb Code     0  startup_stm32f103xb.o(.text)
    USB_HP_CAN1_TX_IRQHandler                0x0800011b   Thumb Code     0  startup_stm32f103xb.o(.text)
    USB_LP_CAN1_RX0_IRQHandler               0x0800011b   Thumb Code     0  startup_stm32f103xb.o(.text)
    WWDG_IRQHandler                          0x0800011b   Thumb Code     0  startup_stm32f103xb.o(.text)
    __aeabi_memset                           0x08000125   Thumb Code    14  memseta.o(.text)
    __aeabi_memset4                          0x08000125   Thumb Code     0  memseta.o(.text)
    __aeabi_memset8                          0x08000125   Thumb Code     0  memseta.o(.text)
    __aeabi_memclr                           0x08000133   Thumb Code     4  memseta.o(.text)
    __aeabi_memclr4                          0x08000133   Thumb Code     0  memseta.o(.text)
    __aeabi_memclr8                          0x08000133   Thumb Code     0  memseta.o(.text)
    _memset$wrapper                          0x08000137   Thumb Code    18  memseta.o(.text)
    __scatterload                            0x08000149   Thumb Code    28  init.o(.text)
    __scatterload_rt2                        0x08000149   Thumb Code     0  init.o(.text)
    BusFault_Handler                         0x0800016d   Thumb Code   202  stm32f1xx_it.o(.text.BusFault_Handler)
    DebugMon_Handler                         0x08000239   Thumb Code     2  stm32f1xx_it.o(.text.DebugMon_Handler)
    EXTI15_10_IRQHandler                     0x0800023d   Thumb Code    54  key_scan.o(.text.EXTI15_10_IRQHandler)
    EXTI2_IRQHandler                         0x08000275   Thumb Code     6  key_scan.o(.text.EXTI2_IRQHandler)
    EXTI9_5_IRQHandler                       0x0800027d   Thumb Code    28  key_scan.o(.text.EXTI9_5_IRQHandler)
    Enter_STOP                               0x08000299   Thumb Code    58  pwr.o(.text.Enter_STOP)
    Error_Handler                            0x080002d5   Thumb Code     2  main.o(.text.Error_Handler)
    Get_KEY_value                            0x080002d9   Thumb Code   332  key_scan.o(.text.Get_KEY_value)
    HAL_Delay                                0x08000425   Thumb Code    40  stm32f1xx_hal.o(.text.HAL_Delay)
    HAL_GPIO_EXTI_Callback                   0x0800044d   Thumb Code     2  stm32f1xx_hal_gpio.o(.text.HAL_GPIO_EXTI_Callback)
    HAL_GPIO_EXTI_IRQHandler                 0x08000451   Thumb Code    22  stm32f1xx_hal_gpio.o(.text.HAL_GPIO_EXTI_IRQHandler)
    HAL_GPIO_Init                            0x08000469   Thumb Code   534  stm32f1xx_hal_gpio.o(.text.HAL_GPIO_Init)
    HAL_GPIO_WritePin                        0x08000681   Thumb Code    10  stm32f1xx_hal_gpio.o(.text.HAL_GPIO_WritePin)
    HAL_GetTick                              0x0800068d   Thumb Code    12  stm32f1xx_hal.o(.text.HAL_GetTick)
    HAL_IncTick                              0x08000699   Thumb Code    18  stm32f1xx_hal.o(.text.HAL_IncTick)
    HAL_Init                                 0x080006ad   Thumb Code    38  stm32f1xx_hal.o(.text.HAL_Init)
    HAL_InitTick                             0x080006d5   Thumb Code    68  stm32f1xx_hal.o(.text.HAL_InitTick)
    HAL_MspInit                              0x08000719   Thumb Code    74  stm32f1xx_hal_msp.o(.text.HAL_MspInit)
    HAL_NVIC_EnableIRQ                       0x08000765   Thumb Code    26  stm32f1xx_hal_cortex.o(.text.HAL_NVIC_EnableIRQ)
    HAL_NVIC_SetPriority                     0x08000781   Thumb Code   100  stm32f1xx_hal_cortex.o(.text.HAL_NVIC_SetPriority)
    HAL_NVIC_SetPriorityGrouping             0x080007e5   Thumb Code    32  stm32f1xx_hal_cortex.o(.text.HAL_NVIC_SetPriorityGrouping)
    HAL_NVIC_SystemReset                     0x08000805   Thumb Code     4  stm32f1xx_hal_cortex.o(.text.HAL_NVIC_SystemReset)
    HAL_PWR_EnterSTOPMode                    0x08000809   Thumb Code    82  stm32f1xx_hal_pwr.o(.text.HAL_PWR_EnterSTOPMode)
    HAL_RCC_ClockConfig                      0x0800085d   Thumb Code   480  stm32f1xx_hal_rcc.o(.text.HAL_RCC_ClockConfig)
    HAL_RCC_EnableCSS                        0x08000a3d   Thumb Code    12  stm32f1xx_hal_rcc.o(.text.HAL_RCC_EnableCSS)
    HAL_RCC_OscConfig                        0x08000a49   Thumb Code  1148  stm32f1xx_hal_rcc.o(.text.HAL_RCC_OscConfig)
    HAL_SPI_Init                             0x08000ec5   Thumb Code   128  stm32f1xx_hal_spi_ex.o(.text.HAL_SPI_Init)
    HAL_SPI_MspInit                          0x08000f45   Thumb Code   140  spi.o(.text.HAL_SPI_MspInit)
    HAL_SPI_TransmitReceive                  0x08000fd1   Thumb Code   914  stm32f1xx_hal_spi.o(.text.HAL_SPI_TransmitReceive)
    HAL_SYSTICK_Config                       0x08001365   Thumb Code    44  stm32f1xx_hal_cortex.o(.text.HAL_SYSTICK_Config)
    HardFault_Handler                        0x08001391   Thumb Code   130  stm32f1xx_it.o(.text.HardFault_Handler)
    KEY_IO_Init                              0x08001415   Thumb Code   110  key_scan.o(.text.KEY_IO_Init)
    KEY_IO_LOW                               0x08001485   Thumb Code   116  key_scan.o(.text.KEY_IO_LOW)
    KEY_Send                                 0x080014f9   Thumb Code    12  key_scan.o(.text.KEY_Send)
    KEY_handler                              0x08001505   Thumb Code   754  key_scan.o(.text.KEY_handler)
    MX_GPIO_Init                             0x080017f9   Thumb Code   438  gpio.o(.text.MX_GPIO_Init)
    MX_SPI1_Init                             0x080019b1   Thumb Code    72  spi.o(.text.MX_SPI1_Init)
    MemManage_Handler                        0x080019f9   Thumb Code   166  stm32f1xx_it.o(.text.MemManage_Handler)
    NMI_Handler                              0x08001aa1   Thumb Code     2  stm32f1xx_it.o(.text.NMI_Handler)
    NRF24L01_Init                            0x08001aa5   Thumb Code   472  24l01.o(.text.NRF24L01_Init)
    NRF24L01_POWER_Mode                      0x08001c7d   Thumb Code   162  24l01.o(.text.NRF24L01_POWER_Mode)
    NRF24L01_TX_Mode                         0x08001d21   Thumb Code   902  24l01.o(.text.NRF24L01_TX_Mode)
    NRF24L01_TxPacket                        0x080020a9   Thumb Code   462  24l01.o(.text.NRF24L01_TxPacket)
    NRF_IRQHandler                           0x08002279   Thumb Code   304  24l01.o(.text.NRF_IRQHandler)
    PendSV_Handler                           0x080023d5   Thumb Code     2  stm32f1xx_it.o(.text.PendSV_Handler)
    SVC_Handler                              0x080023d9   Thumb Code     2  stm32f1xx_it.o(.text.SVC_Handler)
    SysTick_Handler                          0x080023dd   Thumb Code     4  stm32f1xx_it.o(.text.SysTick_Handler)
    SystemInit                               0x080023e1   Thumb Code    80  system_stm32f1xx.o(.text.SystemInit)
    UsageFault_Handler                       0x08002431   Thumb Code   238  stm32f1xx_it.o(.text.UsageFault_Handler)
    main                                     0x08002521   Thumb Code   234  main.o(.text.main)
    __scatterload_copy                       0x0800260b   Thumb Code    14  handlers.o(i.__scatterload_copy)
    __scatterload_null                       0x08002619   Thumb Code     2  handlers.o(i.__scatterload_null)
    __scatterload_zeroinit                   0x0800261b   Thumb Code    14  handlers.o(i.__scatterload_zeroinit)
    AHBPrescTable                            0x08002628   Data          16  system_stm32f1xx.o(.rodata.AHBPrescTable)
    Region$$Table$$Base                      0x0800264c   Number         0  anon$$obj.o(Region$$Table)
    Region$$Table$$Limit                     0x0800266c   Number         0  anon$$obj.o(Region$$Table)
    key_time_check                           0x20000000   Data           4  main.o(.data..L_MergedGlobals)
    key_time_last                            0x20000004   Data           4  main.o(.data..L_MergedGlobals)
    led_time_last                            0x20000008   Data           4  main.o(.data..L_MergedGlobals)
    uwTickFreq                               0x2000000c   Data           1  stm32f1xx_hal.o(.data..L_MergedGlobals)
    uwTickPrio                               0x20000010   Data           4  stm32f1xx_hal.o(.data..L_MergedGlobals)
    uwTick                                   0x20000014   Data           4  stm32f1xx_hal.o(.data..L_MergedGlobals)
    SystemCoreClock                          0x20000018   Data           4  system_stm32f1xx.o(.data.SystemCoreClock)
    TEST_ADDRESS                             0x2000001c   Data           5  24l01.o(.data.TEST_ADDRESS)
    NRF24L01_TX_OK                           0x20000030   Data           1  24l01.o(.bss..L_MergedGlobals)
    NRF24L01_TX_start                        0x20000032   Data           2  24l01.o(.bss..L_MergedGlobals)
    offset                                   0x20000040   Data           1  key_scan.o(.bss..L_MergedGlobals)
    Key_buf_out                              0x20000042   Data          22  key_scan.o(.bss..L_MergedGlobals)
    Key_buf                                  0x20000058   Data          22  key_scan.o(.bss..L_MergedGlobals)
    Send_buf                                 0x20000070   Data         132  key_scan.o(.bss.Send_buf)
    hspi1                                    0x200000f4   Data          88  spi.o(.bss.hspi1)
    __initial_sp                             0x20000950   Data           0  startup_stm32f103xb.o(STACK)



==============================================================================

Memory Map of the image

  Image Entry point : 0x080000ed

  Load Region LR_IROM1 (Base: 0x08000000, Size: 0x000026a0, Max: 0x00010000, ABSOLUTE)

    Execution Region ER_IROM1 (Exec base: 0x08000000, Load base: 0x08000000, Size: 0x0000266c, Max: 0x00010000, ABSOLUTE)

    Exec Addr    Load Addr    Size         Type   Attr      Idx    E Section Name        Object

    0x08000000   0x08000000   0x000000ec   Data   RO            3    RESET               startup_stm32f103xb.o
    0x080000ec   0x080000ec   0x00000000   Code   RO          681  * .ARM.Collect$$$$00000000  mc_w.l(entry.o)
    0x080000ec   0x080000ec   0x00000004   Code   RO          686    .ARM.Collect$$$$00000001  mc_w.l(entry2.o)
    0x080000f0   0x080000f0   0x00000004   Code   RO          689    .ARM.Collect$$$$00000004  mc_w.l(entry5.o)
    0x080000f4   0x080000f4   0x00000000   Code   RO          691    .ARM.Collect$$$$00000008  mc_w.l(entry7b.o)
    0x080000f4   0x080000f4   0x00000000   Code   RO          693    .ARM.Collect$$$$0000000A  mc_w.l(entry8b.o)
    0x080000f4   0x080000f4   0x00000008   Code   RO          694    .ARM.Collect$$$$0000000B  mc_w.l(entry9a.o)
    0x080000fc   0x080000fc   0x00000000   Code   RO          696    .ARM.Collect$$$$0000000D  mc_w.l(entry10a.o)
    0x080000fc   0x080000fc   0x00000000   Code   RO          698    .ARM.Collect$$$$0000000F  mc_w.l(entry11a.o)
    0x080000fc   0x080000fc   0x00000004   Code   RO          687    .ARM.Collect$$$$00002712  mc_w.l(entry2.o)
    0x08000100   0x08000100   0x00000024   Code   RO            4    .text               startup_stm32f103xb.o
    0x08000124   0x08000124   0x00000024   Code   RO          684    .text               mc_w.l(memseta.o)
    0x08000148   0x08000148   0x00000024   Code   RO          700    .text               mc_w.l(init.o)
    0x0800016c   0x0800016c   0x000000ca   Code   RO           67    .text.BusFault_Handler  stm32f1xx_it.o
    0x08000236   0x08000236   0x00000002   PAD
    0x08000238   0x08000238   0x00000002   Code   RO           73    .text.DebugMon_Handler  stm32f1xx_it.o
    0x0800023a   0x0800023a   0x00000002   PAD
    0x0800023c   0x0800023c   0x00000036   Code   RO          654    .text.EXTI15_10_IRQHandler  key_scan.o
    0x08000272   0x08000272   0x00000002   PAD
    0x08000274   0x08000274   0x00000006   Code   RO          650    .text.EXTI2_IRQHandler  key_scan.o
    0x0800027a   0x0800027a   0x00000002   PAD
    0x0800027c   0x0800027c   0x0000001c   Code   RO          652    .text.EXTI9_5_IRQHandler  key_scan.o
    0x08000298   0x08000298   0x0000003a   Code   RO          670    .text.Enter_STOP    pwr.o
    0x080002d2   0x080002d2   0x00000002   PAD
    0x080002d4   0x080002d4   0x00000002   Code   RO           15    .text.Error_Handler  main.o
    0x080002d6   0x080002d6   0x00000002   PAD
    0x080002d8   0x080002d8   0x0000014c   Code   RO          640    .text.Get_KEY_value  key_scan.o
    0x08000424   0x08000424   0x00000028   Code   RO          270    .text.HAL_Delay     stm32f1xx_hal.o
    0x0800044c   0x0800044c   0x00000002   Code   RO          380    .text.HAL_GPIO_EXTI_Callback  stm32f1xx_hal_gpio.o
    0x0800044e   0x0800044e   0x00000002   PAD
    0x08000450   0x08000450   0x00000016   Code   RO          378    .text.HAL_GPIO_EXTI_IRQHandler  stm32f1xx_hal_gpio.o
    0x08000466   0x08000466   0x00000002   PAD
    0x08000468   0x08000468   0x00000216   Code   RO          366    .text.HAL_GPIO_Init  stm32f1xx_hal_gpio.o
    0x0800067e   0x0800067e   0x00000002   PAD
    0x08000680   0x08000680   0x0000000a   Code   RO          372    .text.HAL_GPIO_WritePin  stm32f1xx_hal_gpio.o
    0x0800068a   0x0800068a   0x00000002   PAD
    0x0800068c   0x0800068c   0x0000000c   Code   RO          262    .text.HAL_GetTick   stm32f1xx_hal.o
    0x08000698   0x08000698   0x00000012   Code   RO          260    .text.HAL_IncTick   stm32f1xx_hal.o
    0x080006aa   0x080006aa   0x00000002   PAD
    0x080006ac   0x080006ac   0x00000026   Code   RO          250    .text.HAL_Init      stm32f1xx_hal.o
    0x080006d2   0x080006d2   0x00000002   PAD
    0x080006d4   0x080006d4   0x00000044   Code   RO          252    .text.HAL_InitTick  stm32f1xx_hal.o
    0x08000718   0x08000718   0x0000004a   Code   RO           90    .text.HAL_MspInit   stm32f1xx_hal_msp.o
    0x08000762   0x08000762   0x00000002   PAD
    0x08000764   0x08000764   0x0000001a   Code   RO          432    .text.HAL_NVIC_EnableIRQ  stm32f1xx_hal_cortex.o
    0x0800077e   0x0800077e   0x00000002   PAD
    0x08000780   0x08000780   0x00000064   Code   RO          430    .text.HAL_NVIC_SetPriority  stm32f1xx_hal_cortex.o
    0x080007e4   0x080007e4   0x00000020   Code   RO          428    .text.HAL_NVIC_SetPriorityGrouping  stm32f1xx_hal_cortex.o
    0x08000804   0x08000804   0x00000004   Code   RO          436    .text.HAL_NVIC_SystemReset  stm32f1xx_hal_cortex.o
    0x08000808   0x08000808   0x00000052   Code   RO          489    .text.HAL_PWR_EnterSTOPMode  stm32f1xx_hal_pwr.o
    0x0800085a   0x0800085a   0x00000002   PAD
    0x0800085c   0x0800085c   0x000001e0   Code   RO          312    .text.HAL_RCC_ClockConfig  stm32f1xx_hal_rcc.o
    0x08000a3c   0x08000a3c   0x0000000c   Code   RO          318    .text.HAL_RCC_EnableCSS  stm32f1xx_hal_rcc.o
    0x08000a48   0x08000a48   0x0000047c   Code   RO          310    .text.HAL_RCC_OscConfig  stm32f1xx_hal_rcc.o
    0x08000ec4   0x08000ec4   0x00000080   Code   RO          235    .text.HAL_SPI_Init  stm32f1xx_hal_spi_ex.o
    0x08000f44   0x08000f44   0x0000008c   Code   RO           45    .text.HAL_SPI_MspInit  spi.o
    0x08000fd0   0x08000fd0   0x00000392   Code   RO          132    .text.HAL_SPI_TransmitReceive  stm32f1xx_hal_spi.o
    0x08001362   0x08001362   0x00000002   PAD
    0x08001364   0x08001364   0x0000002c   Code   RO          440    .text.HAL_SYSTICK_Config  stm32f1xx_hal_cortex.o
    0x08001390   0x08001390   0x00000082   Code   RO           63    .text.HardFault_Handler  stm32f1xx_it.o
    0x08001412   0x08001412   0x00000002   PAD
    0x08001414   0x08001414   0x0000006e   Code   RO          648    .text.KEY_IO_Init   key_scan.o
    0x08001482   0x08001482   0x00000002   PAD
    0x08001484   0x08001484   0x00000074   Code   RO          646    .text.KEY_IO_LOW    key_scan.o
    0x080014f8   0x080014f8   0x0000000c   Code   RO          644    .text.KEY_Send      key_scan.o
    0x08001504   0x08001504   0x000002f2   Code   RO          642    .text.KEY_handler   key_scan.o
    0x080017f6   0x080017f6   0x00000002   PAD
    0x080017f8   0x080017f8   0x000001b6   Code   RO           30    .text.MX_GPIO_Init  gpio.o
    0x080019ae   0x080019ae   0x00000002   PAD
    0x080019b0   0x080019b0   0x00000048   Code   RO           43    .text.MX_SPI1_Init  spi.o
    0x080019f8   0x080019f8   0x000000a6   Code   RO           65    .text.MemManage_Handler  stm32f1xx_it.o
    0x08001a9e   0x08001a9e   0x00000002   PAD
    0x08001aa0   0x08001aa0   0x00000002   Code   RO           61    .text.NMI_Handler   stm32f1xx_it.o
    0x08001aa2   0x08001aa2   0x00000002   PAD
    0x08001aa4   0x08001aa4   0x000001d8   Code   RO          599    .text.NRF24L01_Init  24l01.o
    0x08001c7c   0x08001c7c   0x000000a2   Code   RO          615    .text.NRF24L01_POWER_Mode  24l01.o
    0x08001d1e   0x08001d1e   0x00000002   PAD
    0x08001d20   0x08001d20   0x00000386   Code   RO          605    .text.NRF24L01_TX_Mode  24l01.o
    0x080020a6   0x080020a6   0x00000002   PAD
    0x080020a8   0x080020a8   0x000001ce   Code   RO          613    .text.NRF24L01_TxPacket  24l01.o
    0x08002276   0x08002276   0x00000002   PAD
    0x08002278   0x08002278   0x00000130   Code   RO          621    .text.NRF_IRQHandler  24l01.o
    0x080023a8   0x080023a8   0x00000024   Code   RO          438    .text.NVIC_SystemReset  stm32f1xx_hal_cortex.o
    0x080023cc   0x080023cc   0x00000006   Code   RO          491    .text.PWR_OverloadWfe  stm32f1xx_hal_pwr.o
    0x080023d2   0x080023d2   0x00000002   PAD
    0x080023d4   0x080023d4   0x00000002   Code   RO           75    .text.PendSV_Handler  stm32f1xx_it.o
    0x080023d6   0x080023d6   0x00000002   PAD
    0x080023d8   0x080023d8   0x00000002   Code   RO           71    .text.SVC_Handler   stm32f1xx_it.o
    0x080023da   0x080023da   0x00000002   PAD
    0x080023dc   0x080023dc   0x00000004   Code   RO           77    .text.SysTick_Handler  stm32f1xx_it.o
    0x080023e0   0x080023e0   0x00000050   Code   RO          579    .text.SystemInit    system_stm32f1xx.o
    0x08002430   0x08002430   0x000000ee   Code   RO           69    .text.UsageFault_Handler  stm32f1xx_it.o
    0x0800251e   0x0800251e   0x00000002   PAD
    0x08002520   0x08002520   0x000000ea   Code   RO           11    .text.main          main.o
    0x0800260a   0x0800260a   0x0000000e   Code   RO          704    i.__scatterload_copy  mc_w.l(handlers.o)
    0x08002618   0x08002618   0x00000002   Code   RO          705    i.__scatterload_null  mc_w.l(handlers.o)
    0x0800261a   0x0800261a   0x0000000e   Code   RO          706    i.__scatterload_zeroinit  mc_w.l(handlers.o)
    0x08002628   0x08002628   0x00000010   Data   RO          584    .rodata.AHBPrescTable  system_stm32f1xx.o
    0x08002638   0x08002638   0x00000002   Data   RO          337    .rodata.HAL_RCC_GetSysClockFreq.aPredivFactorTable  stm32f1xx_hal_rcc.o
    0x0800263a   0x0800263a   0x00000010   Data   RO          336    .rodata.cst16       stm32f1xx_hal_rcc.o
    0x0800264a   0x0800264a   0x00000002   PAD
    0x0800264c   0x0800264c   0x00000020   Data   RO          702    Region$$Table       anon$$obj.o


    Execution Region RW_IRAM1 (Exec base: 0x20000000, Load base: 0x08002670, Size: 0x00000950, Max: 0x00005000, ABSOLUTE)

    Exec Addr    Load Addr    Size         Type   Attr      Idx    E Section Name        Object

    0x20000000   0x08002670   0x0000000c   Data   RW           18    .data..L_MergedGlobals  main.o
    0x2000000c   0x0800267c   0x0000000c   Data   RW          296    .data..L_MergedGlobals  stm32f1xx_hal.o
    0x20000018   0x08002688   0x00000004   Data   RW          583    .data.SystemCoreClock  system_stm32f1xx.o
    0x2000001c   0x0800268c   0x00000005   Data   RW          625    .data.TEST_ADDRESS  24l01.o
    0x20000021   0x08002691   0x0000000f   PAD
    0x20000030        -       0x00000004   Zero   RW          626    .bss..L_MergedGlobals  24l01.o
    0x20000034   0x08002691   0x0000000c   PAD
    0x20000040        -       0x0000002e   Zero   RW          658    .bss..L_MergedGlobals  key_scan.o
    0x2000006e        -       0x00000001   Zero   RW          656    .bss.KEY_handler.gflag  key_scan.o
    0x2000006f   0x08002691   0x00000001   PAD
    0x20000070        -       0x00000084   Zero   RW          657    .bss.Send_buf       key_scan.o
    0x200000f4        -       0x00000058   Zero   RW           49    .bss.hspi1          spi.o
    0x2000014c   0x08002691   0x00000004   PAD
    0x20000150        -       0x00000800   Zero   RW            1    STACK               startup_stm32f103xb.o


==============================================================================

Image component sizes


      Code (inc. data)   RO Data    RW Data    ZI Data      Debug   Object Name

      2302          0          0          5          4      19754   24l01.o
       438          0          0          0          0       3352   gpio.o
      1412         12          0          0        179       3911   key_scan.o
       236          0          0         12          0       2406   main.o
        58          0          0          0          0        616   pwr.o
       212          0          0          0         88       4891   spi.o
        36          8        236          0       2048        764   startup_stm32f103xb.o
       176          0          0         12          0       6221   stm32f1xx_hal.o
       242          0          0          0          0       8612   stm32f1xx_hal_cortex.o
       568         20          0          0          0       4911   stm32f1xx_hal_gpio.o
        74          0          0          0          0       1311   stm32f1xx_hal_msp.o
        88          0          0          0          0       5021   stm32f1xx_hal_pwr.o
      1640          0         18          0          0       8514   stm32f1xx_hal_rcc.o
       914          0          0          0          0      23598   stm32f1xx_hal_spi.o
       128          0          0          0          0       3607   stm32f1xx_hal_spi_ex.o
       748          0          0          0          0       3020   stm32f1xx_it.o
        80          0         16          4          0       2300   system_stm32f1xx.o

    ----------------------------------------------------------------------
      9410         40        304         36       2348     102809   Object Totals
         0          0         32          0          0          0   (incl. Generated)
        58          0          2          3         29          0   (incl. Padding)

    ----------------------------------------------------------------------

      Code (inc. data)   RO Data    RW Data    ZI Data      Debug   Library Member Name

         0          0          0          0          0          0   entry.o
         0          0          0          0          0          0   entry10a.o
         0          0          0          0          0          0   entry11a.o
         8          4          0          0          0          0   entry2.o
         4          0          0          0          0          0   entry5.o
         0          0          0          0          0          0   entry7b.o
         0          0          0          0          0          0   entry8b.o
         8          4          0          0          0          0   entry9a.o
        30          0          0          0          0          0   handlers.o
        36          8          0          0          0         68   init.o
        36          0          0          0          0        108   memseta.o

    ----------------------------------------------------------------------
       122         16          0          0          0        176   Library Totals
         0          0          0          0          0          0   (incl. Padding)

    ----------------------------------------------------------------------

      Code (inc. data)   RO Data    RW Data    ZI Data      Debug   Library Name

       122         16          0          0          0        176   mc_w.l

    ----------------------------------------------------------------------
       122         16          0          0          0        176   Library Totals

    ----------------------------------------------------------------------

==============================================================================


      Code (inc. data)   RO Data    RW Data    ZI Data      Debug   

      9532         56        304         36       2348     102897   Grand Totals
      9532         56        304         36       2348     102897   ELF Image Totals
      9532         56        304         36          0          0   ROM Totals

==============================================================================

    Total RO  Size (Code + RO Data)                 9836 (   9.61kB)
    Total RW  Size (RW Data + ZI Data)              2384 (   2.33kB)
    Total ROM Size (Code + RO Data + RW Data)       9872 (   9.64kB)

==============================================================================

