:020000040800F2
:100000005009002001010008A11A000891130008FE
:10001000F91900086D0100083124000800000000F3
:10002000000000000000000000000000D9230008CC
:100030003902000800000000D5230008DD23000875
:100040001B0100081B0100081B0100081B01000820
:100050001B0100081B0100081B0100081B01000810
:10006000750200081B0100081B0100081B010008A5
:100070001B0100081B0100081B0100081B010008F0
:100080001B0100081B0100081B0100081B010008E0
:100090001B0100081B0100081B0100087D0200086D
:1000A0001B0100081B0100081B0100081B010008C0
:1000B0001B0100081B0100081B0100081B010008B0
:1000C0001B0100081B0100081B0100081B010008A0
:1000D0001B0100081B0100081B0100081B01000890
:1000E0003D0200081B0100081B010008DFF80CD0CE
:1000F00000F02AF800480047212500085009002098
:100100000648804706480047FEE7FEE7FEE7FEE7B1
:10011000FEE7FEE7FEE7FEE7FEE7FEE7E123000875
:10012000ED000008D2B201E000F8012B491EFBD21D
:1001300070470022F6E710B513460A4604461946F2
:10014000FFF7F0FF204610BD064C074D06E0E068C3
:1001500040F0010394E8070098471034AC42F6D30E
:10016000FFF7C8FF4C2600086C26000810B54FF4B6
:10017000C87000F057F940F2A014C4F2212420689E
:10018000B0FA80F0400920604FF4C87000F04AF9DE
:100190002068B0FA80F0400920604FF4C87000F089
:1001A00041F92068B0FA80F0400920604FF4C8702F
:1001B00000F038F92068B0FA80F0400920604FF470
:1001C000C87000F02FF92068B0FA80F04009206074
:1001D0004FF4C87000F026F92068B0FA80F04009AA
:1001E00020604FF4C87000F01DF92068B0FA80F06C
:1001F000400920604FF4C87000F014F92068B0FA8C
:1002000080F0400920604FF4C87000F00BF92068BE
:10021000B0FA80F0400920604FF4C87000F002F995
:100220002068B0FA80F040092060012080F3138834
:1002300000F0E8FAFEE700007047000080B54FF4D8
:10024000806000F005F94FF4006000F001F94FF410
:10025000805000F0FDF84FF4005000F0F9F84FF432
:10026000804000F0F5F84FF40040BDE8804000F019
:10027000EFB80000042000F0EBB8000080B580204B
:1002800000F0E6F84FF4807000F0E2F84FF40070F0
:10029000BDE8804000F0DCB880B501F0F3F840F232
:1002A000A0100021C4F221200160002001F0E6FC32
:1002B0000120012100F0A8FA01F0ACF800F0E6F905
:1002C00042F21071084440F20001C2F200010860DD
:1002D00080BD0000704700002DE9F04F81B040F66E
:1002E000084140F2801248F2801340F240094FF07A
:1002F00002084FF4406A40F2FE3B40F6FF7E0024C5
:100300000027C4F20101C4F22122C4F22123C2F267
:10031000000900BFE5B20A2D40D8DFE805F0060964
:100320000E13181D22272C3136000020106035E0F6
:10033000012010600020506030E00120506000205B
:1003400090602BE0012090600020D06026E001202A
:10035000D0600020106121E0012010610020506178
:100360001CE0012050610020906117E001209061A5
:100370000020D06112E00120D061002018600DE063
:10038000012018600020586008E040F2BC160120EF
:1003900058600020C4F22226306000BFADF8028011
:1003A000BDF80260751E002EADF8025014D0BDF8E5
:1003B0000200461E0028ADF802600DD0BDF8020014
:1003C000461E0028ADF8026006D0BDF80200461EA9
:1003D0000028ADF80260E3D153F8786C0D68D1F8CD
:1003E000000409EB440C01340BEA95156FF31F363A
:1003F0000AEAD0002E43304380EA0E05BCF818000C
:10040000A8421CBFACF8185001370B2C7FF482AF08
:1004100040F2BC110120C4F222210860F8B201B000
:10042000BDE8F08FB0B5044600F030F9054640F263
:100430000C00611CC2F20000007818BF044400BF29
:1004400000F024F9401BA042FAD3B0BD7047000071
:1004500040F21441C4F201010A68024214BF08606C
:100460007047FFF7F3BF00002DE9F04F82B041F273
:100470000042042340F2004C4FF6FF7B4FF0010E88
:100480000F274FF0000A4FF00009C4F20102C4F236
:10049000010CC1F2100B904208BF0323009300230C
:1004A0000A680EFA0AF812EA080F0ED10AF1010AD8
:1004B0000433BAF1100F04BF02B0BDE8F08F0A6830
:1004C0000EFA0AF812EA080FF0D04C685C4515DD08
:1004D0004FF6FF72C1F22102944221DD0022C1F2E7
:1004E000220294422CD00022C1F23102944227D041
:1004F0000022C1F23202944222D03DE0122C3BD8BD
:10050000DFE804F01E0A2C303A3A3A3A3A3A3A3ADC
:100510003A3A3A3A3A333700D1F80C902CE000BF1F
:100520000022C1F2110294420AD00022C1F212024A
:10053000944205D00022C1F2210294421CD100BF96
:100540008A6842B1012A4FF0080914BFC0F814802C
:10055000C0F8108010E04FF004090DE0CA6802F105
:10056000080909E04FF0000906E0CA6802F1040931
:1005700002E0CA6802F10C09BAF1080F1A460546F2
:1005800028BF203A28BF04352E6807FA02F409FA7A
:1005900002F226EA040422432A60CA79D2067FF5D1
:1005A00085AF41F2180203F00C06C4F202021446B1
:1005B000126842F001022260226802F001020192F8
:1005C00007FA06F2ACF57E77019C4FEA9A0457F8D9
:1005D0002450954340F60002C4F2010290420ED02E
:1005E00040F60042C4F2010290420AD041F20002F9
:1005F000C4F201029042009A08BF022202E00022E7
:1006000000E00122B2402A4347F824204FF6FF774A
:10061000D1F804B0DCF80020C1F210071BF4803FD1
:100620000CBF22EA080242EA0802CCF800205FEA86
:100630008B32DCF8042054BF22EA080242EA0802A6
:10064000CCF804205FEACB22DCF8082054BF22EA71
:10065000080242EA0802CCF808205FEA8B22BB4677
:100660004FF00F0740F20C42C4F201021446126828
:1006700054BF22EA080242EA0802226016E700009C
:10068000002A08BF090401617047000040F20C0015
:10069000C2F200008068704740F20C00C2F2000015
:1006A00001788268114481607047000080B542F291
:1006B0000000C4F20200016841F010010160032053
:1006C00000F090F8002000F005F800F025F8002078
:1006D00080BD000070B540F20C0604464FF47A71FC
:1006E000C2F200063078B1FBF0F040F21801C2F21D
:1006F00000010968B1FBF0F000F034FE01250F2C79
:1007000008D838B94FF0FF3021460022002500F00C
:1007100037F87460284670BD80B582B041F2180089
:10072000C4F20200016841F001010160016801F0BA
:10073000010101910199416841F080514160406897
:1007400000F0805000900098052000F04BF8042045
:100750000222C4F20100016862F31A61016002B072
:1007600080BD000000F01F010122400902FA01F1E2
:100770004EF20012CEF2000242F820107047000044
:1007800080B500F160434EF60C5E002803F5644C22
:1007900000F00F03CEF2000EA3F104037344B8BFC0
:1007A00003F10C0CDEF80000C0F3022000F1040E8F
:1007B000C31E80F00700BEF1070F4FF0010E38BFD7
:1007C0000023042828BF04200EFA00F00138084056
:1007D0000EFA03F10F3198401140084300018CF8E4
:1007E000000080BD4EF60C514FF6FF03CEF2000123
:1007F0000A681A4060F30A2242F0806040F0FD70FF
:100800000860704701F0D0FD10B547F200024EF6C7
:1008100010540129C4F20002CEF20004136823F040
:1008200002031360136823F0010340EA0300106021
:10083000206840F00400206005D130BF206820F01F
:100840000400206010BD40BF01F0C0FD01F0BEFDFE
:10085000206820F00400206010BD00002DE9F04168
:1008600041F2040704460D46C4F20207D7F8FC0F14
:1008700000F0070088420CD2D7F8FC0F20F00700E8
:100880002843C7F8FC0FD7F8FC0F00F00700A84278
:100890005ED1206810F0020F11D0410742BF3968C5
:1008A00041F4E0613960010742BF396841F46051A9
:1008B00039603968A26821F0F00111433960C0073E
:1008C0003ED1D7F8FC0F00F00700A8420CD9D7F8AA
:1008D000FC0F20F007002843C7F8FC0FD7F8FC0FE7
:1008E00000F00700A84233D1206810F0040F05D0B3
:1008F0003968E26821F4E06111433960000706D5E8
:100900003868216920F4605040EAC10038603968D5
:1009100041F20020C0F27A0001F00C02082A2DD129
:1009200042F23A63C1F3834211F4803FC0F6000300
:100930009A5C18D140F60010C0F23D0050431DE013
:100940006068012808D157F8041C11F4003F2CD12D
:100950000124E0B2BDE8F08157F8041C022822D13E
:100960008901F5D521E03968504342F23862C0F67A
:100970000002C1F34041515CB0FBF1F0396842F232
:1009800028620024C0F60002C1F30311515CC84084
:1009900040F21801C2F2000108600020FFF79AFE41
:1009A000E0B2BDE8F0818907D2D5396821F00301B2
:1009B00008433860FFF76AFE06466068022814D0D4
:1009C000012826D1386800F00C0004283FF479AFE4
:1009D00041F28838FFF75AFE801B40452AD8386814
:1009E00000F00C000428F5D16BE7386800F00C002B
:1009F00008283FF466AF41F2883800BFFFF746FE93
:100A0000801B404516D8386800F00C000828F5D146
:100A100057E7386810F00C0F3FF453AF41F28838B5
:100A2000FFF734FE801B404504D8386810F00C0FE7
:100A3000F6D146E70324E0B2BDE8F0814C20012165
:100A4000C4F24220016070472DE9F04383B00446B0
:100A5000007841F2000941F22007C4F20209C4F211
:100A60000207C0076BD057F81C0C00F00C000428DC
:100A70000CD1D9F8000010F4003F60D06068002865
:100A80005DD10120C0B203B0BDE8F08357F81C0C63
:100A900000F00C00082804D157F81C0C10F4803F1B
:100AA000E7D1606880B1B0F5803F08D0D9F8001078
:100AB000B0F5A02F27D141F48020C9F80000D9F863
:100AC000000040F4803026E0D9F8000020F48030A7
:100AD000C9F80000D9F8000020F48020C9F800000F
:100AE000FFF7D4FD054600BFD9F8000010F4003F21
:100AF00025D0FFF7CBFD401B6428F5D90320C0B2F9
:100B000003B0BDE8F08321F48030C9F80000D9F8C3
:100B1000000020F48020C9F80000FFF7B7FD05466B
:100B2000D9F8000010F4003F09D1FFF7AFFD401BDA
:100B30006428F5D90320C0B203B0BDE8F083207863
:100B4000800741D557F81C0C10F00C0F0AD057F84D
:100B50001C0C00F00C00082811D157F81C0C10F4E4
:100B6000803F0CD1D9F8000010F0020F23D020698B
:100B7000012820D00120C0B203B0BDE8F083216974
:100B80000020C4F24220002900F0DB800121016036
:100B9000FFF77CFD054600BFD9F8000010F0020FFA
:100BA00009D1FFF773FD401B0228F5D90320C0B21D
:100BB00003B0BDE8F083D9F80000616920F0F800C7
:100BC00040EAC100C9F800002078000754D5A169A7
:100BD0000020C4F24220D1B30121C0F88014FFF7F5
:100BE00055FD0546786810F0020F09D1FFF74EFD5C
:100BF000401B0228F6D90320C0B203B0BDE8F08341
:100C000040F2180044F6D351C2F20000C1F2620172
:100C10000068A0FB0101480A029000BF00BF0298D3
:100C2000411E0028029127D000BF0298411E0028D3
:100C3000029121D000BF0298411E002802911BD0D2
:100C400000BF0298411E00280291E7D114E0002164
:100C5000C0F88014FFF71AFD054600BF786810F051
:100C6000020F09D0FFF712FD401B0228F6D903201E
:100C7000C0B203B0BDE8F0832078400740F198800F
:100C800057F8040C10F0805F0ED157F8040C4FF0A9
:100C9000010840F0805047F8040C57F8040C00F0AD
:100CA00080500190019801E04FF0000846F20006E4
:100CB000CFF6FE7659F8060010F4807F17D159F868
:100CC000060040F4807049F80600FFF7DFFC054697
:100CD00059F8060010F4807F09D1FFF7D7FC401BBC
:100CE0006428F5D90320C0B203B0BDE8F083E06802
:100CF00058B1012805D03968052837D141F00400E2
:100D00003860386840F0010036E0386820F00100B3
:100D10003860386820F004003860FFF7B7FC0546FB
:100D2000386810F0020F3AD041F28836FFF7AEFC77
:100D3000401BB04200F2B280386810F0020FF5D1CB
:100D40002DE000210160FFF7A1FC0546D9F8000065
:100D500010F0020F3FF438AFFFF798FC401B022859
:100D6000F4D90320C0B203B0BDE8F08321F0010044
:100D70003860386820F004003860FFF787FC0546CB
:100D8000386810F0020F0AD141F28836FFF77EFC76
:100D9000401BB04278D8386810F0020FF6D0B8F196
:100DA000000F1EBF57F8040C20F0805047F8040CC9
:100DB000E66956B157F81C0C00F00C00082809D160
:100DC0000120C0B203B0BDE8F0830020C0B203B080
:100DD000BDE8F08340F200080020C4F24228C8F8C1
:100DE0006000FFF753FC0546D9F80000022E00F022
:100DF000007037D150B100BFFFF748FC401B0228FC
:100E000051D8D9F8000010F0007FF5D1206AB0F574
:100E1000803F07D157F81C1CA26821F40031114310
:100E200047F81C1C57F81C1C626A104321F474110B
:100E3000084347F81C0C0120C8F86000FFF726FCA7
:100E40000446D9F8000010F0007F22D1FFF71EFC05
:100E5000001B022831D8D9F80010002011F0007FC3
:100E6000F4D0B3E720B90020C0B203B0BDE8F083EE
:100E7000FFF70CFC401B03281AD2D9F80010002001
:100E800011F0007FF4D1A1E70320C0B203B0BDE8A8
:100E9000F0830020C0B203B0BDE8F0830320C0B2ED
:100EA00003B0BDE8F0830320C0B203B0BDE8F08317
:100EB0000320C0B203B0BDE8F0830320C0B203B08A
:100EC000BDE8F08370B50546C8B300264FF0000CAE
:100ED000AE6295F8510020B9284600F033F8D5F8F5
:100EE00028C0022185F8511029680A6822F04002C2
:100EF0000A60D5E90123D5E903041A4310436A695E
:100F000020431043AA6902F400731843EB691843A5
:100F10002B6A184340EA0C000860042000EA1240E3
:100F20006A6A10434860E86A0861C86920F4006092
:100F3000C86101206E6585F85100304670BD0126FC
:100F4000304670BD70B586B0002640F60044CDE94D
:100F50000466CDE90266C4F20104006804F510518C
:100F6000884201D006B070BD41F2180002ADC4F253
:100F70000200016841F480510160016801F4805170
:100F800001910199016841F008010160294600685A
:100F900000F00800019001980220039028200290A0
:100FA000032005902046FFF75FFA1020039629469C
:100FB000029020460496FFF757FA0420C4F201007D
:100FC000016841F0E06141F00101016006B070BDCF
:100FD0002DE9F04782B0064690F850001D46914634
:100FE0000F46012804D10221C8B202B0BDE8F08743
:100FF000012086F85000FFF749FB804696F8510023
:10100000012866D1002F4FF0010118BFB9F1000F80
:101010006CD0002D6AD096F851003446DDF828A037
:10102000012804BF052086F8510000207065F5876F
:10103000C6F83890B5873763B586C6E9100024F83E
:10104000365F3068016811F0400F02BF016841F05F
:1010500040010160F2687168B2F5006F50D111B1C2
:101060002188012905D137F8021BC1602188013987
:1010700021801AF1010100F081800125208818B932
:10108000F08F002800F0BA8065B1208858B1306830
:10109000816811F0020F06D037F8021BC16020886A
:1010A000013820800025F08F58B13068816811F038
:1010B000010F06D0C068012529F8020BF08F013816
:1010C000F087FFF7E3FAA0EB08005045D6D30321E1
:1010D0000CE07168B1F5827F07D10221042805D1A7
:1010E000B06800283FF48EAF00E00221002086F8AF
:1010F0005000012086F85100C8B202B0BDE8F08768
:1011000011B12188012905D117F8011B017320882D
:10111000013820801AF1010052D00125208810B931
:10112000F08F00286AD065B1208858B13068816896
:1011300011F0020F06D017F8011B01732088013847
:1011400020800025F08F58B13068816811F0010FC0
:1011500006D0C068012509F8010BF08F0138F0872F
:10116000FFF794FAA0EB08005045D7D30321BDE761
:10117000C16829F8021BF18F0139F187012100BFF5
:1011800022880AB9F28FCAB359B1228852B1826853
:1011900012F0020F06D037F8021BC1602188013916
:1011A00021800021F28F002AEAD0826812F0010F1C
:1011B000E6D0DDE7C86809F8010BF08F0138F08749
:1011C000012000BF218809B9F18FB9B160B1218830
:1011D00059B131688A6812F0020F06D017F8010B76
:1011E00008732088013820800020F18F0029E9D081
:1011F00031688A6812F0010FE4D0DBE730680146FD
:1012000051F8082F12F0020F23D1BAF1000F53D07A
:101210001AF1010210D10A6812F0020F19D10A68FE
:1012200012F0020F15D10A6812F0020F11D10A68EC
:1012300012F0020FEFD00CE0FFF728FAA0EB080144
:101240003068514538D2816811F0020FF4D000F1B6
:101250000801826812F0800F0BD1B2680021002AC9
:101260007FF444AF0191C2680192806801900198B7
:101270003CE7BAF1000F47D01AF1010210D10A6819
:1012800012F0800FE9D00A6812F0800FE5D00A68EA
:1012900012F0800FE1D00A6812F0800FEFD1DCE786
:1012A000FFF7F4F9A0EB0801306851452CD28168B2
:1012B00011F0800FF4D1D0E7416821F0E0014160E6
:1012C0007168B1F5827F0AD1B168B1F5004F02D0E3
:1012D000B1F5806F03D1016821F040010160B16A6E
:1012E000B1F5005F08D101684DF6FF721140016051
:1012F000016841F4005101600020032186F850008C
:10130000012086F85100F1E6416821F0E0014160DA
:101310007168B1F5827F0AD1B168B1F5004F02D092
:10132000B1F5806F03D1016821F040010160B16A1D
:10133000B1F5005F08D101684DF6FF721140016000
:10134000016841F400510160012186F85110706D6F
:1013500040F020007065002086F850002020706565
:10136000C4E60000411E0020B0EB116F1CBF01203D
:1013700070474EF21002F023CEF2000251604EF69A
:101380002351CEF200010B7007219060116070476D
:1013900010B54FF4C870FFF745F840F2A014C4F23E
:1013A00021242068B0FA80F0400920604FF4C87012
:1013B000FFF738F82068B0FA80F0400920604FF459
:1013C000C870FFF72FF82068B0FA80F0400920605D
:1013D0004FF4C870FFF726F82068B0FA80F0400993
:1013E00020604FF4C870FFF71DF82068B0FA80F055
:1013F000400920604FF4C870FFF714F82068B0FA75
:1014000080F040092060012080F31388FFF7FAF98B
:10141000FEE70000F0B585B040F60044002701ADBE
:101420004FF684700126C4F2010402970190294608
:1014300003962046FFF718F84FF4C040029729465C
:10144000019004F580600396FFF70EF840F28010DB
:101450004FF40041C4F22120066046608660C660F9
:10146000066146618661C661465048F28410C4F246
:101470002120066040F2BC10C4F22220066005B0B4
:10148000F0BD0000F0B585B040F2801000214FF4AF
:101490000042002640F6004401AD0127C4F221209D
:1014A000C1F23106C4F20104016041608160C16093
:1014B000016141618161C161815048F28410C4F2CF
:1014C0002120016040F2BC10C4F2222001604FF6DE
:1014D000847002962946019020460397FEF7C4FFC8
:1014E0004FF4C04002962946019004F580600397AE
:1014F000FEF7BAFF05B0F0BD40F27000C2F2000086
:1015000000F0D2BD2DE9F04F9DB0FEF7E5FE30B101
:1015100040F26E000121C2F20000017068E140F269
:101520006E00C2F200000178012940F061810024C0
:10153000047040F24000C2F20000017829B140F28C
:101540007000C2F20000FEF7F4FD40F2400040F2ED
:10155000700A4FF001094FF0010C4FF00008C2F281
:101560000000C2F2000A04700146808D0A90488D86
:101570000990088D0890C88C0790888C0690488C3C
:101580000590088C0490C88B0390888B0290488B40
:101590000190088B009000BF40F240000026CDF87B
:1015A00034C0C2F2000000EB480EBEF80250BEF894
:1015B0001830CDE90B3E00BF09FA06F71F4213D0E1
:1015C00007EA0500000417D040F24001601CE2B2B7
:1015D000C2F20001044608700CEB06010AF8021082
:1015E00001360C2EE8D1DFE0BD43AEF802500136E3
:1015F0000C2EE1D1D8E000BFB8F10200CDE91B54B8
:1016000018BF01201A900298384018BF0120199085
:10161000B8F1010018BF012018900198384018BF98
:10162000012017900098384018BF0120B8F1000F32
:101630001690404618BF01201490B8F1030018BF5F
:10164000012015900398384018BF01201390B8F17D
:10165000040018BF012012900498384018BF0120E0
:101660001190B8F1050018BF01201090059838407E
:1016700018BF01200F90B8F1060018BF01200E908E
:10168000069817EA000418BF0124B8F1070C18BF28
:101690004FF0010C079817EA000118BF0121B8F1BB
:1016A000080918BF4FF00109089817EA000E18BF83
:1016B0004FF0010EB8F1090518BF0125099817EA86
:1016C000000A18BF4FF0010AB8F10A0B18BF4FF01B
:1016D000010B0A9817EA000218BF01229F4243D06B
:1016E000DDE9193001EA0C0118401A90DDE91730E4
:1016F000184019901698149B1840199B18431A9B70
:1017000018431A90159B139803401A9818431A907F
:10171000DDE9110303401A9818431A90DDE90F031D
:1017200003401A9818430E9B2340184308430EEABF
:10173000090108430AEA0501084302EA0B010843CC
:10174000C00711D040F270031C9CDDF834C01B9D13
:101750004FF00109C2F200039A46DDE90B3E013663
:101760000C2E7FF429AF1FE01B9D1C9A40F2400114
:10177000DDF830E0DDF834C040F270034FF00109CD
:10178000C2F20001C2F20003501C3D43D2B29A469D
:10179000AEF8025008700CEB0601044699540B9BFE
:1017A00001360C2E7FF408AF08F101080CF10C0C87
:1017B000B8F10B0F7FF4F0AEFEF768FF42F2107144
:1017C000084440F20001C2F200010860FEF75EFF2B
:1017D00040F2040100F57A70C2F20001086040F2A4
:1017E0007000C2F200001DB0BDE8F04F00F05CBC1C
:1017F0001DB0BDE8F08F00002DE9F04F85B041F23B
:1018000018004FF0000840F6000401224FF00109D3
:10181000CDF81080C4F20200C4F20104016804F59E
:10182000006741F010010160016801F010010091B2
:101830000099016841F020010160016801F0200178
:1018400000910099016841F004010160016801F014
:10185000040100910099016841F0080101604FF412
:101860000041006800F00800009000983846FEF73C
:1018700007FF2046FF210122FEF702FF04F58065E5
:10188000032101224FF0030B2846FEF7F9FE204604
:101890004FF401410022FEF7F3FE284640210022CA
:1018A000FEF7EEFE01AE4FF4C040CDF80880019087
:1018B00038463146CDF80C90FEF7D6FD4FF0110AB0
:1018C0004FF400403146CDF808A001903846CDE9EC
:1018D000038BFEF7C9FD04F540603146CDE9019860
:1018E000CDF80C90FEF7C0FDFF20CDF808A03146E2
:1018F00001902046CDE9038BFEF7B6FD2846314620
:10190000CDE901BACDE9038BFEF7AEFD4FF6847049
:10191000CDF80880314601902846CDF80C90FEF7AE
:10192000A3FD4FF48070CDF808903146019002205D
:10193000CDF80C8004902046FEF796FD4FF4004051
:10194000CDF80890314601902046CDE9038BFEF793
:101950008BFD4020CDF80890314601902846CDE916
:10196000038BFEF781FD04200322C4F2010001680D
:1019700041F0E06141F40041016008200321FEF7DD
:10198000FFFE0820FEF7EEFE172003210322FEF7DC
:10199000F7FE1720FEF7E6FE282003210322FEF7BC
:1019A000EFFE2820FEF7DEFE05B0BDE8F08F000058
:1019B00080B540F2F40043F200024FF4827100233C
:1019C0004FF4007CC2F20000C4F20102C0E9002121
:1019D0000A21C0E90233C0E90433C0E906C3C0E903
:1019E0000833C0E90A31FFF76DFA002814BFBDE8DB
:1019F000804080BDFEF76EBC10B54FF4C870FEF796
:101A000011FD40F2A014C4F221242068B0FA80F045
:101A1000400920604FF4C870FEF704FD2068B0FA5A
:101A200080F0400920604FF4C870FEF7FBFC20688E
:101A3000B0FA80F0400920604FF4C870FEF7F2FC65
:101A40002068B0FA80F0400920604FF4C870FEF7BB
:101A5000E9FC2068B0FA80F0400920604FF4C870BB
:101A6000FEF7E0FC2068B0FA80F0400920604FF4F7
:101A7000C870FEF7D7FC2068B0FA80F040092060FB
:101A80004FF4C870FEF7CEFC2068B0FA80F0400931
:101A90002060012080F31388FEF7B4FEFEE700000B
:101AA000704700002DE9F04F89B048F2981040F2DD
:101AB000F40840F2BC14002701254FF00A0B0DF189
:101AC0001B010DF11A020123C4F22120C2F2000809
:101AD000C4F221240760404625608DF81B70CDF8C4
:101AE00000B0FFF775FA302027600DF11D0107AA3D
:101AF0000123CDF800B08DF81D004046FFF768FACD
:101B000040F21C010DF11E0A0DF11F090123CDF851
:101B100000B0C2F20001524608780E4649468DF8E0
:101B20001F004046FFF754FA707849465246012399
:101B3000CDF800B08DF81F004046FFF749FAB078A5
:101B4000494652460123CDF800B08DF81F004046AB
:101B5000FFF73EFAF078494652460123CDF800B02F
:101B60008DF81F004046FFF733FA30794946524658
:101B70000123CDF800B08DF81F004046FFF728FA8A
:101B80001020256027600DF1210108AA0123CDF85E
:101B900000B08DF821004046FFF71AFA0DF1230935
:101BA0000DF122064FF0FF0A40460123CDF800B0A8
:101BB000494632468DF823A0FFF70AFA9DF8220025
:101BC0004946324601238DF823A0CDF800B0059098
:101BD0004046FFF7FDF99DF82200494632460123B1
:101BE0008DF823A0CDF800B004904046FFF7F0F93F
:101BF0009DF822004946324601238DF823A0CDF8F6
:101C000000B003904046FFF7E3F99DF822004946F3
:101C1000324601238DF823A0CDF800B00290404653
:101C2000FFF7D6F940F21C029DF822002560C2F2AF
:101C30000002059B11788B4214D15178049B8B4292
:101C400010D19178039B8B420CD1D178029B8B42AF
:101C500008D11179884205D100F062F809B0BDE8D9
:101C6000F08F00BF4FF4FA70FEF7DCFBC82044F899
:101C70001C5CFEF7D7FB44F81C7CF3E770B584B01E
:101C800040F2BC150028C4F2212521D040F2F40412
:101C900000200A260DF1090102AA01232860202054
:101CA000C2F2000400968DF809002046FFF790F973
:101CB0000E200DF10B010DF10A02012300968DF8A3
:101CC0000B002046FFF784F90120286004B070BDA6
:101CD00048F2981040F2F40400210A2603AA0123D6
:101CE000C4F22120C2F200040160202029600DF11D
:101CF0000D0100968DF80D002046FFF769F90C20C4
:101D00000DF10F010DF10E02012300968DF80F0069
:101D10002046FFF75DF90120286004B070BD000087
:101D20002DE9F04F83B040F2F40440F2BC194FF0BB
:101D3000000AFF250A270DF10B010DF10A0201230C
:101D40004FF00108C2F20004C4F221292046C9F86C
:101D500000A08DF80B500097FFF73AF927209DF867
:101D60000A60C9F80080C9F800A00DF10B010DF15F
:101D70000A02012300978DF80B002046FFF728F98F
:101D80000DF10B010DF10A02204601238DF80B60C5
:101D90000097FFF71DF9E120C9F80080C9F800A0FD
:101DA0000DF10B010DF10A02012300978DF80B00D4
:101DB0002046FFF70DF90DF10B010DF10A02204647
:101DC00001238DF80B500097FFF702F93020C9F876
:101DD0000080C9F800A00DF10B010DF10A020123EA
:101DE00000978DF80B002046FFF7F2F889200DF1DF
:101DF0000B050DF10A06012300978DF80B00204614
:101E000029463246FFF7E4F85A2029463246012394
:101E100000978DF80B002046FFF7DAF831202946AD
:101E20003246012300978DF80B002046FFF7D0F8CB
:101E3000322029463246012300978DF80B002046B8
:101E4000FFF7C6F84FF0330B2046294632460123F0
:101E500000978DF80BB0FFF7BBF82A20C9F8008077
:101E6000C9F800A00DF10B010DF10A020123009742
:101E70008DF80B002046FFF7ABF889200DF10B051C
:101E80000DF10A06012300978DF80B002046294624
:101E90003246FFF79DF85A20294632460123009723
:101EA0008DF80B002046FFF793F831202946324683
:101EB000012300978DF80B002046FFF789F83220A8
:101EC00029463246012300978DF80B002046FFF784
:101ED0007FF820462946324601238DF80BB0009743
:101EE000FFF776F82120C9F80080C9F800A00DF1AD
:101EF0000B010DF10A02012300978DF80B0020461B
:101F0000FFF766F80DF10B010DF10A0220460123DF
:101F10008DF80B800097FFF75BF82220C9F800804E
:101F2000C9F800A00DF10B010DF10A020123009781
:101F30008DF80B002046FFF74BF80DF10B010DF16A
:101F40000A02204601238DF80B800097FFF740F826
:101F50002320C9F80080C9F800A00DF10B010DF194
:101F60000A02012300978DF80B002046FFF730F896
:101F70000DF10B010DF10A02204601238DF80B80B3
:101F80000097FFF725F82420C9F80080C9F800A0C1
:101F90000DF10B010DF10A02012300978DF80B00E2
:101FA0002046FFF715F83F200DF10B010DF10A0255
:101FB000012300978DF80B002046FFF709F8252034
:101FC000C9F80080C9F800A00DF10B010DF10A025B
:101FD000012300978DF80B002046FEF7F9FF6D20D6
:101FE0000DF10B010DF10A02012300978DF80B0092
:101FF0002046FEF7EDFF2620C9F80080C9F800A0B2
:102000000DF10B010DF10A02012300978DF80B0071
:102010002046FEF7DDFF27200DF10B010DF10A022E
:10202000012300978DF80B002046FEF7D1FF3120E9
:10203000C9F80080C9F800A00DF10B010DF10A02EA
:10204000012300978DF80B002046FEF7C1FF0C25F9
:102050000DF10B010DF10A022046012300978DF8C6
:102060000B50FEF7B5FF2020C9F80080C9F800A08A
:102070000DF10B010DF10A02012300978DF80B0001
:102080002046FEF7A5FF0DF10B010DF10A022046D7
:1020900001238DF80B500097FEF79AFFC9F80080D6
:1020A00003B0BDE8F08F00002DE9F04F83B0044687
:1020B00048F2981040F2BC1940F2F40500264FF0A7
:1020C0000A0B0DF1050101AA01234FF0010AC4F228
:1020D0002120C4F22129C2F2000506602020C9F89F
:1020E0000060CDF800B08DF805002846FEF770FFBF
:1020F0000E200DF107010DF106020123CDF800B00D
:102100008DF807002846FEF763FF40F23008C9F853
:1021100000A040F2F4050DF1090102AA0123C2F268
:102120000008C2F20005B8F8020000281EBF40F205
:102130000400C2F200000660C9F80060CDF800B0EB
:10214000A0208DF809002846FEF742FF20780DF107
:102150000B060DF10A070123CDF800B031463A46CF
:102160008DF80B002846FEF733FF607831463A467B
:102170000123CDF800B08DF80B002846FEF728FFAC
:10218000A07831463A460123CDF800B08DF80B0017
:102190002846FEF71DFFE07831463A460123CDF888
:1021A00000B08DF80B002846FEF712FF207931466B
:1021B0003A460123CDF800B08DF80B002846FEF713
:1021C00007FF607931463A460123CDF800B08DF81B
:1021D0000B002846FEF7FCFEA07931463A46012363
:1021E000CDF800B08DF80B002846FEF7F1FEE0793F
:1021F00031463A460123CDF800B08DF80B00284651
:10220000FEF7E6FE207A31463A460123CDF800B0CB
:102210008DF80B002846FEF7DBFE607A31463A4621
:102220000123CDF800B08DF80B002846FEF7D0FE54
:10223000A07A31463A460123CDF800B08DF80B0064
:102240002846FEF7C5FEE07A31463A460123CDF82E
:1022500000B08DF80B002846FEF7BAFE48F2981041
:10226000C9F800A0C4F22120C0F800A0A8F802A07C
:1022700003B0BDE8F08F00002DE9F04786B040F2D2
:10228000F40440F2BC1500264FF0FF084FF00A0A94
:102290000DF10B010DF10A0201234FF00109C2F209
:1022A0000004C4F2212520462E608DF80B80CDF865
:1022B00000A0FEF78DFE27209DF80A70C5F800905B
:1022C0002E600DF10D0103AA0123CDF800A08DF8B9
:1022D0000D002046FEF77CFE0DF10F010DF10E0200
:1022E000204601238DF80F70CDF800A0FEF770FE98
:1022F00048F29810C5F800900DF1110104AA0123CD
:10230000C4F221200660066020202E60CDF800A0D7
:102310008DF811002046FEF75BFE0C200DF1130135
:102320000DF112020123CDF800A08DF81300204614
:10233000FEF74EFE17F0100FC5F800900CD1B8064E
:1023400007D540F230000021C2F200004180012197
:10235000017006B0BDE8F08740F2300040F2F404AE
:102360000DF1150105AA0123C2F20000C2F200041A
:1023700046800670E1202E60CDF800A08DF8150093
:102380002046FEF725FE0DF117010DF1160220463D
:1023900001238DF81780CDF800A0FEF719FEC5F8CF
:1023A000009006B0BDE8F0874EF60C50BFF34F8F9B
:1023B0000422CEF20000C0F2FA52016801F4E0619A
:1023C00011430160BFF34F8F00BFFDE720BF00BF87
:1023D000704700007047000070470000FEF75CB9CE
:1023E00041F200000022C4F20200CFF6FF020168B1
:1023F00041F001010160416811404FF6FF724160F8
:10240000CFF6F662016811400160016821F4802175
:102410000160416821F4FE0141604FF41F018160B9
:102420004EF608504FF00061CEF200000160704798
:1024300010B54FF4C870FDF7F5FF40F2A014C4F2D8
:1024400021242068B0FA80F0400920604FF4C87061
:10245000FDF7E8FF2068B0FA80F0400920604FF4F3
:10246000C870FDF7DFFF2068B0FA80F040092060F7
:102470004FF4C870FDF7D6FF2068B0FA80F040092D
:1024800020604FF4C870FDF7CDFF2068B0FA80F0EF
:10249000400920604FF4C870FDF7C4FF2068B0FA0F
:1024A00080F0400920604FF4C870FDF7BBFF206842
:1024B000B0FA80F0400920604FF4C870FDF7B2FF19
:1024C0002068B0FA80F0400920604FF4C870FDF732
:1024D000A9FF2068B0FA80F0400920604FF4C8706E
:1024E000FDF7A0FF2068B0FA80F0400920604FF4AB
:1024F000C870FDF797FF2068B0FA80F040092060AF
:102500004FF4C870FDF78EFF2068B0FA80F04009E4
:102510002060012080F31388FEF774F9FEE70000C5
:10252000F0B58FB0FEF7C2F805AC2421201DFDF7F1
:1025300000FE0125022000260995059010200A9032
:1025400020460C96FEF780FA0F200021CDE9000608
:10255000A02002904FF4E060CDE903006846FEF74A
:102560007DF9FEF76BFAFFF747F9FFF721FA40F222
:10257000A0144FF49670C4F221242560FDF752FF99
:1025800064202660FDF74EFFFFF78CFA40F200054D
:1025900040F2300648F20017C2F20005C2F200060F
:1025A000C4F2222702E000BFFFF766FEFEF7AAFF93
:1025B000FEF76CF82968884204D9FDF76DFE307883
:1025C00070B90FE0FEF762F86968884206D9FEF735
:1025D0005DF800F57A706860FEF78EFF307808B11C
:1025E00000200DE0FEF752F8A968884209D9FEF7ED
:1025F0004DF800F59670A8602068B0FA80F04009A8
:10260000206038680028D1D1CEE702E008C8121F48
:1026100008C1002AFAD170477047002001E001C1CB
:10262000121F002AFBD170470000000000000000CC
:102630000102030406070809010202030405060754
:1026400008090A0B0C0D0E0F101000007026000870
:1026500000000020300000000A260008A026000824
:1026600030000020200900001A26000800000000A9
:1026700010270000E8030000000000000100000037
:10268000100000000000000000A24A048C5A3532FD
:102690003100000000000000000000000000000009
:04000005080000ED02
:00000001FF
